{
	"contract_TalentKeyNFT.sol": {
		"TalentKey": {
			"abi": [
				{
					"inputs": [],
					"stateMutability": "nonpayable",
					"type": "constructor"
				},
				{
					"inputs": [],
					"name": "ERC721EnumerableForbiddenBatchMint",
					"type": "error"
				},
				{
					"inputs": [
						{
							"internalType": "address",
							"name": "sender",
							"type": "address"
						},
						{
							"internalType": "uint256",
							"name": "tokenId",
							"type": "uint256"
						},
						{
							"internalType": "address",
							"name": "owner",
							"type": "address"
						}
					],
					"name": "ERC721IncorrectOwner",
					"type": "error"
				},
				{
					"inputs": [
						{
							"internalType": "address",
							"name": "operator",
							"type": "address"
						},
						{
							"internalType": "uint256",
							"name": "tokenId",
							"type": "uint256"
						}
					],
					"name": "ERC721InsufficientApproval",
					"type": "error"
				},
				{
					"inputs": [
						{
							"internalType": "address",
							"name": "approver",
							"type": "address"
						}
					],
					"name": "ERC721InvalidApprover",
					"type": "error"
				},
				{
					"inputs": [
						{
							"internalType": "address",
							"name": "operator",
							"type": "address"
						}
					],
					"name": "ERC721InvalidOperator",
					"type": "error"
				},
				{
					"inputs": [
						{
							"internalType": "address",
							"name": "owner",
							"type": "address"
						}
					],
					"name": "ERC721InvalidOwner",
					"type": "error"
				},
				{
					"inputs": [
						{
							"internalType": "address",
							"name": "receiver",
							"type": "address"
						}
					],
					"name": "ERC721InvalidReceiver",
					"type": "error"
				},
				{
					"inputs": [
						{
							"internalType": "address",
							"name": "sender",
							"type": "address"
						}
					],
					"name": "ERC721InvalidSender",
					"type": "error"
				},
				{
					"inputs": [
						{
							"internalType": "uint256",
							"name": "tokenId",
							"type": "uint256"
						}
					],
					"name": "ERC721NonexistentToken",
					"type": "error"
				},
				{
					"inputs": [
						{
							"internalType": "address",
							"name": "owner",
							"type": "address"
						},
						{
							"internalType": "uint256",
							"name": "index",
							"type": "uint256"
						}
					],
					"name": "ERC721OutOfBoundsIndex",
					"type": "error"
				},
				{
					"anonymous": false,
					"inputs": [
						{
							"indexed": true,
							"internalType": "address",
							"name": "owner",
							"type": "address"
						},
						{
							"indexed": true,
							"internalType": "address",
							"name": "approved",
							"type": "address"
						},
						{
							"indexed": true,
							"internalType": "uint256",
							"name": "tokenId",
							"type": "uint256"
						}
					],
					"name": "Approval",
					"type": "event"
				},
				{
					"anonymous": false,
					"inputs": [
						{
							"indexed": true,
							"internalType": "address",
							"name": "owner",
							"type": "address"
						},
						{
							"indexed": true,
							"internalType": "address",
							"name": "operator",
							"type": "address"
						},
						{
							"indexed": false,
							"internalType": "bool",
							"name": "approved",
							"type": "bool"
						}
					],
					"name": "ApprovalForAll",
					"type": "event"
				},
				{
					"anonymous": false,
					"inputs": [
						{
							"indexed": false,
							"internalType": "uint256",
							"name": "_fromTokenId",
							"type": "uint256"
						},
						{
							"indexed": false,
							"internalType": "uint256",
							"name": "_toTokenId",
							"type": "uint256"
						}
					],
					"name": "BatchMetadataUpdate",
					"type": "event"
				},
				{
					"anonymous": false,
					"inputs": [
						{
							"indexed": false,
							"internalType": "uint256",
							"name": "_tokenId",
							"type": "uint256"
						}
					],
					"name": "MetadataUpdate",
					"type": "event"
				},
				{
					"anonymous": false,
					"inputs": [
						{
							"indexed": true,
							"internalType": "address",
							"name": "from",
							"type": "address"
						},
						{
							"indexed": true,
							"internalType": "address",
							"name": "to",
							"type": "address"
						},
						{
							"indexed": true,
							"internalType": "uint256",
							"name": "tokenId",
							"type": "uint256"
						}
					],
					"name": "Transfer",
					"type": "event"
				},
				{
					"inputs": [
						{
							"internalType": "address",
							"name": "to",
							"type": "address"
						},
						{
							"internalType": "uint256",
							"name": "tokenId",
							"type": "uint256"
						}
					],
					"name": "approve",
					"outputs": [],
					"stateMutability": "nonpayable",
					"type": "function"
				},
				{
					"inputs": [
						{
							"internalType": "address",
							"name": "owner",
							"type": "address"
						}
					],
					"name": "balanceOf",
					"outputs": [
						{
							"internalType": "uint256",
							"name": "",
							"type": "uint256"
						}
					],
					"stateMutability": "view",
					"type": "function"
				},
				{
					"inputs": [
						{
							"internalType": "uint256",
							"name": "tokenId",
							"type": "uint256"
						}
					],
					"name": "getApproved",
					"outputs": [
						{
							"internalType": "address",
							"name": "",
							"type": "address"
						}
					],
					"stateMutability": "view",
					"type": "function"
				},
				{
					"inputs": [
						{
							"internalType": "address",
							"name": "owner",
							"type": "address"
						},
						{
							"internalType": "address",
							"name": "operator",
							"type": "address"
						}
					],
					"name": "isApprovedForAll",
					"outputs": [
						{
							"internalType": "bool",
							"name": "",
							"type": "bool"
						}
					],
					"stateMutability": "view",
					"type": "function"
				},
				{
					"inputs": [],
					"name": "name",
					"outputs": [
						{
							"internalType": "string",
							"name": "",
							"type": "string"
						}
					],
					"stateMutability": "view",
					"type": "function"
				},
				{
					"inputs": [
						{
							"internalType": "uint256",
							"name": "tokenId",
							"type": "uint256"
						}
					],
					"name": "ownerOf",
					"outputs": [
						{
							"internalType": "address",
							"name": "",
							"type": "address"
						}
					],
					"stateMutability": "view",
					"type": "function"
				},
				{
					"inputs": [
						{
							"internalType": "address",
							"name": "to",
							"type": "address"
						},
						{
							"internalType": "string",
							"name": "uri",
							"type": "string"
						}
					],
					"name": "safeMint",
					"outputs": [],
					"stateMutability": "nonpayable",
					"type": "function"
				},
				{
					"inputs": [
						{
							"internalType": "address",
							"name": "from",
							"type": "address"
						},
						{
							"internalType": "address",
							"name": "to",
							"type": "address"
						},
						{
							"internalType": "uint256",
							"name": "tokenId",
							"type": "uint256"
						}
					],
					"name": "safeTransferFrom",
					"outputs": [],
					"stateMutability": "nonpayable",
					"type": "function"
				},
				{
					"inputs": [
						{
							"internalType": "address",
							"name": "from",
							"type": "address"
						},
						{
							"internalType": "address",
							"name": "to",
							"type": "address"
						},
						{
							"internalType": "uint256",
							"name": "tokenId",
							"type": "uint256"
						},
						{
							"internalType": "bytes",
							"name": "data",
							"type": "bytes"
						}
					],
					"name": "safeTransferFrom",
					"outputs": [],
					"stateMutability": "nonpayable",
					"type": "function"
				},
				{
					"inputs": [
						{
							"internalType": "address",
							"name": "operator",
							"type": "address"
						},
						{
							"internalType": "bool",
							"name": "approved",
							"type": "bool"
						}
					],
					"name": "setApprovalForAll",
					"outputs": [],
					"stateMutability": "nonpayable",
					"type": "function"
				},
				{
					"inputs": [
						{
							"internalType": "bytes4",
							"name": "interfaceId",
							"type": "bytes4"
						}
					],
					"name": "supportsInterface",
					"outputs": [
						{
							"internalType": "bool",
							"name": "",
							"type": "bool"
						}
					],
					"stateMutability": "view",
					"type": "function"
				},
				{
					"inputs": [],
					"name": "symbol",
					"outputs": [
						{
							"internalType": "string",
							"name": "",
							"type": "string"
						}
					],
					"stateMutability": "view",
					"type": "function"
				},
				{
					"inputs": [
						{
							"internalType": "uint256",
							"name": "index",
							"type": "uint256"
						}
					],
					"name": "tokenByIndex",
					"outputs": [
						{
							"internalType": "uint256",
							"name": "",
							"type": "uint256"
						}
					],
					"stateMutability": "view",
					"type": "function"
				},
				{
					"inputs": [
						{
							"internalType": "address",
							"name": "owner",
							"type": "address"
						},
						{
							"internalType": "uint256",
							"name": "index",
							"type": "uint256"
						}
					],
					"name": "tokenOfOwnerByIndex",
					"outputs": [
						{
							"internalType": "uint256",
							"name": "",
							"type": "uint256"
						}
					],
					"stateMutability": "view",
					"type": "function"
				},
				{
					"inputs": [
						{
							"internalType": "uint256",
							"name": "tokenId",
							"type": "uint256"
						}
					],
					"name": "tokenURI",
					"outputs": [
						{
							"internalType": "string",
							"name": "",
							"type": "string"
						}
					],
					"stateMutability": "view",
					"type": "function"
				},
				{
					"inputs": [],
					"name": "totalSupply",
					"outputs": [
						{
							"internalType": "uint256",
							"name": "",
							"type": "uint256"
						}
					],
					"stateMutability": "view",
					"type": "function"
				},
				{
					"inputs": [
						{
							"internalType": "address",
							"name": "from",
							"type": "address"
						},
						{
							"internalType": "address",
							"name": "to",
							"type": "address"
						},
						{
							"internalType": "uint256",
							"name": "tokenId",
							"type": "uint256"
						}
					],
					"name": "transferFrom",
					"outputs": [],
					"stateMutability": "nonpayable",
					"type": "function"
				}
			],
			"devdoc": {
				"errors": {
					"ERC721EnumerableForbiddenBatchMint()": [
						{
							"details": "Batch mint is not allowed."
						}
					],
					"ERC721IncorrectOwner(address,uint256,address)": [
						{
							"details": "Indicates an error related to the ownership over a particular token. Used in transfers.",
							"params": {
								"owner": "Address of the current owner of a token.",
								"sender": "Address whose tokens are being transferred.",
								"tokenId": "Identifier number of a token."
							}
						}
					],
					"ERC721InsufficientApproval(address,uint256)": [
						{
							"details": "Indicates a failure with the `operator`’s approval. Used in transfers.",
							"params": {
								"operator": "Address that may be allowed to operate on tokens without being their owner.",
								"tokenId": "Identifier number of a token."
							}
						}
					],
					"ERC721InvalidApprover(address)": [
						{
							"details": "Indicates a failure with the `approver` of a token to be approved. Used in approvals.",
							"params": {
								"approver": "Address initiating an approval operation."
							}
						}
					],
					"ERC721InvalidOperator(address)": [
						{
							"details": "Indicates a failure with the `operator` to be approved. Used in approvals.",
							"params": {
								"operator": "Address that may be allowed to operate on tokens without being their owner."
							}
						}
					],
					"ERC721InvalidOwner(address)": [
						{
							"details": "Indicates that an address can't be an owner. For example, `address(0)` is a forbidden owner in EIP-20. Used in balance queries.",
							"params": {
								"owner": "Address of the current owner of a token."
							}
						}
					],
					"ERC721InvalidReceiver(address)": [
						{
							"details": "Indicates a failure with the token `receiver`. Used in transfers.",
							"params": {
								"receiver": "Address to which tokens are being transferred."
							}
						}
					],
					"ERC721InvalidSender(address)": [
						{
							"details": "Indicates a failure with the token `sender`. Used in transfers.",
							"params": {
								"sender": "Address whose tokens are being transferred."
							}
						}
					],
					"ERC721NonexistentToken(uint256)": [
						{
							"details": "Indicates a `tokenId` whose `owner` is the zero address.",
							"params": {
								"tokenId": "Identifier number of a token."
							}
						}
					],
					"ERC721OutOfBoundsIndex(address,uint256)": [
						{
							"details": "An `owner`'s token query was out of bounds for `index`. NOTE: The owner being `address(0)` indicates a global out of bounds index."
						}
					]
				},
				"events": {
					"Approval(address,address,uint256)": {
						"details": "Emitted when `owner` enables `approved` to manage the `tokenId` token."
					},
					"ApprovalForAll(address,address,bool)": {
						"details": "Emitted when `owner` enables or disables (`approved`) `operator` to manage all of its assets."
					},
					"BatchMetadataUpdate(uint256,uint256)": {
						"details": "This event emits when the metadata of a range of tokens is changed. So that the third-party platforms such as NFT market could timely update the images and related attributes of the NFTs."
					},
					"MetadataUpdate(uint256)": {
						"details": "This event emits when the metadata of a token is changed. So that the third-party platforms such as NFT market could timely update the images and related attributes of the NFT."
					},
					"Transfer(address,address,uint256)": {
						"details": "Emitted when `tokenId` token is transferred from `from` to `to`."
					}
				},
				"kind": "dev",
				"methods": {
					"approve(address,uint256)": {
						"details": "See {IERC721-approve}."
					},
					"balanceOf(address)": {
						"details": "See {IERC721-balanceOf}."
					},
					"getApproved(uint256)": {
						"details": "See {IERC721-getApproved}."
					},
					"isApprovedForAll(address,address)": {
						"details": "See {IERC721-isApprovedForAll}."
					},
					"name()": {
						"details": "See {IERC721Metadata-name}."
					},
					"ownerOf(uint256)": {
						"details": "See {IERC721-ownerOf}."
					},
					"safeTransferFrom(address,address,uint256)": {
						"details": "See {IERC721-safeTransferFrom}."
					},
					"safeTransferFrom(address,address,uint256,bytes)": {
						"details": "See {IERC721-safeTransferFrom}."
					},
					"setApprovalForAll(address,bool)": {
						"details": "See {IERC721-setApprovalForAll}."
					},
					"symbol()": {
						"details": "See {IERC721Metadata-symbol}."
					},
					"tokenByIndex(uint256)": {
						"details": "See {IERC721Enumerable-tokenByIndex}."
					},
					"tokenOfOwnerByIndex(address,uint256)": {
						"details": "See {IERC721Enumerable-tokenOfOwnerByIndex}."
					},
					"totalSupply()": {
						"details": "See {IERC721Enumerable-totalSupply}."
					},
					"transferFrom(address,address,uint256)": {
						"details": "See {IERC721-transferFrom}."
					}
				},
				"version": 1
			},
			"evm": {
				"assembly": "    /* \"contract_TalentKeyNFT.sol\":395:1824  contract TalentKey is ERC721, ERC721Enumerable, ERC721URIStorage {... */\n  mstore(0x40, 0x80)\n    /* \"contract_TalentKeyNFT.sol\":608:614  100000 */\n  0x0186a0\n    /* \"contract_TalentKeyNFT.sol\":587:614  uint256 MAX_SUPPLY = 100000 */\n  0x0d\n  sstore\n    /* \"contract_TalentKeyNFT.sol\":621:665  constructor() ERC721(\"Talent Key\", \"TKEY\"){} */\n  callvalue\n  dup1\n  iszero\n  tag_1\n  jumpi\n  0x00\n  dup1\n  revert\ntag_1:\n  pop\n    /* \"@openzeppelin/contracts@5.0.2/token/ERC721/ERC721.sol\":1381:1494  constructor(string memory name_, string memory symbol_) {... */\n  mload(0x40)\n  dup1\n  0x40\n  add\n  0x40\n  mstore\n  dup1\n  0x0a\n  dup2\n  mstore\n  0x20\n  add\n  0x54616c656e74204b657900000000000000000000000000000000000000000000\n  dup2\n  mstore\n  pop\n  mload(0x40)\n  dup1\n  0x40\n  add\n  0x40\n  mstore\n  dup1\n  0x04\n  dup2\n  mstore\n  0x20\n  add\n  0x544b455900000000000000000000000000000000000000000000000000000000\n  dup2\n  mstore\n  pop\n    /* \"@openzeppelin/contracts@5.0.2/token/ERC721/ERC721.sol\":1455:1460  name_ */\n  dup2\n    /* \"@openzeppelin/contracts@5.0.2/token/ERC721/ERC721.sol\":1447:1452  _name */\n  0x00\n    /* \"@openzeppelin/contracts@5.0.2/token/ERC721/ERC721.sol\":1447:1460  _name = name_ */\n  swap1\n  dup2\n  tag_5\n  swap2\n  swap1\n  tag_6\n  jump\t// in\ntag_5:\n  pop\n    /* \"@openzeppelin/contracts@5.0.2/token/ERC721/ERC721.sol\":1480:1487  symbol_ */\n  dup1\n    /* \"@openzeppelin/contracts@5.0.2/token/ERC721/ERC721.sol\":1470:1477  _symbol */\n  0x01\n    /* \"@openzeppelin/contracts@5.0.2/token/ERC721/ERC721.sol\":1470:1487  _symbol = symbol_ */\n  swap1\n  dup2\n  tag_7\n  swap2\n  swap1\n  tag_6\n  jump\t// in\ntag_7:\n  pop\n    /* \"@openzeppelin/contracts@5.0.2/token/ERC721/ERC721.sol\":1381:1494  constructor(string memory name_, string memory symbol_) {... */\n  pop\n  pop\n    /* \"contract_TalentKeyNFT.sol\":395:1824  contract TalentKey is ERC721, ERC721Enumerable, ERC721URIStorage {... */\n  jump(tag_9)\n    /* \"#utility.yul\":7:106   */\ntag_10:\n    /* \"#utility.yul\":59:65   */\n  0x00\n    /* \"#utility.yul\":93:98   */\n  dup2\n    /* \"#utility.yul\":87:99   */\n  mload\n    /* \"#utility.yul\":77:99   */\n  swap1\n  pop\n    /* \"#utility.yul\":7:106   */\n  swap2\n  swap1\n  pop\n  jump\t// out\n    /* \"#utility.yul\":112:292   */\ntag_11:\n    /* \"#utility.yul\":160:237   */\n  0x4e487b7100000000000000000000000000000000000000000000000000000000\n    /* \"#utility.yul\":157:158   */\n  0x00\n    /* \"#utility.yul\":150:238   */\n  mstore\n    /* \"#utility.yul\":257:261   */\n  0x41\n    /* \"#utility.yul\":254:255   */\n  0x04\n    /* \"#utility.yul\":247:262   */\n  mstore\n    /* \"#utility.yul\":281:285   */\n  0x24\n    /* \"#utility.yul\":278:279   */\n  0x00\n    /* \"#utility.yul\":271:286   */\n  revert\n    /* \"#utility.yul\":298:478   */\ntag_12:\n    /* \"#utility.yul\":346:423   */\n  0x4e487b7100000000000000000000000000000000000000000000000000000000\n    /* \"#utility.yul\":343:344   */\n  0x00\n    /* \"#utility.yul\":336:424   */\n  mstore\n    /* \"#utility.yul\":443:447   */\n  0x22\n    /* \"#utility.yul\":440:441   */\n  0x04\n    /* \"#utility.yul\":433:448   */\n  mstore\n    /* \"#utility.yul\":467:471   */\n  0x24\n    /* \"#utility.yul\":464:465   */\n  0x00\n    /* \"#utility.yul\":457:472   */\n  revert\n    /* \"#utility.yul\":484:804   */\ntag_13:\n    /* \"#utility.yul\":528:534   */\n  0x00\n    /* \"#utility.yul\":565:566   */\n  0x02\n    /* \"#utility.yul\":559:563   */\n  dup3\n    /* \"#utility.yul\":555:567   */\n  div\n    /* \"#utility.yul\":545:567   */\n  swap1\n  pop\n    /* \"#utility.yul\":612:613   */\n  0x01\n    /* \"#utility.yul\":606:610   */\n  dup3\n    /* \"#utility.yul\":602:614   */\n  and\n    /* \"#utility.yul\":633:651   */\n  dup1\n    /* \"#utility.yul\":623:704   */\n  tag_35\n  jumpi\n    /* \"#utility.yul\":689:693   */\n  0x7f\n    /* \"#utility.yul\":681:687   */\n  dup3\n    /* \"#utility.yul\":677:694   */\n  and\n    /* \"#utility.yul\":667:694   */\n  swap2\n  pop\n    /* \"#utility.yul\":623:704   */\ntag_35:\n    /* \"#utility.yul\":751:753   */\n  0x20\n    /* \"#utility.yul\":743:749   */\n  dup3\n    /* \"#utility.yul\":740:754   */\n  lt\n    /* \"#utility.yul\":720:738   */\n  dup2\n    /* \"#utility.yul\":717:755   */\n  sub\n    /* \"#utility.yul\":714:798   */\n  tag_36\n  jumpi\n    /* \"#utility.yul\":770:788   */\n  tag_37\n  tag_12\n  jump\t// in\ntag_37:\n    /* \"#utility.yul\":714:798   */\ntag_36:\n    /* \"#utility.yul\":535:804   */\n  pop\n    /* \"#utility.yul\":484:804   */\n  swap2\n  swap1\n  pop\n  jump\t// out\n    /* \"#utility.yul\":810:951   */\ntag_14:\n    /* \"#utility.yul\":859:863   */\n  0x00\n    /* \"#utility.yul\":882:885   */\n  dup2\n    /* \"#utility.yul\":874:885   */\n  swap1\n  pop\n    /* \"#utility.yul\":905:908   */\n  dup2\n    /* \"#utility.yul\":902:903   */\n  0x00\n    /* \"#utility.yul\":895:909   */\n  mstore\n    /* \"#utility.yul\":939:943   */\n  0x20\n    /* \"#utility.yul\":936:937   */\n  0x00\n    /* \"#utility.yul\":926:944   */\n  keccak256\n    /* \"#utility.yul\":918:944   */\n  swap1\n  pop\n    /* \"#utility.yul\":810:951   */\n  swap2\n  swap1\n  pop\n  jump\t// out\n    /* \"#utility.yul\":957:1050   */\ntag_15:\n    /* \"#utility.yul\":994:1000   */\n  0x00\n    /* \"#utility.yul\":1041:1043   */\n  0x20\n    /* \"#utility.yul\":1036:1038   */\n  0x1f\n    /* \"#utility.yul\":1029:1034   */\n  dup4\n    /* \"#utility.yul\":1025:1039   */\n  add\n    /* \"#utility.yul\":1021:1044   */\n  div\n    /* \"#utility.yul\":1011:1044   */\n  swap1\n  pop\n    /* \"#utility.yul\":957:1050   */\n  swap2\n  swap1\n  pop\n  jump\t// out\n    /* \"#utility.yul\":1056:1163   */\ntag_16:\n    /* \"#utility.yul\":1100:1108   */\n  0x00\n    /* \"#utility.yul\":1150:1155   */\n  dup3\n    /* \"#utility.yul\":1144:1148   */\n  dup3\n    /* \"#utility.yul\":1140:1156   */\n  shl\n    /* \"#utility.yul\":1119:1156   */\n  swap1\n  pop\n    /* \"#utility.yul\":1056:1163   */\n  swap3\n  swap2\n  pop\n  pop\n  jump\t// out\n    /* \"#utility.yul\":1169:1562   */\ntag_17:\n    /* \"#utility.yul\":1238:1244   */\n  0x00\n    /* \"#utility.yul\":1288:1289   */\n  0x08\n    /* \"#utility.yul\":1276:1286   */\n  dup4\n    /* \"#utility.yul\":1272:1290   */\n  mul\n    /* \"#utility.yul\":1311:1408   */\n  tag_42\n    /* \"#utility.yul\":1341:1407   */\n  0xffffffffffffffffffffffffffffffffffffffffffffffffffffffffffffffff\n    /* \"#utility.yul\":1330:1339   */\n  dup3\n    /* \"#utility.yul\":1311:1408   */\n  tag_16\n  jump\t// in\ntag_42:\n    /* \"#utility.yul\":1429:1468   */\n  tag_43\n    /* \"#utility.yul\":1459:1467   */\n  dup7\n    /* \"#utility.yul\":1448:1457   */\n  dup4\n    /* \"#utility.yul\":1429:1468   */\n  tag_16\n  jump\t// in\ntag_43:\n    /* \"#utility.yul\":1417:1468   */\n  swap6\n  pop\n    /* \"#utility.yul\":1501:1505   */\n  dup1\n    /* \"#utility.yul\":1497:1506   */\n  not\n    /* \"#utility.yul\":1490:1495   */\n  dup5\n    /* \"#utility.yul\":1486:1507   */\n  and\n    /* \"#utility.yul\":1477:1507   */\n  swap4\n  pop\n    /* \"#utility.yul\":1550:1554   */\n  dup1\n    /* \"#utility.yul\":1540:1548   */\n  dup7\n    /* \"#utility.yul\":1536:1555   */\n  and\n    /* \"#utility.yul\":1529:1534   */\n  dup5\n    /* \"#utility.yul\":1526:1556   */\n  or\n    /* \"#utility.yul\":1516:1556   */\n  swap3\n  pop\n    /* \"#utility.yul\":1245:1562   */\n  pop\n  pop\n    /* \"#utility.yul\":1169:1562   */\n  swap4\n  swap3\n  pop\n  pop\n  pop\n  jump\t// out\n    /* \"#utility.yul\":1568:1645   */\ntag_18:\n    /* \"#utility.yul\":1605:1612   */\n  0x00\n    /* \"#utility.yul\":1634:1639   */\n  dup2\n    /* \"#utility.yul\":1623:1639   */\n  swap1\n  pop\n    /* \"#utility.yul\":1568:1645   */\n  swap2\n  swap1\n  pop\n  jump\t// out\n    /* \"#utility.yul\":1651:1711   */\ntag_19:\n    /* \"#utility.yul\":1679:1682   */\n  0x00\n    /* \"#utility.yul\":1700:1705   */\n  dup2\n    /* \"#utility.yul\":1693:1705   */\n  swap1\n  pop\n    /* \"#utility.yul\":1651:1711   */\n  swap2\n  swap1\n  pop\n  jump\t// out\n    /* \"#utility.yul\":1717:1859   */\ntag_20:\n    /* \"#utility.yul\":1767:1776   */\n  0x00\n    /* \"#utility.yul\":1800:1853   */\n  tag_47\n    /* \"#utility.yul\":1818:1852   */\n  tag_48\n    /* \"#utility.yul\":1827:1851   */\n  tag_49\n    /* \"#utility.yul\":1845:1850   */\n  dup5\n    /* \"#utility.yul\":1827:1851   */\n  tag_18\n  jump\t// in\ntag_49:\n    /* \"#utility.yul\":1818:1852   */\n  tag_19\n  jump\t// in\ntag_48:\n    /* \"#utility.yul\":1800:1853   */\n  tag_18\n  jump\t// in\ntag_47:\n    /* \"#utility.yul\":1787:1853   */\n  swap1\n  pop\n    /* \"#utility.yul\":1717:1859   */\n  swap2\n  swap1\n  pop\n  jump\t// out\n    /* \"#utility.yul\":1865:1940   */\ntag_21:\n    /* \"#utility.yul\":1908:1911   */\n  0x00\n    /* \"#utility.yul\":1929:1934   */\n  dup2\n    /* \"#utility.yul\":1922:1934   */\n  swap1\n  pop\n    /* \"#utility.yul\":1865:1940   */\n  swap2\n  swap1\n  pop\n  jump\t// out\n    /* \"#utility.yul\":1946:2215   */\ntag_22:\n    /* \"#utility.yul\":2056:2095   */\n  tag_52\n    /* \"#utility.yul\":2087:2094   */\n  dup4\n    /* \"#utility.yul\":2056:2095   */\n  tag_20\n  jump\t// in\ntag_52:\n    /* \"#utility.yul\":2117:2208   */\n  tag_53\n    /* \"#utility.yul\":2166:2207   */\n  tag_54\n    /* \"#utility.yul\":2190:2206   */\n  dup3\n    /* \"#utility.yul\":2166:2207   */\n  tag_21\n  jump\t// in\ntag_54:\n    /* \"#utility.yul\":2158:2164   */\n  dup5\n    /* \"#utility.yul\":2151:2155   */\n  dup5\n    /* \"#utility.yul\":2145:2156   */\n  sload\n    /* \"#utility.yul\":2117:2208   */\n  tag_17\n  jump\t// in\ntag_53:\n    /* \"#utility.yul\":2111:2115   */\n  dup3\n    /* \"#utility.yul\":2104:2209   */\n  sstore\n    /* \"#utility.yul\":2022:2215   */\n  pop\n    /* \"#utility.yul\":1946:2215   */\n  pop\n  pop\n  pop\n  jump\t// out\n    /* \"#utility.yul\":2221:2294   */\ntag_23:\n    /* \"#utility.yul\":2266:2269   */\n  0x00\n    /* \"#utility.yul\":2221:2294   */\n  swap1\n  jump\t// out\n    /* \"#utility.yul\":2300:2489   */\ntag_24:\n    /* \"#utility.yul\":2377:2409   */\n  tag_57\n  tag_23\n  jump\t// in\ntag_57:\n    /* \"#utility.yul\":2418:2483   */\n  tag_58\n    /* \"#utility.yul\":2476:2482   */\n  dup2\n    /* \"#utility.yul\":2468:2474   */\n  dup5\n    /* \"#utility.yul\":2462:2466   */\n  dup5\n    /* \"#utility.yul\":2418:2483   */\n  tag_22\n  jump\t// in\ntag_58:\n    /* \"#utility.yul\":2353:2489   */\n  pop\n    /* \"#utility.yul\":2300:2489   */\n  pop\n  pop\n  jump\t// out\n    /* \"#utility.yul\":2495:2681   */\ntag_25:\n    /* \"#utility.yul\":2555:2675   */\ntag_60:\n    /* \"#utility.yul\":2572:2575   */\n  dup2\n    /* \"#utility.yul\":2565:2570   */\n  dup2\n    /* \"#utility.yul\":2562:2576   */\n  lt\n    /* \"#utility.yul\":2555:2675   */\n  iszero\n  tag_62\n  jumpi\n    /* \"#utility.yul\":2626:2665   */\n  tag_63\n    /* \"#utility.yul\":2663:2664   */\n  0x00\n    /* \"#utility.yul\":2656:2661   */\n  dup3\n    /* \"#utility.yul\":2626:2665   */\n  tag_24\n  jump\t// in\ntag_63:\n    /* \"#utility.yul\":2599:2600   */\n  0x01\n    /* \"#utility.yul\":2592:2597   */\n  dup2\n    /* \"#utility.yul\":2588:2601   */\n  add\n    /* \"#utility.yul\":2579:2601   */\n  swap1\n  pop\n    /* \"#utility.yul\":2555:2675   */\n  jump(tag_60)\ntag_62:\n    /* \"#utility.yul\":2495:2681   */\n  pop\n  pop\n  jump\t// out\n    /* \"#utility.yul\":2687:3230   */\ntag_26:\n    /* \"#utility.yul\":2788:2790   */\n  0x1f\n    /* \"#utility.yul\":2783:2786   */\n  dup3\n    /* \"#utility.yul\":2780:2791   */\n  gt\n    /* \"#utility.yul\":2777:3223   */\n  iszero\n  tag_65\n  jumpi\n    /* \"#utility.yul\":2822:2860   */\n  tag_66\n    /* \"#utility.yul\":2854:2859   */\n  dup2\n    /* \"#utility.yul\":2822:2860   */\n  tag_14\n  jump\t// in\ntag_66:\n    /* \"#utility.yul\":2906:2935   */\n  tag_67\n    /* \"#utility.yul\":2924:2934   */\n  dup5\n    /* \"#utility.yul\":2906:2935   */\n  tag_15\n  jump\t// in\ntag_67:\n    /* \"#utility.yul\":2896:2904   */\n  dup2\n    /* \"#utility.yul\":2892:2936   */\n  add\n    /* \"#utility.yul\":3089:3091   */\n  0x20\n    /* \"#utility.yul\":3077:3087   */\n  dup6\n    /* \"#utility.yul\":3074:3092   */\n  lt\n    /* \"#utility.yul\":3071:3120   */\n  iszero\n  tag_68\n  jumpi\n    /* \"#utility.yul\":3110:3118   */\n  dup2\n    /* \"#utility.yul\":3095:3118   */\n  swap1\n  pop\n    /* \"#utility.yul\":3071:3120   */\ntag_68:\n    /* \"#utility.yul\":3133:3213   */\n  tag_69\n    /* \"#utility.yul\":3189:3211   */\n  tag_70\n    /* \"#utility.yul\":3207:3210   */\n  dup6\n    /* \"#utility.yul\":3189:3211   */\n  tag_15\n  jump\t// in\ntag_70:\n    /* \"#utility.yul\":3179:3187   */\n  dup4\n    /* \"#utility.yul\":3175:3212   */\n  add\n    /* \"#utility.yul\":3162:3173   */\n  dup3\n    /* \"#utility.yul\":3133:3213   */\n  tag_25\n  jump\t// in\ntag_69:\n    /* \"#utility.yul\":2792:3223   */\n  pop\n  pop\n    /* \"#utility.yul\":2777:3223   */\ntag_65:\n    /* \"#utility.yul\":2687:3230   */\n  pop\n  pop\n  pop\n  jump\t// out\n    /* \"#utility.yul\":3236:3353   */\ntag_27:\n    /* \"#utility.yul\":3290:3298   */\n  0x00\n    /* \"#utility.yul\":3340:3345   */\n  dup3\n    /* \"#utility.yul\":3334:3338   */\n  dup3\n    /* \"#utility.yul\":3330:3346   */\n  shr\n    /* \"#utility.yul\":3309:3346   */\n  swap1\n  pop\n    /* \"#utility.yul\":3236:3353   */\n  swap3\n  swap2\n  pop\n  pop\n  jump\t// out\n    /* \"#utility.yul\":3359:3528   */\ntag_28:\n    /* \"#utility.yul\":3403:3409   */\n  0x00\n    /* \"#utility.yul\":3436:3487   */\n  tag_73\n    /* \"#utility.yul\":3484:3485   */\n  0x00\n    /* \"#utility.yul\":3480:3486   */\n  not\n    /* \"#utility.yul\":3472:3477   */\n  dup5\n    /* \"#utility.yul\":3469:3470   */\n  0x08\n    /* \"#utility.yul\":3465:3478   */\n  mul\n    /* \"#utility.yul\":3436:3487   */\n  tag_27\n  jump\t// in\ntag_73:\n    /* \"#utility.yul\":3432:3488   */\n  not\n    /* \"#utility.yul\":3517:3521   */\n  dup1\n    /* \"#utility.yul\":3511:3515   */\n  dup4\n    /* \"#utility.yul\":3507:3522   */\n  and\n    /* \"#utility.yul\":3497:3522   */\n  swap2\n  pop\n    /* \"#utility.yul\":3410:3528   */\n  pop\n    /* \"#utility.yul\":3359:3528   */\n  swap3\n  swap2\n  pop\n  pop\n  jump\t// out\n    /* \"#utility.yul\":3533:3828   */\ntag_29:\n    /* \"#utility.yul\":3609:3613   */\n  0x00\n    /* \"#utility.yul\":3755:3784   */\n  tag_75\n    /* \"#utility.yul\":3780:3783   */\n  dup4\n    /* \"#utility.yul\":3774:3778   */\n  dup4\n    /* \"#utility.yul\":3755:3784   */\n  tag_28\n  jump\t// in\ntag_75:\n    /* \"#utility.yul\":3747:3784   */\n  swap2\n  pop\n    /* \"#utility.yul\":3817:3820   */\n  dup3\n    /* \"#utility.yul\":3814:3815   */\n  0x02\n    /* \"#utility.yul\":3810:3821   */\n  mul\n    /* \"#utility.yul\":3804:3808   */\n  dup3\n    /* \"#utility.yul\":3801:3822   */\n  or\n    /* \"#utility.yul\":3793:3822   */\n  swap1\n  pop\n    /* \"#utility.yul\":3533:3828   */\n  swap3\n  swap2\n  pop\n  pop\n  jump\t// out\n    /* \"#utility.yul\":3833:5228   */\ntag_6:\n    /* \"#utility.yul\":3950:3987   */\n  tag_77\n    /* \"#utility.yul\":3983:3986   */\n  dup3\n    /* \"#utility.yul\":3950:3987   */\n  tag_10\n  jump\t// in\ntag_77:\n    /* \"#utility.yul\":4052:4070   */\n  0xffffffffffffffff\n    /* \"#utility.yul\":4044:4050   */\n  dup2\n    /* \"#utility.yul\":4041:4071   */\n  gt\n    /* \"#utility.yul\":4038:4094   */\n  iszero\n  tag_78\n  jumpi\n    /* \"#utility.yul\":4074:4092   */\n  tag_79\n  tag_11\n  jump\t// in\ntag_79:\n    /* \"#utility.yul\":4038:4094   */\ntag_78:\n    /* \"#utility.yul\":4118:4156   */\n  tag_80\n    /* \"#utility.yul\":4150:4154   */\n  dup3\n    /* \"#utility.yul\":4144:4155   */\n  sload\n    /* \"#utility.yul\":4118:4156   */\n  tag_13\n  jump\t// in\ntag_80:\n    /* \"#utility.yul\":4203:4270   */\n  tag_81\n    /* \"#utility.yul\":4263:4269   */\n  dup3\n    /* \"#utility.yul\":4255:4261   */\n  dup3\n    /* \"#utility.yul\":4249:4253   */\n  dup6\n    /* \"#utility.yul\":4203:4270   */\n  tag_26\n  jump\t// in\ntag_81:\n    /* \"#utility.yul\":4297:4298   */\n  0x00\n    /* \"#utility.yul\":4321:4325   */\n  0x20\n    /* \"#utility.yul\":4308:4325   */\n  swap1\n  pop\n    /* \"#utility.yul\":4353:4355   */\n  0x1f\n    /* \"#utility.yul\":4345:4351   */\n  dup4\n    /* \"#utility.yul\":4342:4356   */\n  gt\n    /* \"#utility.yul\":4370:4371   */\n  0x01\n    /* \"#utility.yul\":4365:4983   */\n  dup2\n  eq\n  tag_83\n  jumpi\n    /* \"#utility.yul\":5027:5028   */\n  0x00\n    /* \"#utility.yul\":5044:5050   */\n  dup5\n    /* \"#utility.yul\":5041:5118   */\n  iszero\n  tag_84\n  jumpi\n    /* \"#utility.yul\":5093:5102   */\n  dup3\n    /* \"#utility.yul\":5088:5091   */\n  dup8\n    /* \"#utility.yul\":5084:5103   */\n  add\n    /* \"#utility.yul\":5078:5104   */\n  mload\n    /* \"#utility.yul\":5069:5104   */\n  swap1\n  pop\n    /* \"#utility.yul\":5041:5118   */\ntag_84:\n    /* \"#utility.yul\":5144:5211   */\n  tag_85\n    /* \"#utility.yul\":5204:5210   */\n  dup6\n    /* \"#utility.yul\":5197:5202   */\n  dup3\n    /* \"#utility.yul\":5144:5211   */\n  tag_29\n  jump\t// in\ntag_85:\n    /* \"#utility.yul\":5138:5142   */\n  dup7\n    /* \"#utility.yul\":5131:5212   */\n  sstore\n    /* \"#utility.yul\":5000:5222   */\n  pop\n    /* \"#utility.yul\":4335:5222   */\n  jump(tag_82)\n    /* \"#utility.yul\":4365:4983   */\ntag_83:\n    /* \"#utility.yul\":4417:4421   */\n  0x1f\n    /* \"#utility.yul\":4413:4422   */\n  not\n    /* \"#utility.yul\":4405:4411   */\n  dup5\n    /* \"#utility.yul\":4401:4423   */\n  and\n    /* \"#utility.yul\":4451:4488   */\n  tag_86\n    /* \"#utility.yul\":4483:4487   */\n  dup7\n    /* \"#utility.yul\":4451:4488   */\n  tag_14\n  jump\t// in\ntag_86:\n    /* \"#utility.yul\":4510:4511   */\n  0x00\n    /* \"#utility.yul\":4524:4732   */\ntag_87:\n    /* \"#utility.yul\":4538:4545   */\n  dup3\n    /* \"#utility.yul\":4535:4536   */\n  dup2\n    /* \"#utility.yul\":4532:4546   */\n  lt\n    /* \"#utility.yul\":4524:4732   */\n  iszero\n  tag_89\n  jumpi\n    /* \"#utility.yul\":4617:4626   */\n  dup5\n    /* \"#utility.yul\":4612:4615   */\n  dup10\n    /* \"#utility.yul\":4608:4627   */\n  add\n    /* \"#utility.yul\":4602:4628   */\n  mload\n    /* \"#utility.yul\":4594:4600   */\n  dup3\n    /* \"#utility.yul\":4587:4629   */\n  sstore\n    /* \"#utility.yul\":4668:4669   */\n  0x01\n    /* \"#utility.yul\":4660:4666   */\n  dup3\n    /* \"#utility.yul\":4656:4670   */\n  add\n    /* \"#utility.yul\":4646:4670   */\n  swap2\n  pop\n    /* \"#utility.yul\":4715:4717   */\n  0x20\n    /* \"#utility.yul\":4704:4713   */\n  dup6\n    /* \"#utility.yul\":4700:4718   */\n  add\n    /* \"#utility.yul\":4687:4718   */\n  swap5\n  pop\n    /* \"#utility.yul\":4561:4565   */\n  0x20\n    /* \"#utility.yul\":4558:4559   */\n  dup2\n    /* \"#utility.yul\":4554:4566   */\n  add\n    /* \"#utility.yul\":4549:4566   */\n  swap1\n  pop\n    /* \"#utility.yul\":4524:4732   */\n  jump(tag_87)\ntag_89:\n    /* \"#utility.yul\":4760:4766   */\n  dup7\n    /* \"#utility.yul\":4751:4758   */\n  dup4\n    /* \"#utility.yul\":4748:4767   */\n  lt\n    /* \"#utility.yul\":4745:4924   */\n  iszero\n  tag_90\n  jumpi\n    /* \"#utility.yul\":4818:4827   */\n  dup5\n    /* \"#utility.yul\":4813:4816   */\n  dup10\n    /* \"#utility.yul\":4809:4828   */\n  add\n    /* \"#utility.yul\":4803:4829   */\n  mload\n    /* \"#utility.yul\":4861:4909   */\n  tag_91\n    /* \"#utility.yul\":4903:4907   */\n  0x1f\n    /* \"#utility.yul\":4895:4901   */\n  dup10\n    /* \"#utility.yul\":4891:4908   */\n  and\n    /* \"#utility.yul\":4880:4889   */\n  dup3\n    /* \"#utility.yul\":4861:4909   */\n  tag_28\n  jump\t// in\ntag_91:\n    /* \"#utility.yul\":4853:4859   */\n  dup4\n    /* \"#utility.yul\":4846:4910   */\n  sstore\n    /* \"#utility.yul\":4768:4924   */\n  pop\n    /* \"#utility.yul\":4745:4924   */\ntag_90:\n    /* \"#utility.yul\":4970:4971   */\n  0x01\n    /* \"#utility.yul\":4966:4967   */\n  0x02\n    /* \"#utility.yul\":4958:4964   */\n  dup9\n    /* \"#utility.yul\":4954:4968   */\n  mul\n    /* \"#utility.yul\":4950:4972   */\n  add\n    /* \"#utility.yul\":4944:4948   */\n  dup9\n    /* \"#utility.yul\":4937:4973   */\n  sstore\n    /* \"#utility.yul\":4372:4983   */\n  pop\n  pop\n  pop\n    /* \"#utility.yul\":4335:5222   */\ntag_82:\n  pop\n    /* \"#utility.yul\":3925:5228   */\n  pop\n  pop\n  pop\n    /* \"#utility.yul\":3833:5228   */\n  pop\n  pop\n  jump\t// out\n    /* \"contract_TalentKeyNFT.sol\":395:1824  contract TalentKey is ERC721, ERC721Enumerable, ERC721URIStorage {... */\ntag_9:\n  dataSize(sub_0)\n  dup1\n  dataOffset(sub_0)\n  0x00\n  codecopy\n  0x00\n  return\nstop\n\nsub_0: assembly {\n        /* \"contract_TalentKeyNFT.sol\":395:1824  contract TalentKey is ERC721, ERC721Enumerable, ERC721URIStorage {... */\n      mstore(0x40, 0x80)\n      callvalue\n      dup1\n      iszero\n      tag_1\n      jumpi\n      0x00\n      dup1\n      revert\n    tag_1:\n      pop\n      jumpi(tag_2, lt(calldatasize, 0x04))\n      shr(0xe0, calldataload(0x00))\n      dup1\n      0x4f6ccce7\n      gt\n      tag_20\n      jumpi\n      dup1\n      0xa22cb465\n      gt\n      tag_21\n      jumpi\n      dup1\n      0xa22cb465\n      eq\n      tag_15\n      jumpi\n      dup1\n      0xb88d4fde\n      eq\n      tag_16\n      jumpi\n      dup1\n      0xc87b56dd\n      eq\n      tag_17\n      jumpi\n      dup1\n      0xd204c45e\n      eq\n      tag_18\n      jumpi\n      dup1\n      0xe985e9c5\n      eq\n      tag_19\n      jumpi\n      jump(tag_2)\n    tag_21:\n      dup1\n      0x4f6ccce7\n      eq\n      tag_11\n      jumpi\n      dup1\n      0x6352211e\n      eq\n      tag_12\n      jumpi\n      dup1\n      0x70a08231\n      eq\n      tag_13\n      jumpi\n      dup1\n      0x95d89b41\n      eq\n      tag_14\n      jumpi\n      jump(tag_2)\n    tag_20:\n      dup1\n      0x18160ddd\n      gt\n      tag_22\n      jumpi\n      dup1\n      0x18160ddd\n      eq\n      tag_7\n      jumpi\n      dup1\n      0x23b872dd\n      eq\n      tag_8\n      jumpi\n      dup1\n      0x2f745c59\n      eq\n      tag_9\n      jumpi\n      dup1\n      0x42842e0e\n      eq\n      tag_10\n      jumpi\n      jump(tag_2)\n    tag_22:\n      dup1\n      0x01ffc9a7\n      eq\n      tag_3\n      jumpi\n      dup1\n      0x06fdde03\n      eq\n      tag_4\n      jumpi\n      dup1\n      0x081812fc\n      eq\n      tag_5\n      jumpi\n      dup1\n      0x095ea7b3\n      eq\n      tag_6\n      jumpi\n    tag_2:\n      0x00\n      dup1\n      revert\n        /* \"contract_TalentKeyNFT.sol\":1599:1822  function supportsInterface(bytes4 interfaceId)... */\n    tag_3:\n      tag_23\n      0x04\n      dup1\n      calldatasize\n      sub\n      dup2\n      add\n      swap1\n      tag_24\n      swap2\n      swap1\n      tag_25\n      jump\t// in\n    tag_24:\n      tag_26\n      jump\t// in\n    tag_23:\n      mload(0x40)\n      tag_27\n      swap2\n      swap1\n      tag_28\n      jump\t// in\n    tag_27:\n      mload(0x40)\n      dup1\n      swap2\n      sub\n      swap1\n      return\n        /* \"@openzeppelin/contracts@5.0.2/token/ERC721/ERC721.sol\":2365:2454  function name() public view virtual returns (string memory) {... */\n    tag_4:\n      tag_29\n      tag_30\n      jump\t// in\n    tag_29:\n      mload(0x40)\n      tag_31\n      swap2\n      swap1\n      tag_32\n      jump\t// in\n    tag_31:\n      mload(0x40)\n      dup1\n      swap2\n      sub\n      swap1\n      return\n        /* \"@openzeppelin/contracts@5.0.2/token/ERC721/ERC721.sol\":3497:3651  function getApproved(uint256 tokenId) public view virtual returns (address) {... */\n    tag_5:\n      tag_33\n      0x04\n      dup1\n      calldatasize\n      sub\n      dup2\n      add\n      swap1\n      tag_34\n      swap2\n      swap1\n      tag_35\n      jump\t// in\n    tag_34:\n      tag_36\n      jump\t// in\n    tag_33:\n      mload(0x40)\n      tag_37\n      swap2\n      swap1\n      tag_38\n      jump\t// in\n    tag_37:\n      mload(0x40)\n      dup1\n      swap2\n      sub\n      swap1\n      return\n        /* \"@openzeppelin/contracts@5.0.2/token/ERC721/ERC721.sol\":3323:3436  function approve(address to, uint256 tokenId) public virtual {... */\n    tag_6:\n      tag_39\n      0x04\n      dup1\n      calldatasize\n      sub\n      dup2\n      add\n      swap1\n      tag_40\n      swap2\n      swap1\n      tag_41\n      jump\t// in\n    tag_40:\n      tag_42\n      jump\t// in\n    tag_39:\n      stop\n        /* \"@openzeppelin/contracts@5.0.2/token/ERC721/extensions/ERC721Enumerable.sol\":2062:2164  function totalSupply() public view virtual returns (uint256) {... */\n    tag_7:\n      tag_43\n      tag_44\n      jump\t// in\n    tag_43:\n      mload(0x40)\n      tag_45\n      swap2\n      swap1\n      tag_46\n      jump\t// in\n    tag_45:\n      mload(0x40)\n      dup1\n      swap2\n      sub\n      swap1\n      return\n        /* \"@openzeppelin/contracts@5.0.2/token/ERC721/ERC721.sol\":4143:4721  function transferFrom(address from, address to, uint256 tokenId) public virtual {... */\n    tag_8:\n      tag_47\n      0x04\n      dup1\n      calldatasize\n      sub\n      dup2\n      add\n      swap1\n      tag_48\n      swap2\n      swap1\n      tag_49\n      jump\t// in\n    tag_48:\n      tag_50\n      jump\t// in\n    tag_47:\n      stop\n        /* \"@openzeppelin/contracts@5.0.2/token/ERC721/extensions/ERC721Enumerable.sol\":1736:1991  function tokenOfOwnerByIndex(address owner, uint256 index) public view virtual returns (uint256) {... */\n    tag_9:\n      tag_51\n      0x04\n      dup1\n      calldatasize\n      sub\n      dup2\n      add\n      swap1\n      tag_52\n      swap2\n      swap1\n      tag_41\n      jump\t// in\n    tag_52:\n      tag_53\n      jump\t// in\n    tag_51:\n      mload(0x40)\n      tag_54\n      swap2\n      swap1\n      tag_46\n      jump\t// in\n    tag_54:\n      mload(0x40)\n      dup1\n      swap2\n      sub\n      swap1\n      return\n        /* \"@openzeppelin/contracts@5.0.2/token/ERC721/ERC721.sol\":4787:4919  function safeTransferFrom(address from, address to, uint256 tokenId) public {... */\n    tag_10:\n      tag_55\n      0x04\n      dup1\n      calldatasize\n      sub\n      dup2\n      add\n      swap1\n      tag_56\n      swap2\n      swap1\n      tag_49\n      jump\t// in\n    tag_56:\n      tag_57\n      jump\t// in\n    tag_55:\n      stop\n        /* \"@openzeppelin/contracts@5.0.2/token/ERC721/extensions/ERC721Enumerable.sol\":2236:2462  function tokenByIndex(uint256 index) public view virtual returns (uint256) {... */\n    tag_11:\n      tag_58\n      0x04\n      dup1\n      calldatasize\n      sub\n      dup2\n      add\n      swap1\n      tag_59\n      swap2\n      swap1\n      tag_35\n      jump\t// in\n    tag_59:\n      tag_60\n      jump\t// in\n    tag_58:\n      mload(0x40)\n      tag_61\n      swap2\n      swap1\n      tag_46\n      jump\t// in\n    tag_61:\n      mload(0x40)\n      dup1\n      swap2\n      sub\n      swap1\n      return\n        /* \"@openzeppelin/contracts@5.0.2/token/ERC721/ERC721.sol\":2185:2303  function ownerOf(uint256 tokenId) public view virtual returns (address) {... */\n    tag_12:\n      tag_62\n      0x04\n      dup1\n      calldatasize\n      sub\n      dup2\n      add\n      swap1\n      tag_63\n      swap2\n      swap1\n      tag_35\n      jump\t// in\n    tag_63:\n      tag_64\n      jump\t// in\n    tag_62:\n      mload(0x40)\n      tag_65\n      swap2\n      swap1\n      tag_38\n      jump\t// in\n    tag_65:\n      mload(0x40)\n      dup1\n      swap2\n      sub\n      swap1\n      return\n        /* \"@openzeppelin/contracts@5.0.2/token/ERC721/ERC721.sol\":1920:2128  function balanceOf(address owner) public view virtual returns (uint256) {... */\n    tag_13:\n      tag_66\n      0x04\n      dup1\n      calldatasize\n      sub\n      dup2\n      add\n      swap1\n      tag_67\n      swap2\n      swap1\n      tag_68\n      jump\t// in\n    tag_67:\n      tag_69\n      jump\t// in\n    tag_66:\n      mload(0x40)\n      tag_70\n      swap2\n      swap1\n      tag_46\n      jump\t// in\n    tag_70:\n      mload(0x40)\n      dup1\n      swap2\n      sub\n      swap1\n      return\n        /* \"@openzeppelin/contracts@5.0.2/token/ERC721/ERC721.sol\":2518:2611  function symbol() public view virtual returns (string memory) {... */\n    tag_14:\n      tag_71\n      tag_72\n      jump\t// in\n    tag_71:\n      mload(0x40)\n      tag_73\n      swap2\n      swap1\n      tag_32\n      jump\t// in\n    tag_73:\n      mload(0x40)\n      dup1\n      swap2\n      sub\n      swap1\n      return\n        /* \"@openzeppelin/contracts@5.0.2/token/ERC721/ERC721.sol\":3718:3862  function setApprovalForAll(address operator, bool approved) public virtual {... */\n    tag_15:\n      tag_74\n      0x04\n      dup1\n      calldatasize\n      sub\n      dup2\n      add\n      swap1\n      tag_75\n      swap2\n      swap1\n      tag_76\n      jump\t// in\n    tag_75:\n      tag_77\n      jump\t// in\n    tag_74:\n      stop\n        /* \"@openzeppelin/contracts@5.0.2/token/ERC721/ERC721.sol\":4985:5193  function safeTransferFrom(address from, address to, uint256 tokenId, bytes memory data) public virtual {... */\n    tag_16:\n      tag_78\n      0x04\n      dup1\n      calldatasize\n      sub\n      dup2\n      add\n      swap1\n      tag_79\n      swap2\n      swap1\n      tag_80\n      jump\t// in\n    tag_79:\n      tag_81\n      jump\t// in\n    tag_78:\n      stop\n        /* \"contract_TalentKeyNFT.sol\":1404:1593  function tokenURI(uint256 tokenId)... */\n    tag_17:\n      tag_82\n      0x04\n      dup1\n      calldatasize\n      sub\n      dup2\n      add\n      swap1\n      tag_83\n      swap2\n      swap1\n      tag_35\n      jump\t// in\n    tag_83:\n      tag_84\n      jump\t// in\n    tag_82:\n      mload(0x40)\n      tag_85\n      swap2\n      swap1\n      tag_32\n      jump\t// in\n    tag_85:\n      mload(0x40)\n      dup1\n      swap2\n      sub\n      swap1\n      return\n        /* \"contract_TalentKeyNFT.sol\":671:935  function safeMint(address to, string memory uri) public {... */\n    tag_18:\n      tag_86\n      0x04\n      dup1\n      calldatasize\n      sub\n      dup2\n      add\n      swap1\n      tag_87\n      swap2\n      swap1\n      tag_88\n      jump\t// in\n    tag_87:\n      tag_89\n      jump\t// in\n    tag_86:\n      stop\n        /* \"@openzeppelin/contracts@5.0.2/token/ERC721/ERC721.sol\":3928:4081  function isApprovedForAll(address owner, address operator) public view virtual returns (bool) {... */\n    tag_19:\n      tag_90\n      0x04\n      dup1\n      calldatasize\n      sub\n      dup2\n      add\n      swap1\n      tag_91\n      swap2\n      swap1\n      tag_92\n      jump\t// in\n    tag_91:\n      tag_93\n      jump\t// in\n    tag_90:\n      mload(0x40)\n      tag_94\n      swap2\n      swap1\n      tag_28\n      jump\t// in\n    tag_94:\n      mload(0x40)\n      dup1\n      swap2\n      sub\n      swap1\n      return\n        /* \"contract_TalentKeyNFT.sol\":1599:1822  function supportsInterface(bytes4 interfaceId)... */\n    tag_26:\n        /* \"contract_TalentKeyNFT.sol\":1752:1756  bool */\n      0x00\n        /* \"contract_TalentKeyNFT.sol\":1779:1815  super.supportsInterface(interfaceId) */\n      tag_96\n        /* \"contract_TalentKeyNFT.sol\":1803:1814  interfaceId */\n      dup3\n        /* \"contract_TalentKeyNFT.sol\":1779:1802  super.supportsInterface */\n      tag_97\n        /* \"contract_TalentKeyNFT.sol\":1779:1815  super.supportsInterface(interfaceId) */\n      jump\t// in\n    tag_96:\n        /* \"contract_TalentKeyNFT.sol\":1772:1815  return super.supportsInterface(interfaceId) */\n      swap1\n      pop\n        /* \"contract_TalentKeyNFT.sol\":1599:1822  function supportsInterface(bytes4 interfaceId)... */\n      swap2\n      swap1\n      pop\n      jump\t// out\n        /* \"@openzeppelin/contracts@5.0.2/token/ERC721/ERC721.sol\":2365:2454  function name() public view virtual returns (string memory) {... */\n    tag_30:\n        /* \"@openzeppelin/contracts@5.0.2/token/ERC721/ERC721.sol\":2410:2423  string memory */\n      0x60\n        /* \"@openzeppelin/contracts@5.0.2/token/ERC721/ERC721.sol\":2442:2447  _name */\n      0x00\n        /* \"@openzeppelin/contracts@5.0.2/token/ERC721/ERC721.sol\":2435:2447  return _name */\n      dup1\n      sload\n      tag_99\n      swap1\n      tag_100\n      jump\t// in\n    tag_99:\n      dup1\n      0x1f\n      add\n      0x20\n      dup1\n      swap2\n      div\n      mul\n      0x20\n      add\n      mload(0x40)\n      swap1\n      dup2\n      add\n      0x40\n      mstore\n      dup1\n      swap3\n      swap2\n      swap1\n      dup2\n      dup2\n      mstore\n      0x20\n      add\n      dup3\n      dup1\n      sload\n      tag_101\n      swap1\n      tag_100\n      jump\t// in\n    tag_101:\n      dup1\n      iszero\n      tag_102\n      jumpi\n      dup1\n      0x1f\n      lt\n      tag_103\n      jumpi\n      0x0100\n      dup1\n      dup4\n      sload\n      div\n      mul\n      dup4\n      mstore\n      swap2\n      0x20\n      add\n      swap2\n      jump(tag_102)\n    tag_103:\n      dup3\n      add\n      swap2\n      swap1\n      0x00\n      mstore\n      keccak256(0x00, 0x20)\n      swap1\n    tag_104:\n      dup2\n      sload\n      dup2\n      mstore\n      swap1\n      0x01\n      add\n      swap1\n      0x20\n      add\n      dup1\n      dup4\n      gt\n      tag_104\n      jumpi\n      dup3\n      swap1\n      sub\n      0x1f\n      and\n      dup3\n      add\n      swap2\n    tag_102:\n      pop\n      pop\n      pop\n      pop\n      pop\n      swap1\n      pop\n        /* \"@openzeppelin/contracts@5.0.2/token/ERC721/ERC721.sol\":2365:2454  function name() public view virtual returns (string memory) {... */\n      swap1\n      jump\t// out\n        /* \"@openzeppelin/contracts@5.0.2/token/ERC721/ERC721.sol\":3497:3651  function getApproved(uint256 tokenId) public view virtual returns (address) {... */\n    tag_36:\n        /* \"@openzeppelin/contracts@5.0.2/token/ERC721/ERC721.sol\":3564:3571  address */\n      0x00\n        /* \"@openzeppelin/contracts@5.0.2/token/ERC721/ERC721.sol\":3583:3605  _requireOwned(tokenId) */\n      tag_106\n        /* \"@openzeppelin/contracts@5.0.2/token/ERC721/ERC721.sol\":3597:3604  tokenId */\n      dup3\n        /* \"@openzeppelin/contracts@5.0.2/token/ERC721/ERC721.sol\":3583:3596  _requireOwned */\n      tag_107\n        /* \"@openzeppelin/contracts@5.0.2/token/ERC721/ERC721.sol\":3583:3605  _requireOwned(tokenId) */\n      jump\t// in\n    tag_106:\n      pop\n        /* \"@openzeppelin/contracts@5.0.2/token/ERC721/ERC721.sol\":3623:3644  _getApproved(tokenId) */\n      tag_108\n        /* \"@openzeppelin/contracts@5.0.2/token/ERC721/ERC721.sol\":3636:3643  tokenId */\n      dup3\n        /* \"@openzeppelin/contracts@5.0.2/token/ERC721/ERC721.sol\":3623:3635  _getApproved */\n      tag_109\n        /* \"@openzeppelin/contracts@5.0.2/token/ERC721/ERC721.sol\":3623:3644  _getApproved(tokenId) */\n      jump\t// in\n    tag_108:\n        /* \"@openzeppelin/contracts@5.0.2/token/ERC721/ERC721.sol\":3616:3644  return _getApproved(tokenId) */\n      swap1\n      pop\n        /* \"@openzeppelin/contracts@5.0.2/token/ERC721/ERC721.sol\":3497:3651  function getApproved(uint256 tokenId) public view virtual returns (address) {... */\n      swap2\n      swap1\n      pop\n      jump\t// out\n        /* \"@openzeppelin/contracts@5.0.2/token/ERC721/ERC721.sol\":3323:3436  function approve(address to, uint256 tokenId) public virtual {... */\n    tag_42:\n        /* \"@openzeppelin/contracts@5.0.2/token/ERC721/ERC721.sol\":3394:3429  _approve(to, tokenId, _msgSender()) */\n      tag_111\n        /* \"@openzeppelin/contracts@5.0.2/token/ERC721/ERC721.sol\":3403:3405  to */\n      dup3\n        /* \"@openzeppelin/contracts@5.0.2/token/ERC721/ERC721.sol\":3407:3414  tokenId */\n      dup3\n        /* \"@openzeppelin/contracts@5.0.2/token/ERC721/ERC721.sol\":3416:3428  _msgSender() */\n      tag_112\n        /* \"@openzeppelin/contracts@5.0.2/token/ERC721/ERC721.sol\":3416:3426  _msgSender */\n      tag_113\n        /* \"@openzeppelin/contracts@5.0.2/token/ERC721/ERC721.sol\":3416:3428  _msgSender() */\n      jump\t// in\n    tag_112:\n        /* \"@openzeppelin/contracts@5.0.2/token/ERC721/ERC721.sol\":3394:3402  _approve */\n      tag_114\n        /* \"@openzeppelin/contracts@5.0.2/token/ERC721/ERC721.sol\":3394:3429  _approve(to, tokenId, _msgSender()) */\n      jump\t// in\n    tag_111:\n        /* \"@openzeppelin/contracts@5.0.2/token/ERC721/ERC721.sol\":3323:3436  function approve(address to, uint256 tokenId) public virtual {... */\n      pop\n      pop\n      jump\t// out\n        /* \"@openzeppelin/contracts@5.0.2/token/ERC721/extensions/ERC721Enumerable.sol\":2062:2164  function totalSupply() public view virtual returns (uint256) {... */\n    tag_44:\n        /* \"@openzeppelin/contracts@5.0.2/token/ERC721/extensions/ERC721Enumerable.sol\":2114:2121  uint256 */\n      0x00\n        /* \"@openzeppelin/contracts@5.0.2/token/ERC721/extensions/ERC721Enumerable.sol\":2140:2150  _allTokens */\n      0x08\n        /* \"@openzeppelin/contracts@5.0.2/token/ERC721/extensions/ERC721Enumerable.sol\":2140:2157  _allTokens.length */\n      dup1\n      sload\n      swap1\n      pop\n        /* \"@openzeppelin/contracts@5.0.2/token/ERC721/extensions/ERC721Enumerable.sol\":2133:2157  return _allTokens.length */\n      swap1\n      pop\n        /* \"@openzeppelin/contracts@5.0.2/token/ERC721/extensions/ERC721Enumerable.sol\":2062:2164  function totalSupply() public view virtual returns (uint256) {... */\n      swap1\n      jump\t// out\n        /* \"@openzeppelin/contracts@5.0.2/token/ERC721/ERC721.sol\":4143:4721  function transferFrom(address from, address to, uint256 tokenId) public virtual {... */\n    tag_50:\n        /* \"@openzeppelin/contracts@5.0.2/token/ERC721/ERC721.sol\":4251:4252  0 */\n      0x00\n        /* \"@openzeppelin/contracts@5.0.2/token/ERC721/ERC721.sol\":4237:4253  to == address(0) */\n      0xffffffffffffffffffffffffffffffffffffffff\n      and\n        /* \"@openzeppelin/contracts@5.0.2/token/ERC721/ERC721.sol\":4237:4239  to */\n      dup3\n        /* \"@openzeppelin/contracts@5.0.2/token/ERC721/ERC721.sol\":4237:4253  to == address(0) */\n      0xffffffffffffffffffffffffffffffffffffffff\n      and\n      sub\n        /* \"@openzeppelin/contracts@5.0.2/token/ERC721/ERC721.sol\":4233:4320  if (to == address(0)) {... */\n      tag_117\n      jumpi\n        /* \"@openzeppelin/contracts@5.0.2/token/ERC721/ERC721.sol\":4306:4307  0 */\n      0x00\n        /* \"@openzeppelin/contracts@5.0.2/token/ERC721/ERC721.sol\":4276:4309  ERC721InvalidReceiver(address(0)) */\n      mload(0x40)\n      0x64a0ae9200000000000000000000000000000000000000000000000000000000\n      dup2\n      mstore\n      0x04\n      add\n      tag_118\n      swap2\n      swap1\n      tag_38\n      jump\t// in\n    tag_118:\n      mload(0x40)\n      dup1\n      swap2\n      sub\n      swap1\n      revert\n        /* \"@openzeppelin/contracts@5.0.2/token/ERC721/ERC721.sol\":4233:4320  if (to == address(0)) {... */\n    tag_117:\n        /* \"@openzeppelin/contracts@5.0.2/token/ERC721/ERC721.sol\":4538:4559  address previousOwner */\n      0x00\n        /* \"@openzeppelin/contracts@5.0.2/token/ERC721/ERC721.sol\":4562:4596  _update(to, tokenId, _msgSender()) */\n      tag_119\n        /* \"@openzeppelin/contracts@5.0.2/token/ERC721/ERC721.sol\":4570:4572  to */\n      dup4\n        /* \"@openzeppelin/contracts@5.0.2/token/ERC721/ERC721.sol\":4574:4581  tokenId */\n      dup4\n        /* \"@openzeppelin/contracts@5.0.2/token/ERC721/ERC721.sol\":4583:4595  _msgSender() */\n      tag_120\n        /* \"@openzeppelin/contracts@5.0.2/token/ERC721/ERC721.sol\":4583:4593  _msgSender */\n      tag_113\n        /* \"@openzeppelin/contracts@5.0.2/token/ERC721/ERC721.sol\":4583:4595  _msgSender() */\n      jump\t// in\n    tag_120:\n        /* \"@openzeppelin/contracts@5.0.2/token/ERC721/ERC721.sol\":4562:4569  _update */\n      tag_121\n        /* \"@openzeppelin/contracts@5.0.2/token/ERC721/ERC721.sol\":4562:4596  _update(to, tokenId, _msgSender()) */\n      jump\t// in\n    tag_119:\n        /* \"@openzeppelin/contracts@5.0.2/token/ERC721/ERC721.sol\":4538:4596  address previousOwner = _update(to, tokenId, _msgSender()) */\n      swap1\n      pop\n        /* \"@openzeppelin/contracts@5.0.2/token/ERC721/ERC721.sol\":4627:4631  from */\n      dup4\n        /* \"@openzeppelin/contracts@5.0.2/token/ERC721/ERC721.sol\":4610:4631  previousOwner != from */\n      0xffffffffffffffffffffffffffffffffffffffff\n      and\n        /* \"@openzeppelin/contracts@5.0.2/token/ERC721/ERC721.sol\":4610:4623  previousOwner */\n      dup2\n        /* \"@openzeppelin/contracts@5.0.2/token/ERC721/ERC721.sol\":4610:4631  previousOwner != from */\n      0xffffffffffffffffffffffffffffffffffffffff\n      and\n      eq\n        /* \"@openzeppelin/contracts@5.0.2/token/ERC721/ERC721.sol\":4606:4715  if (previousOwner != from) {... */\n      tag_122\n      jumpi\n        /* \"@openzeppelin/contracts@5.0.2/token/ERC721/ERC721.sol\":4675:4679  from */\n      dup4\n        /* \"@openzeppelin/contracts@5.0.2/token/ERC721/ERC721.sol\":4681:4688  tokenId */\n      dup3\n        /* \"@openzeppelin/contracts@5.0.2/token/ERC721/ERC721.sol\":4690:4703  previousOwner */\n      dup3\n        /* \"@openzeppelin/contracts@5.0.2/token/ERC721/ERC721.sol\":4654:4704  ERC721IncorrectOwner(from, tokenId, previousOwner) */\n      mload(0x40)\n      0x64283d7b00000000000000000000000000000000000000000000000000000000\n      dup2\n      mstore\n      0x04\n      add\n      tag_123\n      swap4\n      swap3\n      swap2\n      swap1\n      tag_124\n      jump\t// in\n    tag_123:\n      mload(0x40)\n      dup1\n      swap2\n      sub\n      swap1\n      revert\n        /* \"@openzeppelin/contracts@5.0.2/token/ERC721/ERC721.sol\":4606:4715  if (previousOwner != from) {... */\n    tag_122:\n        /* \"@openzeppelin/contracts@5.0.2/token/ERC721/ERC721.sol\":4223:4721  {... */\n      pop\n        /* \"@openzeppelin/contracts@5.0.2/token/ERC721/ERC721.sol\":4143:4721  function transferFrom(address from, address to, uint256 tokenId) public virtual {... */\n      pop\n      pop\n      pop\n      jump\t// out\n        /* \"@openzeppelin/contracts@5.0.2/token/ERC721/extensions/ERC721Enumerable.sol\":1736:1991  function tokenOfOwnerByIndex(address owner, uint256 index) public view virtual returns (uint256) {... */\n    tag_53:\n        /* \"@openzeppelin/contracts@5.0.2/token/ERC721/extensions/ERC721Enumerable.sol\":1824:1831  uint256 */\n      0x00\n        /* \"@openzeppelin/contracts@5.0.2/token/ERC721/extensions/ERC721Enumerable.sol\":1856:1872  balanceOf(owner) */\n      tag_126\n        /* \"@openzeppelin/contracts@5.0.2/token/ERC721/extensions/ERC721Enumerable.sol\":1866:1871  owner */\n      dup4\n        /* \"@openzeppelin/contracts@5.0.2/token/ERC721/extensions/ERC721Enumerable.sol\":1856:1865  balanceOf */\n      tag_69\n        /* \"@openzeppelin/contracts@5.0.2/token/ERC721/extensions/ERC721Enumerable.sol\":1856:1872  balanceOf(owner) */\n      jump\t// in\n    tag_126:\n        /* \"@openzeppelin/contracts@5.0.2/token/ERC721/extensions/ERC721Enumerable.sol\":1847:1852  index */\n      dup3\n        /* \"@openzeppelin/contracts@5.0.2/token/ERC721/extensions/ERC721Enumerable.sol\":1847:1872  index >= balanceOf(owner) */\n      lt\n        /* \"@openzeppelin/contracts@5.0.2/token/ERC721/extensions/ERC721Enumerable.sol\":1843:1942  if (index >= balanceOf(owner)) {... */\n      tag_127\n      jumpi\n        /* \"@openzeppelin/contracts@5.0.2/token/ERC721/extensions/ERC721Enumerable.sol\":1918:1923  owner */\n      dup3\n        /* \"@openzeppelin/contracts@5.0.2/token/ERC721/extensions/ERC721Enumerable.sol\":1925:1930  index */\n      dup3\n        /* \"@openzeppelin/contracts@5.0.2/token/ERC721/extensions/ERC721Enumerable.sol\":1895:1931  ERC721OutOfBoundsIndex(owner, index) */\n      mload(0x40)\n      0xa57d13dc00000000000000000000000000000000000000000000000000000000\n      dup2\n      mstore\n      0x04\n      add\n      tag_128\n      swap3\n      swap2\n      swap1\n      tag_129\n      jump\t// in\n    tag_128:\n      mload(0x40)\n      dup1\n      swap2\n      sub\n      swap1\n      revert\n        /* \"@openzeppelin/contracts@5.0.2/token/ERC721/extensions/ERC721Enumerable.sol\":1843:1942  if (index >= balanceOf(owner)) {... */\n    tag_127:\n        /* \"@openzeppelin/contracts@5.0.2/token/ERC721/extensions/ERC721Enumerable.sol\":1958:1970  _ownedTokens */\n      0x06\n        /* \"@openzeppelin/contracts@5.0.2/token/ERC721/extensions/ERC721Enumerable.sol\":1958:1977  _ownedTokens[owner] */\n      0x00\n        /* \"@openzeppelin/contracts@5.0.2/token/ERC721/extensions/ERC721Enumerable.sol\":1971:1976  owner */\n      dup5\n        /* \"@openzeppelin/contracts@5.0.2/token/ERC721/extensions/ERC721Enumerable.sol\":1958:1977  _ownedTokens[owner] */\n      0xffffffffffffffffffffffffffffffffffffffff\n      and\n      0xffffffffffffffffffffffffffffffffffffffff\n      and\n      dup2\n      mstore\n      0x20\n      add\n      swap1\n      dup2\n      mstore\n      0x20\n      add\n      0x00\n      keccak256\n        /* \"@openzeppelin/contracts@5.0.2/token/ERC721/extensions/ERC721Enumerable.sol\":1958:1984  _ownedTokens[owner][index] */\n      0x00\n        /* \"@openzeppelin/contracts@5.0.2/token/ERC721/extensions/ERC721Enumerable.sol\":1978:1983  index */\n      dup4\n        /* \"@openzeppelin/contracts@5.0.2/token/ERC721/extensions/ERC721Enumerable.sol\":1958:1984  _ownedTokens[owner][index] */\n      dup2\n      mstore\n      0x20\n      add\n      swap1\n      dup2\n      mstore\n      0x20\n      add\n      0x00\n      keccak256\n      sload\n        /* \"@openzeppelin/contracts@5.0.2/token/ERC721/extensions/ERC721Enumerable.sol\":1951:1984  return _ownedTokens[owner][index] */\n      swap1\n      pop\n        /* \"@openzeppelin/contracts@5.0.2/token/ERC721/extensions/ERC721Enumerable.sol\":1736:1991  function tokenOfOwnerByIndex(address owner, uint256 index) public view virtual returns (uint256) {... */\n      swap3\n      swap2\n      pop\n      pop\n      jump\t// out\n        /* \"@openzeppelin/contracts@5.0.2/token/ERC721/ERC721.sol\":4787:4919  function safeTransferFrom(address from, address to, uint256 tokenId) public {... */\n    tag_57:\n        /* \"@openzeppelin/contracts@5.0.2/token/ERC721/ERC721.sol\":4873:4912  safeTransferFrom(from, to, tokenId, \"\") */\n      tag_131\n        /* \"@openzeppelin/contracts@5.0.2/token/ERC721/ERC721.sol\":4890:4894  from */\n      dup4\n        /* \"@openzeppelin/contracts@5.0.2/token/ERC721/ERC721.sol\":4896:4898  to */\n      dup4\n        /* \"@openzeppelin/contracts@5.0.2/token/ERC721/ERC721.sol\":4900:4907  tokenId */\n      dup4\n        /* \"@openzeppelin/contracts@5.0.2/token/ERC721/ERC721.sol\":4873:4912  safeTransferFrom(from, to, tokenId, \"\") */\n      mload(0x40)\n      dup1\n      0x20\n      add\n      0x40\n      mstore\n      dup1\n      0x00\n      dup2\n      mstore\n      pop\n        /* \"@openzeppelin/contracts@5.0.2/token/ERC721/ERC721.sol\":4873:4889  safeTransferFrom */\n      tag_81\n        /* \"@openzeppelin/contracts@5.0.2/token/ERC721/ERC721.sol\":4873:4912  safeTransferFrom(from, to, tokenId, \"\") */\n      jump\t// in\n    tag_131:\n        /* \"@openzeppelin/contracts@5.0.2/token/ERC721/ERC721.sol\":4787:4919  function safeTransferFrom(address from, address to, uint256 tokenId) public {... */\n      pop\n      pop\n      pop\n      jump\t// out\n        /* \"@openzeppelin/contracts@5.0.2/token/ERC721/extensions/ERC721Enumerable.sol\":2236:2462  function tokenByIndex(uint256 index) public view virtual returns (uint256) {... */\n    tag_60:\n        /* \"@openzeppelin/contracts@5.0.2/token/ERC721/extensions/ERC721Enumerable.sol\":2302:2309  uint256 */\n      0x00\n        /* \"@openzeppelin/contracts@5.0.2/token/ERC721/extensions/ERC721Enumerable.sol\":2334:2347  totalSupply() */\n      tag_133\n        /* \"@openzeppelin/contracts@5.0.2/token/ERC721/extensions/ERC721Enumerable.sol\":2334:2345  totalSupply */\n      tag_44\n        /* \"@openzeppelin/contracts@5.0.2/token/ERC721/extensions/ERC721Enumerable.sol\":2334:2347  totalSupply() */\n      jump\t// in\n    tag_133:\n        /* \"@openzeppelin/contracts@5.0.2/token/ERC721/extensions/ERC721Enumerable.sol\":2325:2330  index */\n      dup3\n        /* \"@openzeppelin/contracts@5.0.2/token/ERC721/extensions/ERC721Enumerable.sol\":2325:2347  index >= totalSupply() */\n      lt\n        /* \"@openzeppelin/contracts@5.0.2/token/ERC721/extensions/ERC721Enumerable.sol\":2321:2422  if (index >= totalSupply()) {... */\n      tag_134\n      jumpi\n        /* \"@openzeppelin/contracts@5.0.2/token/ERC721/extensions/ERC721Enumerable.sol\":2401:2402  0 */\n      0x00\n        /* \"@openzeppelin/contracts@5.0.2/token/ERC721/extensions/ERC721Enumerable.sol\":2405:2410  index */\n      dup3\n        /* \"@openzeppelin/contracts@5.0.2/token/ERC721/extensions/ERC721Enumerable.sol\":2370:2411  ERC721OutOfBoundsIndex(address(0), index) */\n      mload(0x40)\n      0xa57d13dc00000000000000000000000000000000000000000000000000000000\n      dup2\n      mstore\n      0x04\n      add\n      tag_135\n      swap3\n      swap2\n      swap1\n      tag_129\n      jump\t// in\n    tag_135:\n      mload(0x40)\n      dup1\n      swap2\n      sub\n      swap1\n      revert\n        /* \"@openzeppelin/contracts@5.0.2/token/ERC721/extensions/ERC721Enumerable.sol\":2321:2422  if (index >= totalSupply()) {... */\n    tag_134:\n        /* \"@openzeppelin/contracts@5.0.2/token/ERC721/extensions/ERC721Enumerable.sol\":2438:2448  _allTokens */\n      0x08\n        /* \"@openzeppelin/contracts@5.0.2/token/ERC721/extensions/ERC721Enumerable.sol\":2449:2454  index */\n      dup3\n        /* \"@openzeppelin/contracts@5.0.2/token/ERC721/extensions/ERC721Enumerable.sol\":2438:2455  _allTokens[index] */\n      dup2\n      sload\n      dup2\n      lt\n      tag_136\n      jumpi\n      tag_137\n      tag_138\n      jump\t// in\n    tag_137:\n    tag_136:\n      swap1\n      0x00\n      mstore\n      keccak256(0x00, 0x20)\n      add\n      sload\n        /* \"@openzeppelin/contracts@5.0.2/token/ERC721/extensions/ERC721Enumerable.sol\":2431:2455  return _allTokens[index] */\n      swap1\n      pop\n        /* \"@openzeppelin/contracts@5.0.2/token/ERC721/extensions/ERC721Enumerable.sol\":2236:2462  function tokenByIndex(uint256 index) public view virtual returns (uint256) {... */\n      swap2\n      swap1\n      pop\n      jump\t// out\n        /* \"@openzeppelin/contracts@5.0.2/token/ERC721/ERC721.sol\":2185:2303  function ownerOf(uint256 tokenId) public view virtual returns (address) {... */\n    tag_64:\n        /* \"@openzeppelin/contracts@5.0.2/token/ERC721/ERC721.sol\":2248:2255  address */\n      0x00\n        /* \"@openzeppelin/contracts@5.0.2/token/ERC721/ERC721.sol\":2274:2296  _requireOwned(tokenId) */\n      tag_141\n        /* \"@openzeppelin/contracts@5.0.2/token/ERC721/ERC721.sol\":2288:2295  tokenId */\n      dup3\n        /* \"@openzeppelin/contracts@5.0.2/token/ERC721/ERC721.sol\":2274:2287  _requireOwned */\n      tag_107\n        /* \"@openzeppelin/contracts@5.0.2/token/ERC721/ERC721.sol\":2274:2296  _requireOwned(tokenId) */\n      jump\t// in\n    tag_141:\n        /* \"@openzeppelin/contracts@5.0.2/token/ERC721/ERC721.sol\":2267:2296  return _requireOwned(tokenId) */\n      swap1\n      pop\n        /* \"@openzeppelin/contracts@5.0.2/token/ERC721/ERC721.sol\":2185:2303  function ownerOf(uint256 tokenId) public view virtual returns (address) {... */\n      swap2\n      swap1\n      pop\n      jump\t// out\n        /* \"@openzeppelin/contracts@5.0.2/token/ERC721/ERC721.sol\":1920:2128  function balanceOf(address owner) public view virtual returns (uint256) {... */\n    tag_69:\n        /* \"@openzeppelin/contracts@5.0.2/token/ERC721/ERC721.sol\":1983:1990  uint256 */\n      0x00\n        /* \"@openzeppelin/contracts@5.0.2/token/ERC721/ERC721.sol\":2023:2024  0 */\n      dup1\n        /* \"@openzeppelin/contracts@5.0.2/token/ERC721/ERC721.sol\":2006:2025  owner == address(0) */\n      0xffffffffffffffffffffffffffffffffffffffff\n      and\n        /* \"@openzeppelin/contracts@5.0.2/token/ERC721/ERC721.sol\":2006:2011  owner */\n      dup3\n        /* \"@openzeppelin/contracts@5.0.2/token/ERC721/ERC721.sol\":2006:2025  owner == address(0) */\n      0xffffffffffffffffffffffffffffffffffffffff\n      and\n      sub\n        /* \"@openzeppelin/contracts@5.0.2/token/ERC721/ERC721.sol\":2002:2089  if (owner == address(0)) {... */\n      tag_143\n      jumpi\n        /* \"@openzeppelin/contracts@5.0.2/token/ERC721/ERC721.sol\":2075:2076  0 */\n      0x00\n        /* \"@openzeppelin/contracts@5.0.2/token/ERC721/ERC721.sol\":2048:2078  ERC721InvalidOwner(address(0)) */\n      mload(0x40)\n      0x89c62b6400000000000000000000000000000000000000000000000000000000\n      dup2\n      mstore\n      0x04\n      add\n      tag_144\n      swap2\n      swap1\n      tag_38\n      jump\t// in\n    tag_144:\n      mload(0x40)\n      dup1\n      swap2\n      sub\n      swap1\n      revert\n        /* \"@openzeppelin/contracts@5.0.2/token/ERC721/ERC721.sol\":2002:2089  if (owner == address(0)) {... */\n    tag_143:\n        /* \"@openzeppelin/contracts@5.0.2/token/ERC721/ERC721.sol\":2105:2114  _balances */\n      0x03\n        /* \"@openzeppelin/contracts@5.0.2/token/ERC721/ERC721.sol\":2105:2121  _balances[owner] */\n      0x00\n        /* \"@openzeppelin/contracts@5.0.2/token/ERC721/ERC721.sol\":2115:2120  owner */\n      dup4\n        /* \"@openzeppelin/contracts@5.0.2/token/ERC721/ERC721.sol\":2105:2121  _balances[owner] */\n      0xffffffffffffffffffffffffffffffffffffffff\n      and\n      0xffffffffffffffffffffffffffffffffffffffff\n      and\n      dup2\n      mstore\n      0x20\n      add\n      swap1\n      dup2\n      mstore\n      0x20\n      add\n      0x00\n      keccak256\n      sload\n        /* \"@openzeppelin/contracts@5.0.2/token/ERC721/ERC721.sol\":2098:2121  return _balances[owner] */\n      swap1\n      pop\n        /* \"@openzeppelin/contracts@5.0.2/token/ERC721/ERC721.sol\":1920:2128  function balanceOf(address owner) public view virtual returns (uint256) {... */\n      swap2\n      swap1\n      pop\n      jump\t// out\n        /* \"@openzeppelin/contracts@5.0.2/token/ERC721/ERC721.sol\":2518:2611  function symbol() public view virtual returns (string memory) {... */\n    tag_72:\n        /* \"@openzeppelin/contracts@5.0.2/token/ERC721/ERC721.sol\":2565:2578  string memory */\n      0x60\n        /* \"@openzeppelin/contracts@5.0.2/token/ERC721/ERC721.sol\":2597:2604  _symbol */\n      0x01\n        /* \"@openzeppelin/contracts@5.0.2/token/ERC721/ERC721.sol\":2590:2604  return _symbol */\n      dup1\n      sload\n      tag_146\n      swap1\n      tag_100\n      jump\t// in\n    tag_146:\n      dup1\n      0x1f\n      add\n      0x20\n      dup1\n      swap2\n      div\n      mul\n      0x20\n      add\n      mload(0x40)\n      swap1\n      dup2\n      add\n      0x40\n      mstore\n      dup1\n      swap3\n      swap2\n      swap1\n      dup2\n      dup2\n      mstore\n      0x20\n      add\n      dup3\n      dup1\n      sload\n      tag_147\n      swap1\n      tag_100\n      jump\t// in\n    tag_147:\n      dup1\n      iszero\n      tag_148\n      jumpi\n      dup1\n      0x1f\n      lt\n      tag_149\n      jumpi\n      0x0100\n      dup1\n      dup4\n      sload\n      div\n      mul\n      dup4\n      mstore\n      swap2\n      0x20\n      add\n      swap2\n      jump(tag_148)\n    tag_149:\n      dup3\n      add\n      swap2\n      swap1\n      0x00\n      mstore\n      keccak256(0x00, 0x20)\n      swap1\n    tag_150:\n      dup2\n      sload\n      dup2\n      mstore\n      swap1\n      0x01\n      add\n      swap1\n      0x20\n      add\n      dup1\n      dup4\n      gt\n      tag_150\n      jumpi\n      dup3\n      swap1\n      sub\n      0x1f\n      and\n      dup3\n      add\n      swap2\n    tag_148:\n      pop\n      pop\n      pop\n      pop\n      pop\n      swap1\n      pop\n        /* \"@openzeppelin/contracts@5.0.2/token/ERC721/ERC721.sol\":2518:2611  function symbol() public view virtual returns (string memory) {... */\n      swap1\n      jump\t// out\n        /* \"@openzeppelin/contracts@5.0.2/token/ERC721/ERC721.sol\":3718:3862  function setApprovalForAll(address operator, bool approved) public virtual {... */\n    tag_77:\n        /* \"@openzeppelin/contracts@5.0.2/token/ERC721/ERC721.sol\":3803:3855  _setApprovalForAll(_msgSender(), operator, approved) */\n      tag_152\n        /* \"@openzeppelin/contracts@5.0.2/token/ERC721/ERC721.sol\":3822:3834  _msgSender() */\n      tag_153\n        /* \"@openzeppelin/contracts@5.0.2/token/ERC721/ERC721.sol\":3822:3832  _msgSender */\n      tag_113\n        /* \"@openzeppelin/contracts@5.0.2/token/ERC721/ERC721.sol\":3822:3834  _msgSender() */\n      jump\t// in\n    tag_153:\n        /* \"@openzeppelin/contracts@5.0.2/token/ERC721/ERC721.sol\":3836:3844  operator */\n      dup4\n        /* \"@openzeppelin/contracts@5.0.2/token/ERC721/ERC721.sol\":3846:3854  approved */\n      dup4\n        /* \"@openzeppelin/contracts@5.0.2/token/ERC721/ERC721.sol\":3803:3821  _setApprovalForAll */\n      tag_154\n        /* \"@openzeppelin/contracts@5.0.2/token/ERC721/ERC721.sol\":3803:3855  _setApprovalForAll(_msgSender(), operator, approved) */\n      jump\t// in\n    tag_152:\n        /* \"@openzeppelin/contracts@5.0.2/token/ERC721/ERC721.sol\":3718:3862  function setApprovalForAll(address operator, bool approved) public virtual {... */\n      pop\n      pop\n      jump\t// out\n        /* \"@openzeppelin/contracts@5.0.2/token/ERC721/ERC721.sol\":4985:5193  function safeTransferFrom(address from, address to, uint256 tokenId, bytes memory data) public virtual {... */\n    tag_81:\n        /* \"@openzeppelin/contracts@5.0.2/token/ERC721/ERC721.sol\":5098:5129  transferFrom(from, to, tokenId) */\n      tag_156\n        /* \"@openzeppelin/contracts@5.0.2/token/ERC721/ERC721.sol\":5111:5115  from */\n      dup5\n        /* \"@openzeppelin/contracts@5.0.2/token/ERC721/ERC721.sol\":5117:5119  to */\n      dup5\n        /* \"@openzeppelin/contracts@5.0.2/token/ERC721/ERC721.sol\":5121:5128  tokenId */\n      dup5\n        /* \"@openzeppelin/contracts@5.0.2/token/ERC721/ERC721.sol\":5098:5110  transferFrom */\n      tag_50\n        /* \"@openzeppelin/contracts@5.0.2/token/ERC721/ERC721.sol\":5098:5129  transferFrom(from, to, tokenId) */\n      jump\t// in\n    tag_156:\n        /* \"@openzeppelin/contracts@5.0.2/token/ERC721/ERC721.sol\":5139:5186  _checkOnERC721Received(from, to, tokenId, data) */\n      tag_157\n        /* \"@openzeppelin/contracts@5.0.2/token/ERC721/ERC721.sol\":5162:5166  from */\n      dup5\n        /* \"@openzeppelin/contracts@5.0.2/token/ERC721/ERC721.sol\":5168:5170  to */\n      dup5\n        /* \"@openzeppelin/contracts@5.0.2/token/ERC721/ERC721.sol\":5172:5179  tokenId */\n      dup5\n        /* \"@openzeppelin/contracts@5.0.2/token/ERC721/ERC721.sol\":5181:5185  data */\n      dup5\n        /* \"@openzeppelin/contracts@5.0.2/token/ERC721/ERC721.sol\":5139:5161  _checkOnERC721Received */\n      tag_158\n        /* \"@openzeppelin/contracts@5.0.2/token/ERC721/ERC721.sol\":5139:5186  _checkOnERC721Received(from, to, tokenId, data) */\n      jump\t// in\n    tag_157:\n        /* \"@openzeppelin/contracts@5.0.2/token/ERC721/ERC721.sol\":4985:5193  function safeTransferFrom(address from, address to, uint256 tokenId, bytes memory data) public virtual {... */\n      pop\n      pop\n      pop\n      pop\n      jump\t// out\n        /* \"contract_TalentKeyNFT.sol\":1404:1593  function tokenURI(uint256 tokenId)... */\n    tag_84:\n        /* \"contract_TalentKeyNFT.sol\":1527:1540  string memory */\n      0x60\n        /* \"contract_TalentKeyNFT.sol\":1563:1586  super.tokenURI(tokenId) */\n      tag_160\n        /* \"contract_TalentKeyNFT.sol\":1578:1585  tokenId */\n      dup3\n        /* \"contract_TalentKeyNFT.sol\":1563:1577  super.tokenURI */\n      tag_161\n        /* \"contract_TalentKeyNFT.sol\":1563:1586  super.tokenURI(tokenId) */\n      jump\t// in\n    tag_160:\n        /* \"contract_TalentKeyNFT.sol\":1556:1586  return super.tokenURI(tokenId) */\n      swap1\n      pop\n        /* \"contract_TalentKeyNFT.sol\":1404:1593  function tokenURI(uint256 tokenId)... */\n      swap2\n      swap1\n      pop\n      jump\t// out\n        /* \"contract_TalentKeyNFT.sol\":671:935  function safeMint(address to, string memory uri) public {... */\n    tag_89:\n        /* \"contract_TalentKeyNFT.sol\":737:752  uint256 tokenId */\n      0x00\n        /* \"contract_TalentKeyNFT.sol\":755:767  _nextTokenId */\n      0x0b\n      0x00\n        /* \"contract_TalentKeyNFT.sol\":755:769  _nextTokenId++ */\n      dup2\n      sload\n      dup1\n      swap3\n      swap2\n      swap1\n      tag_163\n      swap1\n      tag_164\n      jump\t// in\n    tag_163:\n      swap2\n      swap1\n      pop\n      sstore\n        /* \"contract_TalentKeyNFT.sol\":737:769  uint256 tokenId = _nextTokenId++ */\n      swap1\n      pop\n        /* \"contract_TalentKeyNFT.sol\":779:801  _safeMint(to, tokenId) */\n      tag_165\n        /* \"contract_TalentKeyNFT.sol\":789:791  to */\n      dup4\n        /* \"contract_TalentKeyNFT.sol\":793:800  tokenId */\n      dup3\n        /* \"contract_TalentKeyNFT.sol\":779:788  _safeMint */\n      tag_166\n        /* \"contract_TalentKeyNFT.sol\":779:801  _safeMint(to, tokenId) */\n      jump\t// in\n    tag_165:\n        /* \"contract_TalentKeyNFT.sol\":811:837  _setTokenURI(tokenId, uri) */\n      tag_167\n        /* \"contract_TalentKeyNFT.sol\":824:831  tokenId */\n      dup2\n        /* \"contract_TalentKeyNFT.sol\":833:836  uri */\n      dup4\n        /* \"contract_TalentKeyNFT.sol\":811:823  _setTokenURI */\n      tag_168\n        /* \"contract_TalentKeyNFT.sol\":811:837  _setTokenURI(tokenId, uri) */\n      jump\t// in\n    tag_167:\n        /* \"contract_TalentKeyNFT.sol\":884:894  MAX_SUPPLY */\n      sload(0x0d)\n        /* \"contract_TalentKeyNFT.sol\":855:880  _tokenIdCounter.current() */\n      tag_169\n        /* \"contract_TalentKeyNFT.sol\":855:870  _tokenIdCounter */\n      0x0c\n        /* \"contract_TalentKeyNFT.sol\":855:878  _tokenIdCounter.current */\n      tag_170\n        /* \"contract_TalentKeyNFT.sol\":855:880  _tokenIdCounter.current() */\n      jump\t// in\n    tag_169:\n        /* \"contract_TalentKeyNFT.sol\":855:894  _tokenIdCounter.current() <= MAX_SUPPLY */\n      gt\n      iszero\n        /* \"contract_TalentKeyNFT.sol\":847:927  require(_tokenIdCounter.current() <= MAX_SUPPLY, \"I'm sorry we reached the cap\") */\n      tag_171\n      jumpi\n      mload(0x40)\n      0x08c379a000000000000000000000000000000000000000000000000000000000\n      dup2\n      mstore\n      0x04\n      add\n      tag_172\n      swap1\n      tag_173\n      jump\t// in\n    tag_172:\n      mload(0x40)\n      dup1\n      swap2\n      sub\n      swap1\n      revert\n    tag_171:\n        /* \"contract_TalentKeyNFT.sol\":727:935  {... */\n      pop\n        /* \"contract_TalentKeyNFT.sol\":671:935  function safeMint(address to, string memory uri) public {... */\n      pop\n      pop\n      jump\t// out\n        /* \"@openzeppelin/contracts@5.0.2/token/ERC721/ERC721.sol\":3928:4081  function isApprovedForAll(address owner, address operator) public view virtual returns (bool) {... */\n    tag_93:\n        /* \"@openzeppelin/contracts@5.0.2/token/ERC721/ERC721.sol\":4016:4020  bool */\n      0x00\n        /* \"@openzeppelin/contracts@5.0.2/token/ERC721/ERC721.sol\":4039:4057  _operatorApprovals */\n      0x05\n        /* \"@openzeppelin/contracts@5.0.2/token/ERC721/ERC721.sol\":4039:4064  _operatorApprovals[owner] */\n      0x00\n        /* \"@openzeppelin/contracts@5.0.2/token/ERC721/ERC721.sol\":4058:4063  owner */\n      dup5\n        /* \"@openzeppelin/contracts@5.0.2/token/ERC721/ERC721.sol\":4039:4064  _operatorApprovals[owner] */\n      0xffffffffffffffffffffffffffffffffffffffff\n      and\n      0xffffffffffffffffffffffffffffffffffffffff\n      and\n      dup2\n      mstore\n      0x20\n      add\n      swap1\n      dup2\n      mstore\n      0x20\n      add\n      0x00\n      keccak256\n        /* \"@openzeppelin/contracts@5.0.2/token/ERC721/ERC721.sol\":4039:4074  _operatorApprovals[owner][operator] */\n      0x00\n        /* \"@openzeppelin/contracts@5.0.2/token/ERC721/ERC721.sol\":4065:4073  operator */\n      dup4\n        /* \"@openzeppelin/contracts@5.0.2/token/ERC721/ERC721.sol\":4039:4074  _operatorApprovals[owner][operator] */\n      0xffffffffffffffffffffffffffffffffffffffff\n      and\n      0xffffffffffffffffffffffffffffffffffffffff\n      and\n      dup2\n      mstore\n      0x20\n      add\n      swap1\n      dup2\n      mstore\n      0x20\n      add\n      0x00\n      keccak256\n      0x00\n      swap1\n      sload\n      swap1\n      0x0100\n      exp\n      swap1\n      div\n      0xff\n      and\n        /* \"@openzeppelin/contracts@5.0.2/token/ERC721/ERC721.sol\":4032:4074  return _operatorApprovals[owner][operator] */\n      swap1\n      pop\n        /* \"@openzeppelin/contracts@5.0.2/token/ERC721/ERC721.sol\":3928:4081  function isApprovedForAll(address owner, address operator) public view virtual returns (bool) {... */\n      swap3\n      swap2\n      pop\n      pop\n      jump\t// out\n        /* \"@openzeppelin/contracts@5.0.2/token/ERC721/extensions/ERC721URIStorage.sol\":937:1144  function supportsInterface(bytes4 interfaceId) public view virtual override(ERC721, IERC165) returns (bool) {... */\n    tag_97:\n        /* \"@openzeppelin/contracts@5.0.2/token/ERC721/extensions/ERC721URIStorage.sol\":1039:1043  bool */\n      0x00\n        /* \"@openzeppelin/contracts@5.0.2/token/ERC721/extensions/ERC721URIStorage.sol\":760:770  0x49064906 */\n      0x49064906\n        /* \"@openzeppelin/contracts@5.0.2/token/ERC721/extensions/ERC721URIStorage.sol\":753:771  bytes4(0x49064906) */\n      0xe0\n      shl\n        /* \"@openzeppelin/contracts@5.0.2/token/ERC721/extensions/ERC721URIStorage.sol\":1062:1097  interfaceId == ERC4906_INTERFACE_ID */\n      not(0xffffffffffffffffffffffffffffffffffffffffffffffffffffffff)\n      and\n        /* \"@openzeppelin/contracts@5.0.2/token/ERC721/extensions/ERC721URIStorage.sol\":1062:1073  interfaceId */\n      dup3\n        /* \"@openzeppelin/contracts@5.0.2/token/ERC721/extensions/ERC721URIStorage.sol\":1062:1097  interfaceId == ERC4906_INTERFACE_ID */\n      not(0xffffffffffffffffffffffffffffffffffffffffffffffffffffffff)\n      and\n      eq\n        /* \"@openzeppelin/contracts@5.0.2/token/ERC721/extensions/ERC721URIStorage.sol\":1062:1137  interfaceId == ERC4906_INTERFACE_ID || super.supportsInterface(interfaceId) */\n      dup1\n      tag_176\n      jumpi\n      pop\n        /* \"@openzeppelin/contracts@5.0.2/token/ERC721/extensions/ERC721URIStorage.sol\":1101:1137  super.supportsInterface(interfaceId) */\n      tag_177\n        /* \"@openzeppelin/contracts@5.0.2/token/ERC721/extensions/ERC721URIStorage.sol\":1125:1136  interfaceId */\n      dup3\n        /* \"@openzeppelin/contracts@5.0.2/token/ERC721/extensions/ERC721URIStorage.sol\":1101:1124  super.supportsInterface */\n      tag_178\n        /* \"@openzeppelin/contracts@5.0.2/token/ERC721/extensions/ERC721URIStorage.sol\":1101:1137  super.supportsInterface(interfaceId) */\n      jump\t// in\n    tag_177:\n        /* \"@openzeppelin/contracts@5.0.2/token/ERC721/extensions/ERC721URIStorage.sol\":1062:1137  interfaceId == ERC4906_INTERFACE_ID || super.supportsInterface(interfaceId) */\n    tag_176:\n        /* \"@openzeppelin/contracts@5.0.2/token/ERC721/extensions/ERC721URIStorage.sol\":1055:1137  return interfaceId == ERC4906_INTERFACE_ID || super.supportsInterface(interfaceId) */\n      swap1\n      pop\n        /* \"@openzeppelin/contracts@5.0.2/token/ERC721/extensions/ERC721URIStorage.sol\":937:1144  function supportsInterface(bytes4 interfaceId) public view virtual override(ERC721, IERC165) returns (bool) {... */\n      swap2\n      swap1\n      pop\n      jump\t// out\n        /* \"@openzeppelin/contracts@5.0.2/token/ERC721/ERC721.sol\":16138:16379  function _requireOwned(uint256 tokenId) internal view returns (address) {... */\n    tag_107:\n        /* \"@openzeppelin/contracts@5.0.2/token/ERC721/ERC721.sol\":16201:16208  address */\n      0x00\n        /* \"@openzeppelin/contracts@5.0.2/token/ERC721/ERC721.sol\":16220:16233  address owner */\n      dup1\n        /* \"@openzeppelin/contracts@5.0.2/token/ERC721/ERC721.sol\":16236:16253  _ownerOf(tokenId) */\n      tag_180\n        /* \"@openzeppelin/contracts@5.0.2/token/ERC721/ERC721.sol\":16245:16252  tokenId */\n      dup4\n        /* \"@openzeppelin/contracts@5.0.2/token/ERC721/ERC721.sol\":16236:16244  _ownerOf */\n      tag_181\n        /* \"@openzeppelin/contracts@5.0.2/token/ERC721/ERC721.sol\":16236:16253  _ownerOf(tokenId) */\n      jump\t// in\n    tag_180:\n        /* \"@openzeppelin/contracts@5.0.2/token/ERC721/ERC721.sol\":16220:16253  address owner = _ownerOf(tokenId) */\n      swap1\n      pop\n        /* \"@openzeppelin/contracts@5.0.2/token/ERC721/ERC721.sol\":16284:16285  0 */\n      0x00\n        /* \"@openzeppelin/contracts@5.0.2/token/ERC721/ERC721.sol\":16267:16286  owner == address(0) */\n      0xffffffffffffffffffffffffffffffffffffffff\n      and\n        /* \"@openzeppelin/contracts@5.0.2/token/ERC721/ERC721.sol\":16267:16272  owner */\n      dup2\n        /* \"@openzeppelin/contracts@5.0.2/token/ERC721/ERC721.sol\":16267:16286  owner == address(0) */\n      0xffffffffffffffffffffffffffffffffffffffff\n      and\n      sub\n        /* \"@openzeppelin/contracts@5.0.2/token/ERC721/ERC721.sol\":16263:16351  if (owner == address(0)) {... */\n      tag_182\n      jumpi\n        /* \"@openzeppelin/contracts@5.0.2/token/ERC721/ERC721.sol\":16332:16339  tokenId */\n      dup3\n        /* \"@openzeppelin/contracts@5.0.2/token/ERC721/ERC721.sol\":16309:16340  ERC721NonexistentToken(tokenId) */\n      mload(0x40)\n      0x7e27328900000000000000000000000000000000000000000000000000000000\n      dup2\n      mstore\n      0x04\n      add\n      tag_183\n      swap2\n      swap1\n      tag_46\n      jump\t// in\n    tag_183:\n      mload(0x40)\n      dup1\n      swap2\n      sub\n      swap1\n      revert\n        /* \"@openzeppelin/contracts@5.0.2/token/ERC721/ERC721.sol\":16263:16351  if (owner == address(0)) {... */\n    tag_182:\n        /* \"@openzeppelin/contracts@5.0.2/token/ERC721/ERC721.sol\":16367:16372  owner */\n      dup1\n        /* \"@openzeppelin/contracts@5.0.2/token/ERC721/ERC721.sol\":16360:16372  return owner */\n      swap2\n      pop\n      pop\n        /* \"@openzeppelin/contracts@5.0.2/token/ERC721/ERC721.sol\":16138:16379  function _requireOwned(uint256 tokenId) internal view returns (address) {... */\n      swap2\n      swap1\n      pop\n      jump\t// out\n        /* \"@openzeppelin/contracts@5.0.2/token/ERC721/ERC721.sol\":5938:6065  function _getApproved(uint256 tokenId) internal view virtual returns (address) {... */\n    tag_109:\n        /* \"@openzeppelin/contracts@5.0.2/token/ERC721/ERC721.sol\":6008:6015  address */\n      0x00\n        /* \"@openzeppelin/contracts@5.0.2/token/ERC721/ERC721.sol\":6034:6049  _tokenApprovals */\n      0x04\n        /* \"@openzeppelin/contracts@5.0.2/token/ERC721/ERC721.sol\":6034:6058  _tokenApprovals[tokenId] */\n      0x00\n        /* \"@openzeppelin/contracts@5.0.2/token/ERC721/ERC721.sol\":6050:6057  tokenId */\n      dup4\n        /* \"@openzeppelin/contracts@5.0.2/token/ERC721/ERC721.sol\":6034:6058  _tokenApprovals[tokenId] */\n      dup2\n      mstore\n      0x20\n      add\n      swap1\n      dup2\n      mstore\n      0x20\n      add\n      0x00\n      keccak256\n      0x00\n      swap1\n      sload\n      swap1\n      0x0100\n      exp\n      swap1\n      div\n      0xffffffffffffffffffffffffffffffffffffffff\n      and\n        /* \"@openzeppelin/contracts@5.0.2/token/ERC721/ERC721.sol\":6027:6058  return _tokenApprovals[tokenId] */\n      swap1\n      pop\n        /* \"@openzeppelin/contracts@5.0.2/token/ERC721/ERC721.sol\":5938:6065  function _getApproved(uint256 tokenId) internal view virtual returns (address) {... */\n      swap2\n      swap1\n      pop\n      jump\t// out\n        /* \"@openzeppelin/contracts@5.0.2/utils/Context.sol\":656:752  function _msgSender() internal view virtual returns (address) {... */\n    tag_113:\n        /* \"@openzeppelin/contracts@5.0.2/utils/Context.sol\":709:716  address */\n      0x00\n        /* \"@openzeppelin/contracts@5.0.2/utils/Context.sol\":735:745  msg.sender */\n      caller\n        /* \"@openzeppelin/contracts@5.0.2/utils/Context.sol\":728:745  return msg.sender */\n      swap1\n      pop\n        /* \"@openzeppelin/contracts@5.0.2/utils/Context.sol\":656:752  function _msgSender() internal view virtual returns (address) {... */\n      swap1\n      jump\t// out\n        /* \"@openzeppelin/contracts@5.0.2/token/ERC721/ERC721.sol\":14418:14538  function _approve(address to, uint256 tokenId, address auth) internal {... */\n    tag_114:\n        /* \"@openzeppelin/contracts@5.0.2/token/ERC721/ERC721.sol\":14498:14531  _approve(to, tokenId, auth, true) */\n      tag_187\n        /* \"@openzeppelin/contracts@5.0.2/token/ERC721/ERC721.sol\":14507:14509  to */\n      dup4\n        /* \"@openzeppelin/contracts@5.0.2/token/ERC721/ERC721.sol\":14511:14518  tokenId */\n      dup4\n        /* \"@openzeppelin/contracts@5.0.2/token/ERC721/ERC721.sol\":14520:14524  auth */\n      dup4\n        /* \"@openzeppelin/contracts@5.0.2/token/ERC721/ERC721.sol\":14526:14530  true */\n      0x01\n        /* \"@openzeppelin/contracts@5.0.2/token/ERC721/ERC721.sol\":14498:14506  _approve */\n      tag_188\n        /* \"@openzeppelin/contracts@5.0.2/token/ERC721/ERC721.sol\":14498:14531  _approve(to, tokenId, auth, true) */\n      jump\t// in\n    tag_187:\n        /* \"@openzeppelin/contracts@5.0.2/token/ERC721/ERC721.sol\":14418:14538  function _approve(address to, uint256 tokenId, address auth) internal {... */\n      pop\n      pop\n      pop\n      jump\t// out\n        /* \"contract_TalentKeyNFT.sol\":1009:1215  function _update(address to, uint256 tokenId, address auth)... */\n    tag_121:\n        /* \"contract_TalentKeyNFT.sol\":1146:1153  address */\n      0x00\n        /* \"contract_TalentKeyNFT.sol\":1176:1208  super._update(to, tokenId, auth) */\n      tag_190\n        /* \"contract_TalentKeyNFT.sol\":1190:1192  to */\n      dup5\n        /* \"contract_TalentKeyNFT.sol\":1194:1201  tokenId */\n      dup5\n        /* \"contract_TalentKeyNFT.sol\":1203:1207  auth */\n      dup5\n        /* \"contract_TalentKeyNFT.sol\":1176:1189  super._update */\n      tag_191\n        /* \"contract_TalentKeyNFT.sol\":1176:1208  super._update(to, tokenId, auth) */\n      jump\t// in\n    tag_190:\n        /* \"contract_TalentKeyNFT.sol\":1169:1208  return super._update(to, tokenId, auth) */\n      swap1\n      pop\n        /* \"contract_TalentKeyNFT.sol\":1009:1215  function _update(address to, uint256 tokenId, address auth)... */\n      swap4\n      swap3\n      pop\n      pop\n      pop\n      jump\t// out\n        /* \"@openzeppelin/contracts@5.0.2/token/ERC721/ERC721.sol\":15591:15903  function _setApprovalForAll(address owner, address operator, bool approved) internal virtual {... */\n    tag_154:\n        /* \"@openzeppelin/contracts@5.0.2/token/ERC721/ERC721.sol\":15718:15719  0 */\n      0x00\n        /* \"@openzeppelin/contracts@5.0.2/token/ERC721/ERC721.sol\":15698:15720  operator == address(0) */\n      0xffffffffffffffffffffffffffffffffffffffff\n      and\n        /* \"@openzeppelin/contracts@5.0.2/token/ERC721/ERC721.sol\":15698:15706  operator */\n      dup3\n        /* \"@openzeppelin/contracts@5.0.2/token/ERC721/ERC721.sol\":15698:15720  operator == address(0) */\n      0xffffffffffffffffffffffffffffffffffffffff\n      and\n      sub\n        /* \"@openzeppelin/contracts@5.0.2/token/ERC721/ERC721.sol\":15694:15785  if (operator == address(0)) {... */\n      tag_193\n      jumpi\n        /* \"@openzeppelin/contracts@5.0.2/token/ERC721/ERC721.sol\":15765:15773  operator */\n      dup2\n        /* \"@openzeppelin/contracts@5.0.2/token/ERC721/ERC721.sol\":15743:15774  ERC721InvalidOperator(operator) */\n      mload(0x40)\n      0x5b08ba1800000000000000000000000000000000000000000000000000000000\n      dup2\n      mstore\n      0x04\n      add\n      tag_194\n      swap2\n      swap1\n      tag_38\n      jump\t// in\n    tag_194:\n      mload(0x40)\n      dup1\n      swap2\n      sub\n      swap1\n      revert\n        /* \"@openzeppelin/contracts@5.0.2/token/ERC721/ERC721.sol\":15694:15785  if (operator == address(0)) {... */\n    tag_193:\n        /* \"@openzeppelin/contracts@5.0.2/token/ERC721/ERC721.sol\":15832:15840  approved */\n      dup1\n        /* \"@openzeppelin/contracts@5.0.2/token/ERC721/ERC721.sol\":15794:15812  _operatorApprovals */\n      0x05\n        /* \"@openzeppelin/contracts@5.0.2/token/ERC721/ERC721.sol\":15794:15819  _operatorApprovals[owner] */\n      0x00\n        /* \"@openzeppelin/contracts@5.0.2/token/ERC721/ERC721.sol\":15813:15818  owner */\n      dup6\n        /* \"@openzeppelin/contracts@5.0.2/token/ERC721/ERC721.sol\":15794:15819  _operatorApprovals[owner] */\n      0xffffffffffffffffffffffffffffffffffffffff\n      and\n      0xffffffffffffffffffffffffffffffffffffffff\n      and\n      dup2\n      mstore\n      0x20\n      add\n      swap1\n      dup2\n      mstore\n      0x20\n      add\n      0x00\n      keccak256\n        /* \"@openzeppelin/contracts@5.0.2/token/ERC721/ERC721.sol\":15794:15829  _operatorApprovals[owner][operator] */\n      0x00\n        /* \"@openzeppelin/contracts@5.0.2/token/ERC721/ERC721.sol\":15820:15828  operator */\n      dup5\n        /* \"@openzeppelin/contracts@5.0.2/token/ERC721/ERC721.sol\":15794:15829  _operatorApprovals[owner][operator] */\n      0xffffffffffffffffffffffffffffffffffffffff\n      and\n      0xffffffffffffffffffffffffffffffffffffffff\n      and\n      dup2\n      mstore\n      0x20\n      add\n      swap1\n      dup2\n      mstore\n      0x20\n      add\n      0x00\n      keccak256\n      0x00\n        /* \"@openzeppelin/contracts@5.0.2/token/ERC721/ERC721.sol\":15794:15840  _operatorApprovals[owner][operator] = approved */\n      0x0100\n      exp\n      dup2\n      sload\n      dup2\n      0xff\n      mul\n      not\n      and\n      swap1\n      dup4\n      iszero\n      iszero\n      mul\n      or\n      swap1\n      sstore\n      pop\n        /* \"@openzeppelin/contracts@5.0.2/token/ERC721/ERC721.sol\":15877:15885  operator */\n      dup2\n        /* \"@openzeppelin/contracts@5.0.2/token/ERC721/ERC721.sol\":15855:15896  ApprovalForAll(owner, operator, approved) */\n      0xffffffffffffffffffffffffffffffffffffffff\n      and\n        /* \"@openzeppelin/contracts@5.0.2/token/ERC721/ERC721.sol\":15870:15875  owner */\n      dup4\n        /* \"@openzeppelin/contracts@5.0.2/token/ERC721/ERC721.sol\":15855:15896  ApprovalForAll(owner, operator, approved) */\n      0xffffffffffffffffffffffffffffffffffffffff\n      and\n      0x17307eab39ab6107e8899845ad3d59bd9653f200f220920489ca2b5937696c31\n        /* \"@openzeppelin/contracts@5.0.2/token/ERC721/ERC721.sol\":15887:15895  approved */\n      dup4\n        /* \"@openzeppelin/contracts@5.0.2/token/ERC721/ERC721.sol\":15855:15896  ApprovalForAll(owner, operator, approved) */\n      mload(0x40)\n      tag_195\n      swap2\n      swap1\n      tag_28\n      jump\t// in\n    tag_195:\n      mload(0x40)\n      dup1\n      swap2\n      sub\n      swap1\n      log3\n        /* \"@openzeppelin/contracts@5.0.2/token/ERC721/ERC721.sol\":15591:15903  function _setApprovalForAll(address owner, address operator, bool approved) internal virtual {... */\n      pop\n      pop\n      pop\n      jump\t// out\n        /* \"@openzeppelin/contracts@5.0.2/token/ERC721/ERC721.sol\":16918:17700  function _checkOnERC721Received(address from, address to, uint256 tokenId, bytes memory data) private {... */\n    tag_158:\n        /* \"@openzeppelin/contracts@5.0.2/token/ERC721/ERC721.sol\":17051:17052  0 */\n      0x00\n        /* \"@openzeppelin/contracts@5.0.2/token/ERC721/ERC721.sol\":17034:17036  to */\n      dup4\n        /* \"@openzeppelin/contracts@5.0.2/token/ERC721/ERC721.sol\":17034:17048  to.code.length */\n      0xffffffffffffffffffffffffffffffffffffffff\n      and\n      extcodesize\n        /* \"@openzeppelin/contracts@5.0.2/token/ERC721/ERC721.sol\":17034:17052  to.code.length > 0 */\n      gt\n        /* \"@openzeppelin/contracts@5.0.2/token/ERC721/ERC721.sol\":17030:17694  if (to.code.length > 0) {... */\n      iszero\n      tag_197\n      jumpi\n        /* \"@openzeppelin/contracts@5.0.2/token/ERC721/ERC721.sol\":17088:17090  to */\n      dup3\n        /* \"@openzeppelin/contracts@5.0.2/token/ERC721/ERC721.sol\":17072:17108  IERC721Receiver(to).onERC721Received */\n      0xffffffffffffffffffffffffffffffffffffffff\n      and\n      0x150b7a02\n        /* \"@openzeppelin/contracts@5.0.2/token/ERC721/ERC721.sol\":17109:17121  _msgSender() */\n      tag_198\n        /* \"@openzeppelin/contracts@5.0.2/token/ERC721/ERC721.sol\":17109:17119  _msgSender */\n      tag_113\n        /* \"@openzeppelin/contracts@5.0.2/token/ERC721/ERC721.sol\":17109:17121  _msgSender() */\n      jump\t// in\n    tag_198:\n        /* \"@openzeppelin/contracts@5.0.2/token/ERC721/ERC721.sol\":17123:17127  from */\n      dup7\n        /* \"@openzeppelin/contracts@5.0.2/token/ERC721/ERC721.sol\":17129:17136  tokenId */\n      dup6\n        /* \"@openzeppelin/contracts@5.0.2/token/ERC721/ERC721.sol\":17138:17142  data */\n      dup6\n        /* \"@openzeppelin/contracts@5.0.2/token/ERC721/ERC721.sol\":17072:17143  IERC721Receiver(to).onERC721Received(_msgSender(), from, tokenId, data) */\n      mload(0x40)\n      dup6\n      0xffffffff\n      and\n      0xe0\n      shl\n      dup2\n      mstore\n      0x04\n      add\n      tag_199\n      swap5\n      swap4\n      swap3\n      swap2\n      swap1\n      tag_200\n      jump\t// in\n    tag_199:\n      0x20\n      mload(0x40)\n      dup1\n      dup4\n      sub\n      dup2\n      0x00\n      dup8\n      gas\n      call\n      swap3\n      pop\n      pop\n      pop\n      dup1\n      iszero\n      tag_201\n      jumpi\n      pop\n      mload(0x40)\n      returndatasize\n      not(0x1f)\n      0x1f\n      dup3\n      add\n      and\n      dup3\n      add\n      dup1\n      0x40\n      mstore\n      pop\n      dup2\n      add\n      swap1\n      tag_202\n      swap2\n      swap1\n      tag_203\n      jump\t// in\n    tag_202:\n      0x01\n    tag_201:\n        /* \"@openzeppelin/contracts@5.0.2/token/ERC721/ERC721.sol\":17068:17684  try IERC721Receiver(to).onERC721Received(_msgSender(), from, tokenId, data) returns (bytes4 retval) {... */\n      tag_204\n      jumpi\n      returndatasize\n      dup1\n      0x00\n      dup2\n      eq\n      tag_209\n      jumpi\n      mload(0x40)\n      swap2\n      pop\n      and(add(returndatasize, 0x3f), not(0x1f))\n      dup3\n      add\n      0x40\n      mstore\n      returndatasize\n      dup3\n      mstore\n      returndatasize\n      0x00\n      0x20\n      dup5\n      add\n      returndatacopy\n      jump(tag_208)\n    tag_209:\n      0x60\n      swap2\n      pop\n    tag_208:\n      pop\n        /* \"@openzeppelin/contracts@5.0.2/token/ERC721/ERC721.sol\":17398:17399  0 */\n      0x00\n        /* \"@openzeppelin/contracts@5.0.2/token/ERC721/ERC721.sol\":17381:17387  reason */\n      dup2\n        /* \"@openzeppelin/contracts@5.0.2/token/ERC721/ERC721.sol\":17381:17394  reason.length */\n      mload\n        /* \"@openzeppelin/contracts@5.0.2/token/ERC721/ERC721.sol\":17381:17399  reason.length == 0 */\n      sub\n        /* \"@openzeppelin/contracts@5.0.2/token/ERC721/ERC721.sol\":17377:17670  if (reason.length == 0) {... */\n      tag_210\n      jumpi\n        /* \"@openzeppelin/contracts@5.0.2/token/ERC721/ERC721.sol\":17452:17454  to */\n      dup4\n        /* \"@openzeppelin/contracts@5.0.2/token/ERC721/ERC721.sol\":17430:17455  ERC721InvalidReceiver(to) */\n      mload(0x40)\n      0x64a0ae9200000000000000000000000000000000000000000000000000000000\n      dup2\n      mstore\n      0x04\n      add\n      tag_211\n      swap2\n      swap1\n      tag_38\n      jump\t// in\n    tag_211:\n      mload(0x40)\n      dup1\n      swap2\n      sub\n      swap1\n      revert\n        /* \"@openzeppelin/contracts@5.0.2/token/ERC721/ERC721.sol\":17377:17670  if (reason.length == 0) {... */\n    tag_210:\n        /* \"@openzeppelin/contracts@5.0.2/token/ERC721/ERC721.sol\":17622:17628  reason */\n      dup1\n        /* \"@openzeppelin/contracts@5.0.2/token/ERC721/ERC721.sol\":17616:17629  mload(reason) */\n      mload\n        /* \"@openzeppelin/contracts@5.0.2/token/ERC721/ERC721.sol\":17607:17613  reason */\n      dup2\n        /* \"@openzeppelin/contracts@5.0.2/token/ERC721/ERC721.sol\":17603:17605  32 */\n      0x20\n        /* \"@openzeppelin/contracts@5.0.2/token/ERC721/ERC721.sol\":17599:17614  add(32, reason) */\n      add\n        /* \"@openzeppelin/contracts@5.0.2/token/ERC721/ERC721.sol\":17592:17630  revert(add(32, reason), mload(reason)) */\n      revert\n        /* \"@openzeppelin/contracts@5.0.2/token/ERC721/ERC721.sol\":17068:17684  try IERC721Receiver(to).onERC721Received(_msgSender(), from, tokenId, data) returns (bytes4 retval) {... */\n    tag_204:\n        /* \"@openzeppelin/contracts@5.0.2/token/ERC721/ERC721.sol\":17200:17241  IERC721Receiver.onERC721Received.selector */\n      shl(0xe0, 0x150b7a02)\n        /* \"@openzeppelin/contracts@5.0.2/token/ERC721/ERC721.sol\":17190:17241  retval != IERC721Receiver.onERC721Received.selector */\n      not(0xffffffffffffffffffffffffffffffffffffffffffffffffffffffff)\n      and\n        /* \"@openzeppelin/contracts@5.0.2/token/ERC721/ERC721.sol\":17190:17196  retval */\n      dup2\n        /* \"@openzeppelin/contracts@5.0.2/token/ERC721/ERC721.sol\":17190:17241  retval != IERC721Receiver.onERC721Received.selector */\n      not(0xffffffffffffffffffffffffffffffffffffffffffffffffffffffff)\n      and\n      eq\n        /* \"@openzeppelin/contracts@5.0.2/token/ERC721/ERC721.sol\":17186:17316  if (retval != IERC721Receiver.onERC721Received.selector) {... */\n      tag_214\n      jumpi\n        /* \"@openzeppelin/contracts@5.0.2/token/ERC721/ERC721.sol\":17294:17296  to */\n      dup4\n        /* \"@openzeppelin/contracts@5.0.2/token/ERC721/ERC721.sol\":17272:17297  ERC721InvalidReceiver(to) */\n      mload(0x40)\n      0x64a0ae9200000000000000000000000000000000000000000000000000000000\n      dup2\n      mstore\n      0x04\n      add\n      tag_215\n      swap2\n      swap1\n      tag_38\n      jump\t// in\n    tag_215:\n      mload(0x40)\n      dup1\n      swap2\n      sub\n      swap1\n      revert\n        /* \"@openzeppelin/contracts@5.0.2/token/ERC721/ERC721.sol\":17186:17316  if (retval != IERC721Receiver.onERC721Received.selector) {... */\n    tag_214:\n        /* \"@openzeppelin/contracts@5.0.2/token/ERC721/ERC721.sol\":17144:17330  returns (bytes4 retval) {... */\n      pop\n        /* \"@openzeppelin/contracts@5.0.2/token/ERC721/ERC721.sol\":17030:17694  if (to.code.length > 0) {... */\n    tag_197:\n        /* \"@openzeppelin/contracts@5.0.2/token/ERC721/ERC721.sol\":16918:17700  function _checkOnERC721Received(address from, address to, uint256 tokenId, bytes memory data) private {... */\n      pop\n      pop\n      pop\n      pop\n      jump\t// out\n        /* \"@openzeppelin/contracts@5.0.2/token/ERC721/extensions/ERC721URIStorage.sol\":1210:1803  function tokenURI(uint256 tokenId) public view virtual override returns (string memory) {... */\n    tag_161:\n        /* \"@openzeppelin/contracts@5.0.2/token/ERC721/extensions/ERC721URIStorage.sol\":1283:1296  string memory */\n      0x60\n        /* \"@openzeppelin/contracts@5.0.2/token/ERC721/extensions/ERC721URIStorage.sol\":1308:1330  _requireOwned(tokenId) */\n      tag_217\n        /* \"@openzeppelin/contracts@5.0.2/token/ERC721/extensions/ERC721URIStorage.sol\":1322:1329  tokenId */\n      dup3\n        /* \"@openzeppelin/contracts@5.0.2/token/ERC721/extensions/ERC721URIStorage.sol\":1308:1321  _requireOwned */\n      tag_107\n        /* \"@openzeppelin/contracts@5.0.2/token/ERC721/extensions/ERC721URIStorage.sol\":1308:1330  _requireOwned(tokenId) */\n      jump\t// in\n    tag_217:\n      pop\n        /* \"@openzeppelin/contracts@5.0.2/token/ERC721/extensions/ERC721URIStorage.sol\":1341:1364  string memory _tokenURI */\n      0x00\n        /* \"@openzeppelin/contracts@5.0.2/token/ERC721/extensions/ERC721URIStorage.sol\":1367:1377  _tokenURIs */\n      0x0a\n        /* \"@openzeppelin/contracts@5.0.2/token/ERC721/extensions/ERC721URIStorage.sol\":1367:1386  _tokenURIs[tokenId] */\n      0x00\n        /* \"@openzeppelin/contracts@5.0.2/token/ERC721/extensions/ERC721URIStorage.sol\":1378:1385  tokenId */\n      dup5\n        /* \"@openzeppelin/contracts@5.0.2/token/ERC721/extensions/ERC721URIStorage.sol\":1367:1386  _tokenURIs[tokenId] */\n      dup2\n      mstore\n      0x20\n      add\n      swap1\n      dup2\n      mstore\n      0x20\n      add\n      0x00\n      keccak256\n        /* \"@openzeppelin/contracts@5.0.2/token/ERC721/extensions/ERC721URIStorage.sol\":1341:1386  string memory _tokenURI = _tokenURIs[tokenId] */\n      dup1\n      sload\n      tag_218\n      swap1\n      tag_100\n      jump\t// in\n    tag_218:\n      dup1\n      0x1f\n      add\n      0x20\n      dup1\n      swap2\n      div\n      mul\n      0x20\n      add\n      mload(0x40)\n      swap1\n      dup2\n      add\n      0x40\n      mstore\n      dup1\n      swap3\n      swap2\n      swap1\n      dup2\n      dup2\n      mstore\n      0x20\n      add\n      dup3\n      dup1\n      sload\n      tag_219\n      swap1\n      tag_100\n      jump\t// in\n    tag_219:\n      dup1\n      iszero\n      tag_220\n      jumpi\n      dup1\n      0x1f\n      lt\n      tag_221\n      jumpi\n      0x0100\n      dup1\n      dup4\n      sload\n      div\n      mul\n      dup4\n      mstore\n      swap2\n      0x20\n      add\n      swap2\n      jump(tag_220)\n    tag_221:\n      dup3\n      add\n      swap2\n      swap1\n      0x00\n      mstore\n      keccak256(0x00, 0x20)\n      swap1\n    tag_222:\n      dup2\n      sload\n      dup2\n      mstore\n      swap1\n      0x01\n      add\n      swap1\n      0x20\n      add\n      dup1\n      dup4\n      gt\n      tag_222\n      jumpi\n      dup3\n      swap1\n      sub\n      0x1f\n      and\n      dup3\n      add\n      swap2\n    tag_220:\n      pop\n      pop\n      pop\n      pop\n      pop\n      swap1\n      pop\n        /* \"@openzeppelin/contracts@5.0.2/token/ERC721/extensions/ERC721URIStorage.sol\":1396:1414  string memory base */\n      0x00\n        /* \"@openzeppelin/contracts@5.0.2/token/ERC721/extensions/ERC721URIStorage.sol\":1417:1427  _baseURI() */\n      tag_223\n        /* \"@openzeppelin/contracts@5.0.2/token/ERC721/extensions/ERC721URIStorage.sol\":1417:1425  _baseURI */\n      tag_224\n        /* \"@openzeppelin/contracts@5.0.2/token/ERC721/extensions/ERC721URIStorage.sol\":1417:1427  _baseURI() */\n      jump\t// in\n    tag_223:\n        /* \"@openzeppelin/contracts@5.0.2/token/ERC721/extensions/ERC721URIStorage.sol\":1396:1427  string memory base = _baseURI() */\n      swap1\n      pop\n        /* \"@openzeppelin/contracts@5.0.2/token/ERC721/extensions/ERC721URIStorage.sol\":1522:1523  0 */\n      0x00\n        /* \"@openzeppelin/contracts@5.0.2/token/ERC721/extensions/ERC721URIStorage.sol\":1506:1510  base */\n      dup2\n        /* \"@openzeppelin/contracts@5.0.2/token/ERC721/extensions/ERC721URIStorage.sol\":1500:1518  bytes(base).length */\n      mload\n        /* \"@openzeppelin/contracts@5.0.2/token/ERC721/extensions/ERC721URIStorage.sol\":1500:1523  bytes(base).length == 0 */\n      sub\n        /* \"@openzeppelin/contracts@5.0.2/token/ERC721/extensions/ERC721URIStorage.sol\":1496:1566  if (bytes(base).length == 0) {... */\n      tag_225\n      jumpi\n        /* \"@openzeppelin/contracts@5.0.2/token/ERC721/extensions/ERC721URIStorage.sol\":1546:1555  _tokenURI */\n      dup2\n        /* \"@openzeppelin/contracts@5.0.2/token/ERC721/extensions/ERC721URIStorage.sol\":1539:1555  return _tokenURI */\n      swap3\n      pop\n      pop\n      pop\n      jump(tag_216)\n        /* \"@openzeppelin/contracts@5.0.2/token/ERC721/extensions/ERC721URIStorage.sol\":1496:1566  if (bytes(base).length == 0) {... */\n    tag_225:\n        /* \"@openzeppelin/contracts@5.0.2/token/ERC721/extensions/ERC721URIStorage.sol\":1691:1692  0 */\n      0x00\n        /* \"@openzeppelin/contracts@5.0.2/token/ERC721/extensions/ERC721URIStorage.sol\":1671:1680  _tokenURI */\n      dup3\n        /* \"@openzeppelin/contracts@5.0.2/token/ERC721/extensions/ERC721URIStorage.sol\":1665:1688  bytes(_tokenURI).length */\n      mload\n        /* \"@openzeppelin/contracts@5.0.2/token/ERC721/extensions/ERC721URIStorage.sol\":1665:1692  bytes(_tokenURI).length > 0 */\n      gt\n        /* \"@openzeppelin/contracts@5.0.2/token/ERC721/extensions/ERC721URIStorage.sol\":1661:1756  if (bytes(_tokenURI).length > 0) {... */\n      iszero\n      tag_226\n      jumpi\n        /* \"@openzeppelin/contracts@5.0.2/token/ERC721/extensions/ERC721URIStorage.sol\":1729:1733  base */\n      dup1\n        /* \"@openzeppelin/contracts@5.0.2/token/ERC721/extensions/ERC721URIStorage.sol\":1735:1744  _tokenURI */\n      dup3\n        /* \"@openzeppelin/contracts@5.0.2/token/ERC721/extensions/ERC721URIStorage.sol\":1715:1745  string.concat(base, _tokenURI) */\n      add(0x20, mload(0x40))\n      tag_227\n      swap3\n      swap2\n      swap1\n      tag_228\n      jump\t// in\n    tag_227:\n      mload(0x40)\n      0x20\n      dup2\n      dup4\n      sub\n      sub\n      dup2\n      mstore\n      swap1\n      0x40\n      mstore\n        /* \"@openzeppelin/contracts@5.0.2/token/ERC721/extensions/ERC721URIStorage.sol\":1708:1745  return string.concat(base, _tokenURI) */\n      swap3\n      pop\n      pop\n      pop\n      jump(tag_216)\n        /* \"@openzeppelin/contracts@5.0.2/token/ERC721/extensions/ERC721URIStorage.sol\":1661:1756  if (bytes(_tokenURI).length > 0) {... */\n    tag_226:\n        /* \"@openzeppelin/contracts@5.0.2/token/ERC721/extensions/ERC721URIStorage.sol\":1773:1796  super.tokenURI(tokenId) */\n      tag_229\n        /* \"@openzeppelin/contracts@5.0.2/token/ERC721/extensions/ERC721URIStorage.sol\":1788:1795  tokenId */\n      dup5\n        /* \"@openzeppelin/contracts@5.0.2/token/ERC721/extensions/ERC721URIStorage.sol\":1773:1787  super.tokenURI */\n      tag_230\n        /* \"@openzeppelin/contracts@5.0.2/token/ERC721/extensions/ERC721URIStorage.sol\":1773:1796  super.tokenURI(tokenId) */\n      jump\t// in\n    tag_229:\n        /* \"@openzeppelin/contracts@5.0.2/token/ERC721/extensions/ERC721URIStorage.sol\":1766:1796  return super.tokenURI(tokenId) */\n      swap3\n      pop\n      pop\n      pop\n        /* \"@openzeppelin/contracts@5.0.2/token/ERC721/extensions/ERC721URIStorage.sol\":1210:1803  function tokenURI(uint256 tokenId) public view virtual override returns (string memory) {... */\n    tag_216:\n      swap2\n      swap1\n      pop\n      jump\t// out\n        /* \"@openzeppelin/contracts@5.0.2/token/ERC721/ERC721.sol\":10633:10733  function _safeMint(address to, uint256 tokenId) internal {... */\n    tag_166:\n        /* \"@openzeppelin/contracts@5.0.2/token/ERC721/ERC721.sol\":10700:10726  _safeMint(to, tokenId, \"\") */\n      tag_232\n        /* \"@openzeppelin/contracts@5.0.2/token/ERC721/ERC721.sol\":10710:10712  to */\n      dup3\n        /* \"@openzeppelin/contracts@5.0.2/token/ERC721/ERC721.sol\":10714:10721  tokenId */\n      dup3\n        /* \"@openzeppelin/contracts@5.0.2/token/ERC721/ERC721.sol\":10700:10726  _safeMint(to, tokenId, \"\") */\n      mload(0x40)\n      dup1\n      0x20\n      add\n      0x40\n      mstore\n      dup1\n      0x00\n      dup2\n      mstore\n      pop\n        /* \"@openzeppelin/contracts@5.0.2/token/ERC721/ERC721.sol\":10700:10709  _safeMint */\n      tag_233\n        /* \"@openzeppelin/contracts@5.0.2/token/ERC721/ERC721.sol\":10700:10726  _safeMint(to, tokenId, \"\") */\n      jump\t// in\n    tag_232:\n        /* \"@openzeppelin/contracts@5.0.2/token/ERC721/ERC721.sol\":10633:10733  function _safeMint(address to, uint256 tokenId) internal {... */\n      pop\n      pop\n      jump\t// out\n        /* \"@openzeppelin/contracts@5.0.2/token/ERC721/extensions/ERC721URIStorage.sol\":1922:2089  function _setTokenURI(uint256 tokenId, string memory _tokenURI) internal virtual {... */\n    tag_168:\n        /* \"@openzeppelin/contracts@5.0.2/token/ERC721/extensions/ERC721URIStorage.sol\":2035:2044  _tokenURI */\n      dup1\n        /* \"@openzeppelin/contracts@5.0.2/token/ERC721/extensions/ERC721URIStorage.sol\":2013:2023  _tokenURIs */\n      0x0a\n        /* \"@openzeppelin/contracts@5.0.2/token/ERC721/extensions/ERC721URIStorage.sol\":2013:2032  _tokenURIs[tokenId] */\n      0x00\n        /* \"@openzeppelin/contracts@5.0.2/token/ERC721/extensions/ERC721URIStorage.sol\":2024:2031  tokenId */\n      dup5\n        /* \"@openzeppelin/contracts@5.0.2/token/ERC721/extensions/ERC721URIStorage.sol\":2013:2032  _tokenURIs[tokenId] */\n      dup2\n      mstore\n      0x20\n      add\n      swap1\n      dup2\n      mstore\n      0x20\n      add\n      0x00\n      keccak256\n        /* \"@openzeppelin/contracts@5.0.2/token/ERC721/extensions/ERC721URIStorage.sol\":2013:2044  _tokenURIs[tokenId] = _tokenURI */\n      swap1\n      dup2\n      tag_235\n      swap2\n      swap1\n      tag_236\n      jump\t// in\n    tag_235:\n      pop\n        /* \"@openzeppelin/contracts@5.0.2/token/ERC721/extensions/ERC721URIStorage.sol\":2059:2082  MetadataUpdate(tokenId) */\n      0xf8e1a15aba9398e019f0b49df1a4fde98ee17ae345cb5f6b5e2c27f5033e8ce7\n        /* \"@openzeppelin/contracts@5.0.2/token/ERC721/extensions/ERC721URIStorage.sol\":2074:2081  tokenId */\n      dup3\n        /* \"@openzeppelin/contracts@5.0.2/token/ERC721/extensions/ERC721URIStorage.sol\":2059:2082  MetadataUpdate(tokenId) */\n      mload(0x40)\n      tag_237\n      swap2\n      swap1\n      tag_46\n      jump\t// in\n    tag_237:\n      mload(0x40)\n      dup1\n      swap2\n      sub\n      swap1\n      log1\n        /* \"@openzeppelin/contracts@5.0.2/token/ERC721/extensions/ERC721URIStorage.sol\":1922:2089  function _setTokenURI(uint256 tokenId, string memory _tokenURI) internal virtual {... */\n      pop\n      pop\n      jump\t// out\n        /* \"@openzeppelin/contracts/utils/Counters.sol\":827:939  function current(Counter storage counter) internal view returns (uint256) {... */\n    tag_170:\n        /* \"@openzeppelin/contracts/utils/Counters.sol\":892:899  uint256 */\n      0x00\n        /* \"@openzeppelin/contracts/utils/Counters.sol\":918:925  counter */\n      dup2\n        /* \"@openzeppelin/contracts/utils/Counters.sol\":918:932  counter._value */\n      0x00\n      add\n      sload\n        /* \"@openzeppelin/contracts/utils/Counters.sol\":911:932  return counter._value */\n      swap1\n      pop\n        /* \"@openzeppelin/contracts/utils/Counters.sol\":827:939  function current(Counter storage counter) internal view returns (uint256) {... */\n      swap2\n      swap1\n      pop\n      jump\t// out\n        /* \"@openzeppelin/contracts@5.0.2/token/ERC721/extensions/ERC721Enumerable.sol\":1435:1657  function supportsInterface(bytes4 interfaceId) public view virtual override(IERC165, ERC721) returns (bool) {... */\n    tag_178:\n        /* \"@openzeppelin/contracts@5.0.2/token/ERC721/extensions/ERC721Enumerable.sol\":1537:1541  bool */\n      0x00\n        /* \"@openzeppelin/contracts@5.0.2/token/ERC721/extensions/ERC721Enumerable.sol\":1575:1610  type(IERC721Enumerable).interfaceId */\n      0x780e9d6300000000000000000000000000000000000000000000000000000000\n        /* \"@openzeppelin/contracts@5.0.2/token/ERC721/extensions/ERC721Enumerable.sol\":1560:1610  interfaceId == type(IERC721Enumerable).interfaceId */\n      not(0xffffffffffffffffffffffffffffffffffffffffffffffffffffffff)\n      and\n        /* \"@openzeppelin/contracts@5.0.2/token/ERC721/extensions/ERC721Enumerable.sol\":1560:1571  interfaceId */\n      dup3\n        /* \"@openzeppelin/contracts@5.0.2/token/ERC721/extensions/ERC721Enumerable.sol\":1560:1610  interfaceId == type(IERC721Enumerable).interfaceId */\n      not(0xffffffffffffffffffffffffffffffffffffffffffffffffffffffff)\n      and\n      eq\n        /* \"@openzeppelin/contracts@5.0.2/token/ERC721/extensions/ERC721Enumerable.sol\":1560:1650  interfaceId == type(IERC721Enumerable).interfaceId || super.supportsInterface(interfaceId) */\n      dup1\n      tag_240\n      jumpi\n      pop\n        /* \"@openzeppelin/contracts@5.0.2/token/ERC721/extensions/ERC721Enumerable.sol\":1614:1650  super.supportsInterface(interfaceId) */\n      tag_241\n        /* \"@openzeppelin/contracts@5.0.2/token/ERC721/extensions/ERC721Enumerable.sol\":1638:1649  interfaceId */\n      dup3\n        /* \"@openzeppelin/contracts@5.0.2/token/ERC721/extensions/ERC721Enumerable.sol\":1614:1637  super.supportsInterface */\n      tag_242\n        /* \"@openzeppelin/contracts@5.0.2/token/ERC721/extensions/ERC721Enumerable.sol\":1614:1650  super.supportsInterface(interfaceId) */\n      jump\t// in\n    tag_241:\n        /* \"@openzeppelin/contracts@5.0.2/token/ERC721/extensions/ERC721Enumerable.sol\":1560:1650  interfaceId == type(IERC721Enumerable).interfaceId || super.supportsInterface(interfaceId) */\n    tag_240:\n        /* \"@openzeppelin/contracts@5.0.2/token/ERC721/extensions/ERC721Enumerable.sol\":1553:1650  return interfaceId == type(IERC721Enumerable).interfaceId || super.supportsInterface(interfaceId) */\n      swap1\n      pop\n        /* \"@openzeppelin/contracts@5.0.2/token/ERC721/extensions/ERC721Enumerable.sol\":1435:1657  function supportsInterface(bytes4 interfaceId) public view virtual override(IERC165, ERC721) returns (bool) {... */\n      swap2\n      swap1\n      pop\n      jump\t// out\n        /* \"@openzeppelin/contracts@5.0.2/token/ERC721/ERC721.sol\":5707:5822  function _ownerOf(uint256 tokenId) internal view virtual returns (address) {... */\n    tag_181:\n        /* \"@openzeppelin/contracts@5.0.2/token/ERC721/ERC721.sol\":5773:5780  address */\n      0x00\n        /* \"@openzeppelin/contracts@5.0.2/token/ERC721/ERC721.sol\":5799:5806  _owners */\n      0x02\n        /* \"@openzeppelin/contracts@5.0.2/token/ERC721/ERC721.sol\":5799:5815  _owners[tokenId] */\n      0x00\n        /* \"@openzeppelin/contracts@5.0.2/token/ERC721/ERC721.sol\":5807:5814  tokenId */\n      dup4\n        /* \"@openzeppelin/contracts@5.0.2/token/ERC721/ERC721.sol\":5799:5815  _owners[tokenId] */\n      dup2\n      mstore\n      0x20\n      add\n      swap1\n      dup2\n      mstore\n      0x20\n      add\n      0x00\n      keccak256\n      0x00\n      swap1\n      sload\n      swap1\n      0x0100\n      exp\n      swap1\n      div\n      0xffffffffffffffffffffffffffffffffffffffff\n      and\n        /* \"@openzeppelin/contracts@5.0.2/token/ERC721/ERC721.sol\":5792:5815  return _owners[tokenId] */\n      swap1\n      pop\n        /* \"@openzeppelin/contracts@5.0.2/token/ERC721/ERC721.sol\":5707:5822  function _ownerOf(uint256 tokenId) internal view virtual returns (address) {... */\n      swap2\n      swap1\n      pop\n      jump\t// out\n        /* \"@openzeppelin/contracts@5.0.2/token/ERC721/ERC721.sol\":14720:15382  function _approve(address to, uint256 tokenId, address auth, bool emitEvent) internal virtual {... */\n    tag_188:\n        /* \"@openzeppelin/contracts@5.0.2/token/ERC721/ERC721.sol\":14880:14889  emitEvent */\n      dup1\n        /* \"@openzeppelin/contracts@5.0.2/token/ERC721/ERC721.sol\":14880:14911  emitEvent || auth != address(0) */\n      dup1\n      tag_245\n      jumpi\n      pop\n        /* \"@openzeppelin/contracts@5.0.2/token/ERC721/ERC721.sol\":14909:14910  0 */\n      0x00\n        /* \"@openzeppelin/contracts@5.0.2/token/ERC721/ERC721.sol\":14893:14911  auth != address(0) */\n      0xffffffffffffffffffffffffffffffffffffffff\n      and\n        /* \"@openzeppelin/contracts@5.0.2/token/ERC721/ERC721.sol\":14893:14897  auth */\n      dup3\n        /* \"@openzeppelin/contracts@5.0.2/token/ERC721/ERC721.sol\":14893:14911  auth != address(0) */\n      0xffffffffffffffffffffffffffffffffffffffff\n      and\n      eq\n      iszero\n        /* \"@openzeppelin/contracts@5.0.2/token/ERC721/ERC721.sol\":14880:14911  emitEvent || auth != address(0) */\n    tag_245:\n        /* \"@openzeppelin/contracts@5.0.2/token/ERC721/ERC721.sol\":14876:15336  if (emitEvent || auth != address(0)) {... */\n      iszero\n      tag_246\n      jumpi\n        /* \"@openzeppelin/contracts@5.0.2/token/ERC721/ERC721.sol\":14927:14940  address owner */\n      0x00\n        /* \"@openzeppelin/contracts@5.0.2/token/ERC721/ERC721.sol\":14943:14965  _requireOwned(tokenId) */\n      tag_247\n        /* \"@openzeppelin/contracts@5.0.2/token/ERC721/ERC721.sol\":14957:14964  tokenId */\n      dup5\n        /* \"@openzeppelin/contracts@5.0.2/token/ERC721/ERC721.sol\":14943:14956  _requireOwned */\n      tag_107\n        /* \"@openzeppelin/contracts@5.0.2/token/ERC721/ERC721.sol\":14943:14965  _requireOwned(tokenId) */\n      jump\t// in\n    tag_247:\n        /* \"@openzeppelin/contracts@5.0.2/token/ERC721/ERC721.sol\":14927:14965  address owner = _requireOwned(tokenId) */\n      swap1\n      pop\n        /* \"@openzeppelin/contracts@5.0.2/token/ERC721/ERC721.sol\":15109:15110  0 */\n      0x00\n        /* \"@openzeppelin/contracts@5.0.2/token/ERC721/ERC721.sol\":15093:15111  auth != address(0) */\n      0xffffffffffffffffffffffffffffffffffffffff\n      and\n        /* \"@openzeppelin/contracts@5.0.2/token/ERC721/ERC721.sol\":15093:15097  auth */\n      dup4\n        /* \"@openzeppelin/contracts@5.0.2/token/ERC721/ERC721.sol\":15093:15111  auth != address(0) */\n      0xffffffffffffffffffffffffffffffffffffffff\n      and\n      eq\n      iszero\n        /* \"@openzeppelin/contracts@5.0.2/token/ERC721/ERC721.sol\":15093:15128  auth != address(0) && owner != auth */\n      dup1\n      iszero\n      tag_248\n      jumpi\n      pop\n        /* \"@openzeppelin/contracts@5.0.2/token/ERC721/ERC721.sol\":15124:15128  auth */\n      dup3\n        /* \"@openzeppelin/contracts@5.0.2/token/ERC721/ERC721.sol\":15115:15128  owner != auth */\n      0xffffffffffffffffffffffffffffffffffffffff\n      and\n        /* \"@openzeppelin/contracts@5.0.2/token/ERC721/ERC721.sol\":15115:15120  owner */\n      dup2\n        /* \"@openzeppelin/contracts@5.0.2/token/ERC721/ERC721.sol\":15115:15128  owner != auth */\n      0xffffffffffffffffffffffffffffffffffffffff\n      and\n      eq\n      iszero\n        /* \"@openzeppelin/contracts@5.0.2/token/ERC721/ERC721.sol\":15093:15128  auth != address(0) && owner != auth */\n    tag_248:\n        /* \"@openzeppelin/contracts@5.0.2/token/ERC721/ERC721.sol\":15093:15162  auth != address(0) && owner != auth && !isApprovedForAll(owner, auth) */\n      dup1\n      iszero\n      tag_249\n      jumpi\n      pop\n        /* \"@openzeppelin/contracts@5.0.2/token/ERC721/ERC721.sol\":15133:15162  isApprovedForAll(owner, auth) */\n      tag_250\n        /* \"@openzeppelin/contracts@5.0.2/token/ERC721/ERC721.sol\":15150:15155  owner */\n      dup2\n        /* \"@openzeppelin/contracts@5.0.2/token/ERC721/ERC721.sol\":15157:15161  auth */\n      dup5\n        /* \"@openzeppelin/contracts@5.0.2/token/ERC721/ERC721.sol\":15133:15149  isApprovedForAll */\n      tag_93\n        /* \"@openzeppelin/contracts@5.0.2/token/ERC721/ERC721.sol\":15133:15162  isApprovedForAll(owner, auth) */\n      jump\t// in\n    tag_250:\n        /* \"@openzeppelin/contracts@5.0.2/token/ERC721/ERC721.sol\":15132:15162  !isApprovedForAll(owner, auth) */\n      iszero\n        /* \"@openzeppelin/contracts@5.0.2/token/ERC721/ERC721.sol\":15093:15162  auth != address(0) && owner != auth && !isApprovedForAll(owner, auth) */\n    tag_249:\n        /* \"@openzeppelin/contracts@5.0.2/token/ERC721/ERC721.sol\":15089:15231  if (auth != address(0) && owner != auth && !isApprovedForAll(owner, auth)) {... */\n      iszero\n      tag_251\n      jumpi\n        /* \"@openzeppelin/contracts@5.0.2/token/ERC721/ERC721.sol\":15211:15215  auth */\n      dup3\n        /* \"@openzeppelin/contracts@5.0.2/token/ERC721/ERC721.sol\":15189:15216  ERC721InvalidApprover(auth) */\n      mload(0x40)\n      0xa9fbf51f00000000000000000000000000000000000000000000000000000000\n      dup2\n      mstore\n      0x04\n      add\n      tag_252\n      swap2\n      swap1\n      tag_38\n      jump\t// in\n    tag_252:\n      mload(0x40)\n      dup1\n      swap2\n      sub\n      swap1\n      revert\n        /* \"@openzeppelin/contracts@5.0.2/token/ERC721/ERC721.sol\":15089:15231  if (auth != address(0) && owner != auth && !isApprovedForAll(owner, auth)) {... */\n    tag_251:\n        /* \"@openzeppelin/contracts@5.0.2/token/ERC721/ERC721.sol\":15249:15258  emitEvent */\n      dup2\n        /* \"@openzeppelin/contracts@5.0.2/token/ERC721/ERC721.sol\":15245:15326  if (emitEvent) {... */\n      iszero\n      tag_253\n      jumpi\n        /* \"@openzeppelin/contracts@5.0.2/token/ERC721/ERC721.sol\":15303:15310  tokenId */\n      dup4\n        /* \"@openzeppelin/contracts@5.0.2/token/ERC721/ERC721.sol\":15299:15301  to */\n      dup6\n        /* \"@openzeppelin/contracts@5.0.2/token/ERC721/ERC721.sol\":15283:15311  Approval(owner, to, tokenId) */\n      0xffffffffffffffffffffffffffffffffffffffff\n      and\n        /* \"@openzeppelin/contracts@5.0.2/token/ERC721/ERC721.sol\":15292:15297  owner */\n      dup3\n        /* \"@openzeppelin/contracts@5.0.2/token/ERC721/ERC721.sol\":15283:15311  Approval(owner, to, tokenId) */\n      0xffffffffffffffffffffffffffffffffffffffff\n      and\n      0x8c5be1e5ebec7d5bd14f71427d1e84f3dd0314c0f7b2291e5b200ac8c7c3b925\n      mload(0x40)\n      mload(0x40)\n      dup1\n      swap2\n      sub\n      swap1\n      log4\n        /* \"@openzeppelin/contracts@5.0.2/token/ERC721/ERC721.sol\":15245:15326  if (emitEvent) {... */\n    tag_253:\n        /* \"@openzeppelin/contracts@5.0.2/token/ERC721/ERC721.sol\":14913:15336  {... */\n      pop\n        /* \"@openzeppelin/contracts@5.0.2/token/ERC721/ERC721.sol\":14876:15336  if (emitEvent || auth != address(0)) {... */\n    tag_246:\n        /* \"@openzeppelin/contracts@5.0.2/token/ERC721/ERC721.sol\":15373:15375  to */\n      dup4\n        /* \"@openzeppelin/contracts@5.0.2/token/ERC721/ERC721.sol\":15346:15361  _tokenApprovals */\n      0x04\n        /* \"@openzeppelin/contracts@5.0.2/token/ERC721/ERC721.sol\":15346:15370  _tokenApprovals[tokenId] */\n      0x00\n        /* \"@openzeppelin/contracts@5.0.2/token/ERC721/ERC721.sol\":15362:15369  tokenId */\n      dup6\n        /* \"@openzeppelin/contracts@5.0.2/token/ERC721/ERC721.sol\":15346:15370  _tokenApprovals[tokenId] */\n      dup2\n      mstore\n      0x20\n      add\n      swap1\n      dup2\n      mstore\n      0x20\n      add\n      0x00\n      keccak256\n      0x00\n        /* \"@openzeppelin/contracts@5.0.2/token/ERC721/ERC721.sol\":15346:15375  _tokenApprovals[tokenId] = to */\n      0x0100\n      exp\n      dup2\n      sload\n      dup2\n      0xffffffffffffffffffffffffffffffffffffffff\n      mul\n      not\n      and\n      swap1\n      dup4\n      0xffffffffffffffffffffffffffffffffffffffff\n      and\n      mul\n      or\n      swap1\n      sstore\n      pop\n        /* \"@openzeppelin/contracts@5.0.2/token/ERC721/ERC721.sol\":14720:15382  function _approve(address to, uint256 tokenId, address auth, bool emitEvent) internal virtual {... */\n      pop\n      pop\n      pop\n      pop\n      jump\t// out\n        /* \"@openzeppelin/contracts@5.0.2/token/ERC721/extensions/ERC721Enumerable.sol\":2518:3143  function _update(address to, uint256 tokenId, address auth) internal virtual override returns (address) {... */\n    tag_191:\n        /* \"@openzeppelin/contracts@5.0.2/token/ERC721/extensions/ERC721Enumerable.sol\":2613:2620  address */\n      0x00\n        /* \"@openzeppelin/contracts@5.0.2/token/ERC721/extensions/ERC721Enumerable.sol\":2632:2653  address previousOwner */\n      dup1\n        /* \"@openzeppelin/contracts@5.0.2/token/ERC721/extensions/ERC721Enumerable.sol\":2656:2688  super._update(to, tokenId, auth) */\n      tag_255\n        /* \"@openzeppelin/contracts@5.0.2/token/ERC721/extensions/ERC721Enumerable.sol\":2670:2672  to */\n      dup6\n        /* \"@openzeppelin/contracts@5.0.2/token/ERC721/extensions/ERC721Enumerable.sol\":2674:2681  tokenId */\n      dup6\n        /* \"@openzeppelin/contracts@5.0.2/token/ERC721/extensions/ERC721Enumerable.sol\":2683:2687  auth */\n      dup6\n        /* \"@openzeppelin/contracts@5.0.2/token/ERC721/extensions/ERC721Enumerable.sol\":2656:2669  super._update */\n      tag_256\n        /* \"@openzeppelin/contracts@5.0.2/token/ERC721/extensions/ERC721Enumerable.sol\":2656:2688  super._update(to, tokenId, auth) */\n      jump\t// in\n    tag_255:\n        /* \"@openzeppelin/contracts@5.0.2/token/ERC721/extensions/ERC721Enumerable.sol\":2632:2688  address previousOwner = super._update(to, tokenId, auth) */\n      swap1\n      pop\n        /* \"@openzeppelin/contracts@5.0.2/token/ERC721/extensions/ERC721Enumerable.sol\":2728:2729  0 */\n      0x00\n        /* \"@openzeppelin/contracts@5.0.2/token/ERC721/extensions/ERC721Enumerable.sol\":2703:2730  previousOwner == address(0) */\n      0xffffffffffffffffffffffffffffffffffffffff\n      and\n        /* \"@openzeppelin/contracts@5.0.2/token/ERC721/extensions/ERC721Enumerable.sol\":2703:2716  previousOwner */\n      dup2\n        /* \"@openzeppelin/contracts@5.0.2/token/ERC721/extensions/ERC721Enumerable.sol\":2703:2730  previousOwner == address(0) */\n      0xffffffffffffffffffffffffffffffffffffffff\n      and\n      sub\n        /* \"@openzeppelin/contracts@5.0.2/token/ERC721/extensions/ERC721Enumerable.sol\":2699:2909  if (previousOwner == address(0)) {... */\n      tag_257\n      jumpi\n        /* \"@openzeppelin/contracts@5.0.2/token/ERC721/extensions/ERC721Enumerable.sol\":2746:2786  _addTokenToAllTokensEnumeration(tokenId) */\n      tag_258\n        /* \"@openzeppelin/contracts@5.0.2/token/ERC721/extensions/ERC721Enumerable.sol\":2778:2785  tokenId */\n      dup5\n        /* \"@openzeppelin/contracts@5.0.2/token/ERC721/extensions/ERC721Enumerable.sol\":2746:2777  _addTokenToAllTokensEnumeration */\n      tag_259\n        /* \"@openzeppelin/contracts@5.0.2/token/ERC721/extensions/ERC721Enumerable.sol\":2746:2786  _addTokenToAllTokensEnumeration(tokenId) */\n      jump\t// in\n    tag_258:\n        /* \"@openzeppelin/contracts@5.0.2/token/ERC721/extensions/ERC721Enumerable.sol\":2699:2909  if (previousOwner == address(0)) {... */\n      jump(tag_260)\n    tag_257:\n        /* \"@openzeppelin/contracts@5.0.2/token/ERC721/extensions/ERC721Enumerable.sol\":2824:2826  to */\n      dup5\n        /* \"@openzeppelin/contracts@5.0.2/token/ERC721/extensions/ERC721Enumerable.sol\":2807:2826  previousOwner != to */\n      0xffffffffffffffffffffffffffffffffffffffff\n      and\n        /* \"@openzeppelin/contracts@5.0.2/token/ERC721/extensions/ERC721Enumerable.sol\":2807:2820  previousOwner */\n      dup2\n        /* \"@openzeppelin/contracts@5.0.2/token/ERC721/extensions/ERC721Enumerable.sol\":2807:2826  previousOwner != to */\n      0xffffffffffffffffffffffffffffffffffffffff\n      and\n      eq\n        /* \"@openzeppelin/contracts@5.0.2/token/ERC721/extensions/ERC721Enumerable.sol\":2803:2909  if (previousOwner != to) {... */\n      tag_261\n      jumpi\n        /* \"@openzeppelin/contracts@5.0.2/token/ERC721/extensions/ERC721Enumerable.sol\":2842:2898  _removeTokenFromOwnerEnumeration(previousOwner, tokenId) */\n      tag_262\n        /* \"@openzeppelin/contracts@5.0.2/token/ERC721/extensions/ERC721Enumerable.sol\":2875:2888  previousOwner */\n      dup2\n        /* \"@openzeppelin/contracts@5.0.2/token/ERC721/extensions/ERC721Enumerable.sol\":2890:2897  tokenId */\n      dup6\n        /* \"@openzeppelin/contracts@5.0.2/token/ERC721/extensions/ERC721Enumerable.sol\":2842:2874  _removeTokenFromOwnerEnumeration */\n      tag_263\n        /* \"@openzeppelin/contracts@5.0.2/token/ERC721/extensions/ERC721Enumerable.sol\":2842:2898  _removeTokenFromOwnerEnumeration(previousOwner, tokenId) */\n      jump\t// in\n    tag_262:\n        /* \"@openzeppelin/contracts@5.0.2/token/ERC721/extensions/ERC721Enumerable.sol\":2803:2909  if (previousOwner != to) {... */\n    tag_261:\n        /* \"@openzeppelin/contracts@5.0.2/token/ERC721/extensions/ERC721Enumerable.sol\":2699:2909  if (previousOwner == address(0)) {... */\n    tag_260:\n        /* \"@openzeppelin/contracts@5.0.2/token/ERC721/extensions/ERC721Enumerable.sol\":2936:2937  0 */\n      0x00\n        /* \"@openzeppelin/contracts@5.0.2/token/ERC721/extensions/ERC721Enumerable.sol\":2922:2938  to == address(0) */\n      0xffffffffffffffffffffffffffffffffffffffff\n      and\n        /* \"@openzeppelin/contracts@5.0.2/token/ERC721/extensions/ERC721Enumerable.sol\":2922:2924  to */\n      dup6\n        /* \"@openzeppelin/contracts@5.0.2/token/ERC721/extensions/ERC721Enumerable.sol\":2922:2938  to == address(0) */\n      0xffffffffffffffffffffffffffffffffffffffff\n      and\n      sub\n        /* \"@openzeppelin/contracts@5.0.2/token/ERC721/extensions/ERC721Enumerable.sol\":2918:3106  if (to == address(0)) {... */\n      tag_264\n      jumpi\n        /* \"@openzeppelin/contracts@5.0.2/token/ERC721/extensions/ERC721Enumerable.sol\":2954:2999  _removeTokenFromAllTokensEnumeration(tokenId) */\n      tag_265\n        /* \"@openzeppelin/contracts@5.0.2/token/ERC721/extensions/ERC721Enumerable.sol\":2991:2998  tokenId */\n      dup5\n        /* \"@openzeppelin/contracts@5.0.2/token/ERC721/extensions/ERC721Enumerable.sol\":2954:2990  _removeTokenFromAllTokensEnumeration */\n      tag_266\n        /* \"@openzeppelin/contracts@5.0.2/token/ERC721/extensions/ERC721Enumerable.sol\":2954:2999  _removeTokenFromAllTokensEnumeration(tokenId) */\n      jump\t// in\n    tag_265:\n        /* \"@openzeppelin/contracts@5.0.2/token/ERC721/extensions/ERC721Enumerable.sol\":2918:3106  if (to == address(0)) {... */\n      jump(tag_267)\n    tag_264:\n        /* \"@openzeppelin/contracts@5.0.2/token/ERC721/extensions/ERC721Enumerable.sol\":3037:3039  to */\n      dup5\n        /* \"@openzeppelin/contracts@5.0.2/token/ERC721/extensions/ERC721Enumerable.sol\":3020:3039  previousOwner != to */\n      0xffffffffffffffffffffffffffffffffffffffff\n      and\n        /* \"@openzeppelin/contracts@5.0.2/token/ERC721/extensions/ERC721Enumerable.sol\":3020:3033  previousOwner */\n      dup2\n        /* \"@openzeppelin/contracts@5.0.2/token/ERC721/extensions/ERC721Enumerable.sol\":3020:3039  previousOwner != to */\n      0xffffffffffffffffffffffffffffffffffffffff\n      and\n      eq\n        /* \"@openzeppelin/contracts@5.0.2/token/ERC721/extensions/ERC721Enumerable.sol\":3016:3106  if (previousOwner != to) {... */\n      tag_268\n      jumpi\n        /* \"@openzeppelin/contracts@5.0.2/token/ERC721/extensions/ERC721Enumerable.sol\":3055:3095  _addTokenToOwnerEnumeration(to, tokenId) */\n      tag_269\n        /* \"@openzeppelin/contracts@5.0.2/token/ERC721/extensions/ERC721Enumerable.sol\":3083:3085  to */\n      dup6\n        /* \"@openzeppelin/contracts@5.0.2/token/ERC721/extensions/ERC721Enumerable.sol\":3087:3094  tokenId */\n      dup6\n        /* \"@openzeppelin/contracts@5.0.2/token/ERC721/extensions/ERC721Enumerable.sol\":3055:3082  _addTokenToOwnerEnumeration */\n      tag_270\n        /* \"@openzeppelin/contracts@5.0.2/token/ERC721/extensions/ERC721Enumerable.sol\":3055:3095  _addTokenToOwnerEnumeration(to, tokenId) */\n      jump\t// in\n    tag_269:\n        /* \"@openzeppelin/contracts@5.0.2/token/ERC721/extensions/ERC721Enumerable.sol\":3016:3106  if (previousOwner != to) {... */\n    tag_268:\n        /* \"@openzeppelin/contracts@5.0.2/token/ERC721/extensions/ERC721Enumerable.sol\":2918:3106  if (to == address(0)) {... */\n    tag_267:\n        /* \"@openzeppelin/contracts@5.0.2/token/ERC721/extensions/ERC721Enumerable.sol\":3123:3136  previousOwner */\n      dup1\n        /* \"@openzeppelin/contracts@5.0.2/token/ERC721/extensions/ERC721Enumerable.sol\":3116:3136  return previousOwner */\n      swap2\n      pop\n      pop\n        /* \"@openzeppelin/contracts@5.0.2/token/ERC721/extensions/ERC721Enumerable.sol\":2518:3143  function _update(address to, uint256 tokenId, address auth) internal virtual override returns (address) {... */\n      swap4\n      swap3\n      pop\n      pop\n      pop\n      jump\t// out\n        /* \"@openzeppelin/contracts@5.0.2/token/ERC721/ERC721.sol\":3174:3266  function _baseURI() internal view virtual returns (string memory) {... */\n    tag_224:\n        /* \"@openzeppelin/contracts@5.0.2/token/ERC721/ERC721.sol\":3225:3238  string memory */\n      0x60\n        /* \"@openzeppelin/contracts@5.0.2/token/ERC721/ERC721.sol\":3250:3259  return \"\" */\n      mload(0x40)\n      dup1\n      0x20\n      add\n      0x40\n      mstore\n      dup1\n      0x00\n      dup2\n      mstore\n      pop\n      swap1\n      pop\n        /* \"@openzeppelin/contracts@5.0.2/token/ERC721/ERC721.sol\":3174:3266  function _baseURI() internal view virtual returns (string memory) {... */\n      swap1\n      jump\t// out\n        /* \"@openzeppelin/contracts@5.0.2/token/ERC721/ERC721.sol\":2677:2932  function tokenURI(uint256 tokenId) public view virtual returns (string memory) {... */\n    tag_230:\n        /* \"@openzeppelin/contracts@5.0.2/token/ERC721/ERC721.sol\":2741:2754  string memory */\n      0x60\n        /* \"@openzeppelin/contracts@5.0.2/token/ERC721/ERC721.sol\":2766:2788  _requireOwned(tokenId) */\n      tag_273\n        /* \"@openzeppelin/contracts@5.0.2/token/ERC721/ERC721.sol\":2780:2787  tokenId */\n      dup3\n        /* \"@openzeppelin/contracts@5.0.2/token/ERC721/ERC721.sol\":2766:2779  _requireOwned */\n      tag_107\n        /* \"@openzeppelin/contracts@5.0.2/token/ERC721/ERC721.sol\":2766:2788  _requireOwned(tokenId) */\n      jump\t// in\n    tag_273:\n      pop\n        /* \"@openzeppelin/contracts@5.0.2/token/ERC721/ERC721.sol\":2799:2820  string memory baseURI */\n      0x00\n        /* \"@openzeppelin/contracts@5.0.2/token/ERC721/ERC721.sol\":2823:2833  _baseURI() */\n      tag_274\n        /* \"@openzeppelin/contracts@5.0.2/token/ERC721/ERC721.sol\":2823:2831  _baseURI */\n      tag_224\n        /* \"@openzeppelin/contracts@5.0.2/token/ERC721/ERC721.sol\":2823:2833  _baseURI() */\n      jump\t// in\n    tag_274:\n        /* \"@openzeppelin/contracts@5.0.2/token/ERC721/ERC721.sol\":2799:2833  string memory baseURI = _baseURI() */\n      swap1\n      pop\n        /* \"@openzeppelin/contracts@5.0.2/token/ERC721/ERC721.sol\":2874:2875  0 */\n      0x00\n        /* \"@openzeppelin/contracts@5.0.2/token/ERC721/ERC721.sol\":2856:2863  baseURI */\n      dup2\n        /* \"@openzeppelin/contracts@5.0.2/token/ERC721/ERC721.sol\":2850:2871  bytes(baseURI).length */\n      mload\n        /* \"@openzeppelin/contracts@5.0.2/token/ERC721/ERC721.sol\":2850:2875  bytes(baseURI).length > 0 */\n      gt\n        /* \"@openzeppelin/contracts@5.0.2/token/ERC721/ERC721.sol\":2850:2925  bytes(baseURI).length > 0 ? string.concat(baseURI, tokenId.toString()) : \"\" */\n      tag_275\n      jumpi\n      mload(0x40)\n      dup1\n      0x20\n      add\n      0x40\n      mstore\n      dup1\n      0x00\n      dup2\n      mstore\n      pop\n      jump(tag_276)\n    tag_275:\n        /* \"@openzeppelin/contracts@5.0.2/token/ERC721/ERC721.sol\":2892:2899  baseURI */\n      dup1\n        /* \"@openzeppelin/contracts@5.0.2/token/ERC721/ERC721.sol\":2901:2919  tokenId.toString() */\n      tag_277\n        /* \"@openzeppelin/contracts@5.0.2/token/ERC721/ERC721.sol\":2901:2908  tokenId */\n      dup5\n        /* \"@openzeppelin/contracts@5.0.2/token/ERC721/ERC721.sol\":2901:2917  tokenId.toString */\n      tag_278\n        /* \"@openzeppelin/contracts@5.0.2/token/ERC721/ERC721.sol\":2901:2919  tokenId.toString() */\n      jump\t// in\n    tag_277:\n        /* \"@openzeppelin/contracts@5.0.2/token/ERC721/ERC721.sol\":2878:2920  string.concat(baseURI, tokenId.toString()) */\n      add(0x20, mload(0x40))\n      tag_279\n      swap3\n      swap2\n      swap1\n      tag_228\n      jump\t// in\n    tag_279:\n      mload(0x40)\n      0x20\n      dup2\n      dup4\n      sub\n      sub\n      dup2\n      mstore\n      swap1\n      0x40\n      mstore\n        /* \"@openzeppelin/contracts@5.0.2/token/ERC721/ERC721.sol\":2850:2925  bytes(baseURI).length > 0 ? string.concat(baseURI, tokenId.toString()) : \"\" */\n    tag_276:\n        /* \"@openzeppelin/contracts@5.0.2/token/ERC721/ERC721.sol\":2843:2925  return bytes(baseURI).length > 0 ? string.concat(baseURI, tokenId.toString()) : \"\" */\n      swap2\n      pop\n      pop\n        /* \"@openzeppelin/contracts@5.0.2/token/ERC721/ERC721.sol\":2677:2932  function tokenURI(uint256 tokenId) public view virtual returns (string memory) {... */\n      swap2\n      swap1\n      pop\n      jump\t// out\n        /* \"@openzeppelin/contracts@5.0.2/token/ERC721/ERC721.sol\":10954:11136  function _safeMint(address to, uint256 tokenId, bytes memory data) internal virtual {... */\n    tag_233:\n        /* \"@openzeppelin/contracts@5.0.2/token/ERC721/ERC721.sol\":11048:11066  _mint(to, tokenId) */\n      tag_281\n        /* \"@openzeppelin/contracts@5.0.2/token/ERC721/ERC721.sol\":11054:11056  to */\n      dup4\n        /* \"@openzeppelin/contracts@5.0.2/token/ERC721/ERC721.sol\":11058:11065  tokenId */\n      dup4\n        /* \"@openzeppelin/contracts@5.0.2/token/ERC721/ERC721.sol\":11048:11053  _mint */\n      tag_282\n        /* \"@openzeppelin/contracts@5.0.2/token/ERC721/ERC721.sol\":11048:11066  _mint(to, tokenId) */\n      jump\t// in\n    tag_281:\n        /* \"@openzeppelin/contracts@5.0.2/token/ERC721/ERC721.sol\":11076:11129  _checkOnERC721Received(address(0), to, tokenId, data) */\n      tag_283\n        /* \"@openzeppelin/contracts@5.0.2/token/ERC721/ERC721.sol\":11107:11108  0 */\n      0x00\n        /* \"@openzeppelin/contracts@5.0.2/token/ERC721/ERC721.sol\":11111:11113  to */\n      dup5\n        /* \"@openzeppelin/contracts@5.0.2/token/ERC721/ERC721.sol\":11115:11122  tokenId */\n      dup5\n        /* \"@openzeppelin/contracts@5.0.2/token/ERC721/ERC721.sol\":11124:11128  data */\n      dup5\n        /* \"@openzeppelin/contracts@5.0.2/token/ERC721/ERC721.sol\":11076:11098  _checkOnERC721Received */\n      tag_158\n        /* \"@openzeppelin/contracts@5.0.2/token/ERC721/ERC721.sol\":11076:11129  _checkOnERC721Received(address(0), to, tokenId, data) */\n      jump\t// in\n    tag_283:\n        /* \"@openzeppelin/contracts@5.0.2/token/ERC721/ERC721.sol\":10954:11136  function _safeMint(address to, uint256 tokenId, bytes memory data) internal virtual {... */\n      pop\n      pop\n      pop\n      jump\t// out\n        /* \"@openzeppelin/contracts@5.0.2/token/ERC721/ERC721.sol\":1561:1861  function supportsInterface(bytes4 interfaceId) public view virtual override(ERC165, IERC165) returns (bool) {... */\n    tag_242:\n        /* \"@openzeppelin/contracts@5.0.2/token/ERC721/ERC721.sol\":1663:1667  bool */\n      0x00\n        /* \"@openzeppelin/contracts@5.0.2/token/ERC721/ERC721.sol\":1713:1738  type(IERC721).interfaceId */\n      0x80ac58cd00000000000000000000000000000000000000000000000000000000\n        /* \"@openzeppelin/contracts@5.0.2/token/ERC721/ERC721.sol\":1698:1738  interfaceId == type(IERC721).interfaceId */\n      not(0xffffffffffffffffffffffffffffffffffffffffffffffffffffffff)\n      and\n        /* \"@openzeppelin/contracts@5.0.2/token/ERC721/ERC721.sol\":1698:1709  interfaceId */\n      dup3\n        /* \"@openzeppelin/contracts@5.0.2/token/ERC721/ERC721.sol\":1698:1738  interfaceId == type(IERC721).interfaceId */\n      not(0xffffffffffffffffffffffffffffffffffffffffffffffffffffffff)\n      and\n      eq\n        /* \"@openzeppelin/contracts@5.0.2/token/ERC721/ERC721.sol\":1698:1802  interfaceId == type(IERC721).interfaceId ||... */\n      dup1\n      tag_285\n      jumpi\n      pop\n        /* \"@openzeppelin/contracts@5.0.2/token/ERC721/ERC721.sol\":1769:1802  type(IERC721Metadata).interfaceId */\n      0x5b5e139f00000000000000000000000000000000000000000000000000000000\n        /* \"@openzeppelin/contracts@5.0.2/token/ERC721/ERC721.sol\":1754:1802  interfaceId == type(IERC721Metadata).interfaceId */\n      not(0xffffffffffffffffffffffffffffffffffffffffffffffffffffffff)\n      and\n        /* \"@openzeppelin/contracts@5.0.2/token/ERC721/ERC721.sol\":1754:1765  interfaceId */\n      dup3\n        /* \"@openzeppelin/contracts@5.0.2/token/ERC721/ERC721.sol\":1754:1802  interfaceId == type(IERC721Metadata).interfaceId */\n      not(0xffffffffffffffffffffffffffffffffffffffffffffffffffffffff)\n      and\n      eq\n        /* \"@openzeppelin/contracts@5.0.2/token/ERC721/ERC721.sol\":1698:1802  interfaceId == type(IERC721).interfaceId ||... */\n    tag_285:\n        /* \"@openzeppelin/contracts@5.0.2/token/ERC721/ERC721.sol\":1698:1854  interfaceId == type(IERC721).interfaceId ||... */\n      dup1\n      tag_286\n      jumpi\n      pop\n        /* \"@openzeppelin/contracts@5.0.2/token/ERC721/ERC721.sol\":1818:1854  super.supportsInterface(interfaceId) */\n      tag_287\n        /* \"@openzeppelin/contracts@5.0.2/token/ERC721/ERC721.sol\":1842:1853  interfaceId */\n      dup3\n        /* \"@openzeppelin/contracts@5.0.2/token/ERC721/ERC721.sol\":1818:1841  super.supportsInterface */\n      tag_288\n        /* \"@openzeppelin/contracts@5.0.2/token/ERC721/ERC721.sol\":1818:1854  super.supportsInterface(interfaceId) */\n      jump\t// in\n    tag_287:\n        /* \"@openzeppelin/contracts@5.0.2/token/ERC721/ERC721.sol\":1698:1854  interfaceId == type(IERC721).interfaceId ||... */\n    tag_286:\n        /* \"@openzeppelin/contracts@5.0.2/token/ERC721/ERC721.sol\":1679:1854  return... */\n      swap1\n      pop\n        /* \"@openzeppelin/contracts@5.0.2/token/ERC721/ERC721.sol\":1561:1861  function supportsInterface(bytes4 interfaceId) public view virtual override(ERC165, IERC165) returns (bool) {... */\n      swap2\n      swap1\n      pop\n      jump\t// out\n        /* \"@openzeppelin/contracts@5.0.2/token/ERC721/ERC721.sol\":8838:9633  function _update(address to, uint256 tokenId, address auth) internal virtual returns (address) {... */\n    tag_256:\n        /* \"@openzeppelin/contracts@5.0.2/token/ERC721/ERC721.sol\":8924:8931  address */\n      0x00\n        /* \"@openzeppelin/contracts@5.0.2/token/ERC721/ERC721.sol\":8943:8955  address from */\n      dup1\n        /* \"@openzeppelin/contracts@5.0.2/token/ERC721/ERC721.sol\":8958:8975  _ownerOf(tokenId) */\n      tag_290\n        /* \"@openzeppelin/contracts@5.0.2/token/ERC721/ERC721.sol\":8967:8974  tokenId */\n      dup5\n        /* \"@openzeppelin/contracts@5.0.2/token/ERC721/ERC721.sol\":8958:8966  _ownerOf */\n      tag_181\n        /* \"@openzeppelin/contracts@5.0.2/token/ERC721/ERC721.sol\":8958:8975  _ownerOf(tokenId) */\n      jump\t// in\n    tag_290:\n        /* \"@openzeppelin/contracts@5.0.2/token/ERC721/ERC721.sol\":8943:8975  address from = _ownerOf(tokenId) */\n      swap1\n      pop\n        /* \"@openzeppelin/contracts@5.0.2/token/ERC721/ERC721.sol\":9051:9052  0 */\n      0x00\n        /* \"@openzeppelin/contracts@5.0.2/token/ERC721/ERC721.sol\":9035:9053  auth != address(0) */\n      0xffffffffffffffffffffffffffffffffffffffff\n      and\n        /* \"@openzeppelin/contracts@5.0.2/token/ERC721/ERC721.sol\":9035:9039  auth */\n      dup4\n        /* \"@openzeppelin/contracts@5.0.2/token/ERC721/ERC721.sol\":9035:9053  auth != address(0) */\n      0xffffffffffffffffffffffffffffffffffffffff\n      and\n      eq\n        /* \"@openzeppelin/contracts@5.0.2/token/ERC721/ERC721.sol\":9031:9117  if (auth != address(0)) {... */\n      tag_291\n      jumpi\n        /* \"@openzeppelin/contracts@5.0.2/token/ERC721/ERC721.sol\":9069:9106  _checkAuthorized(from, auth, tokenId) */\n      tag_292\n        /* \"@openzeppelin/contracts@5.0.2/token/ERC721/ERC721.sol\":9086:9090  from */\n      dup2\n        /* \"@openzeppelin/contracts@5.0.2/token/ERC721/ERC721.sol\":9092:9096  auth */\n      dup5\n        /* \"@openzeppelin/contracts@5.0.2/token/ERC721/ERC721.sol\":9098:9105  tokenId */\n      dup7\n        /* \"@openzeppelin/contracts@5.0.2/token/ERC721/ERC721.sol\":9069:9085  _checkAuthorized */\n      tag_293\n        /* \"@openzeppelin/contracts@5.0.2/token/ERC721/ERC721.sol\":9069:9106  _checkAuthorized(from, auth, tokenId) */\n      jump\t// in\n    tag_292:\n        /* \"@openzeppelin/contracts@5.0.2/token/ERC721/ERC721.sol\":9031:9117  if (auth != address(0)) {... */\n    tag_291:\n        /* \"@openzeppelin/contracts@5.0.2/token/ERC721/ERC721.sol\":9177:9178  0 */\n      0x00\n        /* \"@openzeppelin/contracts@5.0.2/token/ERC721/ERC721.sol\":9161:9179  from != address(0) */\n      0xffffffffffffffffffffffffffffffffffffffff\n      and\n        /* \"@openzeppelin/contracts@5.0.2/token/ERC721/ERC721.sol\":9161:9165  from */\n      dup2\n        /* \"@openzeppelin/contracts@5.0.2/token/ERC721/ERC721.sol\":9161:9179  from != address(0) */\n      0xffffffffffffffffffffffffffffffffffffffff\n      and\n      eq\n        /* \"@openzeppelin/contracts@5.0.2/token/ERC721/ERC721.sol\":9157:9413  if (from != address(0)) {... */\n      tag_294\n      jumpi\n        /* \"@openzeppelin/contracts@5.0.2/token/ERC721/ERC721.sol\":9277:9325  _approve(address(0), tokenId, address(0), false) */\n      tag_295\n        /* \"@openzeppelin/contracts@5.0.2/token/ERC721/ERC721.sol\":9294:9295  0 */\n      0x00\n        /* \"@openzeppelin/contracts@5.0.2/token/ERC721/ERC721.sol\":9298:9305  tokenId */\n      dup6\n        /* \"@openzeppelin/contracts@5.0.2/token/ERC721/ERC721.sol\":9315:9316  0 */\n      0x00\n        /* \"@openzeppelin/contracts@5.0.2/token/ERC721/ERC721.sol\":9319:9324  false */\n      dup1\n        /* \"@openzeppelin/contracts@5.0.2/token/ERC721/ERC721.sol\":9277:9285  _approve */\n      tag_188\n        /* \"@openzeppelin/contracts@5.0.2/token/ERC721/ERC721.sol\":9277:9325  _approve(address(0), tokenId, address(0), false) */\n      jump\t// in\n    tag_295:\n        /* \"@openzeppelin/contracts@5.0.2/token/ERC721/ERC721.sol\":9387:9388  1 */\n      0x01\n        /* \"@openzeppelin/contracts@5.0.2/token/ERC721/ERC721.sol\":9368:9377  _balances */\n      0x03\n        /* \"@openzeppelin/contracts@5.0.2/token/ERC721/ERC721.sol\":9368:9383  _balances[from] */\n      0x00\n        /* \"@openzeppelin/contracts@5.0.2/token/ERC721/ERC721.sol\":9378:9382  from */\n      dup4\n        /* \"@openzeppelin/contracts@5.0.2/token/ERC721/ERC721.sol\":9368:9383  _balances[from] */\n      0xffffffffffffffffffffffffffffffffffffffff\n      and\n      0xffffffffffffffffffffffffffffffffffffffff\n      and\n      dup2\n      mstore\n      0x20\n      add\n      swap1\n      dup2\n      mstore\n      0x20\n      add\n      0x00\n      keccak256\n      0x00\n        /* \"@openzeppelin/contracts@5.0.2/token/ERC721/ERC721.sol\":9368:9388  _balances[from] -= 1 */\n      dup3\n      dup3\n      sload\n      sub\n      swap3\n      pop\n      pop\n      dup2\n      swap1\n      sstore\n      pop\n        /* \"@openzeppelin/contracts@5.0.2/token/ERC721/ERC721.sol\":9157:9413  if (from != address(0)) {... */\n    tag_294:\n        /* \"@openzeppelin/contracts@5.0.2/token/ERC721/ERC721.sol\":9441:9442  0 */\n      0x00\n        /* \"@openzeppelin/contracts@5.0.2/token/ERC721/ERC721.sol\":9427:9443  to != address(0) */\n      0xffffffffffffffffffffffffffffffffffffffff\n      and\n        /* \"@openzeppelin/contracts@5.0.2/token/ERC721/ERC721.sol\":9427:9429  to */\n      dup6\n        /* \"@openzeppelin/contracts@5.0.2/token/ERC721/ERC721.sol\":9427:9443  to != address(0) */\n      0xffffffffffffffffffffffffffffffffffffffff\n      and\n      eq\n        /* \"@openzeppelin/contracts@5.0.2/token/ERC721/ERC721.sol\":9423:9530  if (to != address(0)) {... */\n      tag_296\n      jumpi\n        /* \"@openzeppelin/contracts@5.0.2/token/ERC721/ERC721.sol\":9504:9505  1 */\n      0x01\n        /* \"@openzeppelin/contracts@5.0.2/token/ERC721/ERC721.sol\":9487:9496  _balances */\n      0x03\n        /* \"@openzeppelin/contracts@5.0.2/token/ERC721/ERC721.sol\":9487:9500  _balances[to] */\n      0x00\n        /* \"@openzeppelin/contracts@5.0.2/token/ERC721/ERC721.sol\":9497:9499  to */\n      dup8\n        /* \"@openzeppelin/contracts@5.0.2/token/ERC721/ERC721.sol\":9487:9500  _balances[to] */\n      0xffffffffffffffffffffffffffffffffffffffff\n      and\n      0xffffffffffffffffffffffffffffffffffffffff\n      and\n      dup2\n      mstore\n      0x20\n      add\n      swap1\n      dup2\n      mstore\n      0x20\n      add\n      0x00\n      keccak256\n      0x00\n        /* \"@openzeppelin/contracts@5.0.2/token/ERC721/ERC721.sol\":9487:9505  _balances[to] += 1 */\n      dup3\n      dup3\n      sload\n      add\n      swap3\n      pop\n      pop\n      dup2\n      swap1\n      sstore\n      pop\n        /* \"@openzeppelin/contracts@5.0.2/token/ERC721/ERC721.sol\":9423:9530  if (to != address(0)) {... */\n    tag_296:\n        /* \"@openzeppelin/contracts@5.0.2/token/ERC721/ERC721.sol\":9559:9561  to */\n      dup5\n        /* \"@openzeppelin/contracts@5.0.2/token/ERC721/ERC721.sol\":9540:9547  _owners */\n      0x02\n        /* \"@openzeppelin/contracts@5.0.2/token/ERC721/ERC721.sol\":9540:9556  _owners[tokenId] */\n      0x00\n        /* \"@openzeppelin/contracts@5.0.2/token/ERC721/ERC721.sol\":9548:9555  tokenId */\n      dup7\n        /* \"@openzeppelin/contracts@5.0.2/token/ERC721/ERC721.sol\":9540:9556  _owners[tokenId] */\n      dup2\n      mstore\n      0x20\n      add\n      swap1\n      dup2\n      mstore\n      0x20\n      add\n      0x00\n      keccak256\n      0x00\n        /* \"@openzeppelin/contracts@5.0.2/token/ERC721/ERC721.sol\":9540:9561  _owners[tokenId] = to */\n      0x0100\n      exp\n      dup2\n      sload\n      dup2\n      0xffffffffffffffffffffffffffffffffffffffff\n      mul\n      not\n      and\n      swap1\n      dup4\n      0xffffffffffffffffffffffffffffffffffffffff\n      and\n      mul\n      or\n      swap1\n      sstore\n      pop\n        /* \"@openzeppelin/contracts@5.0.2/token/ERC721/ERC721.sol\":9596:9603  tokenId */\n      dup4\n        /* \"@openzeppelin/contracts@5.0.2/token/ERC721/ERC721.sol\":9592:9594  to */\n      dup6\n        /* \"@openzeppelin/contracts@5.0.2/token/ERC721/ERC721.sol\":9577:9604  Transfer(from, to, tokenId) */\n      0xffffffffffffffffffffffffffffffffffffffff\n      and\n        /* \"@openzeppelin/contracts@5.0.2/token/ERC721/ERC721.sol\":9586:9590  from */\n      dup3\n        /* \"@openzeppelin/contracts@5.0.2/token/ERC721/ERC721.sol\":9577:9604  Transfer(from, to, tokenId) */\n      0xffffffffffffffffffffffffffffffffffffffff\n      and\n      0xddf252ad1be2c89b69c2b068fc378daa952ba7f163c4a11628f55a4df523b3ef\n      mload(0x40)\n      mload(0x40)\n      dup1\n      swap2\n      sub\n      swap1\n      log4\n        /* \"@openzeppelin/contracts@5.0.2/token/ERC721/ERC721.sol\":9622:9626  from */\n      dup1\n        /* \"@openzeppelin/contracts@5.0.2/token/ERC721/ERC721.sol\":9615:9626  return from */\n      swap2\n      pop\n      pop\n        /* \"@openzeppelin/contracts@5.0.2/token/ERC721/ERC721.sol\":8838:9633  function _update(address to, uint256 tokenId, address auth) internal virtual returns (address) {... */\n      swap4\n      swap3\n      pop\n      pop\n      pop\n      jump\t// out\n        /* \"@openzeppelin/contracts@5.0.2/token/ERC721/extensions/ERC721Enumerable.sol\":3846:4007  function _addTokenToAllTokensEnumeration(uint256 tokenId) private {... */\n    tag_259:\n        /* \"@openzeppelin/contracts@5.0.2/token/ERC721/extensions/ERC721Enumerable.sol\":3949:3959  _allTokens */\n      0x08\n        /* \"@openzeppelin/contracts@5.0.2/token/ERC721/extensions/ERC721Enumerable.sol\":3949:3966  _allTokens.length */\n      dup1\n      sload\n      swap1\n      pop\n        /* \"@openzeppelin/contracts@5.0.2/token/ERC721/extensions/ERC721Enumerable.sol\":3922:3937  _allTokensIndex */\n      0x09\n        /* \"@openzeppelin/contracts@5.0.2/token/ERC721/extensions/ERC721Enumerable.sol\":3922:3946  _allTokensIndex[tokenId] */\n      0x00\n        /* \"@openzeppelin/contracts@5.0.2/token/ERC721/extensions/ERC721Enumerable.sol\":3938:3945  tokenId */\n      dup4\n        /* \"@openzeppelin/contracts@5.0.2/token/ERC721/extensions/ERC721Enumerable.sol\":3922:3946  _allTokensIndex[tokenId] */\n      dup2\n      mstore\n      0x20\n      add\n      swap1\n      dup2\n      mstore\n      0x20\n      add\n      0x00\n      keccak256\n        /* \"@openzeppelin/contracts@5.0.2/token/ERC721/extensions/ERC721Enumerable.sol\":3922:3966  _allTokensIndex[tokenId] = _allTokens.length */\n      dup2\n      swap1\n      sstore\n      pop\n        /* \"@openzeppelin/contracts@5.0.2/token/ERC721/extensions/ERC721Enumerable.sol\":3976:3986  _allTokens */\n      0x08\n        /* \"@openzeppelin/contracts@5.0.2/token/ERC721/extensions/ERC721Enumerable.sol\":3992:3999  tokenId */\n      dup2\n        /* \"@openzeppelin/contracts@5.0.2/token/ERC721/extensions/ERC721Enumerable.sol\":3976:4000  _allTokens.push(tokenId) */\n      swap1\n      dup1\n      0x01\n      dup2\n      sload\n      add\n      dup1\n      dup3\n      sstore\n      dup1\n      swap2\n      pop\n      pop\n      0x01\n      swap1\n      sub\n      swap1\n      0x00\n      mstore\n      keccak256(0x00, 0x20)\n      add\n      0x00\n      swap1\n      swap2\n      swap1\n      swap2\n      swap1\n      swap2\n      pop\n      sstore\n        /* \"@openzeppelin/contracts@5.0.2/token/ERC721/extensions/ERC721Enumerable.sol\":3846:4007  function _addTokenToAllTokensEnumeration(uint256 tokenId) private {... */\n      pop\n      jump\t// out\n        /* \"@openzeppelin/contracts@5.0.2/token/ERC721/extensions/ERC721Enumerable.sol\":4624:5583  function _removeTokenFromOwnerEnumeration(address from, uint256 tokenId) private {... */\n    tag_263:\n        /* \"@openzeppelin/contracts@5.0.2/token/ERC721/extensions/ERC721Enumerable.sol\":4886:4908  uint256 lastTokenIndex */\n      0x00\n        /* \"@openzeppelin/contracts@5.0.2/token/ERC721/extensions/ERC721Enumerable.sol\":4911:4926  balanceOf(from) */\n      tag_300\n        /* \"@openzeppelin/contracts@5.0.2/token/ERC721/extensions/ERC721Enumerable.sol\":4921:4925  from */\n      dup4\n        /* \"@openzeppelin/contracts@5.0.2/token/ERC721/extensions/ERC721Enumerable.sol\":4911:4920  balanceOf */\n      tag_69\n        /* \"@openzeppelin/contracts@5.0.2/token/ERC721/extensions/ERC721Enumerable.sol\":4911:4926  balanceOf(from) */\n      jump\t// in\n    tag_300:\n        /* \"@openzeppelin/contracts@5.0.2/token/ERC721/extensions/ERC721Enumerable.sol\":4886:4926  uint256 lastTokenIndex = balanceOf(from) */\n      swap1\n      pop\n        /* \"@openzeppelin/contracts@5.0.2/token/ERC721/extensions/ERC721Enumerable.sol\":4936:4954  uint256 tokenIndex */\n      0x00\n        /* \"@openzeppelin/contracts@5.0.2/token/ERC721/extensions/ERC721Enumerable.sol\":4957:4974  _ownedTokensIndex */\n      0x07\n        /* \"@openzeppelin/contracts@5.0.2/token/ERC721/extensions/ERC721Enumerable.sol\":4957:4983  _ownedTokensIndex[tokenId] */\n      0x00\n        /* \"@openzeppelin/contracts@5.0.2/token/ERC721/extensions/ERC721Enumerable.sol\":4975:4982  tokenId */\n      dup5\n        /* \"@openzeppelin/contracts@5.0.2/token/ERC721/extensions/ERC721Enumerable.sol\":4957:4983  _ownedTokensIndex[tokenId] */\n      dup2\n      mstore\n      0x20\n      add\n      swap1\n      dup2\n      mstore\n      0x20\n      add\n      0x00\n      keccak256\n      sload\n        /* \"@openzeppelin/contracts@5.0.2/token/ERC721/extensions/ERC721Enumerable.sol\":4936:4983  uint256 tokenIndex = _ownedTokensIndex[tokenId] */\n      swap1\n      pop\n        /* \"@openzeppelin/contracts@5.0.2/token/ERC721/extensions/ERC721Enumerable.sol\":5101:5115  lastTokenIndex */\n      dup2\n        /* \"@openzeppelin/contracts@5.0.2/token/ERC721/extensions/ERC721Enumerable.sol\":5087:5097  tokenIndex */\n      dup2\n        /* \"@openzeppelin/contracts@5.0.2/token/ERC721/extensions/ERC721Enumerable.sol\":5087:5115  tokenIndex != lastTokenIndex */\n      eq\n        /* \"@openzeppelin/contracts@5.0.2/token/ERC721/extensions/ERC721Enumerable.sol\":5083:5406  if (tokenIndex != lastTokenIndex) {... */\n      tag_301\n      jumpi\n        /* \"@openzeppelin/contracts@5.0.2/token/ERC721/extensions/ERC721Enumerable.sol\":5131:5150  uint256 lastTokenId */\n      0x00\n        /* \"@openzeppelin/contracts@5.0.2/token/ERC721/extensions/ERC721Enumerable.sol\":5153:5165  _ownedTokens */\n      0x06\n        /* \"@openzeppelin/contracts@5.0.2/token/ERC721/extensions/ERC721Enumerable.sol\":5153:5171  _ownedTokens[from] */\n      0x00\n        /* \"@openzeppelin/contracts@5.0.2/token/ERC721/extensions/ERC721Enumerable.sol\":5166:5170  from */\n      dup7\n        /* \"@openzeppelin/contracts@5.0.2/token/ERC721/extensions/ERC721Enumerable.sol\":5153:5171  _ownedTokens[from] */\n      0xffffffffffffffffffffffffffffffffffffffff\n      and\n      0xffffffffffffffffffffffffffffffffffffffff\n      and\n      dup2\n      mstore\n      0x20\n      add\n      swap1\n      dup2\n      mstore\n      0x20\n      add\n      0x00\n      keccak256\n        /* \"@openzeppelin/contracts@5.0.2/token/ERC721/extensions/ERC721Enumerable.sol\":5153:5187  _ownedTokens[from][lastTokenIndex] */\n      0x00\n        /* \"@openzeppelin/contracts@5.0.2/token/ERC721/extensions/ERC721Enumerable.sol\":5172:5186  lastTokenIndex */\n      dup5\n        /* \"@openzeppelin/contracts@5.0.2/token/ERC721/extensions/ERC721Enumerable.sol\":5153:5187  _ownedTokens[from][lastTokenIndex] */\n      dup2\n      mstore\n      0x20\n      add\n      swap1\n      dup2\n      mstore\n      0x20\n      add\n      0x00\n      keccak256\n      sload\n        /* \"@openzeppelin/contracts@5.0.2/token/ERC721/extensions/ERC721Enumerable.sol\":5131:5187  uint256 lastTokenId = _ownedTokens[from][lastTokenIndex] */\n      swap1\n      pop\n        /* \"@openzeppelin/contracts@5.0.2/token/ERC721/extensions/ERC721Enumerable.sol\":5235:5246  lastTokenId */\n      dup1\n        /* \"@openzeppelin/contracts@5.0.2/token/ERC721/extensions/ERC721Enumerable.sol\":5202:5214  _ownedTokens */\n      0x06\n        /* \"@openzeppelin/contracts@5.0.2/token/ERC721/extensions/ERC721Enumerable.sol\":5202:5220  _ownedTokens[from] */\n      0x00\n        /* \"@openzeppelin/contracts@5.0.2/token/ERC721/extensions/ERC721Enumerable.sol\":5215:5219  from */\n      dup8\n        /* \"@openzeppelin/contracts@5.0.2/token/ERC721/extensions/ERC721Enumerable.sol\":5202:5220  _ownedTokens[from] */\n      0xffffffffffffffffffffffffffffffffffffffff\n      and\n      0xffffffffffffffffffffffffffffffffffffffff\n      and\n      dup2\n      mstore\n      0x20\n      add\n      swap1\n      dup2\n      mstore\n      0x20\n      add\n      0x00\n      keccak256\n        /* \"@openzeppelin/contracts@5.0.2/token/ERC721/extensions/ERC721Enumerable.sol\":5202:5232  _ownedTokens[from][tokenIndex] */\n      0x00\n        /* \"@openzeppelin/contracts@5.0.2/token/ERC721/extensions/ERC721Enumerable.sol\":5221:5231  tokenIndex */\n      dup5\n        /* \"@openzeppelin/contracts@5.0.2/token/ERC721/extensions/ERC721Enumerable.sol\":5202:5232  _ownedTokens[from][tokenIndex] */\n      dup2\n      mstore\n      0x20\n      add\n      swap1\n      dup2\n      mstore\n      0x20\n      add\n      0x00\n      keccak256\n        /* \"@openzeppelin/contracts@5.0.2/token/ERC721/extensions/ERC721Enumerable.sol\":5202:5246  _ownedTokens[from][tokenIndex] = lastTokenId */\n      dup2\n      swap1\n      sstore\n      pop\n        /* \"@openzeppelin/contracts@5.0.2/token/ERC721/extensions/ERC721Enumerable.sol\":5351:5361  tokenIndex */\n      dup2\n        /* \"@openzeppelin/contracts@5.0.2/token/ERC721/extensions/ERC721Enumerable.sol\":5318:5335  _ownedTokensIndex */\n      0x07\n        /* \"@openzeppelin/contracts@5.0.2/token/ERC721/extensions/ERC721Enumerable.sol\":5318:5348  _ownedTokensIndex[lastTokenId] */\n      0x00\n        /* \"@openzeppelin/contracts@5.0.2/token/ERC721/extensions/ERC721Enumerable.sol\":5336:5347  lastTokenId */\n      dup4\n        /* \"@openzeppelin/contracts@5.0.2/token/ERC721/extensions/ERC721Enumerable.sol\":5318:5348  _ownedTokensIndex[lastTokenId] */\n      dup2\n      mstore\n      0x20\n      add\n      swap1\n      dup2\n      mstore\n      0x20\n      add\n      0x00\n      keccak256\n        /* \"@openzeppelin/contracts@5.0.2/token/ERC721/extensions/ERC721Enumerable.sol\":5318:5361  _ownedTokensIndex[lastTokenId] = tokenIndex */\n      dup2\n      swap1\n      sstore\n      pop\n        /* \"@openzeppelin/contracts@5.0.2/token/ERC721/extensions/ERC721Enumerable.sol\":5117:5406  {... */\n      pop\n        /* \"@openzeppelin/contracts@5.0.2/token/ERC721/extensions/ERC721Enumerable.sol\":5083:5406  if (tokenIndex != lastTokenIndex) {... */\n    tag_301:\n        /* \"@openzeppelin/contracts@5.0.2/token/ERC721/extensions/ERC721Enumerable.sol\":5499:5516  _ownedTokensIndex */\n      0x07\n        /* \"@openzeppelin/contracts@5.0.2/token/ERC721/extensions/ERC721Enumerable.sol\":5499:5525  _ownedTokensIndex[tokenId] */\n      0x00\n        /* \"@openzeppelin/contracts@5.0.2/token/ERC721/extensions/ERC721Enumerable.sol\":5517:5524  tokenId */\n      dup5\n        /* \"@openzeppelin/contracts@5.0.2/token/ERC721/extensions/ERC721Enumerable.sol\":5499:5525  _ownedTokensIndex[tokenId] */\n      dup2\n      mstore\n      0x20\n      add\n      swap1\n      dup2\n      mstore\n      0x20\n      add\n      0x00\n      keccak256\n        /* \"@openzeppelin/contracts@5.0.2/token/ERC721/extensions/ERC721Enumerable.sol\":5492:5525  delete _ownedTokensIndex[tokenId] */\n      0x00\n      swap1\n      sstore\n        /* \"@openzeppelin/contracts@5.0.2/token/ERC721/extensions/ERC721Enumerable.sol\":5542:5554  _ownedTokens */\n      0x06\n        /* \"@openzeppelin/contracts@5.0.2/token/ERC721/extensions/ERC721Enumerable.sol\":5542:5560  _ownedTokens[from] */\n      0x00\n        /* \"@openzeppelin/contracts@5.0.2/token/ERC721/extensions/ERC721Enumerable.sol\":5555:5559  from */\n      dup6\n        /* \"@openzeppelin/contracts@5.0.2/token/ERC721/extensions/ERC721Enumerable.sol\":5542:5560  _ownedTokens[from] */\n      0xffffffffffffffffffffffffffffffffffffffff\n      and\n      0xffffffffffffffffffffffffffffffffffffffff\n      and\n      dup2\n      mstore\n      0x20\n      add\n      swap1\n      dup2\n      mstore\n      0x20\n      add\n      0x00\n      keccak256\n        /* \"@openzeppelin/contracts@5.0.2/token/ERC721/extensions/ERC721Enumerable.sol\":5542:5576  _ownedTokens[from][lastTokenIndex] */\n      0x00\n        /* \"@openzeppelin/contracts@5.0.2/token/ERC721/extensions/ERC721Enumerable.sol\":5561:5575  lastTokenIndex */\n      dup4\n        /* \"@openzeppelin/contracts@5.0.2/token/ERC721/extensions/ERC721Enumerable.sol\":5542:5576  _ownedTokens[from][lastTokenIndex] */\n      dup2\n      mstore\n      0x20\n      add\n      swap1\n      dup2\n      mstore\n      0x20\n      add\n      0x00\n      keccak256\n        /* \"@openzeppelin/contracts@5.0.2/token/ERC721/extensions/ERC721Enumerable.sol\":5535:5576  delete _ownedTokens[from][lastTokenIndex] */\n      0x00\n      swap1\n      sstore\n        /* \"@openzeppelin/contracts@5.0.2/token/ERC721/extensions/ERC721Enumerable.sol\":4705:5583  {... */\n      pop\n      pop\n        /* \"@openzeppelin/contracts@5.0.2/token/ERC721/extensions/ERC721Enumerable.sol\":4624:5583  function _removeTokenFromOwnerEnumeration(address from, uint256 tokenId) private {... */\n      pop\n      pop\n      jump\t// out\n        /* \"@openzeppelin/contracts@5.0.2/token/ERC721/extensions/ERC721Enumerable.sol\":5871:6932  function _removeTokenFromAllTokensEnumeration(uint256 tokenId) private {... */\n    tag_266:\n        /* \"@openzeppelin/contracts@5.0.2/token/ERC721/extensions/ERC721Enumerable.sol\":6120:6142  uint256 lastTokenIndex */\n      0x00\n        /* \"@openzeppelin/contracts@5.0.2/token/ERC721/extensions/ERC721Enumerable.sol\":6165:6166  1 */\n      0x01\n        /* \"@openzeppelin/contracts@5.0.2/token/ERC721/extensions/ERC721Enumerable.sol\":6145:6155  _allTokens */\n      0x08\n        /* \"@openzeppelin/contracts@5.0.2/token/ERC721/extensions/ERC721Enumerable.sol\":6145:6162  _allTokens.length */\n      dup1\n      sload\n      swap1\n      pop\n        /* \"@openzeppelin/contracts@5.0.2/token/ERC721/extensions/ERC721Enumerable.sol\":6145:6166  _allTokens.length - 1 */\n      tag_303\n      swap2\n      swap1\n      tag_304\n      jump\t// in\n    tag_303:\n        /* \"@openzeppelin/contracts@5.0.2/token/ERC721/extensions/ERC721Enumerable.sol\":6120:6166  uint256 lastTokenIndex = _allTokens.length - 1 */\n      swap1\n      pop\n        /* \"@openzeppelin/contracts@5.0.2/token/ERC721/extensions/ERC721Enumerable.sol\":6176:6194  uint256 tokenIndex */\n      0x00\n        /* \"@openzeppelin/contracts@5.0.2/token/ERC721/extensions/ERC721Enumerable.sol\":6197:6212  _allTokensIndex */\n      0x09\n        /* \"@openzeppelin/contracts@5.0.2/token/ERC721/extensions/ERC721Enumerable.sol\":6197:6221  _allTokensIndex[tokenId] */\n      0x00\n        /* \"@openzeppelin/contracts@5.0.2/token/ERC721/extensions/ERC721Enumerable.sol\":6213:6220  tokenId */\n      dup5\n        /* \"@openzeppelin/contracts@5.0.2/token/ERC721/extensions/ERC721Enumerable.sol\":6197:6221  _allTokensIndex[tokenId] */\n      dup2\n      mstore\n      0x20\n      add\n      swap1\n      dup2\n      mstore\n      0x20\n      add\n      0x00\n      keccak256\n      sload\n        /* \"@openzeppelin/contracts@5.0.2/token/ERC721/extensions/ERC721Enumerable.sol\":6176:6221  uint256 tokenIndex = _allTokensIndex[tokenId] */\n      swap1\n      pop\n        /* \"@openzeppelin/contracts@5.0.2/token/ERC721/extensions/ERC721Enumerable.sol\":6543:6562  uint256 lastTokenId */\n      0x00\n        /* \"@openzeppelin/contracts@5.0.2/token/ERC721/extensions/ERC721Enumerable.sol\":6565:6575  _allTokens */\n      0x08\n        /* \"@openzeppelin/contracts@5.0.2/token/ERC721/extensions/ERC721Enumerable.sol\":6576:6590  lastTokenIndex */\n      dup4\n        /* \"@openzeppelin/contracts@5.0.2/token/ERC721/extensions/ERC721Enumerable.sol\":6565:6591  _allTokens[lastTokenIndex] */\n      dup2\n      sload\n      dup2\n      lt\n      tag_305\n      jumpi\n      tag_306\n      tag_138\n      jump\t// in\n    tag_306:\n    tag_305:\n      swap1\n      0x00\n      mstore\n      keccak256(0x00, 0x20)\n      add\n      sload\n        /* \"@openzeppelin/contracts@5.0.2/token/ERC721/extensions/ERC721Enumerable.sol\":6543:6591  uint256 lastTokenId = _allTokens[lastTokenIndex] */\n      swap1\n      pop\n        /* \"@openzeppelin/contracts@5.0.2/token/ERC721/extensions/ERC721Enumerable.sol\":6627:6638  lastTokenId */\n      dup1\n        /* \"@openzeppelin/contracts@5.0.2/token/ERC721/extensions/ERC721Enumerable.sol\":6602:6612  _allTokens */\n      0x08\n        /* \"@openzeppelin/contracts@5.0.2/token/ERC721/extensions/ERC721Enumerable.sol\":6613:6623  tokenIndex */\n      dup4\n        /* \"@openzeppelin/contracts@5.0.2/token/ERC721/extensions/ERC721Enumerable.sol\":6602:6624  _allTokens[tokenIndex] */\n      dup2\n      sload\n      dup2\n      lt\n      tag_308\n      jumpi\n      tag_309\n      tag_138\n      jump\t// in\n    tag_309:\n    tag_308:\n      swap1\n      0x00\n      mstore\n      keccak256(0x00, 0x20)\n      add\n        /* \"@openzeppelin/contracts@5.0.2/token/ERC721/extensions/ERC721Enumerable.sol\":6602:6638  _allTokens[tokenIndex] = lastTokenId */\n      dup2\n      swap1\n      sstore\n      pop\n        /* \"@openzeppelin/contracts@5.0.2/token/ERC721/extensions/ERC721Enumerable.sol\":6737:6747  tokenIndex */\n      dup2\n        /* \"@openzeppelin/contracts@5.0.2/token/ERC721/extensions/ERC721Enumerable.sol\":6706:6721  _allTokensIndex */\n      0x09\n        /* \"@openzeppelin/contracts@5.0.2/token/ERC721/extensions/ERC721Enumerable.sol\":6706:6734  _allTokensIndex[lastTokenId] */\n      0x00\n        /* \"@openzeppelin/contracts@5.0.2/token/ERC721/extensions/ERC721Enumerable.sol\":6722:6733  lastTokenId */\n      dup4\n        /* \"@openzeppelin/contracts@5.0.2/token/ERC721/extensions/ERC721Enumerable.sol\":6706:6734  _allTokensIndex[lastTokenId] */\n      dup2\n      mstore\n      0x20\n      add\n      swap1\n      dup2\n      mstore\n      0x20\n      add\n      0x00\n      keccak256\n        /* \"@openzeppelin/contracts@5.0.2/token/ERC721/extensions/ERC721Enumerable.sol\":6706:6747  _allTokensIndex[lastTokenId] = tokenIndex */\n      dup2\n      swap1\n      sstore\n      pop\n        /* \"@openzeppelin/contracts@5.0.2/token/ERC721/extensions/ERC721Enumerable.sol\":6875:6890  _allTokensIndex */\n      0x09\n        /* \"@openzeppelin/contracts@5.0.2/token/ERC721/extensions/ERC721Enumerable.sol\":6875:6899  _allTokensIndex[tokenId] */\n      0x00\n        /* \"@openzeppelin/contracts@5.0.2/token/ERC721/extensions/ERC721Enumerable.sol\":6891:6898  tokenId */\n      dup6\n        /* \"@openzeppelin/contracts@5.0.2/token/ERC721/extensions/ERC721Enumerable.sol\":6875:6899  _allTokensIndex[tokenId] */\n      dup2\n      mstore\n      0x20\n      add\n      swap1\n      dup2\n      mstore\n      0x20\n      add\n      0x00\n      keccak256\n        /* \"@openzeppelin/contracts@5.0.2/token/ERC721/extensions/ERC721Enumerable.sol\":6868:6899  delete _allTokensIndex[tokenId] */\n      0x00\n      swap1\n      sstore\n        /* \"@openzeppelin/contracts@5.0.2/token/ERC721/extensions/ERC721Enumerable.sol\":6909:6919  _allTokens */\n      0x08\n        /* \"@openzeppelin/contracts@5.0.2/token/ERC721/extensions/ERC721Enumerable.sol\":6909:6925  _allTokens.pop() */\n      dup1\n      sload\n      dup1\n      tag_311\n      jumpi\n      tag_312\n      tag_313\n      jump\t// in\n    tag_312:\n    tag_311:\n      0x01\n      swap1\n      sub\n      dup2\n      dup2\n      swap1\n      0x00\n      mstore\n      keccak256(0x00, 0x20)\n      add\n      0x00\n      swap1\n      sstore\n      swap1\n      sstore\n        /* \"@openzeppelin/contracts@5.0.2/token/ERC721/extensions/ERC721Enumerable.sol\":5942:6932  {... */\n      pop\n      pop\n      pop\n        /* \"@openzeppelin/contracts@5.0.2/token/ERC721/extensions/ERC721Enumerable.sol\":5871:6932  function _removeTokenFromAllTokensEnumeration(uint256 tokenId) private {... */\n      pop\n      jump\t// out\n        /* \"@openzeppelin/contracts@5.0.2/token/ERC721/extensions/ERC721Enumerable.sol\":3437:3651  function _addTokenToOwnerEnumeration(address to, uint256 tokenId) private {... */\n    tag_270:\n        /* \"@openzeppelin/contracts@5.0.2/token/ERC721/extensions/ERC721Enumerable.sol\":3521:3535  uint256 length */\n      0x00\n        /* \"@openzeppelin/contracts@5.0.2/token/ERC721/extensions/ERC721Enumerable.sol\":3554:3555  1 */\n      0x01\n        /* \"@openzeppelin/contracts@5.0.2/token/ERC721/extensions/ERC721Enumerable.sol\":3538:3551  balanceOf(to) */\n      tag_316\n        /* \"@openzeppelin/contracts@5.0.2/token/ERC721/extensions/ERC721Enumerable.sol\":3548:3550  to */\n      dup5\n        /* \"@openzeppelin/contracts@5.0.2/token/ERC721/extensions/ERC721Enumerable.sol\":3538:3547  balanceOf */\n      tag_69\n        /* \"@openzeppelin/contracts@5.0.2/token/ERC721/extensions/ERC721Enumerable.sol\":3538:3551  balanceOf(to) */\n      jump\t// in\n    tag_316:\n        /* \"@openzeppelin/contracts@5.0.2/token/ERC721/extensions/ERC721Enumerable.sol\":3538:3555  balanceOf(to) - 1 */\n      tag_317\n      swap2\n      swap1\n      tag_304\n      jump\t// in\n    tag_317:\n        /* \"@openzeppelin/contracts@5.0.2/token/ERC721/extensions/ERC721Enumerable.sol\":3521:3555  uint256 length = balanceOf(to) - 1 */\n      swap1\n      pop\n        /* \"@openzeppelin/contracts@5.0.2/token/ERC721/extensions/ERC721Enumerable.sol\":3592:3599  tokenId */\n      dup2\n        /* \"@openzeppelin/contracts@5.0.2/token/ERC721/extensions/ERC721Enumerable.sol\":3565:3577  _ownedTokens */\n      0x06\n        /* \"@openzeppelin/contracts@5.0.2/token/ERC721/extensions/ERC721Enumerable.sol\":3565:3581  _ownedTokens[to] */\n      0x00\n        /* \"@openzeppelin/contracts@5.0.2/token/ERC721/extensions/ERC721Enumerable.sol\":3578:3580  to */\n      dup6\n        /* \"@openzeppelin/contracts@5.0.2/token/ERC721/extensions/ERC721Enumerable.sol\":3565:3581  _ownedTokens[to] */\n      0xffffffffffffffffffffffffffffffffffffffff\n      and\n      0xffffffffffffffffffffffffffffffffffffffff\n      and\n      dup2\n      mstore\n      0x20\n      add\n      swap1\n      dup2\n      mstore\n      0x20\n      add\n      0x00\n      keccak256\n        /* \"@openzeppelin/contracts@5.0.2/token/ERC721/extensions/ERC721Enumerable.sol\":3565:3589  _ownedTokens[to][length] */\n      0x00\n        /* \"@openzeppelin/contracts@5.0.2/token/ERC721/extensions/ERC721Enumerable.sol\":3582:3588  length */\n      dup4\n        /* \"@openzeppelin/contracts@5.0.2/token/ERC721/extensions/ERC721Enumerable.sol\":3565:3589  _ownedTokens[to][length] */\n      dup2\n      mstore\n      0x20\n      add\n      swap1\n      dup2\n      mstore\n      0x20\n      add\n      0x00\n      keccak256\n        /* \"@openzeppelin/contracts@5.0.2/token/ERC721/extensions/ERC721Enumerable.sol\":3565:3599  _ownedTokens[to][length] = tokenId */\n      dup2\n      swap1\n      sstore\n      pop\n        /* \"@openzeppelin/contracts@5.0.2/token/ERC721/extensions/ERC721Enumerable.sol\":3638:3644  length */\n      dup1\n        /* \"@openzeppelin/contracts@5.0.2/token/ERC721/extensions/ERC721Enumerable.sol\":3609:3626  _ownedTokensIndex */\n      0x07\n        /* \"@openzeppelin/contracts@5.0.2/token/ERC721/extensions/ERC721Enumerable.sol\":3609:3635  _ownedTokensIndex[tokenId] */\n      0x00\n        /* \"@openzeppelin/contracts@5.0.2/token/ERC721/extensions/ERC721Enumerable.sol\":3627:3634  tokenId */\n      dup5\n        /* \"@openzeppelin/contracts@5.0.2/token/ERC721/extensions/ERC721Enumerable.sol\":3609:3635  _ownedTokensIndex[tokenId] */\n      dup2\n      mstore\n      0x20\n      add\n      swap1\n      dup2\n      mstore\n      0x20\n      add\n      0x00\n      keccak256\n        /* \"@openzeppelin/contracts@5.0.2/token/ERC721/extensions/ERC721Enumerable.sol\":3609:3644  _ownedTokensIndex[tokenId] = length */\n      dup2\n      swap1\n      sstore\n      pop\n        /* \"@openzeppelin/contracts@5.0.2/token/ERC721/extensions/ERC721Enumerable.sol\":3511:3651  {... */\n      pop\n        /* \"@openzeppelin/contracts@5.0.2/token/ERC721/extensions/ERC721Enumerable.sol\":3437:3651  function _addTokenToOwnerEnumeration(address to, uint256 tokenId) private {... */\n      pop\n      pop\n      jump\t// out\n        /* \"@openzeppelin/contracts@5.0.2/utils/Strings.sol\":637:1335  function toString(uint256 value) internal pure returns (string memory) {... */\n    tag_278:\n        /* \"@openzeppelin/contracts@5.0.2/utils/Strings.sol\":693:706  string memory */\n      0x60\n        /* \"@openzeppelin/contracts@5.0.2/utils/Strings.sol\":742:756  uint256 length */\n      0x00\n        /* \"@openzeppelin/contracts@5.0.2/utils/Strings.sol\":779:780  1 */\n      0x01\n        /* \"@openzeppelin/contracts@5.0.2/utils/Strings.sol\":759:776  Math.log10(value) */\n      tag_319\n        /* \"@openzeppelin/contracts@5.0.2/utils/Strings.sol\":770:775  value */\n      dup5\n        /* \"@openzeppelin/contracts@5.0.2/utils/Strings.sol\":759:769  Math.log10 */\n      tag_320\n        /* \"@openzeppelin/contracts@5.0.2/utils/Strings.sol\":759:776  Math.log10(value) */\n      jump\t// in\n    tag_319:\n        /* \"@openzeppelin/contracts@5.0.2/utils/Strings.sol\":759:780  Math.log10(value) + 1 */\n      add\n        /* \"@openzeppelin/contracts@5.0.2/utils/Strings.sol\":742:780  uint256 length = Math.log10(value) + 1 */\n      swap1\n      pop\n        /* \"@openzeppelin/contracts@5.0.2/utils/Strings.sol\":794:814  string memory buffer */\n      0x00\n        /* \"@openzeppelin/contracts@5.0.2/utils/Strings.sol\":828:834  length */\n      dup2\n        /* \"@openzeppelin/contracts@5.0.2/utils/Strings.sol\":817:835  new string(length) */\n      0xffffffffffffffff\n      dup2\n      gt\n      iszero\n      tag_321\n      jumpi\n      tag_322\n      tag_323\n      jump\t// in\n    tag_322:\n    tag_321:\n      mload(0x40)\n      swap1\n      dup1\n      dup3\n      mstore\n      dup1\n      0x1f\n      add\n      not(0x1f)\n      and\n      0x20\n      add\n      dup3\n      add\n      0x40\n      mstore\n      dup1\n      iszero\n      tag_324\n      jumpi\n      dup2\n      0x20\n      add\n      0x01\n      dup3\n      mul\n      dup1\n      calldatasize\n      dup4\n      calldatacopy\n      dup1\n      dup3\n      add\n      swap2\n      pop\n      pop\n      swap1\n      pop\n    tag_324:\n      pop\n        /* \"@openzeppelin/contracts@5.0.2/utils/Strings.sol\":794:835  string memory buffer = new string(length) */\n      swap1\n      pop\n        /* \"@openzeppelin/contracts@5.0.2/utils/Strings.sol\":849:860  uint256 ptr */\n      0x00\n        /* \"@openzeppelin/contracts@5.0.2/utils/Strings.sol\":975:981  length */\n      dup3\n        /* \"@openzeppelin/contracts@5.0.2/utils/Strings.sol\":971:973  32 */\n      0x20\n        /* \"@openzeppelin/contracts@5.0.2/utils/Strings.sol\":967:982  add(32, length) */\n      add\n        /* \"@openzeppelin/contracts@5.0.2/utils/Strings.sol\":959:965  buffer */\n      dup3\n        /* \"@openzeppelin/contracts@5.0.2/utils/Strings.sol\":955:983  add(buffer, add(32, length)) */\n      add\n        /* \"@openzeppelin/contracts@5.0.2/utils/Strings.sol\":948:983  ptr := add(buffer, add(32, length)) */\n      swap1\n      pop\n        /* \"@openzeppelin/contracts@5.0.2/utils/Strings.sol\":1010:1292  while (true) {... */\n    tag_325:\n        /* \"@openzeppelin/contracts@5.0.2/utils/Strings.sol\":1017:1021  true */\n      0x01\n        /* \"@openzeppelin/contracts@5.0.2/utils/Strings.sol\":1010:1292  while (true) {... */\n      iszero\n      tag_326\n      jumpi\n        /* \"@openzeppelin/contracts@5.0.2/utils/Strings.sol\":1041:1046  ptr-- */\n      dup1\n      dup1\n      0x01\n      swap1\n      sub\n      swap2\n      pop\n      pop\n        /* \"@openzeppelin/contracts@5.0.2/utils/Strings.sol\":1180:1190  HEX_DIGITS */\n      0x3031323334353637383961626364656600000000000000000000000000000000\n        /* \"@openzeppelin/contracts@5.0.2/utils/Strings.sol\":1175:1177  10 */\n      0x0a\n        /* \"@openzeppelin/contracts@5.0.2/utils/Strings.sol\":1168:1173  value */\n      dup7\n        /* \"@openzeppelin/contracts@5.0.2/utils/Strings.sol\":1164:1178  mod(value, 10) */\n      mod\n        /* \"@openzeppelin/contracts@5.0.2/utils/Strings.sol\":1159:1191  byte(mod(value, 10), HEX_DIGITS) */\n      byte\n        /* \"@openzeppelin/contracts@5.0.2/utils/Strings.sol\":1154:1157  ptr */\n      dup2\n        /* \"@openzeppelin/contracts@5.0.2/utils/Strings.sol\":1146:1192  mstore8(ptr, byte(mod(value, 10), HEX_DIGITS)) */\n      mstore8\n        /* \"@openzeppelin/contracts@5.0.2/utils/Strings.sol\":1236:1238  10 */\n      0x0a\n        /* \"@openzeppelin/contracts@5.0.2/utils/Strings.sol\":1227:1238  value /= 10 */\n      dup6\n      dup2\n      tag_327\n      jumpi\n      tag_328\n      tag_329\n      jump\t// in\n    tag_328:\n    tag_327:\n      div\n      swap5\n      pop\n        /* \"@openzeppelin/contracts@5.0.2/utils/Strings.sol\":1269:1270  0 */\n      0x00\n        /* \"@openzeppelin/contracts@5.0.2/utils/Strings.sol\":1260:1265  value */\n      dup6\n        /* \"@openzeppelin/contracts@5.0.2/utils/Strings.sol\":1260:1270  value == 0 */\n      sub\n        /* \"@openzeppelin/contracts@5.0.2/utils/Strings.sol\":1010:1292  while (true) {... */\n      tag_325\n        /* \"@openzeppelin/contracts@5.0.2/utils/Strings.sol\":1256:1277  if (value == 0) break */\n      jumpi\n        /* \"@openzeppelin/contracts@5.0.2/utils/Strings.sol\":1010:1292  while (true) {... */\n    tag_326:\n        /* \"@openzeppelin/contracts@5.0.2/utils/Strings.sol\":1312:1318  buffer */\n      dup2\n        /* \"@openzeppelin/contracts@5.0.2/utils/Strings.sol\":1305:1318  return buffer */\n      swap4\n      pop\n      pop\n      pop\n      pop\n        /* \"@openzeppelin/contracts@5.0.2/utils/Strings.sol\":637:1335  function toString(uint256 value) internal pure returns (string memory) {... */\n      swap2\n      swap1\n      pop\n      jump\t// out\n        /* \"@openzeppelin/contracts@5.0.2/token/ERC721/ERC721.sol\":9955:10282  function _mint(address to, uint256 tokenId) internal {... */\n    tag_282:\n        /* \"@openzeppelin/contracts@5.0.2/token/ERC721/ERC721.sol\":10036:10037  0 */\n      0x00\n        /* \"@openzeppelin/contracts@5.0.2/token/ERC721/ERC721.sol\":10022:10038  to == address(0) */\n      0xffffffffffffffffffffffffffffffffffffffff\n      and\n        /* \"@openzeppelin/contracts@5.0.2/token/ERC721/ERC721.sol\":10022:10024  to */\n      dup3\n        /* \"@openzeppelin/contracts@5.0.2/token/ERC721/ERC721.sol\":10022:10038  to == address(0) */\n      0xffffffffffffffffffffffffffffffffffffffff\n      and\n      sub\n        /* \"@openzeppelin/contracts@5.0.2/token/ERC721/ERC721.sol\":10018:10105  if (to == address(0)) {... */\n      tag_332\n      jumpi\n        /* \"@openzeppelin/contracts@5.0.2/token/ERC721/ERC721.sol\":10091:10092  0 */\n      0x00\n        /* \"@openzeppelin/contracts@5.0.2/token/ERC721/ERC721.sol\":10061:10094  ERC721InvalidReceiver(address(0)) */\n      mload(0x40)\n      0x64a0ae9200000000000000000000000000000000000000000000000000000000\n      dup2\n      mstore\n      0x04\n      add\n      tag_333\n      swap2\n      swap1\n      tag_38\n      jump\t// in\n    tag_333:\n      mload(0x40)\n      dup1\n      swap2\n      sub\n      swap1\n      revert\n        /* \"@openzeppelin/contracts@5.0.2/token/ERC721/ERC721.sol\":10018:10105  if (to == address(0)) {... */\n    tag_332:\n        /* \"@openzeppelin/contracts@5.0.2/token/ERC721/ERC721.sol\":10114:10135  address previousOwner */\n      0x00\n        /* \"@openzeppelin/contracts@5.0.2/token/ERC721/ERC721.sol\":10138:10170  _update(to, tokenId, address(0)) */\n      tag_334\n        /* \"@openzeppelin/contracts@5.0.2/token/ERC721/ERC721.sol\":10146:10148  to */\n      dup4\n        /* \"@openzeppelin/contracts@5.0.2/token/ERC721/ERC721.sol\":10150:10157  tokenId */\n      dup4\n        /* \"@openzeppelin/contracts@5.0.2/token/ERC721/ERC721.sol\":10167:10168  0 */\n      0x00\n        /* \"@openzeppelin/contracts@5.0.2/token/ERC721/ERC721.sol\":10138:10145  _update */\n      tag_121\n        /* \"@openzeppelin/contracts@5.0.2/token/ERC721/ERC721.sol\":10138:10170  _update(to, tokenId, address(0)) */\n      jump\t// in\n    tag_334:\n        /* \"@openzeppelin/contracts@5.0.2/token/ERC721/ERC721.sol\":10114:10170  address previousOwner = _update(to, tokenId, address(0)) */\n      swap1\n      pop\n        /* \"@openzeppelin/contracts@5.0.2/token/ERC721/ERC721.sol\":10209:10210  0 */\n      0x00\n        /* \"@openzeppelin/contracts@5.0.2/token/ERC721/ERC721.sol\":10184:10211  previousOwner != address(0) */\n      0xffffffffffffffffffffffffffffffffffffffff\n      and\n        /* \"@openzeppelin/contracts@5.0.2/token/ERC721/ERC721.sol\":10184:10197  previousOwner */\n      dup2\n        /* \"@openzeppelin/contracts@5.0.2/token/ERC721/ERC721.sol\":10184:10211  previousOwner != address(0) */\n      0xffffffffffffffffffffffffffffffffffffffff\n      and\n      eq\n        /* \"@openzeppelin/contracts@5.0.2/token/ERC721/ERC721.sol\":10180:10276  if (previousOwner != address(0)) {... */\n      tag_335\n      jumpi\n        /* \"@openzeppelin/contracts@5.0.2/token/ERC721/ERC721.sol\":10262:10263  0 */\n      0x00\n        /* \"@openzeppelin/contracts@5.0.2/token/ERC721/ERC721.sol\":10234:10265  ERC721InvalidSender(address(0)) */\n      mload(0x40)\n      0x73c6ac6e00000000000000000000000000000000000000000000000000000000\n      dup2\n      mstore\n      0x04\n      add\n      tag_336\n      swap2\n      swap1\n      tag_38\n      jump\t// in\n    tag_336:\n      mload(0x40)\n      dup1\n      swap2\n      sub\n      swap1\n      revert\n        /* \"@openzeppelin/contracts@5.0.2/token/ERC721/ERC721.sol\":10180:10276  if (previousOwner != address(0)) {... */\n    tag_335:\n        /* \"@openzeppelin/contracts@5.0.2/token/ERC721/ERC721.sol\":10008:10282  {... */\n      pop\n        /* \"@openzeppelin/contracts@5.0.2/token/ERC721/ERC721.sol\":9955:10282  function _mint(address to, uint256 tokenId) internal {... */\n      pop\n      pop\n      jump\t// out\n        /* \"@openzeppelin/contracts@5.0.2/utils/introspection/ERC165.sol\":762:908  function supportsInterface(bytes4 interfaceId) public view virtual returns (bool) {... */\n    tag_288:\n        /* \"@openzeppelin/contracts@5.0.2/utils/introspection/ERC165.sol\":838:842  bool */\n      0x00\n        /* \"@openzeppelin/contracts@5.0.2/utils/introspection/ERC165.sol\":876:901  type(IERC165).interfaceId */\n      0x01ffc9a700000000000000000000000000000000000000000000000000000000\n        /* \"@openzeppelin/contracts@5.0.2/utils/introspection/ERC165.sol\":861:901  interfaceId == type(IERC165).interfaceId */\n      not(0xffffffffffffffffffffffffffffffffffffffffffffffffffffffff)\n      and\n        /* \"@openzeppelin/contracts@5.0.2/utils/introspection/ERC165.sol\":861:872  interfaceId */\n      dup3\n        /* \"@openzeppelin/contracts@5.0.2/utils/introspection/ERC165.sol\":861:901  interfaceId == type(IERC165).interfaceId */\n      not(0xffffffffffffffffffffffffffffffffffffffffffffffffffffffff)\n      and\n      eq\n        /* \"@openzeppelin/contracts@5.0.2/utils/introspection/ERC165.sol\":854:901  return interfaceId == type(IERC165).interfaceId */\n      swap1\n      pop\n        /* \"@openzeppelin/contracts@5.0.2/utils/introspection/ERC165.sol\":762:908  function supportsInterface(bytes4 interfaceId) public view virtual returns (bool) {... */\n      swap2\n      swap1\n      pop\n      jump\t// out\n        /* \"@openzeppelin/contracts@5.0.2/token/ERC721/ERC721.sol\":7082:7450  function _checkAuthorized(address owner, address spender, uint256 tokenId) internal view virtual {... */\n    tag_293:\n        /* \"@openzeppelin/contracts@5.0.2/token/ERC721/ERC721.sol\":7194:7232  _isAuthorized(owner, spender, tokenId) */\n      tag_339\n        /* \"@openzeppelin/contracts@5.0.2/token/ERC721/ERC721.sol\":7208:7213  owner */\n      dup4\n        /* \"@openzeppelin/contracts@5.0.2/token/ERC721/ERC721.sol\":7215:7222  spender */\n      dup4\n        /* \"@openzeppelin/contracts@5.0.2/token/ERC721/ERC721.sol\":7224:7231  tokenId */\n      dup4\n        /* \"@openzeppelin/contracts@5.0.2/token/ERC721/ERC721.sol\":7194:7207  _isAuthorized */\n      tag_340\n        /* \"@openzeppelin/contracts@5.0.2/token/ERC721/ERC721.sol\":7194:7232  _isAuthorized(owner, spender, tokenId) */\n      jump\t// in\n    tag_339:\n        /* \"@openzeppelin/contracts@5.0.2/token/ERC721/ERC721.sol\":7189:7444  if (!_isAuthorized(owner, spender, tokenId)) {... */\n      tag_341\n      jumpi\n        /* \"@openzeppelin/contracts@5.0.2/token/ERC721/ERC721.sol\":7269:7270  0 */\n      0x00\n        /* \"@openzeppelin/contracts@5.0.2/token/ERC721/ERC721.sol\":7252:7271  owner == address(0) */\n      0xffffffffffffffffffffffffffffffffffffffff\n      and\n        /* \"@openzeppelin/contracts@5.0.2/token/ERC721/ERC721.sol\":7252:7257  owner */\n      dup4\n        /* \"@openzeppelin/contracts@5.0.2/token/ERC721/ERC721.sol\":7252:7271  owner == address(0) */\n      0xffffffffffffffffffffffffffffffffffffffff\n      and\n      sub\n        /* \"@openzeppelin/contracts@5.0.2/token/ERC721/ERC721.sol\":7248:7434  if (owner == address(0)) {... */\n      tag_342\n      jumpi\n        /* \"@openzeppelin/contracts@5.0.2/token/ERC721/ERC721.sol\":7321:7328  tokenId */\n      dup1\n        /* \"@openzeppelin/contracts@5.0.2/token/ERC721/ERC721.sol\":7298:7329  ERC721NonexistentToken(tokenId) */\n      mload(0x40)\n      0x7e27328900000000000000000000000000000000000000000000000000000000\n      dup2\n      mstore\n      0x04\n      add\n      tag_343\n      swap2\n      swap1\n      tag_46\n      jump\t// in\n    tag_343:\n      mload(0x40)\n      dup1\n      swap2\n      sub\n      swap1\n      revert\n        /* \"@openzeppelin/contracts@5.0.2/token/ERC721/ERC721.sol\":7248:7434  if (owner == address(0)) {... */\n    tag_342:\n        /* \"@openzeppelin/contracts@5.0.2/token/ERC721/ERC721.sol\":7402:7409  spender */\n      dup2\n        /* \"@openzeppelin/contracts@5.0.2/token/ERC721/ERC721.sol\":7411:7418  tokenId */\n      dup2\n        /* \"@openzeppelin/contracts@5.0.2/token/ERC721/ERC721.sol\":7375:7419  ERC721InsufficientApproval(spender, tokenId) */\n      mload(0x40)\n      0x177e802f00000000000000000000000000000000000000000000000000000000\n      dup2\n      mstore\n      0x04\n      add\n      tag_345\n      swap3\n      swap2\n      swap1\n      tag_129\n      jump\t// in\n    tag_345:\n      mload(0x40)\n      dup1\n      swap2\n      sub\n      swap1\n      revert\n        /* \"@openzeppelin/contracts@5.0.2/token/ERC721/ERC721.sol\":7189:7444  if (!_isAuthorized(owner, spender, tokenId)) {... */\n    tag_341:\n        /* \"@openzeppelin/contracts@5.0.2/token/ERC721/ERC721.sol\":7082:7450  function _checkAuthorized(address owner, address spender, uint256 tokenId) internal view virtual {... */\n      pop\n      pop\n      pop\n      jump\t// out\n        /* \"@openzeppelin/contracts@5.0.2/utils/math/Math.sol\":12214:13130  function log10(uint256 value) internal pure returns (uint256) {... */\n    tag_320:\n        /* \"@openzeppelin/contracts@5.0.2/utils/math/Math.sol\":12267:12274  uint256 */\n      0x00\n        /* \"@openzeppelin/contracts@5.0.2/utils/math/Math.sol\":12286:12300  uint256 result */\n      dup1\n        /* \"@openzeppelin/contracts@5.0.2/utils/math/Math.sol\":12303:12304  0 */\n      0x00\n        /* \"@openzeppelin/contracts@5.0.2/utils/math/Math.sol\":12286:12304  uint256 result = 0 */\n      swap1\n      pop\n        /* \"@openzeppelin/contracts@5.0.2/utils/math/Math.sol\":12351:12359  10 ** 64 */\n      0x184f03e93ff9f4daa797ed6e38ed64bf6a1f010000000000000000\n        /* \"@openzeppelin/contracts@5.0.2/utils/math/Math.sol\":12342:12347  value */\n      dup4\n        /* \"@openzeppelin/contracts@5.0.2/utils/math/Math.sol\":12342:12359  value >= 10 ** 64 */\n      lt\n        /* \"@openzeppelin/contracts@5.0.2/utils/math/Math.sol\":12338:12441  if (value >= 10 ** 64) {... */\n      tag_347\n      jumpi\n        /* \"@openzeppelin/contracts@5.0.2/utils/math/Math.sol\":12388:12396  10 ** 64 */\n      0x184f03e93ff9f4daa797ed6e38ed64bf6a1f010000000000000000\n        /* \"@openzeppelin/contracts@5.0.2/utils/math/Math.sol\":12379:12396  value /= 10 ** 64 */\n      dup4\n      dup2\n      tag_348\n      jumpi\n      tag_349\n      tag_329\n      jump\t// in\n    tag_349:\n    tag_348:\n      div\n      swap3\n      pop\n        /* \"@openzeppelin/contracts@5.0.2/utils/math/Math.sol\":12424:12426  64 */\n      0x40\n        /* \"@openzeppelin/contracts@5.0.2/utils/math/Math.sol\":12414:12426  result += 64 */\n      dup2\n      add\n      swap1\n      pop\n        /* \"@openzeppelin/contracts@5.0.2/utils/math/Math.sol\":12338:12441  if (value >= 10 ** 64) {... */\n    tag_347:\n        /* \"@openzeppelin/contracts@5.0.2/utils/math/Math.sol\":12467:12475  10 ** 32 */\n      0x04ee2d6d415b85acef8100000000\n        /* \"@openzeppelin/contracts@5.0.2/utils/math/Math.sol\":12458:12463  value */\n      dup4\n        /* \"@openzeppelin/contracts@5.0.2/utils/math/Math.sol\":12458:12475  value >= 10 ** 32 */\n      lt\n        /* \"@openzeppelin/contracts@5.0.2/utils/math/Math.sol\":12454:12557  if (value >= 10 ** 32) {... */\n      tag_350\n      jumpi\n        /* \"@openzeppelin/contracts@5.0.2/utils/math/Math.sol\":12504:12512  10 ** 32 */\n      0x04ee2d6d415b85acef8100000000\n        /* \"@openzeppelin/contracts@5.0.2/utils/math/Math.sol\":12495:12512  value /= 10 ** 32 */\n      dup4\n      dup2\n      tag_351\n      jumpi\n      tag_352\n      tag_329\n      jump\t// in\n    tag_352:\n    tag_351:\n      div\n      swap3\n      pop\n        /* \"@openzeppelin/contracts@5.0.2/utils/math/Math.sol\":12540:12542  32 */\n      0x20\n        /* \"@openzeppelin/contracts@5.0.2/utils/math/Math.sol\":12530:12542  result += 32 */\n      dup2\n      add\n      swap1\n      pop\n        /* \"@openzeppelin/contracts@5.0.2/utils/math/Math.sol\":12454:12557  if (value >= 10 ** 32) {... */\n    tag_350:\n        /* \"@openzeppelin/contracts@5.0.2/utils/math/Math.sol\":12583:12591  10 ** 16 */\n      0x2386f26fc10000\n        /* \"@openzeppelin/contracts@5.0.2/utils/math/Math.sol\":12574:12579  value */\n      dup4\n        /* \"@openzeppelin/contracts@5.0.2/utils/math/Math.sol\":12574:12591  value >= 10 ** 16 */\n      lt\n        /* \"@openzeppelin/contracts@5.0.2/utils/math/Math.sol\":12570:12673  if (value >= 10 ** 16) {... */\n      tag_353\n      jumpi\n        /* \"@openzeppelin/contracts@5.0.2/utils/math/Math.sol\":12620:12628  10 ** 16 */\n      0x2386f26fc10000\n        /* \"@openzeppelin/contracts@5.0.2/utils/math/Math.sol\":12611:12628  value /= 10 ** 16 */\n      dup4\n      dup2\n      tag_354\n      jumpi\n      tag_355\n      tag_329\n      jump\t// in\n    tag_355:\n    tag_354:\n      div\n      swap3\n      pop\n        /* \"@openzeppelin/contracts@5.0.2/utils/math/Math.sol\":12656:12658  16 */\n      0x10\n        /* \"@openzeppelin/contracts@5.0.2/utils/math/Math.sol\":12646:12658  result += 16 */\n      dup2\n      add\n      swap1\n      pop\n        /* \"@openzeppelin/contracts@5.0.2/utils/math/Math.sol\":12570:12673  if (value >= 10 ** 16) {... */\n    tag_353:\n        /* \"@openzeppelin/contracts@5.0.2/utils/math/Math.sol\":12699:12706  10 ** 8 */\n      0x05f5e100\n        /* \"@openzeppelin/contracts@5.0.2/utils/math/Math.sol\":12690:12695  value */\n      dup4\n        /* \"@openzeppelin/contracts@5.0.2/utils/math/Math.sol\":12690:12706  value >= 10 ** 8 */\n      lt\n        /* \"@openzeppelin/contracts@5.0.2/utils/math/Math.sol\":12686:12786  if (value >= 10 ** 8) {... */\n      tag_356\n      jumpi\n        /* \"@openzeppelin/contracts@5.0.2/utils/math/Math.sol\":12735:12742  10 ** 8 */\n      0x05f5e100\n        /* \"@openzeppelin/contracts@5.0.2/utils/math/Math.sol\":12726:12742  value /= 10 ** 8 */\n      dup4\n      dup2\n      tag_357\n      jumpi\n      tag_358\n      tag_329\n      jump\t// in\n    tag_358:\n    tag_357:\n      div\n      swap3\n      pop\n        /* \"@openzeppelin/contracts@5.0.2/utils/math/Math.sol\":12770:12771  8 */\n      0x08\n        /* \"@openzeppelin/contracts@5.0.2/utils/math/Math.sol\":12760:12771  result += 8 */\n      dup2\n      add\n      swap1\n      pop\n        /* \"@openzeppelin/contracts@5.0.2/utils/math/Math.sol\":12686:12786  if (value >= 10 ** 8) {... */\n    tag_356:\n        /* \"@openzeppelin/contracts@5.0.2/utils/math/Math.sol\":12812:12819  10 ** 4 */\n      0x2710\n        /* \"@openzeppelin/contracts@5.0.2/utils/math/Math.sol\":12803:12808  value */\n      dup4\n        /* \"@openzeppelin/contracts@5.0.2/utils/math/Math.sol\":12803:12819  value >= 10 ** 4 */\n      lt\n        /* \"@openzeppelin/contracts@5.0.2/utils/math/Math.sol\":12799:12899  if (value >= 10 ** 4) {... */\n      tag_359\n      jumpi\n        /* \"@openzeppelin/contracts@5.0.2/utils/math/Math.sol\":12848:12855  10 ** 4 */\n      0x2710\n        /* \"@openzeppelin/contracts@5.0.2/utils/math/Math.sol\":12839:12855  value /= 10 ** 4 */\n      dup4\n      dup2\n      tag_360\n      jumpi\n      tag_361\n      tag_329\n      jump\t// in\n    tag_361:\n    tag_360:\n      div\n      swap3\n      pop\n        /* \"@openzeppelin/contracts@5.0.2/utils/math/Math.sol\":12883:12884  4 */\n      0x04\n        /* \"@openzeppelin/contracts@5.0.2/utils/math/Math.sol\":12873:12884  result += 4 */\n      dup2\n      add\n      swap1\n      pop\n        /* \"@openzeppelin/contracts@5.0.2/utils/math/Math.sol\":12799:12899  if (value >= 10 ** 4) {... */\n    tag_359:\n        /* \"@openzeppelin/contracts@5.0.2/utils/math/Math.sol\":12925:12932  10 ** 2 */\n      0x64\n        /* \"@openzeppelin/contracts@5.0.2/utils/math/Math.sol\":12916:12921  value */\n      dup4\n        /* \"@openzeppelin/contracts@5.0.2/utils/math/Math.sol\":12916:12932  value >= 10 ** 2 */\n      lt\n        /* \"@openzeppelin/contracts@5.0.2/utils/math/Math.sol\":12912:13012  if (value >= 10 ** 2) {... */\n      tag_362\n      jumpi\n        /* \"@openzeppelin/contracts@5.0.2/utils/math/Math.sol\":12961:12968  10 ** 2 */\n      0x64\n        /* \"@openzeppelin/contracts@5.0.2/utils/math/Math.sol\":12952:12968  value /= 10 ** 2 */\n      dup4\n      dup2\n      tag_363\n      jumpi\n      tag_364\n      tag_329\n      jump\t// in\n    tag_364:\n    tag_363:\n      div\n      swap3\n      pop\n        /* \"@openzeppelin/contracts@5.0.2/utils/math/Math.sol\":12996:12997  2 */\n      0x02\n        /* \"@openzeppelin/contracts@5.0.2/utils/math/Math.sol\":12986:12997  result += 2 */\n      dup2\n      add\n      swap1\n      pop\n        /* \"@openzeppelin/contracts@5.0.2/utils/math/Math.sol\":12912:13012  if (value >= 10 ** 2) {... */\n    tag_362:\n        /* \"@openzeppelin/contracts@5.0.2/utils/math/Math.sol\":13038:13045  10 ** 1 */\n      0x0a\n        /* \"@openzeppelin/contracts@5.0.2/utils/math/Math.sol\":13029:13034  value */\n      dup4\n        /* \"@openzeppelin/contracts@5.0.2/utils/math/Math.sol\":13029:13045  value >= 10 ** 1 */\n      lt\n        /* \"@openzeppelin/contracts@5.0.2/utils/math/Math.sol\":13025:13091  if (value >= 10 ** 1) {... */\n      tag_365\n      jumpi\n        /* \"@openzeppelin/contracts@5.0.2/utils/math/Math.sol\":13075:13076  1 */\n      0x01\n        /* \"@openzeppelin/contracts@5.0.2/utils/math/Math.sol\":13065:13076  result += 1 */\n      dup2\n      add\n      swap1\n      pop\n        /* \"@openzeppelin/contracts@5.0.2/utils/math/Math.sol\":13025:13091  if (value >= 10 ** 1) {... */\n    tag_365:\n        /* \"@openzeppelin/contracts@5.0.2/utils/math/Math.sol\":13117:13123  result */\n      dup1\n        /* \"@openzeppelin/contracts@5.0.2/utils/math/Math.sol\":13110:13123  return result */\n      swap2\n      pop\n      pop\n        /* \"@openzeppelin/contracts@5.0.2/utils/math/Math.sol\":12214:13130  function log10(uint256 value) internal pure returns (uint256) {... */\n      swap2\n      swap1\n      pop\n      jump\t// out\n        /* \"@openzeppelin/contracts@5.0.2/token/ERC721/ERC721.sol\":6376:6648  function _isAuthorized(address owner, address spender, uint256 tokenId) internal view virtual returns (bool) {... */\n    tag_340:\n        /* \"@openzeppelin/contracts@5.0.2/token/ERC721/ERC721.sol\":6479:6483  bool */\n      0x00\n        /* \"@openzeppelin/contracts@5.0.2/token/ERC721/ERC721.sol\":6533:6534  0 */\n      dup1\n        /* \"@openzeppelin/contracts@5.0.2/token/ERC721/ERC721.sol\":6514:6535  spender != address(0) */\n      0xffffffffffffffffffffffffffffffffffffffff\n      and\n        /* \"@openzeppelin/contracts@5.0.2/token/ERC721/ERC721.sol\":6514:6521  spender */\n      dup4\n        /* \"@openzeppelin/contracts@5.0.2/token/ERC721/ERC721.sol\":6514:6535  spender != address(0) */\n      0xffffffffffffffffffffffffffffffffffffffff\n      and\n      eq\n      iszero\n        /* \"@openzeppelin/contracts@5.0.2/token/ERC721/ERC721.sol\":6514:6641  spender != address(0) &&... */\n      dup1\n      iszero\n      tag_367\n      jumpi\n      pop\n        /* \"@openzeppelin/contracts@5.0.2/token/ERC721/ERC721.sol\":6561:6568  spender */\n      dup3\n        /* \"@openzeppelin/contracts@5.0.2/token/ERC721/ERC721.sol\":6552:6568  owner == spender */\n      0xffffffffffffffffffffffffffffffffffffffff\n      and\n        /* \"@openzeppelin/contracts@5.0.2/token/ERC721/ERC721.sol\":6552:6557  owner */\n      dup5\n        /* \"@openzeppelin/contracts@5.0.2/token/ERC721/ERC721.sol\":6552:6568  owner == spender */\n      0xffffffffffffffffffffffffffffffffffffffff\n      and\n      eq\n        /* \"@openzeppelin/contracts@5.0.2/token/ERC721/ERC721.sol\":6552:6604  owner == spender || isApprovedForAll(owner, spender) */\n      dup1\n      tag_368\n      jumpi\n      pop\n        /* \"@openzeppelin/contracts@5.0.2/token/ERC721/ERC721.sol\":6572:6604  isApprovedForAll(owner, spender) */\n      tag_369\n        /* \"@openzeppelin/contracts@5.0.2/token/ERC721/ERC721.sol\":6589:6594  owner */\n      dup5\n        /* \"@openzeppelin/contracts@5.0.2/token/ERC721/ERC721.sol\":6596:6603  spender */\n      dup5\n        /* \"@openzeppelin/contracts@5.0.2/token/ERC721/ERC721.sol\":6572:6588  isApprovedForAll */\n      tag_93\n        /* \"@openzeppelin/contracts@5.0.2/token/ERC721/ERC721.sol\":6572:6604  isApprovedForAll(owner, spender) */\n      jump\t// in\n    tag_369:\n        /* \"@openzeppelin/contracts@5.0.2/token/ERC721/ERC721.sol\":6552:6604  owner == spender || isApprovedForAll(owner, spender) */\n    tag_368:\n        /* \"@openzeppelin/contracts@5.0.2/token/ERC721/ERC721.sol\":6552:6640  owner == spender || isApprovedForAll(owner, spender) || _getApproved(tokenId) == spender */\n      dup1\n      tag_370\n      jumpi\n      pop\n        /* \"@openzeppelin/contracts@5.0.2/token/ERC721/ERC721.sol\":6633:6640  spender */\n      dup3\n        /* \"@openzeppelin/contracts@5.0.2/token/ERC721/ERC721.sol\":6608:6640  _getApproved(tokenId) == spender */\n      0xffffffffffffffffffffffffffffffffffffffff\n      and\n        /* \"@openzeppelin/contracts@5.0.2/token/ERC721/ERC721.sol\":6608:6629  _getApproved(tokenId) */\n      tag_371\n        /* \"@openzeppelin/contracts@5.0.2/token/ERC721/ERC721.sol\":6621:6628  tokenId */\n      dup4\n        /* \"@openzeppelin/contracts@5.0.2/token/ERC721/ERC721.sol\":6608:6620  _getApproved */\n      tag_109\n        /* \"@openzeppelin/contracts@5.0.2/token/ERC721/ERC721.sol\":6608:6629  _getApproved(tokenId) */\n      jump\t// in\n    tag_371:\n        /* \"@openzeppelin/contracts@5.0.2/token/ERC721/ERC721.sol\":6608:6640  _getApproved(tokenId) == spender */\n      0xffffffffffffffffffffffffffffffffffffffff\n      and\n      eq\n        /* \"@openzeppelin/contracts@5.0.2/token/ERC721/ERC721.sol\":6552:6640  owner == spender || isApprovedForAll(owner, spender) || _getApproved(tokenId) == spender */\n    tag_370:\n        /* \"@openzeppelin/contracts@5.0.2/token/ERC721/ERC721.sol\":6514:6641  spender != address(0) &&... */\n    tag_367:\n        /* \"@openzeppelin/contracts@5.0.2/token/ERC721/ERC721.sol\":6495:6641  return... */\n      swap1\n      pop\n        /* \"@openzeppelin/contracts@5.0.2/token/ERC721/ERC721.sol\":6376:6648  function _isAuthorized(address owner, address spender, uint256 tokenId) internal view virtual returns (bool) {... */\n      swap4\n      swap3\n      pop\n      pop\n      pop\n      jump\t// out\n        /* \"#utility.yul\":7:82   */\n    tag_372:\n        /* \"#utility.yul\":40:46   */\n      0x00\n        /* \"#utility.yul\":73:75   */\n      0x40\n        /* \"#utility.yul\":67:76   */\n      mload\n        /* \"#utility.yul\":57:76   */\n      swap1\n      pop\n        /* \"#utility.yul\":7:82   */\n      swap1\n      jump\t// out\n        /* \"#utility.yul\":88:205   */\n    tag_373:\n        /* \"#utility.yul\":197:198   */\n      0x00\n        /* \"#utility.yul\":194:195   */\n      dup1\n        /* \"#utility.yul\":187:199   */\n      revert\n        /* \"#utility.yul\":211:328   */\n    tag_374:\n        /* \"#utility.yul\":320:321   */\n      0x00\n        /* \"#utility.yul\":317:318   */\n      dup1\n        /* \"#utility.yul\":310:322   */\n      revert\n        /* \"#utility.yul\":334:483   */\n    tag_375:\n        /* \"#utility.yul\":370:377   */\n      0x00\n        /* \"#utility.yul\":410:476   */\n      0xffffffff00000000000000000000000000000000000000000000000000000000\n        /* \"#utility.yul\":403:408   */\n      dup3\n        /* \"#utility.yul\":399:477   */\n      and\n        /* \"#utility.yul\":388:477   */\n      swap1\n      pop\n        /* \"#utility.yul\":334:483   */\n      swap2\n      swap1\n      pop\n      jump\t// out\n        /* \"#utility.yul\":489:609   */\n    tag_376:\n        /* \"#utility.yul\":561:584   */\n      tag_438\n        /* \"#utility.yul\":578:583   */\n      dup2\n        /* \"#utility.yul\":561:584   */\n      tag_375\n      jump\t// in\n    tag_438:\n        /* \"#utility.yul\":554:559   */\n      dup2\n        /* \"#utility.yul\":551:585   */\n      eq\n        /* \"#utility.yul\":541:603   */\n      tag_439\n      jumpi\n        /* \"#utility.yul\":599:600   */\n      0x00\n        /* \"#utility.yul\":596:597   */\n      dup1\n        /* \"#utility.yul\":589:601   */\n      revert\n        /* \"#utility.yul\":541:603   */\n    tag_439:\n        /* \"#utility.yul\":489:609   */\n      pop\n      jump\t// out\n        /* \"#utility.yul\":615:752   */\n    tag_377:\n        /* \"#utility.yul\":660:665   */\n      0x00\n        /* \"#utility.yul\":698:704   */\n      dup2\n        /* \"#utility.yul\":685:705   */\n      calldataload\n        /* \"#utility.yul\":676:705   */\n      swap1\n      pop\n        /* \"#utility.yul\":714:746   */\n      tag_441\n        /* \"#utility.yul\":740:745   */\n      dup2\n        /* \"#utility.yul\":714:746   */\n      tag_376\n      jump\t// in\n    tag_441:\n        /* \"#utility.yul\":615:752   */\n      swap3\n      swap2\n      pop\n      pop\n      jump\t// out\n        /* \"#utility.yul\":758:1085   */\n    tag_25:\n        /* \"#utility.yul\":816:822   */\n      0x00\n        /* \"#utility.yul\":865:867   */\n      0x20\n        /* \"#utility.yul\":853:862   */\n      dup3\n        /* \"#utility.yul\":844:851   */\n      dup5\n        /* \"#utility.yul\":840:863   */\n      sub\n        /* \"#utility.yul\":836:868   */\n      slt\n        /* \"#utility.yul\":833:952   */\n      iszero\n      tag_443\n      jumpi\n        /* \"#utility.yul\":871:950   */\n      tag_444\n      tag_373\n      jump\t// in\n    tag_444:\n        /* \"#utility.yul\":833:952   */\n    tag_443:\n        /* \"#utility.yul\":991:992   */\n      0x00\n        /* \"#utility.yul\":1016:1068   */\n      tag_445\n        /* \"#utility.yul\":1060:1067   */\n      dup5\n        /* \"#utility.yul\":1051:1057   */\n      dup3\n        /* \"#utility.yul\":1040:1049   */\n      dup6\n        /* \"#utility.yul\":1036:1058   */\n      add\n        /* \"#utility.yul\":1016:1068   */\n      tag_377\n      jump\t// in\n    tag_445:\n        /* \"#utility.yul\":1006:1068   */\n      swap2\n      pop\n        /* \"#utility.yul\":962:1078   */\n      pop\n        /* \"#utility.yul\":758:1085   */\n      swap3\n      swap2\n      pop\n      pop\n      jump\t// out\n        /* \"#utility.yul\":1091:1181   */\n    tag_378:\n        /* \"#utility.yul\":1125:1132   */\n      0x00\n        /* \"#utility.yul\":1168:1173   */\n      dup2\n        /* \"#utility.yul\":1161:1174   */\n      iszero\n        /* \"#utility.yul\":1154:1175   */\n      iszero\n        /* \"#utility.yul\":1143:1175   */\n      swap1\n      pop\n        /* \"#utility.yul\":1091:1181   */\n      swap2\n      swap1\n      pop\n      jump\t// out\n        /* \"#utility.yul\":1187:1296   */\n    tag_379:\n        /* \"#utility.yul\":1268:1289   */\n      tag_448\n        /* \"#utility.yul\":1283:1288   */\n      dup2\n        /* \"#utility.yul\":1268:1289   */\n      tag_378\n      jump\t// in\n    tag_448:\n        /* \"#utility.yul\":1263:1266   */\n      dup3\n        /* \"#utility.yul\":1256:1290   */\n      mstore\n        /* \"#utility.yul\":1187:1296   */\n      pop\n      pop\n      jump\t// out\n        /* \"#utility.yul\":1302:1512   */\n    tag_28:\n        /* \"#utility.yul\":1389:1393   */\n      0x00\n        /* \"#utility.yul\":1427:1429   */\n      0x20\n        /* \"#utility.yul\":1416:1425   */\n      dup3\n        /* \"#utility.yul\":1412:1430   */\n      add\n        /* \"#utility.yul\":1404:1430   */\n      swap1\n      pop\n        /* \"#utility.yul\":1440:1505   */\n      tag_450\n        /* \"#utility.yul\":1502:1503   */\n      0x00\n        /* \"#utility.yul\":1491:1500   */\n      dup4\n        /* \"#utility.yul\":1487:1504   */\n      add\n        /* \"#utility.yul\":1478:1484   */\n      dup5\n        /* \"#utility.yul\":1440:1505   */\n      tag_379\n      jump\t// in\n    tag_450:\n        /* \"#utility.yul\":1302:1512   */\n      swap3\n      swap2\n      pop\n      pop\n      jump\t// out\n        /* \"#utility.yul\":1518:1617   */\n    tag_380:\n        /* \"#utility.yul\":1570:1576   */\n      0x00\n        /* \"#utility.yul\":1604:1609   */\n      dup2\n        /* \"#utility.yul\":1598:1610   */\n      mload\n        /* \"#utility.yul\":1588:1610   */\n      swap1\n      pop\n        /* \"#utility.yul\":1518:1617   */\n      swap2\n      swap1\n      pop\n      jump\t// out\n        /* \"#utility.yul\":1623:1792   */\n    tag_381:\n        /* \"#utility.yul\":1707:1718   */\n      0x00\n        /* \"#utility.yul\":1741:1747   */\n      dup3\n        /* \"#utility.yul\":1736:1739   */\n      dup3\n        /* \"#utility.yul\":1729:1748   */\n      mstore\n        /* \"#utility.yul\":1781:1785   */\n      0x20\n        /* \"#utility.yul\":1776:1779   */\n      dup3\n        /* \"#utility.yul\":1772:1786   */\n      add\n        /* \"#utility.yul\":1757:1786   */\n      swap1\n      pop\n        /* \"#utility.yul\":1623:1792   */\n      swap3\n      swap2\n      pop\n      pop\n      jump\t// out\n        /* \"#utility.yul\":1798:1937   */\n    tag_382:\n        /* \"#utility.yul\":1887:1893   */\n      dup3\n        /* \"#utility.yul\":1882:1885   */\n      dup2\n        /* \"#utility.yul\":1877:1880   */\n      dup4\n        /* \"#utility.yul\":1871:1894   */\n      mcopy\n        /* \"#utility.yul\":1928:1929   */\n      0x00\n        /* \"#utility.yul\":1919:1925   */\n      dup4\n        /* \"#utility.yul\":1914:1917   */\n      dup4\n        /* \"#utility.yul\":1910:1926   */\n      add\n        /* \"#utility.yul\":1903:1930   */\n      mstore\n        /* \"#utility.yul\":1798:1937   */\n      pop\n      pop\n      pop\n      jump\t// out\n        /* \"#utility.yul\":1943:2045   */\n    tag_383:\n        /* \"#utility.yul\":1984:1990   */\n      0x00\n        /* \"#utility.yul\":2035:2037   */\n      0x1f\n        /* \"#utility.yul\":2031:2038   */\n      not\n        /* \"#utility.yul\":2026:2028   */\n      0x1f\n        /* \"#utility.yul\":2019:2024   */\n      dup4\n        /* \"#utility.yul\":2015:2029   */\n      add\n        /* \"#utility.yul\":2011:2039   */\n      and\n        /* \"#utility.yul\":2001:2039   */\n      swap1\n      pop\n        /* \"#utility.yul\":1943:2045   */\n      swap2\n      swap1\n      pop\n      jump\t// out\n        /* \"#utility.yul\":2051:2428   */\n    tag_384:\n        /* \"#utility.yul\":2139:2142   */\n      0x00\n        /* \"#utility.yul\":2167:2206   */\n      tag_456\n        /* \"#utility.yul\":2200:2205   */\n      dup3\n        /* \"#utility.yul\":2167:2206   */\n      tag_380\n      jump\t// in\n    tag_456:\n        /* \"#utility.yul\":2222:2293   */\n      tag_457\n        /* \"#utility.yul\":2286:2292   */\n      dup2\n        /* \"#utility.yul\":2281:2284   */\n      dup6\n        /* \"#utility.yul\":2222:2293   */\n      tag_381\n      jump\t// in\n    tag_457:\n        /* \"#utility.yul\":2215:2293   */\n      swap4\n      pop\n        /* \"#utility.yul\":2302:2367   */\n      tag_458\n        /* \"#utility.yul\":2360:2366   */\n      dup2\n        /* \"#utility.yul\":2355:2358   */\n      dup6\n        /* \"#utility.yul\":2348:2352   */\n      0x20\n        /* \"#utility.yul\":2341:2346   */\n      dup7\n        /* \"#utility.yul\":2337:2353   */\n      add\n        /* \"#utility.yul\":2302:2367   */\n      tag_382\n      jump\t// in\n    tag_458:\n        /* \"#utility.yul\":2392:2421   */\n      tag_459\n        /* \"#utility.yul\":2414:2420   */\n      dup2\n        /* \"#utility.yul\":2392:2421   */\n      tag_383\n      jump\t// in\n    tag_459:\n        /* \"#utility.yul\":2387:2390   */\n      dup5\n        /* \"#utility.yul\":2383:2422   */\n      add\n        /* \"#utility.yul\":2376:2422   */\n      swap2\n      pop\n        /* \"#utility.yul\":2143:2428   */\n      pop\n        /* \"#utility.yul\":2051:2428   */\n      swap3\n      swap2\n      pop\n      pop\n      jump\t// out\n        /* \"#utility.yul\":2434:2747   */\n    tag_32:\n        /* \"#utility.yul\":2547:2551   */\n      0x00\n        /* \"#utility.yul\":2585:2587   */\n      0x20\n        /* \"#utility.yul\":2574:2583   */\n      dup3\n        /* \"#utility.yul\":2570:2588   */\n      add\n        /* \"#utility.yul\":2562:2588   */\n      swap1\n      pop\n        /* \"#utility.yul\":2634:2643   */\n      dup2\n        /* \"#utility.yul\":2628:2632   */\n      dup2\n        /* \"#utility.yul\":2624:2644   */\n      sub\n        /* \"#utility.yul\":2620:2621   */\n      0x00\n        /* \"#utility.yul\":2609:2618   */\n      dup4\n        /* \"#utility.yul\":2605:2622   */\n      add\n        /* \"#utility.yul\":2598:2645   */\n      mstore\n        /* \"#utility.yul\":2662:2740   */\n      tag_461\n        /* \"#utility.yul\":2735:2739   */\n      dup2\n        /* \"#utility.yul\":2726:2732   */\n      dup5\n        /* \"#utility.yul\":2662:2740   */\n      tag_384\n      jump\t// in\n    tag_461:\n        /* \"#utility.yul\":2654:2740   */\n      swap1\n      pop\n        /* \"#utility.yul\":2434:2747   */\n      swap3\n      swap2\n      pop\n      pop\n      jump\t// out\n        /* \"#utility.yul\":2753:2830   */\n    tag_385:\n        /* \"#utility.yul\":2790:2797   */\n      0x00\n        /* \"#utility.yul\":2819:2824   */\n      dup2\n        /* \"#utility.yul\":2808:2824   */\n      swap1\n      pop\n        /* \"#utility.yul\":2753:2830   */\n      swap2\n      swap1\n      pop\n      jump\t// out\n        /* \"#utility.yul\":2836:2958   */\n    tag_386:\n        /* \"#utility.yul\":2909:2933   */\n      tag_464\n        /* \"#utility.yul\":2927:2932   */\n      dup2\n        /* \"#utility.yul\":2909:2933   */\n      tag_385\n      jump\t// in\n    tag_464:\n        /* \"#utility.yul\":2902:2907   */\n      dup2\n        /* \"#utility.yul\":2899:2934   */\n      eq\n        /* \"#utility.yul\":2889:2952   */\n      tag_465\n      jumpi\n        /* \"#utility.yul\":2948:2949   */\n      0x00\n        /* \"#utility.yul\":2945:2946   */\n      dup1\n        /* \"#utility.yul\":2938:2950   */\n      revert\n        /* \"#utility.yul\":2889:2952   */\n    tag_465:\n        /* \"#utility.yul\":2836:2958   */\n      pop\n      jump\t// out\n        /* \"#utility.yul\":2964:3103   */\n    tag_387:\n        /* \"#utility.yul\":3010:3015   */\n      0x00\n        /* \"#utility.yul\":3048:3054   */\n      dup2\n        /* \"#utility.yul\":3035:3055   */\n      calldataload\n        /* \"#utility.yul\":3026:3055   */\n      swap1\n      pop\n        /* \"#utility.yul\":3064:3097   */\n      tag_467\n        /* \"#utility.yul\":3091:3096   */\n      dup2\n        /* \"#utility.yul\":3064:3097   */\n      tag_386\n      jump\t// in\n    tag_467:\n        /* \"#utility.yul\":2964:3103   */\n      swap3\n      swap2\n      pop\n      pop\n      jump\t// out\n        /* \"#utility.yul\":3109:3438   */\n    tag_35:\n        /* \"#utility.yul\":3168:3174   */\n      0x00\n        /* \"#utility.yul\":3217:3219   */\n      0x20\n        /* \"#utility.yul\":3205:3214   */\n      dup3\n        /* \"#utility.yul\":3196:3203   */\n      dup5\n        /* \"#utility.yul\":3192:3215   */\n      sub\n        /* \"#utility.yul\":3188:3220   */\n      slt\n        /* \"#utility.yul\":3185:3304   */\n      iszero\n      tag_469\n      jumpi\n        /* \"#utility.yul\":3223:3302   */\n      tag_470\n      tag_373\n      jump\t// in\n    tag_470:\n        /* \"#utility.yul\":3185:3304   */\n    tag_469:\n        /* \"#utility.yul\":3343:3344   */\n      0x00\n        /* \"#utility.yul\":3368:3421   */\n      tag_471\n        /* \"#utility.yul\":3413:3420   */\n      dup5\n        /* \"#utility.yul\":3404:3410   */\n      dup3\n        /* \"#utility.yul\":3393:3402   */\n      dup6\n        /* \"#utility.yul\":3389:3411   */\n      add\n        /* \"#utility.yul\":3368:3421   */\n      tag_387\n      jump\t// in\n    tag_471:\n        /* \"#utility.yul\":3358:3421   */\n      swap2\n      pop\n        /* \"#utility.yul\":3314:3431   */\n      pop\n        /* \"#utility.yul\":3109:3438   */\n      swap3\n      swap2\n      pop\n      pop\n      jump\t// out\n        /* \"#utility.yul\":3444:3570   */\n    tag_388:\n        /* \"#utility.yul\":3481:3488   */\n      0x00\n        /* \"#utility.yul\":3521:3563   */\n      0xffffffffffffffffffffffffffffffffffffffff\n        /* \"#utility.yul\":3514:3519   */\n      dup3\n        /* \"#utility.yul\":3510:3564   */\n      and\n        /* \"#utility.yul\":3499:3564   */\n      swap1\n      pop\n        /* \"#utility.yul\":3444:3570   */\n      swap2\n      swap1\n      pop\n      jump\t// out\n        /* \"#utility.yul\":3576:3672   */\n    tag_389:\n        /* \"#utility.yul\":3613:3620   */\n      0x00\n        /* \"#utility.yul\":3642:3666   */\n      tag_474\n        /* \"#utility.yul\":3660:3665   */\n      dup3\n        /* \"#utility.yul\":3642:3666   */\n      tag_388\n      jump\t// in\n    tag_474:\n        /* \"#utility.yul\":3631:3666   */\n      swap1\n      pop\n        /* \"#utility.yul\":3576:3672   */\n      swap2\n      swap1\n      pop\n      jump\t// out\n        /* \"#utility.yul\":3678:3796   */\n    tag_390:\n        /* \"#utility.yul\":3765:3789   */\n      tag_476\n        /* \"#utility.yul\":3783:3788   */\n      dup2\n        /* \"#utility.yul\":3765:3789   */\n      tag_389\n      jump\t// in\n    tag_476:\n        /* \"#utility.yul\":3760:3763   */\n      dup3\n        /* \"#utility.yul\":3753:3790   */\n      mstore\n        /* \"#utility.yul\":3678:3796   */\n      pop\n      pop\n      jump\t// out\n        /* \"#utility.yul\":3802:4024   */\n    tag_38:\n        /* \"#utility.yul\":3895:3899   */\n      0x00\n        /* \"#utility.yul\":3933:3935   */\n      0x20\n        /* \"#utility.yul\":3922:3931   */\n      dup3\n        /* \"#utility.yul\":3918:3936   */\n      add\n        /* \"#utility.yul\":3910:3936   */\n      swap1\n      pop\n        /* \"#utility.yul\":3946:4017   */\n      tag_478\n        /* \"#utility.yul\":4014:4015   */\n      0x00\n        /* \"#utility.yul\":4003:4012   */\n      dup4\n        /* \"#utility.yul\":3999:4016   */\n      add\n        /* \"#utility.yul\":3990:3996   */\n      dup5\n        /* \"#utility.yul\":3946:4017   */\n      tag_390\n      jump\t// in\n    tag_478:\n        /* \"#utility.yul\":3802:4024   */\n      swap3\n      swap2\n      pop\n      pop\n      jump\t// out\n        /* \"#utility.yul\":4030:4152   */\n    tag_391:\n        /* \"#utility.yul\":4103:4127   */\n      tag_480\n        /* \"#utility.yul\":4121:4126   */\n      dup2\n        /* \"#utility.yul\":4103:4127   */\n      tag_389\n      jump\t// in\n    tag_480:\n        /* \"#utility.yul\":4096:4101   */\n      dup2\n        /* \"#utility.yul\":4093:4128   */\n      eq\n        /* \"#utility.yul\":4083:4146   */\n      tag_481\n      jumpi\n        /* \"#utility.yul\":4142:4143   */\n      0x00\n        /* \"#utility.yul\":4139:4140   */\n      dup1\n        /* \"#utility.yul\":4132:4144   */\n      revert\n        /* \"#utility.yul\":4083:4146   */\n    tag_481:\n        /* \"#utility.yul\":4030:4152   */\n      pop\n      jump\t// out\n        /* \"#utility.yul\":4158:4297   */\n    tag_392:\n        /* \"#utility.yul\":4204:4209   */\n      0x00\n        /* \"#utility.yul\":4242:4248   */\n      dup2\n        /* \"#utility.yul\":4229:4249   */\n      calldataload\n        /* \"#utility.yul\":4220:4249   */\n      swap1\n      pop\n        /* \"#utility.yul\":4258:4291   */\n      tag_483\n        /* \"#utility.yul\":4285:4290   */\n      dup2\n        /* \"#utility.yul\":4258:4291   */\n      tag_391\n      jump\t// in\n    tag_483:\n        /* \"#utility.yul\":4158:4297   */\n      swap3\n      swap2\n      pop\n      pop\n      jump\t// out\n        /* \"#utility.yul\":4303:4777   */\n    tag_41:\n        /* \"#utility.yul\":4371:4377   */\n      0x00\n        /* \"#utility.yul\":4379:4385   */\n      dup1\n        /* \"#utility.yul\":4428:4430   */\n      0x40\n        /* \"#utility.yul\":4416:4425   */\n      dup4\n        /* \"#utility.yul\":4407:4414   */\n      dup6\n        /* \"#utility.yul\":4403:4426   */\n      sub\n        /* \"#utility.yul\":4399:4431   */\n      slt\n        /* \"#utility.yul\":4396:4515   */\n      iszero\n      tag_485\n      jumpi\n        /* \"#utility.yul\":4434:4513   */\n      tag_486\n      tag_373\n      jump\t// in\n    tag_486:\n        /* \"#utility.yul\":4396:4515   */\n    tag_485:\n        /* \"#utility.yul\":4554:4555   */\n      0x00\n        /* \"#utility.yul\":4579:4632   */\n      tag_487\n        /* \"#utility.yul\":4624:4631   */\n      dup6\n        /* \"#utility.yul\":4615:4621   */\n      dup3\n        /* \"#utility.yul\":4604:4613   */\n      dup7\n        /* \"#utility.yul\":4600:4622   */\n      add\n        /* \"#utility.yul\":4579:4632   */\n      tag_392\n      jump\t// in\n    tag_487:\n        /* \"#utility.yul\":4569:4632   */\n      swap3\n      pop\n        /* \"#utility.yul\":4525:4642   */\n      pop\n        /* \"#utility.yul\":4681:4683   */\n      0x20\n        /* \"#utility.yul\":4707:4760   */\n      tag_488\n        /* \"#utility.yul\":4752:4759   */\n      dup6\n        /* \"#utility.yul\":4743:4749   */\n      dup3\n        /* \"#utility.yul\":4732:4741   */\n      dup7\n        /* \"#utility.yul\":4728:4750   */\n      add\n        /* \"#utility.yul\":4707:4760   */\n      tag_387\n      jump\t// in\n    tag_488:\n        /* \"#utility.yul\":4697:4760   */\n      swap2\n      pop\n        /* \"#utility.yul\":4652:4770   */\n      pop\n        /* \"#utility.yul\":4303:4777   */\n      swap3\n      pop\n      swap3\n      swap1\n      pop\n      jump\t// out\n        /* \"#utility.yul\":4783:4901   */\n    tag_393:\n        /* \"#utility.yul\":4870:4894   */\n      tag_490\n        /* \"#utility.yul\":4888:4893   */\n      dup2\n        /* \"#utility.yul\":4870:4894   */\n      tag_385\n      jump\t// in\n    tag_490:\n        /* \"#utility.yul\":4865:4868   */\n      dup3\n        /* \"#utility.yul\":4858:4895   */\n      mstore\n        /* \"#utility.yul\":4783:4901   */\n      pop\n      pop\n      jump\t// out\n        /* \"#utility.yul\":4907:5129   */\n    tag_46:\n        /* \"#utility.yul\":5000:5004   */\n      0x00\n        /* \"#utility.yul\":5038:5040   */\n      0x20\n        /* \"#utility.yul\":5027:5036   */\n      dup3\n        /* \"#utility.yul\":5023:5041   */\n      add\n        /* \"#utility.yul\":5015:5041   */\n      swap1\n      pop\n        /* \"#utility.yul\":5051:5122   */\n      tag_492\n        /* \"#utility.yul\":5119:5120   */\n      0x00\n        /* \"#utility.yul\":5108:5117   */\n      dup4\n        /* \"#utility.yul\":5104:5121   */\n      add\n        /* \"#utility.yul\":5095:5101   */\n      dup5\n        /* \"#utility.yul\":5051:5122   */\n      tag_393\n      jump\t// in\n    tag_492:\n        /* \"#utility.yul\":4907:5129   */\n      swap3\n      swap2\n      pop\n      pop\n      jump\t// out\n        /* \"#utility.yul\":5135:5754   */\n    tag_49:\n        /* \"#utility.yul\":5212:5218   */\n      0x00\n        /* \"#utility.yul\":5220:5226   */\n      dup1\n        /* \"#utility.yul\":5228:5234   */\n      0x00\n        /* \"#utility.yul\":5277:5279   */\n      0x60\n        /* \"#utility.yul\":5265:5274   */\n      dup5\n        /* \"#utility.yul\":5256:5263   */\n      dup7\n        /* \"#utility.yul\":5252:5275   */\n      sub\n        /* \"#utility.yul\":5248:5280   */\n      slt\n        /* \"#utility.yul\":5245:5364   */\n      iszero\n      tag_494\n      jumpi\n        /* \"#utility.yul\":5283:5362   */\n      tag_495\n      tag_373\n      jump\t// in\n    tag_495:\n        /* \"#utility.yul\":5245:5364   */\n    tag_494:\n        /* \"#utility.yul\":5403:5404   */\n      0x00\n        /* \"#utility.yul\":5428:5481   */\n      tag_496\n        /* \"#utility.yul\":5473:5480   */\n      dup7\n        /* \"#utility.yul\":5464:5470   */\n      dup3\n        /* \"#utility.yul\":5453:5462   */\n      dup8\n        /* \"#utility.yul\":5449:5471   */\n      add\n        /* \"#utility.yul\":5428:5481   */\n      tag_392\n      jump\t// in\n    tag_496:\n        /* \"#utility.yul\":5418:5481   */\n      swap4\n      pop\n        /* \"#utility.yul\":5374:5491   */\n      pop\n        /* \"#utility.yul\":5530:5532   */\n      0x20\n        /* \"#utility.yul\":5556:5609   */\n      tag_497\n        /* \"#utility.yul\":5601:5608   */\n      dup7\n        /* \"#utility.yul\":5592:5598   */\n      dup3\n        /* \"#utility.yul\":5581:5590   */\n      dup8\n        /* \"#utility.yul\":5577:5599   */\n      add\n        /* \"#utility.yul\":5556:5609   */\n      tag_392\n      jump\t// in\n    tag_497:\n        /* \"#utility.yul\":5546:5609   */\n      swap3\n      pop\n        /* \"#utility.yul\":5501:5619   */\n      pop\n        /* \"#utility.yul\":5658:5660   */\n      0x40\n        /* \"#utility.yul\":5684:5737   */\n      tag_498\n        /* \"#utility.yul\":5729:5736   */\n      dup7\n        /* \"#utility.yul\":5720:5726   */\n      dup3\n        /* \"#utility.yul\":5709:5718   */\n      dup8\n        /* \"#utility.yul\":5705:5727   */\n      add\n        /* \"#utility.yul\":5684:5737   */\n      tag_387\n      jump\t// in\n    tag_498:\n        /* \"#utility.yul\":5674:5737   */\n      swap2\n      pop\n        /* \"#utility.yul\":5629:5747   */\n      pop\n        /* \"#utility.yul\":5135:5754   */\n      swap3\n      pop\n      swap3\n      pop\n      swap3\n      jump\t// out\n        /* \"#utility.yul\":5760:6089   */\n    tag_68:\n        /* \"#utility.yul\":5819:5825   */\n      0x00\n        /* \"#utility.yul\":5868:5870   */\n      0x20\n        /* \"#utility.yul\":5856:5865   */\n      dup3\n        /* \"#utility.yul\":5847:5854   */\n      dup5\n        /* \"#utility.yul\":5843:5866   */\n      sub\n        /* \"#utility.yul\":5839:5871   */\n      slt\n        /* \"#utility.yul\":5836:5955   */\n      iszero\n      tag_500\n      jumpi\n        /* \"#utility.yul\":5874:5953   */\n      tag_501\n      tag_373\n      jump\t// in\n    tag_501:\n        /* \"#utility.yul\":5836:5955   */\n    tag_500:\n        /* \"#utility.yul\":5994:5995   */\n      0x00\n        /* \"#utility.yul\":6019:6072   */\n      tag_502\n        /* \"#utility.yul\":6064:6071   */\n      dup5\n        /* \"#utility.yul\":6055:6061   */\n      dup3\n        /* \"#utility.yul\":6044:6053   */\n      dup6\n        /* \"#utility.yul\":6040:6062   */\n      add\n        /* \"#utility.yul\":6019:6072   */\n      tag_392\n      jump\t// in\n    tag_502:\n        /* \"#utility.yul\":6009:6072   */\n      swap2\n      pop\n        /* \"#utility.yul\":5965:6082   */\n      pop\n        /* \"#utility.yul\":5760:6089   */\n      swap3\n      swap2\n      pop\n      pop\n      jump\t// out\n        /* \"#utility.yul\":6095:6211   */\n    tag_394:\n        /* \"#utility.yul\":6165:6186   */\n      tag_504\n        /* \"#utility.yul\":6180:6185   */\n      dup2\n        /* \"#utility.yul\":6165:6186   */\n      tag_378\n      jump\t// in\n    tag_504:\n        /* \"#utility.yul\":6158:6163   */\n      dup2\n        /* \"#utility.yul\":6155:6187   */\n      eq\n        /* \"#utility.yul\":6145:6205   */\n      tag_505\n      jumpi\n        /* \"#utility.yul\":6201:6202   */\n      0x00\n        /* \"#utility.yul\":6198:6199   */\n      dup1\n        /* \"#utility.yul\":6191:6203   */\n      revert\n        /* \"#utility.yul\":6145:6205   */\n    tag_505:\n        /* \"#utility.yul\":6095:6211   */\n      pop\n      jump\t// out\n        /* \"#utility.yul\":6217:6350   */\n    tag_395:\n        /* \"#utility.yul\":6260:6265   */\n      0x00\n        /* \"#utility.yul\":6298:6304   */\n      dup2\n        /* \"#utility.yul\":6285:6305   */\n      calldataload\n        /* \"#utility.yul\":6276:6305   */\n      swap1\n      pop\n        /* \"#utility.yul\":6314:6344   */\n      tag_507\n        /* \"#utility.yul\":6338:6343   */\n      dup2\n        /* \"#utility.yul\":6314:6344   */\n      tag_394\n      jump\t// in\n    tag_507:\n        /* \"#utility.yul\":6217:6350   */\n      swap3\n      swap2\n      pop\n      pop\n      jump\t// out\n        /* \"#utility.yul\":6356:6824   */\n    tag_76:\n        /* \"#utility.yul\":6421:6427   */\n      0x00\n        /* \"#utility.yul\":6429:6435   */\n      dup1\n        /* \"#utility.yul\":6478:6480   */\n      0x40\n        /* \"#utility.yul\":6466:6475   */\n      dup4\n        /* \"#utility.yul\":6457:6464   */\n      dup6\n        /* \"#utility.yul\":6453:6476   */\n      sub\n        /* \"#utility.yul\":6449:6481   */\n      slt\n        /* \"#utility.yul\":6446:6565   */\n      iszero\n      tag_509\n      jumpi\n        /* \"#utility.yul\":6484:6563   */\n      tag_510\n      tag_373\n      jump\t// in\n    tag_510:\n        /* \"#utility.yul\":6446:6565   */\n    tag_509:\n        /* \"#utility.yul\":6604:6605   */\n      0x00\n        /* \"#utility.yul\":6629:6682   */\n      tag_511\n        /* \"#utility.yul\":6674:6681   */\n      dup6\n        /* \"#utility.yul\":6665:6671   */\n      dup3\n        /* \"#utility.yul\":6654:6663   */\n      dup7\n        /* \"#utility.yul\":6650:6672   */\n      add\n        /* \"#utility.yul\":6629:6682   */\n      tag_392\n      jump\t// in\n    tag_511:\n        /* \"#utility.yul\":6619:6682   */\n      swap3\n      pop\n        /* \"#utility.yul\":6575:6692   */\n      pop\n        /* \"#utility.yul\":6731:6733   */\n      0x20\n        /* \"#utility.yul\":6757:6807   */\n      tag_512\n        /* \"#utility.yul\":6799:6806   */\n      dup6\n        /* \"#utility.yul\":6790:6796   */\n      dup3\n        /* \"#utility.yul\":6779:6788   */\n      dup7\n        /* \"#utility.yul\":6775:6797   */\n      add\n        /* \"#utility.yul\":6757:6807   */\n      tag_395\n      jump\t// in\n    tag_512:\n        /* \"#utility.yul\":6747:6807   */\n      swap2\n      pop\n        /* \"#utility.yul\":6702:6817   */\n      pop\n        /* \"#utility.yul\":6356:6824   */\n      swap3\n      pop\n      swap3\n      swap1\n      pop\n      jump\t// out\n        /* \"#utility.yul\":6830:6947   */\n    tag_396:\n        /* \"#utility.yul\":6939:6940   */\n      0x00\n        /* \"#utility.yul\":6936:6937   */\n      dup1\n        /* \"#utility.yul\":6929:6941   */\n      revert\n        /* \"#utility.yul\":6953:7070   */\n    tag_397:\n        /* \"#utility.yul\":7062:7063   */\n      0x00\n        /* \"#utility.yul\":7059:7060   */\n      dup1\n        /* \"#utility.yul\":7052:7064   */\n      revert\n        /* \"#utility.yul\":7076:7256   */\n    tag_323:\n        /* \"#utility.yul\":7124:7201   */\n      0x4e487b7100000000000000000000000000000000000000000000000000000000\n        /* \"#utility.yul\":7121:7122   */\n      0x00\n        /* \"#utility.yul\":7114:7202   */\n      mstore\n        /* \"#utility.yul\":7221:7225   */\n      0x41\n        /* \"#utility.yul\":7218:7219   */\n      0x04\n        /* \"#utility.yul\":7211:7226   */\n      mstore\n        /* \"#utility.yul\":7245:7249   */\n      0x24\n        /* \"#utility.yul\":7242:7243   */\n      0x00\n        /* \"#utility.yul\":7235:7250   */\n      revert\n        /* \"#utility.yul\":7262:7543   */\n    tag_398:\n        /* \"#utility.yul\":7345:7372   */\n      tag_517\n        /* \"#utility.yul\":7367:7371   */\n      dup3\n        /* \"#utility.yul\":7345:7372   */\n      tag_383\n      jump\t// in\n    tag_517:\n        /* \"#utility.yul\":7337:7343   */\n      dup2\n        /* \"#utility.yul\":7333:7373   */\n      add\n        /* \"#utility.yul\":7475:7481   */\n      dup2\n        /* \"#utility.yul\":7463:7473   */\n      dup2\n        /* \"#utility.yul\":7460:7482   */\n      lt\n        /* \"#utility.yul\":7439:7457   */\n      0xffffffffffffffff\n        /* \"#utility.yul\":7427:7437   */\n      dup3\n        /* \"#utility.yul\":7424:7458   */\n      gt\n        /* \"#utility.yul\":7421:7483   */\n      or\n        /* \"#utility.yul\":7418:7506   */\n      iszero\n      tag_518\n      jumpi\n        /* \"#utility.yul\":7486:7504   */\n      tag_519\n      tag_323\n      jump\t// in\n    tag_519:\n        /* \"#utility.yul\":7418:7506   */\n    tag_518:\n        /* \"#utility.yul\":7526:7536   */\n      dup1\n        /* \"#utility.yul\":7522:7524   */\n      0x40\n        /* \"#utility.yul\":7515:7537   */\n      mstore\n        /* \"#utility.yul\":7305:7543   */\n      pop\n        /* \"#utility.yul\":7262:7543   */\n      pop\n      pop\n      jump\t// out\n        /* \"#utility.yul\":7549:7678   */\n    tag_399:\n        /* \"#utility.yul\":7583:7589   */\n      0x00\n        /* \"#utility.yul\":7610:7630   */\n      tag_521\n      tag_372\n      jump\t// in\n    tag_521:\n        /* \"#utility.yul\":7600:7630   */\n      swap1\n      pop\n        /* \"#utility.yul\":7639:7672   */\n      tag_522\n        /* \"#utility.yul\":7667:7671   */\n      dup3\n        /* \"#utility.yul\":7659:7665   */\n      dup3\n        /* \"#utility.yul\":7639:7672   */\n      tag_398\n      jump\t// in\n    tag_522:\n        /* \"#utility.yul\":7549:7678   */\n      swap2\n      swap1\n      pop\n      jump\t// out\n        /* \"#utility.yul\":7684:7991   */\n    tag_400:\n        /* \"#utility.yul\":7745:7749   */\n      0x00\n        /* \"#utility.yul\":7835:7853   */\n      0xffffffffffffffff\n        /* \"#utility.yul\":7827:7833   */\n      dup3\n        /* \"#utility.yul\":7824:7854   */\n      gt\n        /* \"#utility.yul\":7821:7877   */\n      iszero\n      tag_524\n      jumpi\n        /* \"#utility.yul\":7857:7875   */\n      tag_525\n      tag_323\n      jump\t// in\n    tag_525:\n        /* \"#utility.yul\":7821:7877   */\n    tag_524:\n        /* \"#utility.yul\":7895:7924   */\n      tag_526\n        /* \"#utility.yul\":7917:7923   */\n      dup3\n        /* \"#utility.yul\":7895:7924   */\n      tag_383\n      jump\t// in\n    tag_526:\n        /* \"#utility.yul\":7887:7924   */\n      swap1\n      pop\n        /* \"#utility.yul\":7979:7983   */\n      0x20\n        /* \"#utility.yul\":7973:7977   */\n      dup2\n        /* \"#utility.yul\":7969:7984   */\n      add\n        /* \"#utility.yul\":7961:7984   */\n      swap1\n      pop\n        /* \"#utility.yul\":7684:7991   */\n      swap2\n      swap1\n      pop\n      jump\t// out\n        /* \"#utility.yul\":7997:8145   */\n    tag_401:\n        /* \"#utility.yul\":8095:8101   */\n      dup3\n        /* \"#utility.yul\":8090:8093   */\n      dup2\n        /* \"#utility.yul\":8085:8088   */\n      dup4\n        /* \"#utility.yul\":8072:8102   */\n      calldatacopy\n        /* \"#utility.yul\":8136:8137   */\n      0x00\n        /* \"#utility.yul\":8127:8133   */\n      dup4\n        /* \"#utility.yul\":8122:8125   */\n      dup4\n        /* \"#utility.yul\":8118:8134   */\n      add\n        /* \"#utility.yul\":8111:8138   */\n      mstore\n        /* \"#utility.yul\":7997:8145   */\n      pop\n      pop\n      pop\n      jump\t// out\n        /* \"#utility.yul\":8151:8574   */\n    tag_402:\n        /* \"#utility.yul\":8228:8233   */\n      0x00\n        /* \"#utility.yul\":8253:8318   */\n      tag_529\n        /* \"#utility.yul\":8269:8317   */\n      tag_530\n        /* \"#utility.yul\":8310:8316   */\n      dup5\n        /* \"#utility.yul\":8269:8317   */\n      tag_400\n      jump\t// in\n    tag_530:\n        /* \"#utility.yul\":8253:8318   */\n      tag_399\n      jump\t// in\n    tag_529:\n        /* \"#utility.yul\":8244:8318   */\n      swap1\n      pop\n        /* \"#utility.yul\":8341:8347   */\n      dup3\n        /* \"#utility.yul\":8334:8339   */\n      dup2\n        /* \"#utility.yul\":8327:8348   */\n      mstore\n        /* \"#utility.yul\":8379:8383   */\n      0x20\n        /* \"#utility.yul\":8372:8377   */\n      dup2\n        /* \"#utility.yul\":8368:8384   */\n      add\n        /* \"#utility.yul\":8417:8420   */\n      dup5\n        /* \"#utility.yul\":8408:8414   */\n      dup5\n        /* \"#utility.yul\":8403:8406   */\n      dup5\n        /* \"#utility.yul\":8399:8415   */\n      add\n        /* \"#utility.yul\":8396:8421   */\n      gt\n        /* \"#utility.yul\":8393:8505   */\n      iszero\n      tag_531\n      jumpi\n        /* \"#utility.yul\":8424:8503   */\n      tag_532\n      tag_397\n      jump\t// in\n    tag_532:\n        /* \"#utility.yul\":8393:8505   */\n    tag_531:\n        /* \"#utility.yul\":8514:8568   */\n      tag_533\n        /* \"#utility.yul\":8561:8567   */\n      dup5\n        /* \"#utility.yul\":8556:8559   */\n      dup3\n        /* \"#utility.yul\":8551:8554   */\n      dup6\n        /* \"#utility.yul\":8514:8568   */\n      tag_401\n      jump\t// in\n    tag_533:\n        /* \"#utility.yul\":8234:8574   */\n      pop\n        /* \"#utility.yul\":8151:8574   */\n      swap4\n      swap3\n      pop\n      pop\n      pop\n      jump\t// out\n        /* \"#utility.yul\":8593:8931   */\n    tag_403:\n        /* \"#utility.yul\":8648:8653   */\n      0x00\n        /* \"#utility.yul\":8697:8700   */\n      dup3\n        /* \"#utility.yul\":8690:8694   */\n      0x1f\n        /* \"#utility.yul\":8682:8688   */\n      dup4\n        /* \"#utility.yul\":8678:8695   */\n      add\n        /* \"#utility.yul\":8674:8701   */\n      slt\n        /* \"#utility.yul\":8664:8786   */\n      tag_535\n      jumpi\n        /* \"#utility.yul\":8705:8784   */\n      tag_536\n      tag_396\n      jump\t// in\n    tag_536:\n        /* \"#utility.yul\":8664:8786   */\n    tag_535:\n        /* \"#utility.yul\":8822:8828   */\n      dup2\n        /* \"#utility.yul\":8809:8829   */\n      calldataload\n        /* \"#utility.yul\":8847:8925   */\n      tag_537\n        /* \"#utility.yul\":8921:8924   */\n      dup5\n        /* \"#utility.yul\":8913:8919   */\n      dup3\n        /* \"#utility.yul\":8906:8910   */\n      0x20\n        /* \"#utility.yul\":8898:8904   */\n      dup7\n        /* \"#utility.yul\":8894:8911   */\n      add\n        /* \"#utility.yul\":8847:8925   */\n      tag_402\n      jump\t// in\n    tag_537:\n        /* \"#utility.yul\":8838:8925   */\n      swap2\n      pop\n        /* \"#utility.yul\":8654:8931   */\n      pop\n        /* \"#utility.yul\":8593:8931   */\n      swap3\n      swap2\n      pop\n      pop\n      jump\t// out\n        /* \"#utility.yul\":8937:9880   */\n    tag_80:\n        /* \"#utility.yul\":9032:9038   */\n      0x00\n        /* \"#utility.yul\":9040:9046   */\n      dup1\n        /* \"#utility.yul\":9048:9054   */\n      0x00\n        /* \"#utility.yul\":9056:9062   */\n      dup1\n        /* \"#utility.yul\":9105:9108   */\n      0x80\n        /* \"#utility.yul\":9093:9102   */\n      dup6\n        /* \"#utility.yul\":9084:9091   */\n      dup8\n        /* \"#utility.yul\":9080:9103   */\n      sub\n        /* \"#utility.yul\":9076:9109   */\n      slt\n        /* \"#utility.yul\":9073:9193   */\n      iszero\n      tag_539\n      jumpi\n        /* \"#utility.yul\":9112:9191   */\n      tag_540\n      tag_373\n      jump\t// in\n    tag_540:\n        /* \"#utility.yul\":9073:9193   */\n    tag_539:\n        /* \"#utility.yul\":9232:9233   */\n      0x00\n        /* \"#utility.yul\":9257:9310   */\n      tag_541\n        /* \"#utility.yul\":9302:9309   */\n      dup8\n        /* \"#utility.yul\":9293:9299   */\n      dup3\n        /* \"#utility.yul\":9282:9291   */\n      dup9\n        /* \"#utility.yul\":9278:9300   */\n      add\n        /* \"#utility.yul\":9257:9310   */\n      tag_392\n      jump\t// in\n    tag_541:\n        /* \"#utility.yul\":9247:9310   */\n      swap5\n      pop\n        /* \"#utility.yul\":9203:9320   */\n      pop\n        /* \"#utility.yul\":9359:9361   */\n      0x20\n        /* \"#utility.yul\":9385:9438   */\n      tag_542\n        /* \"#utility.yul\":9430:9437   */\n      dup8\n        /* \"#utility.yul\":9421:9427   */\n      dup3\n        /* \"#utility.yul\":9410:9419   */\n      dup9\n        /* \"#utility.yul\":9406:9428   */\n      add\n        /* \"#utility.yul\":9385:9438   */\n      tag_392\n      jump\t// in\n    tag_542:\n        /* \"#utility.yul\":9375:9438   */\n      swap4\n      pop\n        /* \"#utility.yul\":9330:9448   */\n      pop\n        /* \"#utility.yul\":9487:9489   */\n      0x40\n        /* \"#utility.yul\":9513:9566   */\n      tag_543\n        /* \"#utility.yul\":9558:9565   */\n      dup8\n        /* \"#utility.yul\":9549:9555   */\n      dup3\n        /* \"#utility.yul\":9538:9547   */\n      dup9\n        /* \"#utility.yul\":9534:9556   */\n      add\n        /* \"#utility.yul\":9513:9566   */\n      tag_387\n      jump\t// in\n    tag_543:\n        /* \"#utility.yul\":9503:9566   */\n      swap3\n      pop\n        /* \"#utility.yul\":9458:9576   */\n      pop\n        /* \"#utility.yul\":9643:9645   */\n      0x60\n        /* \"#utility.yul\":9632:9641   */\n      dup6\n        /* \"#utility.yul\":9628:9646   */\n      add\n        /* \"#utility.yul\":9615:9647   */\n      calldataload\n        /* \"#utility.yul\":9674:9692   */\n      0xffffffffffffffff\n        /* \"#utility.yul\":9666:9672   */\n      dup2\n        /* \"#utility.yul\":9663:9693   */\n      gt\n        /* \"#utility.yul\":9660:9777   */\n      iszero\n      tag_544\n      jumpi\n        /* \"#utility.yul\":9696:9775   */\n      tag_545\n      tag_374\n      jump\t// in\n    tag_545:\n        /* \"#utility.yul\":9660:9777   */\n    tag_544:\n        /* \"#utility.yul\":9801:9863   */\n      tag_546\n        /* \"#utility.yul\":9855:9862   */\n      dup8\n        /* \"#utility.yul\":9846:9852   */\n      dup3\n        /* \"#utility.yul\":9835:9844   */\n      dup9\n        /* \"#utility.yul\":9831:9853   */\n      add\n        /* \"#utility.yul\":9801:9863   */\n      tag_403\n      jump\t// in\n    tag_546:\n        /* \"#utility.yul\":9791:9863   */\n      swap2\n      pop\n        /* \"#utility.yul\":9586:9873   */\n      pop\n        /* \"#utility.yul\":8937:9880   */\n      swap3\n      swap6\n      swap2\n      swap5\n      pop\n      swap3\n      pop\n      jump\t// out\n        /* \"#utility.yul\":9886:10194   */\n    tag_404:\n        /* \"#utility.yul\":9948:9952   */\n      0x00\n        /* \"#utility.yul\":10038:10056   */\n      0xffffffffffffffff\n        /* \"#utility.yul\":10030:10036   */\n      dup3\n        /* \"#utility.yul\":10027:10057   */\n      gt\n        /* \"#utility.yul\":10024:10080   */\n      iszero\n      tag_548\n      jumpi\n        /* \"#utility.yul\":10060:10078   */\n      tag_549\n      tag_323\n      jump\t// in\n    tag_549:\n        /* \"#utility.yul\":10024:10080   */\n    tag_548:\n        /* \"#utility.yul\":10098:10127   */\n      tag_550\n        /* \"#utility.yul\":10120:10126   */\n      dup3\n        /* \"#utility.yul\":10098:10127   */\n      tag_383\n      jump\t// in\n    tag_550:\n        /* \"#utility.yul\":10090:10127   */\n      swap1\n      pop\n        /* \"#utility.yul\":10182:10186   */\n      0x20\n        /* \"#utility.yul\":10176:10180   */\n      dup2\n        /* \"#utility.yul\":10172:10187   */\n      add\n        /* \"#utility.yul\":10164:10187   */\n      swap1\n      pop\n        /* \"#utility.yul\":9886:10194   */\n      swap2\n      swap1\n      pop\n      jump\t// out\n        /* \"#utility.yul\":10200:10625   */\n    tag_405:\n        /* \"#utility.yul\":10278:10283   */\n      0x00\n        /* \"#utility.yul\":10303:10369   */\n      tag_552\n        /* \"#utility.yul\":10319:10368   */\n      tag_553\n        /* \"#utility.yul\":10361:10367   */\n      dup5\n        /* \"#utility.yul\":10319:10368   */\n      tag_404\n      jump\t// in\n    tag_553:\n        /* \"#utility.yul\":10303:10369   */\n      tag_399\n      jump\t// in\n    tag_552:\n        /* \"#utility.yul\":10294:10369   */\n      swap1\n      pop\n        /* \"#utility.yul\":10392:10398   */\n      dup3\n        /* \"#utility.yul\":10385:10390   */\n      dup2\n        /* \"#utility.yul\":10378:10399   */\n      mstore\n        /* \"#utility.yul\":10430:10434   */\n      0x20\n        /* \"#utility.yul\":10423:10428   */\n      dup2\n        /* \"#utility.yul\":10419:10435   */\n      add\n        /* \"#utility.yul\":10468:10471   */\n      dup5\n        /* \"#utility.yul\":10459:10465   */\n      dup5\n        /* \"#utility.yul\":10454:10457   */\n      dup5\n        /* \"#utility.yul\":10450:10466   */\n      add\n        /* \"#utility.yul\":10447:10472   */\n      gt\n        /* \"#utility.yul\":10444:10556   */\n      iszero\n      tag_554\n      jumpi\n        /* \"#utility.yul\":10475:10554   */\n      tag_555\n      tag_397\n      jump\t// in\n    tag_555:\n        /* \"#utility.yul\":10444:10556   */\n    tag_554:\n        /* \"#utility.yul\":10565:10619   */\n      tag_556\n        /* \"#utility.yul\":10612:10618   */\n      dup5\n        /* \"#utility.yul\":10607:10610   */\n      dup3\n        /* \"#utility.yul\":10602:10605   */\n      dup6\n        /* \"#utility.yul\":10565:10619   */\n      tag_401\n      jump\t// in\n    tag_556:\n        /* \"#utility.yul\":10284:10625   */\n      pop\n        /* \"#utility.yul\":10200:10625   */\n      swap4\n      swap3\n      pop\n      pop\n      pop\n      jump\t// out\n        /* \"#utility.yul\":10645:10985   */\n    tag_406:\n        /* \"#utility.yul\":10701:10706   */\n      0x00\n        /* \"#utility.yul\":10750:10753   */\n      dup3\n        /* \"#utility.yul\":10743:10747   */\n      0x1f\n        /* \"#utility.yul\":10735:10741   */\n      dup4\n        /* \"#utility.yul\":10731:10748   */\n      add\n        /* \"#utility.yul\":10727:10754   */\n      slt\n        /* \"#utility.yul\":10717:10839   */\n      tag_558\n      jumpi\n        /* \"#utility.yul\":10758:10837   */\n      tag_559\n      tag_396\n      jump\t// in\n    tag_559:\n        /* \"#utility.yul\":10717:10839   */\n    tag_558:\n        /* \"#utility.yul\":10875:10881   */\n      dup2\n        /* \"#utility.yul\":10862:10882   */\n      calldataload\n        /* \"#utility.yul\":10900:10979   */\n      tag_560\n        /* \"#utility.yul\":10975:10978   */\n      dup5\n        /* \"#utility.yul\":10967:10973   */\n      dup3\n        /* \"#utility.yul\":10960:10964   */\n      0x20\n        /* \"#utility.yul\":10952:10958   */\n      dup7\n        /* \"#utility.yul\":10948:10965   */\n      add\n        /* \"#utility.yul\":10900:10979   */\n      tag_405\n      jump\t// in\n    tag_560:\n        /* \"#utility.yul\":10891:10979   */\n      swap2\n      pop\n        /* \"#utility.yul\":10707:10985   */\n      pop\n        /* \"#utility.yul\":10645:10985   */\n      swap3\n      swap2\n      pop\n      pop\n      jump\t// out\n        /* \"#utility.yul\":10991:11645   */\n    tag_88:\n        /* \"#utility.yul\":11069:11075   */\n      0x00\n        /* \"#utility.yul\":11077:11083   */\n      dup1\n        /* \"#utility.yul\":11126:11128   */\n      0x40\n        /* \"#utility.yul\":11114:11123   */\n      dup4\n        /* \"#utility.yul\":11105:11112   */\n      dup6\n        /* \"#utility.yul\":11101:11124   */\n      sub\n        /* \"#utility.yul\":11097:11129   */\n      slt\n        /* \"#utility.yul\":11094:11213   */\n      iszero\n      tag_562\n      jumpi\n        /* \"#utility.yul\":11132:11211   */\n      tag_563\n      tag_373\n      jump\t// in\n    tag_563:\n        /* \"#utility.yul\":11094:11213   */\n    tag_562:\n        /* \"#utility.yul\":11252:11253   */\n      0x00\n        /* \"#utility.yul\":11277:11330   */\n      tag_564\n        /* \"#utility.yul\":11322:11329   */\n      dup6\n        /* \"#utility.yul\":11313:11319   */\n      dup3\n        /* \"#utility.yul\":11302:11311   */\n      dup7\n        /* \"#utility.yul\":11298:11320   */\n      add\n        /* \"#utility.yul\":11277:11330   */\n      tag_392\n      jump\t// in\n    tag_564:\n        /* \"#utility.yul\":11267:11330   */\n      swap3\n      pop\n        /* \"#utility.yul\":11223:11340   */\n      pop\n        /* \"#utility.yul\":11407:11409   */\n      0x20\n        /* \"#utility.yul\":11396:11405   */\n      dup4\n        /* \"#utility.yul\":11392:11410   */\n      add\n        /* \"#utility.yul\":11379:11411   */\n      calldataload\n        /* \"#utility.yul\":11438:11456   */\n      0xffffffffffffffff\n        /* \"#utility.yul\":11430:11436   */\n      dup2\n        /* \"#utility.yul\":11427:11457   */\n      gt\n        /* \"#utility.yul\":11424:11541   */\n      iszero\n      tag_565\n      jumpi\n        /* \"#utility.yul\":11460:11539   */\n      tag_566\n      tag_374\n      jump\t// in\n    tag_566:\n        /* \"#utility.yul\":11424:11541   */\n    tag_565:\n        /* \"#utility.yul\":11565:11628   */\n      tag_567\n        /* \"#utility.yul\":11620:11627   */\n      dup6\n        /* \"#utility.yul\":11611:11617   */\n      dup3\n        /* \"#utility.yul\":11600:11609   */\n      dup7\n        /* \"#utility.yul\":11596:11618   */\n      add\n        /* \"#utility.yul\":11565:11628   */\n      tag_406\n      jump\t// in\n    tag_567:\n        /* \"#utility.yul\":11555:11628   */\n      swap2\n      pop\n        /* \"#utility.yul\":11350:11638   */\n      pop\n        /* \"#utility.yul\":10991:11645   */\n      swap3\n      pop\n      swap3\n      swap1\n      pop\n      jump\t// out\n        /* \"#utility.yul\":11651:12125   */\n    tag_92:\n        /* \"#utility.yul\":11719:11725   */\n      0x00\n        /* \"#utility.yul\":11727:11733   */\n      dup1\n        /* \"#utility.yul\":11776:11778   */\n      0x40\n        /* \"#utility.yul\":11764:11773   */\n      dup4\n        /* \"#utility.yul\":11755:11762   */\n      dup6\n        /* \"#utility.yul\":11751:11774   */\n      sub\n        /* \"#utility.yul\":11747:11779   */\n      slt\n        /* \"#utility.yul\":11744:11863   */\n      iszero\n      tag_569\n      jumpi\n        /* \"#utility.yul\":11782:11861   */\n      tag_570\n      tag_373\n      jump\t// in\n    tag_570:\n        /* \"#utility.yul\":11744:11863   */\n    tag_569:\n        /* \"#utility.yul\":11902:11903   */\n      0x00\n        /* \"#utility.yul\":11927:11980   */\n      tag_571\n        /* \"#utility.yul\":11972:11979   */\n      dup6\n        /* \"#utility.yul\":11963:11969   */\n      dup3\n        /* \"#utility.yul\":11952:11961   */\n      dup7\n        /* \"#utility.yul\":11948:11970   */\n      add\n        /* \"#utility.yul\":11927:11980   */\n      tag_392\n      jump\t// in\n    tag_571:\n        /* \"#utility.yul\":11917:11980   */\n      swap3\n      pop\n        /* \"#utility.yul\":11873:11990   */\n      pop\n        /* \"#utility.yul\":12029:12031   */\n      0x20\n        /* \"#utility.yul\":12055:12108   */\n      tag_572\n        /* \"#utility.yul\":12100:12107   */\n      dup6\n        /* \"#utility.yul\":12091:12097   */\n      dup3\n        /* \"#utility.yul\":12080:12089   */\n      dup7\n        /* \"#utility.yul\":12076:12098   */\n      add\n        /* \"#utility.yul\":12055:12108   */\n      tag_392\n      jump\t// in\n    tag_572:\n        /* \"#utility.yul\":12045:12108   */\n      swap2\n      pop\n        /* \"#utility.yul\":12000:12118   */\n      pop\n        /* \"#utility.yul\":11651:12125   */\n      swap3\n      pop\n      swap3\n      swap1\n      pop\n      jump\t// out\n        /* \"#utility.yul\":12131:12311   */\n    tag_407:\n        /* \"#utility.yul\":12179:12256   */\n      0x4e487b7100000000000000000000000000000000000000000000000000000000\n        /* \"#utility.yul\":12176:12177   */\n      0x00\n        /* \"#utility.yul\":12169:12257   */\n      mstore\n        /* \"#utility.yul\":12276:12280   */\n      0x22\n        /* \"#utility.yul\":12273:12274   */\n      0x04\n        /* \"#utility.yul\":12266:12281   */\n      mstore\n        /* \"#utility.yul\":12300:12304   */\n      0x24\n        /* \"#utility.yul\":12297:12298   */\n      0x00\n        /* \"#utility.yul\":12290:12305   */\n      revert\n        /* \"#utility.yul\":12317:12637   */\n    tag_100:\n        /* \"#utility.yul\":12361:12367   */\n      0x00\n        /* \"#utility.yul\":12398:12399   */\n      0x02\n        /* \"#utility.yul\":12392:12396   */\n      dup3\n        /* \"#utility.yul\":12388:12400   */\n      div\n        /* \"#utility.yul\":12378:12400   */\n      swap1\n      pop\n        /* \"#utility.yul\":12445:12446   */\n      0x01\n        /* \"#utility.yul\":12439:12443   */\n      dup3\n        /* \"#utility.yul\":12435:12447   */\n      and\n        /* \"#utility.yul\":12466:12484   */\n      dup1\n        /* \"#utility.yul\":12456:12537   */\n      tag_575\n      jumpi\n        /* \"#utility.yul\":12522:12526   */\n      0x7f\n        /* \"#utility.yul\":12514:12520   */\n      dup3\n        /* \"#utility.yul\":12510:12527   */\n      and\n        /* \"#utility.yul\":12500:12527   */\n      swap2\n      pop\n        /* \"#utility.yul\":12456:12537   */\n    tag_575:\n        /* \"#utility.yul\":12584:12586   */\n      0x20\n        /* \"#utility.yul\":12576:12582   */\n      dup3\n        /* \"#utility.yul\":12573:12587   */\n      lt\n        /* \"#utility.yul\":12553:12571   */\n      dup2\n        /* \"#utility.yul\":12550:12588   */\n      sub\n        /* \"#utility.yul\":12547:12631   */\n      tag_576\n      jumpi\n        /* \"#utility.yul\":12603:12621   */\n      tag_577\n      tag_407\n      jump\t// in\n    tag_577:\n        /* \"#utility.yul\":12547:12631   */\n    tag_576:\n        /* \"#utility.yul\":12368:12637   */\n      pop\n        /* \"#utility.yul\":12317:12637   */\n      swap2\n      swap1\n      pop\n      jump\t// out\n        /* \"#utility.yul\":12643:13085   */\n    tag_124:\n        /* \"#utility.yul\":12792:12796   */\n      0x00\n        /* \"#utility.yul\":12830:12832   */\n      0x60\n        /* \"#utility.yul\":12819:12828   */\n      dup3\n        /* \"#utility.yul\":12815:12833   */\n      add\n        /* \"#utility.yul\":12807:12833   */\n      swap1\n      pop\n        /* \"#utility.yul\":12843:12914   */\n      tag_579\n        /* \"#utility.yul\":12911:12912   */\n      0x00\n        /* \"#utility.yul\":12900:12909   */\n      dup4\n        /* \"#utility.yul\":12896:12913   */\n      add\n        /* \"#utility.yul\":12887:12893   */\n      dup7\n        /* \"#utility.yul\":12843:12914   */\n      tag_390\n      jump\t// in\n    tag_579:\n        /* \"#utility.yul\":12924:12996   */\n      tag_580\n        /* \"#utility.yul\":12992:12994   */\n      0x20\n        /* \"#utility.yul\":12981:12990   */\n      dup4\n        /* \"#utility.yul\":12977:12995   */\n      add\n        /* \"#utility.yul\":12968:12974   */\n      dup6\n        /* \"#utility.yul\":12924:12996   */\n      tag_393\n      jump\t// in\n    tag_580:\n        /* \"#utility.yul\":13006:13078   */\n      tag_581\n        /* \"#utility.yul\":13074:13076   */\n      0x40\n        /* \"#utility.yul\":13063:13072   */\n      dup4\n        /* \"#utility.yul\":13059:13077   */\n      add\n        /* \"#utility.yul\":13050:13056   */\n      dup5\n        /* \"#utility.yul\":13006:13078   */\n      tag_390\n      jump\t// in\n    tag_581:\n        /* \"#utility.yul\":12643:13085   */\n      swap5\n      swap4\n      pop\n      pop\n      pop\n      pop\n      jump\t// out\n        /* \"#utility.yul\":13091:13423   */\n    tag_129:\n        /* \"#utility.yul\":13212:13216   */\n      0x00\n        /* \"#utility.yul\":13250:13252   */\n      0x40\n        /* \"#utility.yul\":13239:13248   */\n      dup3\n        /* \"#utility.yul\":13235:13253   */\n      add\n        /* \"#utility.yul\":13227:13253   */\n      swap1\n      pop\n        /* \"#utility.yul\":13263:13334   */\n      tag_583\n        /* \"#utility.yul\":13331:13332   */\n      0x00\n        /* \"#utility.yul\":13320:13329   */\n      dup4\n        /* \"#utility.yul\":13316:13333   */\n      add\n        /* \"#utility.yul\":13307:13313   */\n      dup6\n        /* \"#utility.yul\":13263:13334   */\n      tag_390\n      jump\t// in\n    tag_583:\n        /* \"#utility.yul\":13344:13416   */\n      tag_584\n        /* \"#utility.yul\":13412:13414   */\n      0x20\n        /* \"#utility.yul\":13401:13410   */\n      dup4\n        /* \"#utility.yul\":13397:13415   */\n      add\n        /* \"#utility.yul\":13388:13394   */\n      dup5\n        /* \"#utility.yul\":13344:13416   */\n      tag_393\n      jump\t// in\n    tag_584:\n        /* \"#utility.yul\":13091:13423   */\n      swap4\n      swap3\n      pop\n      pop\n      pop\n      jump\t// out\n        /* \"#utility.yul\":13429:13609   */\n    tag_138:\n        /* \"#utility.yul\":13477:13554   */\n      0x4e487b7100000000000000000000000000000000000000000000000000000000\n        /* \"#utility.yul\":13474:13475   */\n      0x00\n        /* \"#utility.yul\":13467:13555   */\n      mstore\n        /* \"#utility.yul\":13574:13578   */\n      0x32\n        /* \"#utility.yul\":13571:13572   */\n      0x04\n        /* \"#utility.yul\":13564:13579   */\n      mstore\n        /* \"#utility.yul\":13598:13602   */\n      0x24\n        /* \"#utility.yul\":13595:13596   */\n      0x00\n        /* \"#utility.yul\":13588:13603   */\n      revert\n        /* \"#utility.yul\":13615:13795   */\n    tag_408:\n        /* \"#utility.yul\":13663:13740   */\n      0x4e487b7100000000000000000000000000000000000000000000000000000000\n        /* \"#utility.yul\":13660:13661   */\n      0x00\n        /* \"#utility.yul\":13653:13741   */\n      mstore\n        /* \"#utility.yul\":13760:13764   */\n      0x11\n        /* \"#utility.yul\":13757:13758   */\n      0x04\n        /* \"#utility.yul\":13750:13765   */\n      mstore\n        /* \"#utility.yul\":13784:13788   */\n      0x24\n        /* \"#utility.yul\":13781:13782   */\n      0x00\n        /* \"#utility.yul\":13774:13789   */\n      revert\n        /* \"#utility.yul\":13801:14034   */\n    tag_164:\n        /* \"#utility.yul\":13840:13843   */\n      0x00\n        /* \"#utility.yul\":13863:13887   */\n      tag_588\n        /* \"#utility.yul\":13881:13886   */\n      dup3\n        /* \"#utility.yul\":13863:13887   */\n      tag_385\n      jump\t// in\n    tag_588:\n        /* \"#utility.yul\":13854:13887   */\n      swap2\n      pop\n        /* \"#utility.yul\":13909:13975   */\n      0xffffffffffffffffffffffffffffffffffffffffffffffffffffffffffffffff\n        /* \"#utility.yul\":13902:13907   */\n      dup3\n        /* \"#utility.yul\":13899:13976   */\n      sub\n        /* \"#utility.yul\":13896:13999   */\n      tag_589\n      jumpi\n        /* \"#utility.yul\":13979:13997   */\n      tag_590\n      tag_408\n      jump\t// in\n    tag_590:\n        /* \"#utility.yul\":13896:13999   */\n    tag_589:\n        /* \"#utility.yul\":14026:14027   */\n      0x01\n        /* \"#utility.yul\":14019:14024   */\n      dup3\n        /* \"#utility.yul\":14015:14028   */\n      add\n        /* \"#utility.yul\":14008:14028   */\n      swap1\n      pop\n        /* \"#utility.yul\":13801:14034   */\n      swap2\n      swap1\n      pop\n      jump\t// out\n        /* \"#utility.yul\":14040:14218   */\n    tag_409:\n        /* \"#utility.yul\":14180:14210   */\n      0x49276d20736f7272792077652072656163686564207468652063617000000000\n        /* \"#utility.yul\":14176:14177   */\n      0x00\n        /* \"#utility.yul\":14168:14174   */\n      dup3\n        /* \"#utility.yul\":14164:14178   */\n      add\n        /* \"#utility.yul\":14157:14211   */\n      mstore\n        /* \"#utility.yul\":14040:14218   */\n      pop\n      jump\t// out\n        /* \"#utility.yul\":14224:14590   */\n    tag_410:\n        /* \"#utility.yul\":14366:14369   */\n      0x00\n        /* \"#utility.yul\":14387:14454   */\n      tag_593\n        /* \"#utility.yul\":14451:14453   */\n      0x1c\n        /* \"#utility.yul\":14446:14449   */\n      dup4\n        /* \"#utility.yul\":14387:14454   */\n      tag_381\n      jump\t// in\n    tag_593:\n        /* \"#utility.yul\":14380:14454   */\n      swap2\n      pop\n        /* \"#utility.yul\":14463:14556   */\n      tag_594\n        /* \"#utility.yul\":14552:14555   */\n      dup3\n        /* \"#utility.yul\":14463:14556   */\n      tag_409\n      jump\t// in\n    tag_594:\n        /* \"#utility.yul\":14581:14583   */\n      0x20\n        /* \"#utility.yul\":14576:14579   */\n      dup3\n        /* \"#utility.yul\":14572:14584   */\n      add\n        /* \"#utility.yul\":14565:14584   */\n      swap1\n      pop\n        /* \"#utility.yul\":14224:14590   */\n      swap2\n      swap1\n      pop\n      jump\t// out\n        /* \"#utility.yul\":14596:15015   */\n    tag_173:\n        /* \"#utility.yul\":14762:14766   */\n      0x00\n        /* \"#utility.yul\":14800:14802   */\n      0x20\n        /* \"#utility.yul\":14789:14798   */\n      dup3\n        /* \"#utility.yul\":14785:14803   */\n      add\n        /* \"#utility.yul\":14777:14803   */\n      swap1\n      pop\n        /* \"#utility.yul\":14849:14858   */\n      dup2\n        /* \"#utility.yul\":14843:14847   */\n      dup2\n        /* \"#utility.yul\":14839:14859   */\n      sub\n        /* \"#utility.yul\":14835:14836   */\n      0x00\n        /* \"#utility.yul\":14824:14833   */\n      dup4\n        /* \"#utility.yul\":14820:14837   */\n      add\n        /* \"#utility.yul\":14813:14860   */\n      mstore\n        /* \"#utility.yul\":14877:15008   */\n      tag_596\n        /* \"#utility.yul\":15003:15007   */\n      dup2\n        /* \"#utility.yul\":14877:15008   */\n      tag_410\n      jump\t// in\n    tag_596:\n        /* \"#utility.yul\":14869:15008   */\n      swap1\n      pop\n        /* \"#utility.yul\":14596:15015   */\n      swap2\n      swap1\n      pop\n      jump\t// out\n        /* \"#utility.yul\":15021:15119   */\n    tag_411:\n        /* \"#utility.yul\":15072:15078   */\n      0x00\n        /* \"#utility.yul\":15106:15111   */\n      dup2\n        /* \"#utility.yul\":15100:15112   */\n      mload\n        /* \"#utility.yul\":15090:15112   */\n      swap1\n      pop\n        /* \"#utility.yul\":15021:15119   */\n      swap2\n      swap1\n      pop\n      jump\t// out\n        /* \"#utility.yul\":15125:15293   */\n    tag_412:\n        /* \"#utility.yul\":15208:15219   */\n      0x00\n        /* \"#utility.yul\":15242:15248   */\n      dup3\n        /* \"#utility.yul\":15237:15240   */\n      dup3\n        /* \"#utility.yul\":15230:15249   */\n      mstore\n        /* \"#utility.yul\":15282:15286   */\n      0x20\n        /* \"#utility.yul\":15277:15280   */\n      dup3\n        /* \"#utility.yul\":15273:15287   */\n      add\n        /* \"#utility.yul\":15258:15287   */\n      swap1\n      pop\n        /* \"#utility.yul\":15125:15293   */\n      swap3\n      swap2\n      pop\n      pop\n      jump\t// out\n        /* \"#utility.yul\":15299:15672   */\n    tag_413:\n        /* \"#utility.yul\":15385:15388   */\n      0x00\n        /* \"#utility.yul\":15413:15451   */\n      tag_600\n        /* \"#utility.yul\":15445:15450   */\n      dup3\n        /* \"#utility.yul\":15413:15451   */\n      tag_411\n      jump\t// in\n    tag_600:\n        /* \"#utility.yul\":15467:15537   */\n      tag_601\n        /* \"#utility.yul\":15530:15536   */\n      dup2\n        /* \"#utility.yul\":15525:15528   */\n      dup6\n        /* \"#utility.yul\":15467:15537   */\n      tag_412\n      jump\t// in\n    tag_601:\n        /* \"#utility.yul\":15460:15537   */\n      swap4\n      pop\n        /* \"#utility.yul\":15546:15611   */\n      tag_602\n        /* \"#utility.yul\":15604:15610   */\n      dup2\n        /* \"#utility.yul\":15599:15602   */\n      dup6\n        /* \"#utility.yul\":15592:15596   */\n      0x20\n        /* \"#utility.yul\":15585:15590   */\n      dup7\n        /* \"#utility.yul\":15581:15597   */\n      add\n        /* \"#utility.yul\":15546:15611   */\n      tag_382\n      jump\t// in\n    tag_602:\n        /* \"#utility.yul\":15636:15665   */\n      tag_603\n        /* \"#utility.yul\":15658:15664   */\n      dup2\n        /* \"#utility.yul\":15636:15665   */\n      tag_383\n      jump\t// in\n    tag_603:\n        /* \"#utility.yul\":15631:15634   */\n      dup5\n        /* \"#utility.yul\":15627:15666   */\n      add\n        /* \"#utility.yul\":15620:15666   */\n      swap2\n      pop\n        /* \"#utility.yul\":15389:15672   */\n      pop\n        /* \"#utility.yul\":15299:15672   */\n      swap3\n      swap2\n      pop\n      pop\n      jump\t// out\n        /* \"#utility.yul\":15678:16318   */\n    tag_200:\n        /* \"#utility.yul\":15873:15877   */\n      0x00\n        /* \"#utility.yul\":15911:15914   */\n      0x80\n        /* \"#utility.yul\":15900:15909   */\n      dup3\n        /* \"#utility.yul\":15896:15915   */\n      add\n        /* \"#utility.yul\":15888:15915   */\n      swap1\n      pop\n        /* \"#utility.yul\":15925:15996   */\n      tag_605\n        /* \"#utility.yul\":15993:15994   */\n      0x00\n        /* \"#utility.yul\":15982:15991   */\n      dup4\n        /* \"#utility.yul\":15978:15995   */\n      add\n        /* \"#utility.yul\":15969:15975   */\n      dup8\n        /* \"#utility.yul\":15925:15996   */\n      tag_390\n      jump\t// in\n    tag_605:\n        /* \"#utility.yul\":16006:16078   */\n      tag_606\n        /* \"#utility.yul\":16074:16076   */\n      0x20\n        /* \"#utility.yul\":16063:16072   */\n      dup4\n        /* \"#utility.yul\":16059:16077   */\n      add\n        /* \"#utility.yul\":16050:16056   */\n      dup7\n        /* \"#utility.yul\":16006:16078   */\n      tag_390\n      jump\t// in\n    tag_606:\n        /* \"#utility.yul\":16088:16160   */\n      tag_607\n        /* \"#utility.yul\":16156:16158   */\n      0x40\n        /* \"#utility.yul\":16145:16154   */\n      dup4\n        /* \"#utility.yul\":16141:16159   */\n      add\n        /* \"#utility.yul\":16132:16138   */\n      dup6\n        /* \"#utility.yul\":16088:16160   */\n      tag_393\n      jump\t// in\n    tag_607:\n        /* \"#utility.yul\":16207:16216   */\n      dup2\n        /* \"#utility.yul\":16201:16205   */\n      dup2\n        /* \"#utility.yul\":16197:16217   */\n      sub\n        /* \"#utility.yul\":16192:16194   */\n      0x60\n        /* \"#utility.yul\":16181:16190   */\n      dup4\n        /* \"#utility.yul\":16177:16195   */\n      add\n        /* \"#utility.yul\":16170:16218   */\n      mstore\n        /* \"#utility.yul\":16235:16311   */\n      tag_608\n        /* \"#utility.yul\":16306:16310   */\n      dup2\n        /* \"#utility.yul\":16297:16303   */\n      dup5\n        /* \"#utility.yul\":16235:16311   */\n      tag_413\n      jump\t// in\n    tag_608:\n        /* \"#utility.yul\":16227:16311   */\n      swap1\n      pop\n        /* \"#utility.yul\":15678:16318   */\n      swap6\n      swap5\n      pop\n      pop\n      pop\n      pop\n      pop\n      jump\t// out\n        /* \"#utility.yul\":16324:16465   */\n    tag_414:\n        /* \"#utility.yul\":16380:16385   */\n      0x00\n        /* \"#utility.yul\":16411:16417   */\n      dup2\n        /* \"#utility.yul\":16405:16418   */\n      mload\n        /* \"#utility.yul\":16396:16418   */\n      swap1\n      pop\n        /* \"#utility.yul\":16427:16459   */\n      tag_610\n        /* \"#utility.yul\":16453:16458   */\n      dup2\n        /* \"#utility.yul\":16427:16459   */\n      tag_376\n      jump\t// in\n    tag_610:\n        /* \"#utility.yul\":16324:16465   */\n      swap3\n      swap2\n      pop\n      pop\n      jump\t// out\n        /* \"#utility.yul\":16471:16820   */\n    tag_203:\n        /* \"#utility.yul\":16540:16546   */\n      0x00\n        /* \"#utility.yul\":16589:16591   */\n      0x20\n        /* \"#utility.yul\":16577:16586   */\n      dup3\n        /* \"#utility.yul\":16568:16575   */\n      dup5\n        /* \"#utility.yul\":16564:16587   */\n      sub\n        /* \"#utility.yul\":16560:16592   */\n      slt\n        /* \"#utility.yul\":16557:16676   */\n      iszero\n      tag_612\n      jumpi\n        /* \"#utility.yul\":16595:16674   */\n      tag_613\n      tag_373\n      jump\t// in\n    tag_613:\n        /* \"#utility.yul\":16557:16676   */\n    tag_612:\n        /* \"#utility.yul\":16715:16716   */\n      0x00\n        /* \"#utility.yul\":16740:16803   */\n      tag_614\n        /* \"#utility.yul\":16795:16802   */\n      dup5\n        /* \"#utility.yul\":16786:16792   */\n      dup3\n        /* \"#utility.yul\":16775:16784   */\n      dup6\n        /* \"#utility.yul\":16771:16793   */\n      add\n        /* \"#utility.yul\":16740:16803   */\n      tag_414\n      jump\t// in\n    tag_614:\n        /* \"#utility.yul\":16730:16803   */\n      swap2\n      pop\n        /* \"#utility.yul\":16686:16813   */\n      pop\n        /* \"#utility.yul\":16471:16820   */\n      swap3\n      swap2\n      pop\n      pop\n      jump\t// out\n        /* \"#utility.yul\":16826:16974   */\n    tag_415:\n        /* \"#utility.yul\":16928:16939   */\n      0x00\n        /* \"#utility.yul\":16965:16968   */\n      dup2\n        /* \"#utility.yul\":16950:16968   */\n      swap1\n      pop\n        /* \"#utility.yul\":16826:16974   */\n      swap3\n      swap2\n      pop\n      pop\n      jump\t// out\n        /* \"#utility.yul\":16980:17370   */\n    tag_416:\n        /* \"#utility.yul\":17086:17089   */\n      0x00\n        /* \"#utility.yul\":17114:17153   */\n      tag_617\n        /* \"#utility.yul\":17147:17152   */\n      dup3\n        /* \"#utility.yul\":17114:17153   */\n      tag_380\n      jump\t// in\n    tag_617:\n        /* \"#utility.yul\":17169:17258   */\n      tag_618\n        /* \"#utility.yul\":17251:17257   */\n      dup2\n        /* \"#utility.yul\":17246:17249   */\n      dup6\n        /* \"#utility.yul\":17169:17258   */\n      tag_415\n      jump\t// in\n    tag_618:\n        /* \"#utility.yul\":17162:17258   */\n      swap4\n      pop\n        /* \"#utility.yul\":17267:17332   */\n      tag_619\n        /* \"#utility.yul\":17325:17331   */\n      dup2\n        /* \"#utility.yul\":17320:17323   */\n      dup6\n        /* \"#utility.yul\":17313:17317   */\n      0x20\n        /* \"#utility.yul\":17306:17311   */\n      dup7\n        /* \"#utility.yul\":17302:17318   */\n      add\n        /* \"#utility.yul\":17267:17332   */\n      tag_382\n      jump\t// in\n    tag_619:\n        /* \"#utility.yul\":17357:17363   */\n      dup1\n        /* \"#utility.yul\":17352:17355   */\n      dup5\n        /* \"#utility.yul\":17348:17364   */\n      add\n        /* \"#utility.yul\":17341:17364   */\n      swap2\n      pop\n        /* \"#utility.yul\":17090:17370   */\n      pop\n        /* \"#utility.yul\":16980:17370   */\n      swap3\n      swap2\n      pop\n      pop\n      jump\t// out\n        /* \"#utility.yul\":17376:17811   */\n    tag_228:\n        /* \"#utility.yul\":17556:17559   */\n      0x00\n        /* \"#utility.yul\":17578:17673   */\n      tag_621\n        /* \"#utility.yul\":17669:17672   */\n      dup3\n        /* \"#utility.yul\":17660:17666   */\n      dup6\n        /* \"#utility.yul\":17578:17673   */\n      tag_416\n      jump\t// in\n    tag_621:\n        /* \"#utility.yul\":17571:17673   */\n      swap2\n      pop\n        /* \"#utility.yul\":17690:17785   */\n      tag_622\n        /* \"#utility.yul\":17781:17784   */\n      dup3\n        /* \"#utility.yul\":17772:17778   */\n      dup5\n        /* \"#utility.yul\":17690:17785   */\n      tag_416\n      jump\t// in\n    tag_622:\n        /* \"#utility.yul\":17683:17785   */\n      swap2\n      pop\n        /* \"#utility.yul\":17802:17805   */\n      dup2\n        /* \"#utility.yul\":17795:17805   */\n      swap1\n      pop\n        /* \"#utility.yul\":17376:17811   */\n      swap4\n      swap3\n      pop\n      pop\n      pop\n      jump\t// out\n        /* \"#utility.yul\":17817:17958   */\n    tag_417:\n        /* \"#utility.yul\":17866:17870   */\n      0x00\n        /* \"#utility.yul\":17889:17892   */\n      dup2\n        /* \"#utility.yul\":17881:17892   */\n      swap1\n      pop\n        /* \"#utility.yul\":17912:17915   */\n      dup2\n        /* \"#utility.yul\":17909:17910   */\n      0x00\n        /* \"#utility.yul\":17902:17916   */\n      mstore\n        /* \"#utility.yul\":17946:17950   */\n      0x20\n        /* \"#utility.yul\":17943:17944   */\n      0x00\n        /* \"#utility.yul\":17933:17951   */\n      keccak256\n        /* \"#utility.yul\":17925:17951   */\n      swap1\n      pop\n        /* \"#utility.yul\":17817:17958   */\n      swap2\n      swap1\n      pop\n      jump\t// out\n        /* \"#utility.yul\":17964:18057   */\n    tag_418:\n        /* \"#utility.yul\":18001:18007   */\n      0x00\n        /* \"#utility.yul\":18048:18050   */\n      0x20\n        /* \"#utility.yul\":18043:18045   */\n      0x1f\n        /* \"#utility.yul\":18036:18041   */\n      dup4\n        /* \"#utility.yul\":18032:18046   */\n      add\n        /* \"#utility.yul\":18028:18051   */\n      div\n        /* \"#utility.yul\":18018:18051   */\n      swap1\n      pop\n        /* \"#utility.yul\":17964:18057   */\n      swap2\n      swap1\n      pop\n      jump\t// out\n        /* \"#utility.yul\":18063:18170   */\n    tag_419:\n        /* \"#utility.yul\":18107:18115   */\n      0x00\n        /* \"#utility.yul\":18157:18162   */\n      dup3\n        /* \"#utility.yul\":18151:18155   */\n      dup3\n        /* \"#utility.yul\":18147:18163   */\n      shl\n        /* \"#utility.yul\":18126:18163   */\n      swap1\n      pop\n        /* \"#utility.yul\":18063:18170   */\n      swap3\n      swap2\n      pop\n      pop\n      jump\t// out\n        /* \"#utility.yul\":18176:18569   */\n    tag_420:\n        /* \"#utility.yul\":18245:18251   */\n      0x00\n        /* \"#utility.yul\":18295:18296   */\n      0x08\n        /* \"#utility.yul\":18283:18293   */\n      dup4\n        /* \"#utility.yul\":18279:18297   */\n      mul\n        /* \"#utility.yul\":18318:18415   */\n      tag_627\n        /* \"#utility.yul\":18348:18414   */\n      0xffffffffffffffffffffffffffffffffffffffffffffffffffffffffffffffff\n        /* \"#utility.yul\":18337:18346   */\n      dup3\n        /* \"#utility.yul\":18318:18415   */\n      tag_419\n      jump\t// in\n    tag_627:\n        /* \"#utility.yul\":18436:18475   */\n      tag_628\n        /* \"#utility.yul\":18466:18474   */\n      dup7\n        /* \"#utility.yul\":18455:18464   */\n      dup4\n        /* \"#utility.yul\":18436:18475   */\n      tag_419\n      jump\t// in\n    tag_628:\n        /* \"#utility.yul\":18424:18475   */\n      swap6\n      pop\n        /* \"#utility.yul\":18508:18512   */\n      dup1\n        /* \"#utility.yul\":18504:18513   */\n      not\n        /* \"#utility.yul\":18497:18502   */\n      dup5\n        /* \"#utility.yul\":18493:18514   */\n      and\n        /* \"#utility.yul\":18484:18514   */\n      swap4\n      pop\n        /* \"#utility.yul\":18557:18561   */\n      dup1\n        /* \"#utility.yul\":18547:18555   */\n      dup7\n        /* \"#utility.yul\":18543:18562   */\n      and\n        /* \"#utility.yul\":18536:18541   */\n      dup5\n        /* \"#utility.yul\":18533:18563   */\n      or\n        /* \"#utility.yul\":18523:18563   */\n      swap3\n      pop\n        /* \"#utility.yul\":18252:18569   */\n      pop\n      pop\n        /* \"#utility.yul\":18176:18569   */\n      swap4\n      swap3\n      pop\n      pop\n      pop\n      jump\t// out\n        /* \"#utility.yul\":18575:18635   */\n    tag_421:\n        /* \"#utility.yul\":18603:18606   */\n      0x00\n        /* \"#utility.yul\":18624:18629   */\n      dup2\n        /* \"#utility.yul\":18617:18629   */\n      swap1\n      pop\n        /* \"#utility.yul\":18575:18635   */\n      swap2\n      swap1\n      pop\n      jump\t// out\n        /* \"#utility.yul\":18641:18783   */\n    tag_422:\n        /* \"#utility.yul\":18691:18700   */\n      0x00\n        /* \"#utility.yul\":18724:18777   */\n      tag_631\n        /* \"#utility.yul\":18742:18776   */\n      tag_632\n        /* \"#utility.yul\":18751:18775   */\n      tag_633\n        /* \"#utility.yul\":18769:18774   */\n      dup5\n        /* \"#utility.yul\":18751:18775   */\n      tag_385\n      jump\t// in\n    tag_633:\n        /* \"#utility.yul\":18742:18776   */\n      tag_421\n      jump\t// in\n    tag_632:\n        /* \"#utility.yul\":18724:18777   */\n      tag_385\n      jump\t// in\n    tag_631:\n        /* \"#utility.yul\":18711:18777   */\n      swap1\n      pop\n        /* \"#utility.yul\":18641:18783   */\n      swap2\n      swap1\n      pop\n      jump\t// out\n        /* \"#utility.yul\":18789:18864   */\n    tag_423:\n        /* \"#utility.yul\":18832:18835   */\n      0x00\n        /* \"#utility.yul\":18853:18858   */\n      dup2\n        /* \"#utility.yul\":18846:18858   */\n      swap1\n      pop\n        /* \"#utility.yul\":18789:18864   */\n      swap2\n      swap1\n      pop\n      jump\t// out\n        /* \"#utility.yul\":18870:19139   */\n    tag_424:\n        /* \"#utility.yul\":18980:19019   */\n      tag_636\n        /* \"#utility.yul\":19011:19018   */\n      dup4\n        /* \"#utility.yul\":18980:19019   */\n      tag_422\n      jump\t// in\n    tag_636:\n        /* \"#utility.yul\":19041:19132   */\n      tag_637\n        /* \"#utility.yul\":19090:19131   */\n      tag_638\n        /* \"#utility.yul\":19114:19130   */\n      dup3\n        /* \"#utility.yul\":19090:19131   */\n      tag_423\n      jump\t// in\n    tag_638:\n        /* \"#utility.yul\":19082:19088   */\n      dup5\n        /* \"#utility.yul\":19075:19079   */\n      dup5\n        /* \"#utility.yul\":19069:19080   */\n      sload\n        /* \"#utility.yul\":19041:19132   */\n      tag_420\n      jump\t// in\n    tag_637:\n        /* \"#utility.yul\":19035:19039   */\n      dup3\n        /* \"#utility.yul\":19028:19133   */\n      sstore\n        /* \"#utility.yul\":18946:19139   */\n      pop\n        /* \"#utility.yul\":18870:19139   */\n      pop\n      pop\n      pop\n      jump\t// out\n        /* \"#utility.yul\":19145:19218   */\n    tag_425:\n        /* \"#utility.yul\":19190:19193   */\n      0x00\n        /* \"#utility.yul\":19145:19218   */\n      swap1\n      jump\t// out\n        /* \"#utility.yul\":19224:19413   */\n    tag_426:\n        /* \"#utility.yul\":19301:19333   */\n      tag_641\n      tag_425\n      jump\t// in\n    tag_641:\n        /* \"#utility.yul\":19342:19407   */\n      tag_642\n        /* \"#utility.yul\":19400:19406   */\n      dup2\n        /* \"#utility.yul\":19392:19398   */\n      dup5\n        /* \"#utility.yul\":19386:19390   */\n      dup5\n        /* \"#utility.yul\":19342:19407   */\n      tag_424\n      jump\t// in\n    tag_642:\n        /* \"#utility.yul\":19277:19413   */\n      pop\n        /* \"#utility.yul\":19224:19413   */\n      pop\n      pop\n      jump\t// out\n        /* \"#utility.yul\":19419:19605   */\n    tag_427:\n        /* \"#utility.yul\":19479:19599   */\n    tag_644:\n        /* \"#utility.yul\":19496:19499   */\n      dup2\n        /* \"#utility.yul\":19489:19494   */\n      dup2\n        /* \"#utility.yul\":19486:19500   */\n      lt\n        /* \"#utility.yul\":19479:19599   */\n      iszero\n      tag_646\n      jumpi\n        /* \"#utility.yul\":19550:19589   */\n      tag_647\n        /* \"#utility.yul\":19587:19588   */\n      0x00\n        /* \"#utility.yul\":19580:19585   */\n      dup3\n        /* \"#utility.yul\":19550:19589   */\n      tag_426\n      jump\t// in\n    tag_647:\n        /* \"#utility.yul\":19523:19524   */\n      0x01\n        /* \"#utility.yul\":19516:19521   */\n      dup2\n        /* \"#utility.yul\":19512:19525   */\n      add\n        /* \"#utility.yul\":19503:19525   */\n      swap1\n      pop\n        /* \"#utility.yul\":19479:19599   */\n      jump(tag_644)\n    tag_646:\n        /* \"#utility.yul\":19419:19605   */\n      pop\n      pop\n      jump\t// out\n        /* \"#utility.yul\":19611:20154   */\n    tag_428:\n        /* \"#utility.yul\":19712:19714   */\n      0x1f\n        /* \"#utility.yul\":19707:19710   */\n      dup3\n        /* \"#utility.yul\":19704:19715   */\n      gt\n        /* \"#utility.yul\":19701:20147   */\n      iszero\n      tag_649\n      jumpi\n        /* \"#utility.yul\":19746:19784   */\n      tag_650\n        /* \"#utility.yul\":19778:19783   */\n      dup2\n        /* \"#utility.yul\":19746:19784   */\n      tag_417\n      jump\t// in\n    tag_650:\n        /* \"#utility.yul\":19830:19859   */\n      tag_651\n        /* \"#utility.yul\":19848:19858   */\n      dup5\n        /* \"#utility.yul\":19830:19859   */\n      tag_418\n      jump\t// in\n    tag_651:\n        /* \"#utility.yul\":19820:19828   */\n      dup2\n        /* \"#utility.yul\":19816:19860   */\n      add\n        /* \"#utility.yul\":20013:20015   */\n      0x20\n        /* \"#utility.yul\":20001:20011   */\n      dup6\n        /* \"#utility.yul\":19998:20016   */\n      lt\n        /* \"#utility.yul\":19995:20044   */\n      iszero\n      tag_652\n      jumpi\n        /* \"#utility.yul\":20034:20042   */\n      dup2\n        /* \"#utility.yul\":20019:20042   */\n      swap1\n      pop\n        /* \"#utility.yul\":19995:20044   */\n    tag_652:\n        /* \"#utility.yul\":20057:20137   */\n      tag_653\n        /* \"#utility.yul\":20113:20135   */\n      tag_654\n        /* \"#utility.yul\":20131:20134   */\n      dup6\n        /* \"#utility.yul\":20113:20135   */\n      tag_418\n      jump\t// in\n    tag_654:\n        /* \"#utility.yul\":20103:20111   */\n      dup4\n        /* \"#utility.yul\":20099:20136   */\n      add\n        /* \"#utility.yul\":20086:20097   */\n      dup3\n        /* \"#utility.yul\":20057:20137   */\n      tag_427\n      jump\t// in\n    tag_653:\n        /* \"#utility.yul\":19716:20147   */\n      pop\n      pop\n        /* \"#utility.yul\":19701:20147   */\n    tag_649:\n        /* \"#utility.yul\":19611:20154   */\n      pop\n      pop\n      pop\n      jump\t// out\n        /* \"#utility.yul\":20160:20277   */\n    tag_429:\n        /* \"#utility.yul\":20214:20222   */\n      0x00\n        /* \"#utility.yul\":20264:20269   */\n      dup3\n        /* \"#utility.yul\":20258:20262   */\n      dup3\n        /* \"#utility.yul\":20254:20270   */\n      shr\n        /* \"#utility.yul\":20233:20270   */\n      swap1\n      pop\n        /* \"#utility.yul\":20160:20277   */\n      swap3\n      swap2\n      pop\n      pop\n      jump\t// out\n        /* \"#utility.yul\":20283:20452   */\n    tag_430:\n        /* \"#utility.yul\":20327:20333   */\n      0x00\n        /* \"#utility.yul\":20360:20411   */\n      tag_657\n        /* \"#utility.yul\":20408:20409   */\n      0x00\n        /* \"#utility.yul\":20404:20410   */\n      not\n        /* \"#utility.yul\":20396:20401   */\n      dup5\n        /* \"#utility.yul\":20393:20394   */\n      0x08\n        /* \"#utility.yul\":20389:20402   */\n      mul\n        /* \"#utility.yul\":20360:20411   */\n      tag_429\n      jump\t// in\n    tag_657:\n        /* \"#utility.yul\":20356:20412   */\n      not\n        /* \"#utility.yul\":20441:20445   */\n      dup1\n        /* \"#utility.yul\":20435:20439   */\n      dup4\n        /* \"#utility.yul\":20431:20446   */\n      and\n        /* \"#utility.yul\":20421:20446   */\n      swap2\n      pop\n        /* \"#utility.yul\":20334:20452   */\n      pop\n        /* \"#utility.yul\":20283:20452   */\n      swap3\n      swap2\n      pop\n      pop\n      jump\t// out\n        /* \"#utility.yul\":20457:20752   */\n    tag_431:\n        /* \"#utility.yul\":20533:20537   */\n      0x00\n        /* \"#utility.yul\":20679:20708   */\n      tag_659\n        /* \"#utility.yul\":20704:20707   */\n      dup4\n        /* \"#utility.yul\":20698:20702   */\n      dup4\n        /* \"#utility.yul\":20679:20708   */\n      tag_430\n      jump\t// in\n    tag_659:\n        /* \"#utility.yul\":20671:20708   */\n      swap2\n      pop\n        /* \"#utility.yul\":20741:20744   */\n      dup3\n        /* \"#utility.yul\":20738:20739   */\n      0x02\n        /* \"#utility.yul\":20734:20745   */\n      mul\n        /* \"#utility.yul\":20728:20732   */\n      dup3\n        /* \"#utility.yul\":20725:20746   */\n      or\n        /* \"#utility.yul\":20717:20746   */\n      swap1\n      pop\n        /* \"#utility.yul\":20457:20752   */\n      swap3\n      swap2\n      pop\n      pop\n      jump\t// out\n        /* \"#utility.yul\":20757:22152   */\n    tag_236:\n        /* \"#utility.yul\":20874:20911   */\n      tag_661\n        /* \"#utility.yul\":20907:20910   */\n      dup3\n        /* \"#utility.yul\":20874:20911   */\n      tag_380\n      jump\t// in\n    tag_661:\n        /* \"#utility.yul\":20976:20994   */\n      0xffffffffffffffff\n        /* \"#utility.yul\":20968:20974   */\n      dup2\n        /* \"#utility.yul\":20965:20995   */\n      gt\n        /* \"#utility.yul\":20962:21018   */\n      iszero\n      tag_662\n      jumpi\n        /* \"#utility.yul\":20998:21016   */\n      tag_663\n      tag_323\n      jump\t// in\n    tag_663:\n        /* \"#utility.yul\":20962:21018   */\n    tag_662:\n        /* \"#utility.yul\":21042:21080   */\n      tag_664\n        /* \"#utility.yul\":21074:21078   */\n      dup3\n        /* \"#utility.yul\":21068:21079   */\n      sload\n        /* \"#utility.yul\":21042:21080   */\n      tag_100\n      jump\t// in\n    tag_664:\n        /* \"#utility.yul\":21127:21194   */\n      tag_665\n        /* \"#utility.yul\":21187:21193   */\n      dup3\n        /* \"#utility.yul\":21179:21185   */\n      dup3\n        /* \"#utility.yul\":21173:21177   */\n      dup6\n        /* \"#utility.yul\":21127:21194   */\n      tag_428\n      jump\t// in\n    tag_665:\n        /* \"#utility.yul\":21221:21222   */\n      0x00\n        /* \"#utility.yul\":21245:21249   */\n      0x20\n        /* \"#utility.yul\":21232:21249   */\n      swap1\n      pop\n        /* \"#utility.yul\":21277:21279   */\n      0x1f\n        /* \"#utility.yul\":21269:21275   */\n      dup4\n        /* \"#utility.yul\":21266:21280   */\n      gt\n        /* \"#utility.yul\":21294:21295   */\n      0x01\n        /* \"#utility.yul\":21289:21907   */\n      dup2\n      eq\n      tag_667\n      jumpi\n        /* \"#utility.yul\":21951:21952   */\n      0x00\n        /* \"#utility.yul\":21968:21974   */\n      dup5\n        /* \"#utility.yul\":21965:22042   */\n      iszero\n      tag_668\n      jumpi\n        /* \"#utility.yul\":22017:22026   */\n      dup3\n        /* \"#utility.yul\":22012:22015   */\n      dup8\n        /* \"#utility.yul\":22008:22027   */\n      add\n        /* \"#utility.yul\":22002:22028   */\n      mload\n        /* \"#utility.yul\":21993:22028   */\n      swap1\n      pop\n        /* \"#utility.yul\":21965:22042   */\n    tag_668:\n        /* \"#utility.yul\":22068:22135   */\n      tag_669\n        /* \"#utility.yul\":22128:22134   */\n      dup6\n        /* \"#utility.yul\":22121:22126   */\n      dup3\n        /* \"#utility.yul\":22068:22135   */\n      tag_431\n      jump\t// in\n    tag_669:\n        /* \"#utility.yul\":22062:22066   */\n      dup7\n        /* \"#utility.yul\":22055:22136   */\n      sstore\n        /* \"#utility.yul\":21924:22146   */\n      pop\n        /* \"#utility.yul\":21259:22146   */\n      jump(tag_666)\n        /* \"#utility.yul\":21289:21907   */\n    tag_667:\n        /* \"#utility.yul\":21341:21345   */\n      0x1f\n        /* \"#utility.yul\":21337:21346   */\n      not\n        /* \"#utility.yul\":21329:21335   */\n      dup5\n        /* \"#utility.yul\":21325:21347   */\n      and\n        /* \"#utility.yul\":21375:21412   */\n      tag_670\n        /* \"#utility.yul\":21407:21411   */\n      dup7\n        /* \"#utility.yul\":21375:21412   */\n      tag_417\n      jump\t// in\n    tag_670:\n        /* \"#utility.yul\":21434:21435   */\n      0x00\n        /* \"#utility.yul\":21448:21656   */\n    tag_671:\n        /* \"#utility.yul\":21462:21469   */\n      dup3\n        /* \"#utility.yul\":21459:21460   */\n      dup2\n        /* \"#utility.yul\":21456:21470   */\n      lt\n        /* \"#utility.yul\":21448:21656   */\n      iszero\n      tag_673\n      jumpi\n        /* \"#utility.yul\":21541:21550   */\n      dup5\n        /* \"#utility.yul\":21536:21539   */\n      dup10\n        /* \"#utility.yul\":21532:21551   */\n      add\n        /* \"#utility.yul\":21526:21552   */\n      mload\n        /* \"#utility.yul\":21518:21524   */\n      dup3\n        /* \"#utility.yul\":21511:21553   */\n      sstore\n        /* \"#utility.yul\":21592:21593   */\n      0x01\n        /* \"#utility.yul\":21584:21590   */\n      dup3\n        /* \"#utility.yul\":21580:21594   */\n      add\n        /* \"#utility.yul\":21570:21594   */\n      swap2\n      pop\n        /* \"#utility.yul\":21639:21641   */\n      0x20\n        /* \"#utility.yul\":21628:21637   */\n      dup6\n        /* \"#utility.yul\":21624:21642   */\n      add\n        /* \"#utility.yul\":21611:21642   */\n      swap5\n      pop\n        /* \"#utility.yul\":21485:21489   */\n      0x20\n        /* \"#utility.yul\":21482:21483   */\n      dup2\n        /* \"#utility.yul\":21478:21490   */\n      add\n        /* \"#utility.yul\":21473:21490   */\n      swap1\n      pop\n        /* \"#utility.yul\":21448:21656   */\n      jump(tag_671)\n    tag_673:\n        /* \"#utility.yul\":21684:21690   */\n      dup7\n        /* \"#utility.yul\":21675:21682   */\n      dup4\n        /* \"#utility.yul\":21672:21691   */\n      lt\n        /* \"#utility.yul\":21669:21848   */\n      iszero\n      tag_674\n      jumpi\n        /* \"#utility.yul\":21742:21751   */\n      dup5\n        /* \"#utility.yul\":21737:21740   */\n      dup10\n        /* \"#utility.yul\":21733:21752   */\n      add\n        /* \"#utility.yul\":21727:21753   */\n      mload\n        /* \"#utility.yul\":21785:21833   */\n      tag_675\n        /* \"#utility.yul\":21827:21831   */\n      0x1f\n        /* \"#utility.yul\":21819:21825   */\n      dup10\n        /* \"#utility.yul\":21815:21832   */\n      and\n        /* \"#utility.yul\":21804:21813   */\n      dup3\n        /* \"#utility.yul\":21785:21833   */\n      tag_430\n      jump\t// in\n    tag_675:\n        /* \"#utility.yul\":21777:21783   */\n      dup4\n        /* \"#utility.yul\":21770:21834   */\n      sstore\n        /* \"#utility.yul\":21692:21848   */\n      pop\n        /* \"#utility.yul\":21669:21848   */\n    tag_674:\n        /* \"#utility.yul\":21894:21895   */\n      0x01\n        /* \"#utility.yul\":21890:21891   */\n      0x02\n        /* \"#utility.yul\":21882:21888   */\n      dup9\n        /* \"#utility.yul\":21878:21892   */\n      mul\n        /* \"#utility.yul\":21874:21896   */\n      add\n        /* \"#utility.yul\":21868:21872   */\n      dup9\n        /* \"#utility.yul\":21861:21897   */\n      sstore\n        /* \"#utility.yul\":21296:21907   */\n      pop\n      pop\n      pop\n        /* \"#utility.yul\":21259:22146   */\n    tag_666:\n      pop\n        /* \"#utility.yul\":20849:22152   */\n      pop\n      pop\n      pop\n        /* \"#utility.yul\":20757:22152   */\n      pop\n      pop\n      jump\t// out\n        /* \"#utility.yul\":22158:22352   */\n    tag_304:\n        /* \"#utility.yul\":22198:22202   */\n      0x00\n        /* \"#utility.yul\":22218:22238   */\n      tag_677\n        /* \"#utility.yul\":22236:22237   */\n      dup3\n        /* \"#utility.yul\":22218:22238   */\n      tag_385\n      jump\t// in\n    tag_677:\n        /* \"#utility.yul\":22213:22238   */\n      swap2\n      pop\n        /* \"#utility.yul\":22252:22272   */\n      tag_678\n        /* \"#utility.yul\":22270:22271   */\n      dup4\n        /* \"#utility.yul\":22252:22272   */\n      tag_385\n      jump\t// in\n    tag_678:\n        /* \"#utility.yul\":22247:22272   */\n      swap3\n      pop\n        /* \"#utility.yul\":22296:22297   */\n      dup3\n        /* \"#utility.yul\":22293:22294   */\n      dup3\n        /* \"#utility.yul\":22289:22298   */\n      sub\n        /* \"#utility.yul\":22281:22298   */\n      swap1\n      pop\n        /* \"#utility.yul\":22320:22321   */\n      dup2\n        /* \"#utility.yul\":22314:22318   */\n      dup2\n        /* \"#utility.yul\":22311:22322   */\n      gt\n        /* \"#utility.yul\":22308:22345   */\n      iszero\n      tag_679\n      jumpi\n        /* \"#utility.yul\":22325:22343   */\n      tag_680\n      tag_408\n      jump\t// in\n    tag_680:\n        /* \"#utility.yul\":22308:22345   */\n    tag_679:\n        /* \"#utility.yul\":22158:22352   */\n      swap3\n      swap2\n      pop\n      pop\n      jump\t// out\n        /* \"#utility.yul\":22358:22538   */\n    tag_313:\n        /* \"#utility.yul\":22406:22483   */\n      0x4e487b7100000000000000000000000000000000000000000000000000000000\n        /* \"#utility.yul\":22403:22404   */\n      0x00\n        /* \"#utility.yul\":22396:22484   */\n      mstore\n        /* \"#utility.yul\":22503:22507   */\n      0x31\n        /* \"#utility.yul\":22500:22501   */\n      0x04\n        /* \"#utility.yul\":22493:22508   */\n      mstore\n        /* \"#utility.yul\":22527:22531   */\n      0x24\n        /* \"#utility.yul\":22524:22525   */\n      0x00\n        /* \"#utility.yul\":22517:22532   */\n      revert\n        /* \"#utility.yul\":22544:22724   */\n    tag_329:\n        /* \"#utility.yul\":22592:22669   */\n      0x4e487b7100000000000000000000000000000000000000000000000000000000\n        /* \"#utility.yul\":22589:22590   */\n      0x00\n        /* \"#utility.yul\":22582:22670   */\n      mstore\n        /* \"#utility.yul\":22689:22693   */\n      0x12\n        /* \"#utility.yul\":22686:22687   */\n      0x04\n        /* \"#utility.yul\":22679:22694   */\n      mstore\n        /* \"#utility.yul\":22713:22717   */\n      0x24\n        /* \"#utility.yul\":22710:22711   */\n      0x00\n        /* \"#utility.yul\":22703:22718   */\n      revert\n\n    auxdata: 0xa26469706673582212201692ac9e4f4e70e0ea6539f73d9c5f9149d24000c97db7718f62fa853eb02fb964736f6c634300081a0033\n}\n",
				"bytecode": {
					"linkReferences": {},
					"object": "6080604052620186a0600d55348015610016575f80fd5b506040518060400160405280600a81526020017f54616c656e74204b6579000000000000000000000000000000000000000000008152506040518060400160405280600481526020017f544b455900000000000000000000000000000000000000000000000000000000815250815f908161009191906102e3565b5080600190816100a191906102e3565b5050506103b2565b5f81519050919050565b7f4e487b71000000000000000000000000000000000000000000000000000000005f52604160045260245ffd5b7f4e487b71000000000000000000000000000000000000000000000000000000005f52602260045260245ffd5b5f600282049050600182168061012457607f821691505b602082108103610137576101366100e0565b5b50919050565b5f819050815f5260205f209050919050565b5f6020601f8301049050919050565b5f82821b905092915050565b5f600883026101997fffffffffffffffffffffffffffffffffffffffffffffffffffffffffffffffff8261015e565b6101a3868361015e565b95508019841693508086168417925050509392505050565b5f819050919050565b5f819050919050565b5f6101e76101e26101dd846101bb565b6101c4565b6101bb565b9050919050565b5f819050919050565b610200836101cd565b61021461020c826101ee565b84845461016a565b825550505050565b5f90565b61022861021c565b6102338184846101f7565b505050565b5b818110156102565761024b5f82610220565b600181019050610239565b5050565b601f82111561029b5761026c8161013d565b6102758461014f565b81016020851015610284578190505b6102986102908561014f565b830182610238565b50505b505050565b5f82821c905092915050565b5f6102bb5f19846008026102a0565b1980831691505092915050565b5f6102d383836102ac565b9150826002028217905092915050565b6102ec826100a9565b67ffffffffffffffff811115610305576103046100b3565b5b61030f825461010d565b61031a82828561025a565b5f60209050601f83116001811461034b575f8415610339578287015190505b61034385826102c8565b8655506103aa565b601f1984166103598661013d565b5f5b828110156103805784890151825560018201915060208501945060208101905061035b565b8683101561039d5784890151610399601f8916826102ac565b8355505b6001600288020188555050505b505050505050565b612aa2806103bf5f395ff3fe608060405234801561000f575f80fd5b5060043610610109575f3560e01c80634f6ccce7116100a0578063a22cb4651161006f578063a22cb465146102db578063b88d4fde146102f7578063c87b56dd14610313578063d204c45e14610343578063e985e9c51461035f57610109565b80634f6ccce71461022d5780636352211e1461025d57806370a082311461028d57806395d89b41146102bd57610109565b806318160ddd116100dc57806318160ddd146101a757806323b872dd146101c55780632f745c59146101e157806342842e0e1461021157610109565b806301ffc9a71461010d57806306fdde031461013d578063081812fc1461015b578063095ea7b31461018b575b5f80fd5b61012760048036038101906101229190611e80565b61038f565b6040516101349190611ec5565b60405180910390f35b6101456103a0565b6040516101529190611f4e565b60405180910390f35b61017560048036038101906101709190611fa1565b61042f565b604051610182919061200b565b60405180910390f35b6101a560048036038101906101a0919061204e565b61044a565b005b6101af610460565b6040516101bc919061209b565b60405180910390f35b6101df60048036038101906101da91906120b4565b61046c565b005b6101fb60048036038101906101f6919061204e565b61056b565b604051610208919061209b565b60405180910390f35b61022b600480360381019061022691906120b4565b61060f565b005b61024760048036038101906102429190611fa1565b61062e565b604051610254919061209b565b60405180910390f35b61027760048036038101906102729190611fa1565b6106a0565b604051610284919061200b565b60405180910390f35b6102a760048036038101906102a29190612104565b6106b1565b6040516102b4919061209b565b60405180910390f35b6102c5610767565b6040516102d29190611f4e565b60405180910390f35b6102f560048036038101906102f09190612159565b6107f7565b005b610311600480360381019061030c91906122c3565b61080d565b005b61032d60048036038101906103289190611fa1565b61082a565b60405161033a9190611f4e565b60405180910390f35b61035d600480360381019061035891906123e1565b61083c565b005b6103796004803603810190610374919061243b565b6108bc565b6040516103869190611ec5565b60405180910390f35b5f6103998261094a565b9050919050565b60605f80546103ae906124a6565b80601f01602080910402602001604051908101604052809291908181526020018280546103da906124a6565b80156104255780601f106103fc57610100808354040283529160200191610425565b820191905f5260205f20905b81548152906001019060200180831161040857829003601f168201915b5050505050905090565b5f610439826109aa565b5061044382610a30565b9050919050565b61045c8282610457610a69565b610a70565b5050565b5f600880549050905090565b5f73ffffffffffffffffffffffffffffffffffffffff168273ffffffffffffffffffffffffffffffffffffffff16036104dc575f6040517f64a0ae920000000000000000000000000000000000000000000000000000000081526004016104d3919061200b565b60405180910390fd5b5f6104ef83836104ea610a69565b610a82565b90508373ffffffffffffffffffffffffffffffffffffffff168173ffffffffffffffffffffffffffffffffffffffff1614610565578382826040517f64283d7b00000000000000000000000000000000000000000000000000000000815260040161055c939291906124d6565b60405180910390fd5b50505050565b5f610575836106b1565b82106105ba5782826040517fa57d13dc0000000000000000000000000000000000000000000000000000000081526004016105b192919061250b565b60405180910390fd5b60065f8473ffffffffffffffffffffffffffffffffffffffff1673ffffffffffffffffffffffffffffffffffffffff1681526020019081526020015f205f8381526020019081526020015f2054905092915050565b61062983838360405180602001604052805f81525061080d565b505050565b5f610637610460565b821061067c575f826040517fa57d13dc00000000000000000000000000000000000000000000000000000000815260040161067392919061250b565b60405180910390fd5b600882815481106106905761068f612532565b5b905f5260205f2001549050919050565b5f6106aa826109aa565b9050919050565b5f8073ffffffffffffffffffffffffffffffffffffffff168273ffffffffffffffffffffffffffffffffffffffff1603610722575f6040517f89c62b64000000000000000000000000000000000000000000000000000000008152600401610719919061200b565b60405180910390fd5b60035f8373ffffffffffffffffffffffffffffffffffffffff1673ffffffffffffffffffffffffffffffffffffffff1681526020019081526020015f20549050919050565b606060018054610776906124a6565b80601f01602080910402602001604051908101604052809291908181526020018280546107a2906124a6565b80156107ed5780601f106107c4576101008083540402835291602001916107ed565b820191905f5260205f20905b8154815290600101906020018083116107d057829003601f168201915b5050505050905090565b610809610802610a69565b8383610a97565b5050565b61081884848461046c565b61082484848484610c00565b50505050565b606061083582610db2565b9050919050565b5f600b5f81548092919061084f9061258c565b91905055905061085f8382610ebd565b6108698183610eda565b600d54610876600c610f34565b11156108b7576040517f08c379a00000000000000000000000000000000000000000000000000000000081526004016108ae9061261d565b60405180910390fd5b505050565b5f60055f8473ffffffffffffffffffffffffffffffffffffffff1673ffffffffffffffffffffffffffffffffffffffff1681526020019081526020015f205f8373ffffffffffffffffffffffffffffffffffffffff1673ffffffffffffffffffffffffffffffffffffffff1681526020019081526020015f205f9054906101000a900460ff16905092915050565b5f634906490660e01b7bffffffffffffffffffffffffffffffffffffffffffffffffffffffff1916827bffffffffffffffffffffffffffffffffffffffffffffffffffffffff191614806109a357506109a282610f40565b5b9050919050565b5f806109b583610fb9565b90505f73ffffffffffffffffffffffffffffffffffffffff168173ffffffffffffffffffffffffffffffffffffffff1603610a2757826040517f7e273289000000000000000000000000000000000000000000000000000000008152600401610a1e919061209b565b60405180910390fd5b80915050919050565b5f60045f8381526020019081526020015f205f9054906101000a900473ffffffffffffffffffffffffffffffffffffffff169050919050565b5f33905090565b610a7d8383836001610ff2565b505050565b5f610a8e8484846111b1565b90509392505050565b5f73ffffffffffffffffffffffffffffffffffffffff168273ffffffffffffffffffffffffffffffffffffffff1603610b0757816040517f5b08ba18000000000000000000000000000000000000000000000000000000008152600401610afe919061200b565b60405180910390fd5b8060055f8573ffffffffffffffffffffffffffffffffffffffff1673ffffffffffffffffffffffffffffffffffffffff1681526020019081526020015f205f8473ffffffffffffffffffffffffffffffffffffffff1673ffffffffffffffffffffffffffffffffffffffff1681526020019081526020015f205f6101000a81548160ff0219169083151502179055508173ffffffffffffffffffffffffffffffffffffffff168373ffffffffffffffffffffffffffffffffffffffff167f17307eab39ab6107e8899845ad3d59bd9653f200f220920489ca2b5937696c3183604051610bf39190611ec5565b60405180910390a3505050565b5f8373ffffffffffffffffffffffffffffffffffffffff163b1115610dac578273ffffffffffffffffffffffffffffffffffffffff1663150b7a02610c43610a69565b8685856040518563ffffffff1660e01b8152600401610c65949392919061268d565b6020604051808303815f875af1925050508015610ca057506040513d601f19601f82011682018060405250810190610c9d91906126eb565b60015b610d21573d805f8114610cce576040519150601f19603f3d011682016040523d82523d5f602084013e610cd3565b606091505b505f815103610d1957836040517f64a0ae92000000000000000000000000000000000000000000000000000000008152600401610d10919061200b565b60405180910390fd5b805181602001fd5b63150b7a0260e01b7bffffffffffffffffffffffffffffffffffffffffffffffffffffffff1916817bffffffffffffffffffffffffffffffffffffffffffffffffffffffff191614610daa57836040517f64a0ae92000000000000000000000000000000000000000000000000000000008152600401610da1919061200b565b60405180910390fd5b505b50505050565b6060610dbd826109aa565b505f600a5f8481526020019081526020015f208054610ddb906124a6565b80601f0160208091040260200160405190810160405280929190818152602001828054610e07906124a6565b8015610e525780601f10610e2957610100808354040283529160200191610e52565b820191905f5260205f20905b815481529060010190602001808311610e3557829003601f168201915b505050505090505f610e626112cb565b90505f815103610e76578192505050610eb8565b5f82511115610eaa578082604051602001610e92929190612750565b60405160208183030381529060405292505050610eb8565b610eb3846112e1565b925050505b919050565b610ed6828260405180602001604052805f815250611347565b5050565b80600a5f8481526020019081526020015f209081610ef89190612910565b507ff8e1a15aba9398e019f0b49df1a4fde98ee17ae345cb5f6b5e2c27f5033e8ce782604051610f28919061209b565b60405180910390a15050565b5f815f01549050919050565b5f7f780e9d63000000000000000000000000000000000000000000000000000000007bffffffffffffffffffffffffffffffffffffffffffffffffffffffff1916827bffffffffffffffffffffffffffffffffffffffffffffffffffffffff19161480610fb25750610fb182611362565b5b9050919050565b5f60025f8381526020019081526020015f205f9054906101000a900473ffffffffffffffffffffffffffffffffffffffff169050919050565b808061102a57505f73ffffffffffffffffffffffffffffffffffffffff168273ffffffffffffffffffffffffffffffffffffffff1614155b1561115c575f611039846109aa565b90505f73ffffffffffffffffffffffffffffffffffffffff168373ffffffffffffffffffffffffffffffffffffffff16141580156110a357508273ffffffffffffffffffffffffffffffffffffffff168173ffffffffffffffffffffffffffffffffffffffff1614155b80156110b657506110b481846108bc565b155b156110f857826040517fa9fbf51f0000000000000000000000000000000000000000000000000000000081526004016110ef919061200b565b60405180910390fd5b811561115a57838573ffffffffffffffffffffffffffffffffffffffff168273ffffffffffffffffffffffffffffffffffffffff167f8c5be1e5ebec7d5bd14f71427d1e84f3dd0314c0f7b2291e5b200ac8c7c3b92560405160405180910390a45b505b8360045f8581526020019081526020015f205f6101000a81548173ffffffffffffffffffffffffffffffffffffffff021916908373ffffffffffffffffffffffffffffffffffffffff16021790555050505050565b5f806111be858585611443565b90505f73ffffffffffffffffffffffffffffffffffffffff168173ffffffffffffffffffffffffffffffffffffffff1603611201576111fc8461164e565b611240565b8473ffffffffffffffffffffffffffffffffffffffff168173ffffffffffffffffffffffffffffffffffffffff161461123f5761123e8185611692565b5b5b5f73ffffffffffffffffffffffffffffffffffffffff168573ffffffffffffffffffffffffffffffffffffffff16036112815761127c846117dc565b6112c0565b8473ffffffffffffffffffffffffffffffffffffffff168173ffffffffffffffffffffffffffffffffffffffff16146112bf576112be858561189c565b5b5b809150509392505050565b606060405180602001604052805f815250905090565b60606112ec826109aa565b505f6112f66112cb565b90505f8151116113145760405180602001604052805f81525061133f565b8061131e84611920565b60405160200161132f929190612750565b6040516020818303038152906040525b915050919050565b61135183836119ea565b61135d5f848484610c00565b505050565b5f7f80ac58cd000000000000000000000000000000000000000000000000000000007bffffffffffffffffffffffffffffffffffffffffffffffffffffffff1916827bffffffffffffffffffffffffffffffffffffffffffffffffffffffff1916148061142c57507f5b5e139f000000000000000000000000000000000000000000000000000000007bffffffffffffffffffffffffffffffffffffffffffffffffffffffff1916827bffffffffffffffffffffffffffffffffffffffffffffffffffffffff1916145b8061143c575061143b82611add565b5b9050919050565b5f8061144e84610fb9565b90505f73ffffffffffffffffffffffffffffffffffffffff168373ffffffffffffffffffffffffffffffffffffffff161461148f5761148e818486611b46565b5b5f73ffffffffffffffffffffffffffffffffffffffff168173ffffffffffffffffffffffffffffffffffffffff161461151a576114ce5f855f80610ff2565b600160035f8373ffffffffffffffffffffffffffffffffffffffff1673ffffffffffffffffffffffffffffffffffffffff1681526020019081526020015f205f82825403925050819055505b5f73ffffffffffffffffffffffffffffffffffffffff168573ffffffffffffffffffffffffffffffffffffffff161461159957600160035f8773ffffffffffffffffffffffffffffffffffffffff1673ffffffffffffffffffffffffffffffffffffffff1681526020019081526020015f205f82825401925050819055505b8460025f8681526020019081526020015f205f6101000a81548173ffffffffffffffffffffffffffffffffffffffff021916908373ffffffffffffffffffffffffffffffffffffffff160217905550838573ffffffffffffffffffffffffffffffffffffffff168273ffffffffffffffffffffffffffffffffffffffff167fddf252ad1be2c89b69c2b068fc378daa952ba7f163c4a11628f55a4df523b3ef60405160405180910390a4809150509392505050565b60088054905060095f8381526020019081526020015f2081905550600881908060018154018082558091505060019003905f5260205f20015f909190919091505550565b5f61169c836106b1565b90505f60075f8481526020019081526020015f20549050818114611773575f60065f8673ffffffffffffffffffffffffffffffffffffffff1673ffffffffffffffffffffffffffffffffffffffff1681526020019081526020015f205f8481526020019081526020015f205490508060065f8773ffffffffffffffffffffffffffffffffffffffff1673ffffffffffffffffffffffffffffffffffffffff1681526020019081526020015f205f8481526020019081526020015f20819055508160075f8381526020019081526020015f2081905550505b60075f8481526020019081526020015f205f905560065f8573ffffffffffffffffffffffffffffffffffffffff1673ffffffffffffffffffffffffffffffffffffffff1681526020019081526020015f205f8381526020019081526020015f205f905550505050565b5f60016008805490506117ef91906129df565b90505f60095f8481526020019081526020015f205490505f6008838154811061181b5761181a612532565b5b905f5260205f2001549050806008838154811061183b5761183a612532565b5b905f5260205f2001819055508160095f8381526020019081526020015f208190555060095f8581526020019081526020015f205f9055600880548061188357611882612a12565b5b600190038181905f5260205f20015f9055905550505050565b5f60016118a8846106b1565b6118b291906129df565b90508160065f8573ffffffffffffffffffffffffffffffffffffffff1673ffffffffffffffffffffffffffffffffffffffff1681526020019081526020015f205f8381526020019081526020015f20819055508060075f8481526020019081526020015f2081905550505050565b60605f600161192e84611c09565b0190505f8167ffffffffffffffff81111561194c5761194b61219f565b5b6040519080825280601f01601f19166020018201604052801561197e5781602001600182028036833780820191505090505b5090505f82602001820190505b6001156119df578080600190039150507f3031323334353637383961626364656600000000000000000000000000000000600a86061a8153600a85816119d4576119d3612a3f565b5b0494505f850361198b575b819350505050919050565b5f73ffffffffffffffffffffffffffffffffffffffff168273ffffffffffffffffffffffffffffffffffffffff1603611a5a575f6040517f64a0ae92000000000000000000000000000000000000000000000000000000008152600401611a51919061200b565b60405180910390fd5b5f611a6683835f610a82565b90505f73ffffffffffffffffffffffffffffffffffffffff168173ffffffffffffffffffffffffffffffffffffffff1614611ad8575f6040517f73c6ac6e000000000000000000000000000000000000000000000000000000008152600401611acf919061200b565b60405180910390fd5b505050565b5f7f01ffc9a7000000000000000000000000000000000000000000000000000000007bffffffffffffffffffffffffffffffffffffffffffffffffffffffff1916827bffffffffffffffffffffffffffffffffffffffffffffffffffffffff1916149050919050565b611b51838383611d5a565b611c04575f73ffffffffffffffffffffffffffffffffffffffff168373ffffffffffffffffffffffffffffffffffffffff1603611bc557806040517f7e273289000000000000000000000000000000000000000000000000000000008152600401611bbc919061209b565b60405180910390fd5b81816040517f177e802f000000000000000000000000000000000000000000000000000000008152600401611bfb92919061250b565b60405180910390fd5b505050565b5f805f90507a184f03e93ff9f4daa797ed6e38ed64bf6a1f0100000000000000008310611c65577a184f03e93ff9f4daa797ed6e38ed64bf6a1f0100000000000000008381611c5b57611c5a612a3f565b5b0492506040810190505b6d04ee2d6d415b85acef81000000008310611ca2576d04ee2d6d415b85acef81000000008381611c9857611c97612a3f565b5b0492506020810190505b662386f26fc100008310611cd157662386f26fc100008381611cc757611cc6612a3f565b5b0492506010810190505b6305f5e1008310611cfa576305f5e1008381611cf057611cef612a3f565b5b0492506008810190505b6127108310611d1f576127108381611d1557611d14612a3f565b5b0492506004810190505b60648310611d425760648381611d3857611d37612a3f565b5b0492506002810190505b600a8310611d51576001810190505b80915050919050565b5f8073ffffffffffffffffffffffffffffffffffffffff168373ffffffffffffffffffffffffffffffffffffffff1614158015611e1157508273ffffffffffffffffffffffffffffffffffffffff168473ffffffffffffffffffffffffffffffffffffffff161480611dd25750611dd184846108bc565b5b80611e1057508273ffffffffffffffffffffffffffffffffffffffff16611df883610a30565b73ffffffffffffffffffffffffffffffffffffffff16145b5b90509392505050565b5f604051905090565b5f80fd5b5f80fd5b5f7fffffffff0000000000000000000000000000000000000000000000000000000082169050919050565b611e5f81611e2b565b8114611e69575f80fd5b50565b5f81359050611e7a81611e56565b92915050565b5f60208284031215611e9557611e94611e23565b5b5f611ea284828501611e6c565b91505092915050565b5f8115159050919050565b611ebf81611eab565b82525050565b5f602082019050611ed85f830184611eb6565b92915050565b5f81519050919050565b5f82825260208201905092915050565b8281835e5f83830152505050565b5f601f19601f8301169050919050565b5f611f2082611ede565b611f2a8185611ee8565b9350611f3a818560208601611ef8565b611f4381611f06565b840191505092915050565b5f6020820190508181035f830152611f668184611f16565b905092915050565b5f819050919050565b611f8081611f6e565b8114611f8a575f80fd5b50565b5f81359050611f9b81611f77565b92915050565b5f60208284031215611fb657611fb5611e23565b5b5f611fc384828501611f8d565b91505092915050565b5f73ffffffffffffffffffffffffffffffffffffffff82169050919050565b5f611ff582611fcc565b9050919050565b61200581611feb565b82525050565b5f60208201905061201e5f830184611ffc565b92915050565b61202d81611feb565b8114612037575f80fd5b50565b5f8135905061204881612024565b92915050565b5f806040838503121561206457612063611e23565b5b5f6120718582860161203a565b925050602061208285828601611f8d565b9150509250929050565b61209581611f6e565b82525050565b5f6020820190506120ae5f83018461208c565b92915050565b5f805f606084860312156120cb576120ca611e23565b5b5f6120d88682870161203a565b93505060206120e98682870161203a565b92505060406120fa86828701611f8d565b9150509250925092565b5f6020828403121561211957612118611e23565b5b5f6121268482850161203a565b91505092915050565b61213881611eab565b8114612142575f80fd5b50565b5f813590506121538161212f565b92915050565b5f806040838503121561216f5761216e611e23565b5b5f61217c8582860161203a565b925050602061218d85828601612145565b9150509250929050565b5f80fd5b5f80fd5b7f4e487b71000000000000000000000000000000000000000000000000000000005f52604160045260245ffd5b6121d582611f06565b810181811067ffffffffffffffff821117156121f4576121f361219f565b5b80604052505050565b5f612206611e1a565b905061221282826121cc565b919050565b5f67ffffffffffffffff8211156122315761223061219f565b5b61223a82611f06565b9050602081019050919050565b828183375f83830152505050565b5f61226761226284612217565b6121fd565b9050828152602081018484840111156122835761228261219b565b5b61228e848285612247565b509392505050565b5f82601f8301126122aa576122a9612197565b5b81356122ba848260208601612255565b91505092915050565b5f805f80608085870312156122db576122da611e23565b5b5f6122e88782880161203a565b94505060206122f98782880161203a565b935050604061230a87828801611f8d565b925050606085013567ffffffffffffffff81111561232b5761232a611e27565b5b61233787828801612296565b91505092959194509250565b5f67ffffffffffffffff82111561235d5761235c61219f565b5b61236682611f06565b9050602081019050919050565b5f61238561238084612343565b6121fd565b9050828152602081018484840111156123a1576123a061219b565b5b6123ac848285612247565b509392505050565b5f82601f8301126123c8576123c7612197565b5b81356123d8848260208601612373565b91505092915050565b5f80604083850312156123f7576123f6611e23565b5b5f6124048582860161203a565b925050602083013567ffffffffffffffff81111561242557612424611e27565b5b612431858286016123b4565b9150509250929050565b5f806040838503121561245157612450611e23565b5b5f61245e8582860161203a565b925050602061246f8582860161203a565b9150509250929050565b7f4e487b71000000000000000000000000000000000000000000000000000000005f52602260045260245ffd5b5f60028204905060018216806124bd57607f821691505b6020821081036124d0576124cf612479565b5b50919050565b5f6060820190506124e95f830186611ffc565b6124f6602083018561208c565b6125036040830184611ffc565b949350505050565b5f60408201905061251e5f830185611ffc565b61252b602083018461208c565b9392505050565b7f4e487b71000000000000000000000000000000000000000000000000000000005f52603260045260245ffd5b7f4e487b71000000000000000000000000000000000000000000000000000000005f52601160045260245ffd5b5f61259682611f6e565b91507fffffffffffffffffffffffffffffffffffffffffffffffffffffffffffffffff82036125c8576125c761255f565b5b600182019050919050565b7f49276d20736f72727920776520726561636865642074686520636170000000005f82015250565b5f612607601c83611ee8565b9150612612826125d3565b602082019050919050565b5f6020820190508181035f830152612634816125fb565b9050919050565b5f81519050919050565b5f82825260208201905092915050565b5f61265f8261263b565b6126698185612645565b9350612679818560208601611ef8565b61268281611f06565b840191505092915050565b5f6080820190506126a05f830187611ffc565b6126ad6020830186611ffc565b6126ba604083018561208c565b81810360608301526126cc8184612655565b905095945050505050565b5f815190506126e581611e56565b92915050565b5f60208284031215612700576126ff611e23565b5b5f61270d848285016126d7565b91505092915050565b5f81905092915050565b5f61272a82611ede565b6127348185612716565b9350612744818560208601611ef8565b80840191505092915050565b5f61275b8285612720565b91506127678284612720565b91508190509392505050565b5f819050815f5260205f209050919050565b5f6020601f8301049050919050565b5f82821b905092915050565b5f600883026127cf7fffffffffffffffffffffffffffffffffffffffffffffffffffffffffffffffff82612794565b6127d98683612794565b95508019841693508086168417925050509392505050565b5f819050919050565b5f61281461280f61280a84611f6e565b6127f1565b611f6e565b9050919050565b5f819050919050565b61282d836127fa565b6128416128398261281b565b8484546127a0565b825550505050565b5f90565b612855612849565b612860818484612824565b505050565b5b81811015612883576128785f8261284d565b600181019050612866565b5050565b601f8211156128c85761289981612773565b6128a284612785565b810160208510156128b1578190505b6128c56128bd85612785565b830182612865565b50505b505050565b5f82821c905092915050565b5f6128e85f19846008026128cd565b1980831691505092915050565b5f61290083836128d9565b9150826002028217905092915050565b61291982611ede565b67ffffffffffffffff8111156129325761293161219f565b5b61293c82546124a6565b612947828285612887565b5f60209050601f831160018114612978575f8415612966578287015190505b61297085826128f5565b8655506129d7565b601f19841661298686612773565b5f5b828110156129ad57848901518255600182019150602085019450602081019050612988565b868310156129ca57848901516129c6601f8916826128d9565b8355505b6001600288020188555050505b505050505050565b5f6129e982611f6e565b91506129f483611f6e565b9250828203905081811115612a0c57612a0b61255f565b5b92915050565b7f4e487b71000000000000000000000000000000000000000000000000000000005f52603160045260245ffd5b7f4e487b71000000000000000000000000000000000000000000000000000000005f52601260045260245ffdfea26469706673582212201692ac9e4f4e70e0ea6539f73d9c5f9149d24000c97db7718f62fa853eb02fb964736f6c634300081a0033",
					"opcodes": "PUSH1 0x80 PUSH1 0x40 MSTORE PUSH3 0x186A0 PUSH1 0xD SSTORE CALLVALUE DUP1 ISZERO PUSH2 0x16 JUMPI PUSH0 DUP1 REVERT JUMPDEST POP PUSH1 0x40 MLOAD DUP1 PUSH1 0x40 ADD PUSH1 0x40 MSTORE DUP1 PUSH1 0xA DUP2 MSTORE PUSH1 0x20 ADD PUSH32 0x54616C656E74204B657900000000000000000000000000000000000000000000 DUP2 MSTORE POP PUSH1 0x40 MLOAD DUP1 PUSH1 0x40 ADD PUSH1 0x40 MSTORE DUP1 PUSH1 0x4 DUP2 MSTORE PUSH1 0x20 ADD PUSH32 0x544B455900000000000000000000000000000000000000000000000000000000 DUP2 MSTORE POP DUP2 PUSH0 SWAP1 DUP2 PUSH2 0x91 SWAP2 SWAP1 PUSH2 0x2E3 JUMP JUMPDEST POP DUP1 PUSH1 0x1 SWAP1 DUP2 PUSH2 0xA1 SWAP2 SWAP1 PUSH2 0x2E3 JUMP JUMPDEST POP POP POP PUSH2 0x3B2 JUMP JUMPDEST PUSH0 DUP2 MLOAD SWAP1 POP SWAP2 SWAP1 POP JUMP JUMPDEST PUSH32 0x4E487B7100000000000000000000000000000000000000000000000000000000 PUSH0 MSTORE PUSH1 0x41 PUSH1 0x4 MSTORE PUSH1 0x24 PUSH0 REVERT JUMPDEST PUSH32 0x4E487B7100000000000000000000000000000000000000000000000000000000 PUSH0 MSTORE PUSH1 0x22 PUSH1 0x4 MSTORE PUSH1 0x24 PUSH0 REVERT JUMPDEST PUSH0 PUSH1 0x2 DUP3 DIV SWAP1 POP PUSH1 0x1 DUP3 AND DUP1 PUSH2 0x124 JUMPI PUSH1 0x7F DUP3 AND SWAP2 POP JUMPDEST PUSH1 0x20 DUP3 LT DUP2 SUB PUSH2 0x137 JUMPI PUSH2 0x136 PUSH2 0xE0 JUMP JUMPDEST JUMPDEST POP SWAP2 SWAP1 POP JUMP JUMPDEST PUSH0 DUP2 SWAP1 POP DUP2 PUSH0 MSTORE PUSH1 0x20 PUSH0 KECCAK256 SWAP1 POP SWAP2 SWAP1 POP JUMP JUMPDEST PUSH0 PUSH1 0x20 PUSH1 0x1F DUP4 ADD DIV SWAP1 POP SWAP2 SWAP1 POP JUMP JUMPDEST PUSH0 DUP3 DUP3 SHL SWAP1 POP SWAP3 SWAP2 POP POP JUMP JUMPDEST PUSH0 PUSH1 0x8 DUP4 MUL PUSH2 0x199 PUSH32 0xFFFFFFFFFFFFFFFFFFFFFFFFFFFFFFFFFFFFFFFFFFFFFFFFFFFFFFFFFFFFFFFF DUP3 PUSH2 0x15E JUMP JUMPDEST PUSH2 0x1A3 DUP7 DUP4 PUSH2 0x15E JUMP JUMPDEST SWAP6 POP DUP1 NOT DUP5 AND SWAP4 POP DUP1 DUP7 AND DUP5 OR SWAP3 POP POP POP SWAP4 SWAP3 POP POP POP JUMP JUMPDEST PUSH0 DUP2 SWAP1 POP SWAP2 SWAP1 POP JUMP JUMPDEST PUSH0 DUP2 SWAP1 POP SWAP2 SWAP1 POP JUMP JUMPDEST PUSH0 PUSH2 0x1E7 PUSH2 0x1E2 PUSH2 0x1DD DUP5 PUSH2 0x1BB JUMP JUMPDEST PUSH2 0x1C4 JUMP JUMPDEST PUSH2 0x1BB JUMP JUMPDEST SWAP1 POP SWAP2 SWAP1 POP JUMP JUMPDEST PUSH0 DUP2 SWAP1 POP SWAP2 SWAP1 POP JUMP JUMPDEST PUSH2 0x200 DUP4 PUSH2 0x1CD JUMP JUMPDEST PUSH2 0x214 PUSH2 0x20C DUP3 PUSH2 0x1EE JUMP JUMPDEST DUP5 DUP5 SLOAD PUSH2 0x16A JUMP JUMPDEST DUP3 SSTORE POP POP POP POP JUMP JUMPDEST PUSH0 SWAP1 JUMP JUMPDEST PUSH2 0x228 PUSH2 0x21C JUMP JUMPDEST PUSH2 0x233 DUP2 DUP5 DUP5 PUSH2 0x1F7 JUMP JUMPDEST POP POP POP JUMP JUMPDEST JUMPDEST DUP2 DUP2 LT ISZERO PUSH2 0x256 JUMPI PUSH2 0x24B PUSH0 DUP3 PUSH2 0x220 JUMP JUMPDEST PUSH1 0x1 DUP2 ADD SWAP1 POP PUSH2 0x239 JUMP JUMPDEST POP POP JUMP JUMPDEST PUSH1 0x1F DUP3 GT ISZERO PUSH2 0x29B JUMPI PUSH2 0x26C DUP2 PUSH2 0x13D JUMP JUMPDEST PUSH2 0x275 DUP5 PUSH2 0x14F JUMP JUMPDEST DUP2 ADD PUSH1 0x20 DUP6 LT ISZERO PUSH2 0x284 JUMPI DUP2 SWAP1 POP JUMPDEST PUSH2 0x298 PUSH2 0x290 DUP6 PUSH2 0x14F JUMP JUMPDEST DUP4 ADD DUP3 PUSH2 0x238 JUMP JUMPDEST POP POP JUMPDEST POP POP POP JUMP JUMPDEST PUSH0 DUP3 DUP3 SHR SWAP1 POP SWAP3 SWAP2 POP POP JUMP JUMPDEST PUSH0 PUSH2 0x2BB PUSH0 NOT DUP5 PUSH1 0x8 MUL PUSH2 0x2A0 JUMP JUMPDEST NOT DUP1 DUP4 AND SWAP2 POP POP SWAP3 SWAP2 POP POP JUMP JUMPDEST PUSH0 PUSH2 0x2D3 DUP4 DUP4 PUSH2 0x2AC JUMP JUMPDEST SWAP2 POP DUP3 PUSH1 0x2 MUL DUP3 OR SWAP1 POP SWAP3 SWAP2 POP POP JUMP JUMPDEST PUSH2 0x2EC DUP3 PUSH2 0xA9 JUMP JUMPDEST PUSH8 0xFFFFFFFFFFFFFFFF DUP2 GT ISZERO PUSH2 0x305 JUMPI PUSH2 0x304 PUSH2 0xB3 JUMP JUMPDEST JUMPDEST PUSH2 0x30F DUP3 SLOAD PUSH2 0x10D JUMP JUMPDEST PUSH2 0x31A DUP3 DUP3 DUP6 PUSH2 0x25A JUMP JUMPDEST PUSH0 PUSH1 0x20 SWAP1 POP PUSH1 0x1F DUP4 GT PUSH1 0x1 DUP2 EQ PUSH2 0x34B JUMPI PUSH0 DUP5 ISZERO PUSH2 0x339 JUMPI DUP3 DUP8 ADD MLOAD SWAP1 POP JUMPDEST PUSH2 0x343 DUP6 DUP3 PUSH2 0x2C8 JUMP JUMPDEST DUP7 SSTORE POP PUSH2 0x3AA JUMP JUMPDEST PUSH1 0x1F NOT DUP5 AND PUSH2 0x359 DUP7 PUSH2 0x13D JUMP JUMPDEST PUSH0 JUMPDEST DUP3 DUP2 LT ISZERO PUSH2 0x380 JUMPI DUP5 DUP10 ADD MLOAD DUP3 SSTORE PUSH1 0x1 DUP3 ADD SWAP2 POP PUSH1 0x20 DUP6 ADD SWAP5 POP PUSH1 0x20 DUP2 ADD SWAP1 POP PUSH2 0x35B JUMP JUMPDEST DUP7 DUP4 LT ISZERO PUSH2 0x39D JUMPI DUP5 DUP10 ADD MLOAD PUSH2 0x399 PUSH1 0x1F DUP10 AND DUP3 PUSH2 0x2AC JUMP JUMPDEST DUP4 SSTORE POP JUMPDEST PUSH1 0x1 PUSH1 0x2 DUP9 MUL ADD DUP9 SSTORE POP POP POP JUMPDEST POP POP POP POP POP POP JUMP JUMPDEST PUSH2 0x2AA2 DUP1 PUSH2 0x3BF PUSH0 CODECOPY PUSH0 RETURN INVALID PUSH1 0x80 PUSH1 0x40 MSTORE CALLVALUE DUP1 ISZERO PUSH2 0xF JUMPI PUSH0 DUP1 REVERT JUMPDEST POP PUSH1 0x4 CALLDATASIZE LT PUSH2 0x109 JUMPI PUSH0 CALLDATALOAD PUSH1 0xE0 SHR DUP1 PUSH4 0x4F6CCCE7 GT PUSH2 0xA0 JUMPI DUP1 PUSH4 0xA22CB465 GT PUSH2 0x6F JUMPI DUP1 PUSH4 0xA22CB465 EQ PUSH2 0x2DB JUMPI DUP1 PUSH4 0xB88D4FDE EQ PUSH2 0x2F7 JUMPI DUP1 PUSH4 0xC87B56DD EQ PUSH2 0x313 JUMPI DUP1 PUSH4 0xD204C45E EQ PUSH2 0x343 JUMPI DUP1 PUSH4 0xE985E9C5 EQ PUSH2 0x35F JUMPI PUSH2 0x109 JUMP JUMPDEST DUP1 PUSH4 0x4F6CCCE7 EQ PUSH2 0x22D JUMPI DUP1 PUSH4 0x6352211E EQ PUSH2 0x25D JUMPI DUP1 PUSH4 0x70A08231 EQ PUSH2 0x28D JUMPI DUP1 PUSH4 0x95D89B41 EQ PUSH2 0x2BD JUMPI PUSH2 0x109 JUMP JUMPDEST DUP1 PUSH4 0x18160DDD GT PUSH2 0xDC JUMPI DUP1 PUSH4 0x18160DDD EQ PUSH2 0x1A7 JUMPI DUP1 PUSH4 0x23B872DD EQ PUSH2 0x1C5 JUMPI DUP1 PUSH4 0x2F745C59 EQ PUSH2 0x1E1 JUMPI DUP1 PUSH4 0x42842E0E EQ PUSH2 0x211 JUMPI PUSH2 0x109 JUMP JUMPDEST DUP1 PUSH4 0x1FFC9A7 EQ PUSH2 0x10D JUMPI DUP1 PUSH4 0x6FDDE03 EQ PUSH2 0x13D JUMPI DUP1 PUSH4 0x81812FC EQ PUSH2 0x15B JUMPI DUP1 PUSH4 0x95EA7B3 EQ PUSH2 0x18B JUMPI JUMPDEST PUSH0 DUP1 REVERT JUMPDEST PUSH2 0x127 PUSH1 0x4 DUP1 CALLDATASIZE SUB DUP2 ADD SWAP1 PUSH2 0x122 SWAP2 SWAP1 PUSH2 0x1E80 JUMP JUMPDEST PUSH2 0x38F JUMP JUMPDEST PUSH1 0x40 MLOAD PUSH2 0x134 SWAP2 SWAP1 PUSH2 0x1EC5 JUMP JUMPDEST PUSH1 0x40 MLOAD DUP1 SWAP2 SUB SWAP1 RETURN JUMPDEST PUSH2 0x145 PUSH2 0x3A0 JUMP JUMPDEST PUSH1 0x40 MLOAD PUSH2 0x152 SWAP2 SWAP1 PUSH2 0x1F4E JUMP JUMPDEST PUSH1 0x40 MLOAD DUP1 SWAP2 SUB SWAP1 RETURN JUMPDEST PUSH2 0x175 PUSH1 0x4 DUP1 CALLDATASIZE SUB DUP2 ADD SWAP1 PUSH2 0x170 SWAP2 SWAP1 PUSH2 0x1FA1 JUMP JUMPDEST PUSH2 0x42F JUMP JUMPDEST PUSH1 0x40 MLOAD PUSH2 0x182 SWAP2 SWAP1 PUSH2 0x200B JUMP JUMPDEST PUSH1 0x40 MLOAD DUP1 SWAP2 SUB SWAP1 RETURN JUMPDEST PUSH2 0x1A5 PUSH1 0x4 DUP1 CALLDATASIZE SUB DUP2 ADD SWAP1 PUSH2 0x1A0 SWAP2 SWAP1 PUSH2 0x204E JUMP JUMPDEST PUSH2 0x44A JUMP JUMPDEST STOP JUMPDEST PUSH2 0x1AF PUSH2 0x460 JUMP JUMPDEST PUSH1 0x40 MLOAD PUSH2 0x1BC SWAP2 SWAP1 PUSH2 0x209B JUMP JUMPDEST PUSH1 0x40 MLOAD DUP1 SWAP2 SUB SWAP1 RETURN JUMPDEST PUSH2 0x1DF PUSH1 0x4 DUP1 CALLDATASIZE SUB DUP2 ADD SWAP1 PUSH2 0x1DA SWAP2 SWAP1 PUSH2 0x20B4 JUMP JUMPDEST PUSH2 0x46C JUMP JUMPDEST STOP JUMPDEST PUSH2 0x1FB PUSH1 0x4 DUP1 CALLDATASIZE SUB DUP2 ADD SWAP1 PUSH2 0x1F6 SWAP2 SWAP1 PUSH2 0x204E JUMP JUMPDEST PUSH2 0x56B JUMP JUMPDEST PUSH1 0x40 MLOAD PUSH2 0x208 SWAP2 SWAP1 PUSH2 0x209B JUMP JUMPDEST PUSH1 0x40 MLOAD DUP1 SWAP2 SUB SWAP1 RETURN JUMPDEST PUSH2 0x22B PUSH1 0x4 DUP1 CALLDATASIZE SUB DUP2 ADD SWAP1 PUSH2 0x226 SWAP2 SWAP1 PUSH2 0x20B4 JUMP JUMPDEST PUSH2 0x60F JUMP JUMPDEST STOP JUMPDEST PUSH2 0x247 PUSH1 0x4 DUP1 CALLDATASIZE SUB DUP2 ADD SWAP1 PUSH2 0x242 SWAP2 SWAP1 PUSH2 0x1FA1 JUMP JUMPDEST PUSH2 0x62E JUMP JUMPDEST PUSH1 0x40 MLOAD PUSH2 0x254 SWAP2 SWAP1 PUSH2 0x209B JUMP JUMPDEST PUSH1 0x40 MLOAD DUP1 SWAP2 SUB SWAP1 RETURN JUMPDEST PUSH2 0x277 PUSH1 0x4 DUP1 CALLDATASIZE SUB DUP2 ADD SWAP1 PUSH2 0x272 SWAP2 SWAP1 PUSH2 0x1FA1 JUMP JUMPDEST PUSH2 0x6A0 JUMP JUMPDEST PUSH1 0x40 MLOAD PUSH2 0x284 SWAP2 SWAP1 PUSH2 0x200B JUMP JUMPDEST PUSH1 0x40 MLOAD DUP1 SWAP2 SUB SWAP1 RETURN JUMPDEST PUSH2 0x2A7 PUSH1 0x4 DUP1 CALLDATASIZE SUB DUP2 ADD SWAP1 PUSH2 0x2A2 SWAP2 SWAP1 PUSH2 0x2104 JUMP JUMPDEST PUSH2 0x6B1 JUMP JUMPDEST PUSH1 0x40 MLOAD PUSH2 0x2B4 SWAP2 SWAP1 PUSH2 0x209B JUMP JUMPDEST PUSH1 0x40 MLOAD DUP1 SWAP2 SUB SWAP1 RETURN JUMPDEST PUSH2 0x2C5 PUSH2 0x767 JUMP JUMPDEST PUSH1 0x40 MLOAD PUSH2 0x2D2 SWAP2 SWAP1 PUSH2 0x1F4E JUMP JUMPDEST PUSH1 0x40 MLOAD DUP1 SWAP2 SUB SWAP1 RETURN JUMPDEST PUSH2 0x2F5 PUSH1 0x4 DUP1 CALLDATASIZE SUB DUP2 ADD SWAP1 PUSH2 0x2F0 SWAP2 SWAP1 PUSH2 0x2159 JUMP JUMPDEST PUSH2 0x7F7 JUMP JUMPDEST STOP JUMPDEST PUSH2 0x311 PUSH1 0x4 DUP1 CALLDATASIZE SUB DUP2 ADD SWAP1 PUSH2 0x30C SWAP2 SWAP1 PUSH2 0x22C3 JUMP JUMPDEST PUSH2 0x80D JUMP JUMPDEST STOP JUMPDEST PUSH2 0x32D PUSH1 0x4 DUP1 CALLDATASIZE SUB DUP2 ADD SWAP1 PUSH2 0x328 SWAP2 SWAP1 PUSH2 0x1FA1 JUMP JUMPDEST PUSH2 0x82A JUMP JUMPDEST PUSH1 0x40 MLOAD PUSH2 0x33A SWAP2 SWAP1 PUSH2 0x1F4E JUMP JUMPDEST PUSH1 0x40 MLOAD DUP1 SWAP2 SUB SWAP1 RETURN JUMPDEST PUSH2 0x35D PUSH1 0x4 DUP1 CALLDATASIZE SUB DUP2 ADD SWAP1 PUSH2 0x358 SWAP2 SWAP1 PUSH2 0x23E1 JUMP JUMPDEST PUSH2 0x83C JUMP JUMPDEST STOP JUMPDEST PUSH2 0x379 PUSH1 0x4 DUP1 CALLDATASIZE SUB DUP2 ADD SWAP1 PUSH2 0x374 SWAP2 SWAP1 PUSH2 0x243B JUMP JUMPDEST PUSH2 0x8BC JUMP JUMPDEST PUSH1 0x40 MLOAD PUSH2 0x386 SWAP2 SWAP1 PUSH2 0x1EC5 JUMP JUMPDEST PUSH1 0x40 MLOAD DUP1 SWAP2 SUB SWAP1 RETURN JUMPDEST PUSH0 PUSH2 0x399 DUP3 PUSH2 0x94A JUMP JUMPDEST SWAP1 POP SWAP2 SWAP1 POP JUMP JUMPDEST PUSH1 0x60 PUSH0 DUP1 SLOAD PUSH2 0x3AE SWAP1 PUSH2 0x24A6 JUMP JUMPDEST DUP1 PUSH1 0x1F ADD PUSH1 0x20 DUP1 SWAP2 DIV MUL PUSH1 0x20 ADD PUSH1 0x40 MLOAD SWAP1 DUP2 ADD PUSH1 0x40 MSTORE DUP1 SWAP3 SWAP2 SWAP1 DUP2 DUP2 MSTORE PUSH1 0x20 ADD DUP3 DUP1 SLOAD PUSH2 0x3DA SWAP1 PUSH2 0x24A6 JUMP JUMPDEST DUP1 ISZERO PUSH2 0x425 JUMPI DUP1 PUSH1 0x1F LT PUSH2 0x3FC JUMPI PUSH2 0x100 DUP1 DUP4 SLOAD DIV MUL DUP4 MSTORE SWAP2 PUSH1 0x20 ADD SWAP2 PUSH2 0x425 JUMP JUMPDEST DUP3 ADD SWAP2 SWAP1 PUSH0 MSTORE PUSH1 0x20 PUSH0 KECCAK256 SWAP1 JUMPDEST DUP2 SLOAD DUP2 MSTORE SWAP1 PUSH1 0x1 ADD SWAP1 PUSH1 0x20 ADD DUP1 DUP4 GT PUSH2 0x408 JUMPI DUP3 SWAP1 SUB PUSH1 0x1F AND DUP3 ADD SWAP2 JUMPDEST POP POP POP POP POP SWAP1 POP SWAP1 JUMP JUMPDEST PUSH0 PUSH2 0x439 DUP3 PUSH2 0x9AA JUMP JUMPDEST POP PUSH2 0x443 DUP3 PUSH2 0xA30 JUMP JUMPDEST SWAP1 POP SWAP2 SWAP1 POP JUMP JUMPDEST PUSH2 0x45C DUP3 DUP3 PUSH2 0x457 PUSH2 0xA69 JUMP JUMPDEST PUSH2 0xA70 JUMP JUMPDEST POP POP JUMP JUMPDEST PUSH0 PUSH1 0x8 DUP1 SLOAD SWAP1 POP SWAP1 POP SWAP1 JUMP JUMPDEST PUSH0 PUSH20 0xFFFFFFFFFFFFFFFFFFFFFFFFFFFFFFFFFFFFFFFF AND DUP3 PUSH20 0xFFFFFFFFFFFFFFFFFFFFFFFFFFFFFFFFFFFFFFFF AND SUB PUSH2 0x4DC JUMPI PUSH0 PUSH1 0x40 MLOAD PUSH32 0x64A0AE9200000000000000000000000000000000000000000000000000000000 DUP2 MSTORE PUSH1 0x4 ADD PUSH2 0x4D3 SWAP2 SWAP1 PUSH2 0x200B JUMP JUMPDEST PUSH1 0x40 MLOAD DUP1 SWAP2 SUB SWAP1 REVERT JUMPDEST PUSH0 PUSH2 0x4EF DUP4 DUP4 PUSH2 0x4EA PUSH2 0xA69 JUMP JUMPDEST PUSH2 0xA82 JUMP JUMPDEST SWAP1 POP DUP4 PUSH20 0xFFFFFFFFFFFFFFFFFFFFFFFFFFFFFFFFFFFFFFFF AND DUP2 PUSH20 0xFFFFFFFFFFFFFFFFFFFFFFFFFFFFFFFFFFFFFFFF AND EQ PUSH2 0x565 JUMPI DUP4 DUP3 DUP3 PUSH1 0x40 MLOAD PUSH32 0x64283D7B00000000000000000000000000000000000000000000000000000000 DUP2 MSTORE PUSH1 0x4 ADD PUSH2 0x55C SWAP4 SWAP3 SWAP2 SWAP1 PUSH2 0x24D6 JUMP JUMPDEST PUSH1 0x40 MLOAD DUP1 SWAP2 SUB SWAP1 REVERT JUMPDEST POP POP POP POP JUMP JUMPDEST PUSH0 PUSH2 0x575 DUP4 PUSH2 0x6B1 JUMP JUMPDEST DUP3 LT PUSH2 0x5BA JUMPI DUP3 DUP3 PUSH1 0x40 MLOAD PUSH32 0xA57D13DC00000000000000000000000000000000000000000000000000000000 DUP2 MSTORE PUSH1 0x4 ADD PUSH2 0x5B1 SWAP3 SWAP2 SWAP1 PUSH2 0x250B JUMP JUMPDEST PUSH1 0x40 MLOAD DUP1 SWAP2 SUB SWAP1 REVERT JUMPDEST PUSH1 0x6 PUSH0 DUP5 PUSH20 0xFFFFFFFFFFFFFFFFFFFFFFFFFFFFFFFFFFFFFFFF AND PUSH20 0xFFFFFFFFFFFFFFFFFFFFFFFFFFFFFFFFFFFFFFFF AND DUP2 MSTORE PUSH1 0x20 ADD SWAP1 DUP2 MSTORE PUSH1 0x20 ADD PUSH0 KECCAK256 PUSH0 DUP4 DUP2 MSTORE PUSH1 0x20 ADD SWAP1 DUP2 MSTORE PUSH1 0x20 ADD PUSH0 KECCAK256 SLOAD SWAP1 POP SWAP3 SWAP2 POP POP JUMP JUMPDEST PUSH2 0x629 DUP4 DUP4 DUP4 PUSH1 0x40 MLOAD DUP1 PUSH1 0x20 ADD PUSH1 0x40 MSTORE DUP1 PUSH0 DUP2 MSTORE POP PUSH2 0x80D JUMP JUMPDEST POP POP POP JUMP JUMPDEST PUSH0 PUSH2 0x637 PUSH2 0x460 JUMP JUMPDEST DUP3 LT PUSH2 0x67C JUMPI PUSH0 DUP3 PUSH1 0x40 MLOAD PUSH32 0xA57D13DC00000000000000000000000000000000000000000000000000000000 DUP2 MSTORE PUSH1 0x4 ADD PUSH2 0x673 SWAP3 SWAP2 SWAP1 PUSH2 0x250B JUMP JUMPDEST PUSH1 0x40 MLOAD DUP1 SWAP2 SUB SWAP1 REVERT JUMPDEST PUSH1 0x8 DUP3 DUP2 SLOAD DUP2 LT PUSH2 0x690 JUMPI PUSH2 0x68F PUSH2 0x2532 JUMP JUMPDEST JUMPDEST SWAP1 PUSH0 MSTORE PUSH1 0x20 PUSH0 KECCAK256 ADD SLOAD SWAP1 POP SWAP2 SWAP1 POP JUMP JUMPDEST PUSH0 PUSH2 0x6AA DUP3 PUSH2 0x9AA JUMP JUMPDEST SWAP1 POP SWAP2 SWAP1 POP JUMP JUMPDEST PUSH0 DUP1 PUSH20 0xFFFFFFFFFFFFFFFFFFFFFFFFFFFFFFFFFFFFFFFF AND DUP3 PUSH20 0xFFFFFFFFFFFFFFFFFFFFFFFFFFFFFFFFFFFFFFFF AND SUB PUSH2 0x722 JUMPI PUSH0 PUSH1 0x40 MLOAD PUSH32 0x89C62B6400000000000000000000000000000000000000000000000000000000 DUP2 MSTORE PUSH1 0x4 ADD PUSH2 0x719 SWAP2 SWAP1 PUSH2 0x200B JUMP JUMPDEST PUSH1 0x40 MLOAD DUP1 SWAP2 SUB SWAP1 REVERT JUMPDEST PUSH1 0x3 PUSH0 DUP4 PUSH20 0xFFFFFFFFFFFFFFFFFFFFFFFFFFFFFFFFFFFFFFFF AND PUSH20 0xFFFFFFFFFFFFFFFFFFFFFFFFFFFFFFFFFFFFFFFF AND DUP2 MSTORE PUSH1 0x20 ADD SWAP1 DUP2 MSTORE PUSH1 0x20 ADD PUSH0 KECCAK256 SLOAD SWAP1 POP SWAP2 SWAP1 POP JUMP JUMPDEST PUSH1 0x60 PUSH1 0x1 DUP1 SLOAD PUSH2 0x776 SWAP1 PUSH2 0x24A6 JUMP JUMPDEST DUP1 PUSH1 0x1F ADD PUSH1 0x20 DUP1 SWAP2 DIV MUL PUSH1 0x20 ADD PUSH1 0x40 MLOAD SWAP1 DUP2 ADD PUSH1 0x40 MSTORE DUP1 SWAP3 SWAP2 SWAP1 DUP2 DUP2 MSTORE PUSH1 0x20 ADD DUP3 DUP1 SLOAD PUSH2 0x7A2 SWAP1 PUSH2 0x24A6 JUMP JUMPDEST DUP1 ISZERO PUSH2 0x7ED JUMPI DUP1 PUSH1 0x1F LT PUSH2 0x7C4 JUMPI PUSH2 0x100 DUP1 DUP4 SLOAD DIV MUL DUP4 MSTORE SWAP2 PUSH1 0x20 ADD SWAP2 PUSH2 0x7ED JUMP JUMPDEST DUP3 ADD SWAP2 SWAP1 PUSH0 MSTORE PUSH1 0x20 PUSH0 KECCAK256 SWAP1 JUMPDEST DUP2 SLOAD DUP2 MSTORE SWAP1 PUSH1 0x1 ADD SWAP1 PUSH1 0x20 ADD DUP1 DUP4 GT PUSH2 0x7D0 JUMPI DUP3 SWAP1 SUB PUSH1 0x1F AND DUP3 ADD SWAP2 JUMPDEST POP POP POP POP POP SWAP1 POP SWAP1 JUMP JUMPDEST PUSH2 0x809 PUSH2 0x802 PUSH2 0xA69 JUMP JUMPDEST DUP4 DUP4 PUSH2 0xA97 JUMP JUMPDEST POP POP JUMP JUMPDEST PUSH2 0x818 DUP5 DUP5 DUP5 PUSH2 0x46C JUMP JUMPDEST PUSH2 0x824 DUP5 DUP5 DUP5 DUP5 PUSH2 0xC00 JUMP JUMPDEST POP POP POP POP JUMP JUMPDEST PUSH1 0x60 PUSH2 0x835 DUP3 PUSH2 0xDB2 JUMP JUMPDEST SWAP1 POP SWAP2 SWAP1 POP JUMP JUMPDEST PUSH0 PUSH1 0xB PUSH0 DUP2 SLOAD DUP1 SWAP3 SWAP2 SWAP1 PUSH2 0x84F SWAP1 PUSH2 0x258C JUMP JUMPDEST SWAP2 SWAP1 POP SSTORE SWAP1 POP PUSH2 0x85F DUP4 DUP3 PUSH2 0xEBD JUMP JUMPDEST PUSH2 0x869 DUP2 DUP4 PUSH2 0xEDA JUMP JUMPDEST PUSH1 0xD SLOAD PUSH2 0x876 PUSH1 0xC PUSH2 0xF34 JUMP JUMPDEST GT ISZERO PUSH2 0x8B7 JUMPI PUSH1 0x40 MLOAD PUSH32 0x8C379A000000000000000000000000000000000000000000000000000000000 DUP2 MSTORE PUSH1 0x4 ADD PUSH2 0x8AE SWAP1 PUSH2 0x261D JUMP JUMPDEST PUSH1 0x40 MLOAD DUP1 SWAP2 SUB SWAP1 REVERT JUMPDEST POP POP POP JUMP JUMPDEST PUSH0 PUSH1 0x5 PUSH0 DUP5 PUSH20 0xFFFFFFFFFFFFFFFFFFFFFFFFFFFFFFFFFFFFFFFF AND PUSH20 0xFFFFFFFFFFFFFFFFFFFFFFFFFFFFFFFFFFFFFFFF AND DUP2 MSTORE PUSH1 0x20 ADD SWAP1 DUP2 MSTORE PUSH1 0x20 ADD PUSH0 KECCAK256 PUSH0 DUP4 PUSH20 0xFFFFFFFFFFFFFFFFFFFFFFFFFFFFFFFFFFFFFFFF AND PUSH20 0xFFFFFFFFFFFFFFFFFFFFFFFFFFFFFFFFFFFFFFFF AND DUP2 MSTORE PUSH1 0x20 ADD SWAP1 DUP2 MSTORE PUSH1 0x20 ADD PUSH0 KECCAK256 PUSH0 SWAP1 SLOAD SWAP1 PUSH2 0x100 EXP SWAP1 DIV PUSH1 0xFF AND SWAP1 POP SWAP3 SWAP2 POP POP JUMP JUMPDEST PUSH0 PUSH4 0x49064906 PUSH1 0xE0 SHL PUSH28 0xFFFFFFFFFFFFFFFFFFFFFFFFFFFFFFFFFFFFFFFFFFFFFFFFFFFFFFFF NOT AND DUP3 PUSH28 0xFFFFFFFFFFFFFFFFFFFFFFFFFFFFFFFFFFFFFFFFFFFFFFFFFFFFFFFF NOT AND EQ DUP1 PUSH2 0x9A3 JUMPI POP PUSH2 0x9A2 DUP3 PUSH2 0xF40 JUMP JUMPDEST JUMPDEST SWAP1 POP SWAP2 SWAP1 POP JUMP JUMPDEST PUSH0 DUP1 PUSH2 0x9B5 DUP4 PUSH2 0xFB9 JUMP JUMPDEST SWAP1 POP PUSH0 PUSH20 0xFFFFFFFFFFFFFFFFFFFFFFFFFFFFFFFFFFFFFFFF AND DUP2 PUSH20 0xFFFFFFFFFFFFFFFFFFFFFFFFFFFFFFFFFFFFFFFF AND SUB PUSH2 0xA27 JUMPI DUP3 PUSH1 0x40 MLOAD PUSH32 0x7E27328900000000000000000000000000000000000000000000000000000000 DUP2 MSTORE PUSH1 0x4 ADD PUSH2 0xA1E SWAP2 SWAP1 PUSH2 0x209B JUMP JUMPDEST PUSH1 0x40 MLOAD DUP1 SWAP2 SUB SWAP1 REVERT JUMPDEST DUP1 SWAP2 POP POP SWAP2 SWAP1 POP JUMP JUMPDEST PUSH0 PUSH1 0x4 PUSH0 DUP4 DUP2 MSTORE PUSH1 0x20 ADD SWAP1 DUP2 MSTORE PUSH1 0x20 ADD PUSH0 KECCAK256 PUSH0 SWAP1 SLOAD SWAP1 PUSH2 0x100 EXP SWAP1 DIV PUSH20 0xFFFFFFFFFFFFFFFFFFFFFFFFFFFFFFFFFFFFFFFF AND SWAP1 POP SWAP2 SWAP1 POP JUMP JUMPDEST PUSH0 CALLER SWAP1 POP SWAP1 JUMP JUMPDEST PUSH2 0xA7D DUP4 DUP4 DUP4 PUSH1 0x1 PUSH2 0xFF2 JUMP JUMPDEST POP POP POP JUMP JUMPDEST PUSH0 PUSH2 0xA8E DUP5 DUP5 DUP5 PUSH2 0x11B1 JUMP JUMPDEST SWAP1 POP SWAP4 SWAP3 POP POP POP JUMP JUMPDEST PUSH0 PUSH20 0xFFFFFFFFFFFFFFFFFFFFFFFFFFFFFFFFFFFFFFFF AND DUP3 PUSH20 0xFFFFFFFFFFFFFFFFFFFFFFFFFFFFFFFFFFFFFFFF AND SUB PUSH2 0xB07 JUMPI DUP2 PUSH1 0x40 MLOAD PUSH32 0x5B08BA1800000000000000000000000000000000000000000000000000000000 DUP2 MSTORE PUSH1 0x4 ADD PUSH2 0xAFE SWAP2 SWAP1 PUSH2 0x200B JUMP JUMPDEST PUSH1 0x40 MLOAD DUP1 SWAP2 SUB SWAP1 REVERT JUMPDEST DUP1 PUSH1 0x5 PUSH0 DUP6 PUSH20 0xFFFFFFFFFFFFFFFFFFFFFFFFFFFFFFFFFFFFFFFF AND PUSH20 0xFFFFFFFFFFFFFFFFFFFFFFFFFFFFFFFFFFFFFFFF AND DUP2 MSTORE PUSH1 0x20 ADD SWAP1 DUP2 MSTORE PUSH1 0x20 ADD PUSH0 KECCAK256 PUSH0 DUP5 PUSH20 0xFFFFFFFFFFFFFFFFFFFFFFFFFFFFFFFFFFFFFFFF AND PUSH20 0xFFFFFFFFFFFFFFFFFFFFFFFFFFFFFFFFFFFFFFFF AND DUP2 MSTORE PUSH1 0x20 ADD SWAP1 DUP2 MSTORE PUSH1 0x20 ADD PUSH0 KECCAK256 PUSH0 PUSH2 0x100 EXP DUP2 SLOAD DUP2 PUSH1 0xFF MUL NOT AND SWAP1 DUP4 ISZERO ISZERO MUL OR SWAP1 SSTORE POP DUP2 PUSH20 0xFFFFFFFFFFFFFFFFFFFFFFFFFFFFFFFFFFFFFFFF AND DUP4 PUSH20 0xFFFFFFFFFFFFFFFFFFFFFFFFFFFFFFFFFFFFFFFF AND PUSH32 0x17307EAB39AB6107E8899845AD3D59BD9653F200F220920489CA2B5937696C31 DUP4 PUSH1 0x40 MLOAD PUSH2 0xBF3 SWAP2 SWAP1 PUSH2 0x1EC5 JUMP JUMPDEST PUSH1 0x40 MLOAD DUP1 SWAP2 SUB SWAP1 LOG3 POP POP POP JUMP JUMPDEST PUSH0 DUP4 PUSH20 0xFFFFFFFFFFFFFFFFFFFFFFFFFFFFFFFFFFFFFFFF AND EXTCODESIZE GT ISZERO PUSH2 0xDAC JUMPI DUP3 PUSH20 0xFFFFFFFFFFFFFFFFFFFFFFFFFFFFFFFFFFFFFFFF AND PUSH4 0x150B7A02 PUSH2 0xC43 PUSH2 0xA69 JUMP JUMPDEST DUP7 DUP6 DUP6 PUSH1 0x40 MLOAD DUP6 PUSH4 0xFFFFFFFF AND PUSH1 0xE0 SHL DUP2 MSTORE PUSH1 0x4 ADD PUSH2 0xC65 SWAP5 SWAP4 SWAP3 SWAP2 SWAP1 PUSH2 0x268D JUMP JUMPDEST PUSH1 0x20 PUSH1 0x40 MLOAD DUP1 DUP4 SUB DUP2 PUSH0 DUP8 GAS CALL SWAP3 POP POP POP DUP1 ISZERO PUSH2 0xCA0 JUMPI POP PUSH1 0x40 MLOAD RETURNDATASIZE PUSH1 0x1F NOT PUSH1 0x1F DUP3 ADD AND DUP3 ADD DUP1 PUSH1 0x40 MSTORE POP DUP2 ADD SWAP1 PUSH2 0xC9D SWAP2 SWAP1 PUSH2 0x26EB JUMP JUMPDEST PUSH1 0x1 JUMPDEST PUSH2 0xD21 JUMPI RETURNDATASIZE DUP1 PUSH0 DUP2 EQ PUSH2 0xCCE JUMPI PUSH1 0x40 MLOAD SWAP2 POP PUSH1 0x1F NOT PUSH1 0x3F RETURNDATASIZE ADD AND DUP3 ADD PUSH1 0x40 MSTORE RETURNDATASIZE DUP3 MSTORE RETURNDATASIZE PUSH0 PUSH1 0x20 DUP5 ADD RETURNDATACOPY PUSH2 0xCD3 JUMP JUMPDEST PUSH1 0x60 SWAP2 POP JUMPDEST POP PUSH0 DUP2 MLOAD SUB PUSH2 0xD19 JUMPI DUP4 PUSH1 0x40 MLOAD PUSH32 0x64A0AE9200000000000000000000000000000000000000000000000000000000 DUP2 MSTORE PUSH1 0x4 ADD PUSH2 0xD10 SWAP2 SWAP1 PUSH2 0x200B JUMP JUMPDEST PUSH1 0x40 MLOAD DUP1 SWAP2 SUB SWAP1 REVERT JUMPDEST DUP1 MLOAD DUP2 PUSH1 0x20 ADD REVERT JUMPDEST PUSH4 0x150B7A02 PUSH1 0xE0 SHL PUSH28 0xFFFFFFFFFFFFFFFFFFFFFFFFFFFFFFFFFFFFFFFFFFFFFFFFFFFFFFFF NOT AND DUP2 PUSH28 0xFFFFFFFFFFFFFFFFFFFFFFFFFFFFFFFFFFFFFFFFFFFFFFFFFFFFFFFF NOT AND EQ PUSH2 0xDAA JUMPI DUP4 PUSH1 0x40 MLOAD PUSH32 0x64A0AE9200000000000000000000000000000000000000000000000000000000 DUP2 MSTORE PUSH1 0x4 ADD PUSH2 0xDA1 SWAP2 SWAP1 PUSH2 0x200B JUMP JUMPDEST PUSH1 0x40 MLOAD DUP1 SWAP2 SUB SWAP1 REVERT JUMPDEST POP JUMPDEST POP POP POP POP JUMP JUMPDEST PUSH1 0x60 PUSH2 0xDBD DUP3 PUSH2 0x9AA JUMP JUMPDEST POP PUSH0 PUSH1 0xA PUSH0 DUP5 DUP2 MSTORE PUSH1 0x20 ADD SWAP1 DUP2 MSTORE PUSH1 0x20 ADD PUSH0 KECCAK256 DUP1 SLOAD PUSH2 0xDDB SWAP1 PUSH2 0x24A6 JUMP JUMPDEST DUP1 PUSH1 0x1F ADD PUSH1 0x20 DUP1 SWAP2 DIV MUL PUSH1 0x20 ADD PUSH1 0x40 MLOAD SWAP1 DUP2 ADD PUSH1 0x40 MSTORE DUP1 SWAP3 SWAP2 SWAP1 DUP2 DUP2 MSTORE PUSH1 0x20 ADD DUP3 DUP1 SLOAD PUSH2 0xE07 SWAP1 PUSH2 0x24A6 JUMP JUMPDEST DUP1 ISZERO PUSH2 0xE52 JUMPI DUP1 PUSH1 0x1F LT PUSH2 0xE29 JUMPI PUSH2 0x100 DUP1 DUP4 SLOAD DIV MUL DUP4 MSTORE SWAP2 PUSH1 0x20 ADD SWAP2 PUSH2 0xE52 JUMP JUMPDEST DUP3 ADD SWAP2 SWAP1 PUSH0 MSTORE PUSH1 0x20 PUSH0 KECCAK256 SWAP1 JUMPDEST DUP2 SLOAD DUP2 MSTORE SWAP1 PUSH1 0x1 ADD SWAP1 PUSH1 0x20 ADD DUP1 DUP4 GT PUSH2 0xE35 JUMPI DUP3 SWAP1 SUB PUSH1 0x1F AND DUP3 ADD SWAP2 JUMPDEST POP POP POP POP POP SWAP1 POP PUSH0 PUSH2 0xE62 PUSH2 0x12CB JUMP JUMPDEST SWAP1 POP PUSH0 DUP2 MLOAD SUB PUSH2 0xE76 JUMPI DUP2 SWAP3 POP POP POP PUSH2 0xEB8 JUMP JUMPDEST PUSH0 DUP3 MLOAD GT ISZERO PUSH2 0xEAA JUMPI DUP1 DUP3 PUSH1 0x40 MLOAD PUSH1 0x20 ADD PUSH2 0xE92 SWAP3 SWAP2 SWAP1 PUSH2 0x2750 JUMP JUMPDEST PUSH1 0x40 MLOAD PUSH1 0x20 DUP2 DUP4 SUB SUB DUP2 MSTORE SWAP1 PUSH1 0x40 MSTORE SWAP3 POP POP POP PUSH2 0xEB8 JUMP JUMPDEST PUSH2 0xEB3 DUP5 PUSH2 0x12E1 JUMP JUMPDEST SWAP3 POP POP POP JUMPDEST SWAP2 SWAP1 POP JUMP JUMPDEST PUSH2 0xED6 DUP3 DUP3 PUSH1 0x40 MLOAD DUP1 PUSH1 0x20 ADD PUSH1 0x40 MSTORE DUP1 PUSH0 DUP2 MSTORE POP PUSH2 0x1347 JUMP JUMPDEST POP POP JUMP JUMPDEST DUP1 PUSH1 0xA PUSH0 DUP5 DUP2 MSTORE PUSH1 0x20 ADD SWAP1 DUP2 MSTORE PUSH1 0x20 ADD PUSH0 KECCAK256 SWAP1 DUP2 PUSH2 0xEF8 SWAP2 SWAP1 PUSH2 0x2910 JUMP JUMPDEST POP PUSH32 0xF8E1A15ABA9398E019F0B49DF1A4FDE98EE17AE345CB5F6B5E2C27F5033E8CE7 DUP3 PUSH1 0x40 MLOAD PUSH2 0xF28 SWAP2 SWAP1 PUSH2 0x209B JUMP JUMPDEST PUSH1 0x40 MLOAD DUP1 SWAP2 SUB SWAP1 LOG1 POP POP JUMP JUMPDEST PUSH0 DUP2 PUSH0 ADD SLOAD SWAP1 POP SWAP2 SWAP1 POP JUMP JUMPDEST PUSH0 PUSH32 0x780E9D6300000000000000000000000000000000000000000000000000000000 PUSH28 0xFFFFFFFFFFFFFFFFFFFFFFFFFFFFFFFFFFFFFFFFFFFFFFFFFFFFFFFF NOT AND DUP3 PUSH28 0xFFFFFFFFFFFFFFFFFFFFFFFFFFFFFFFFFFFFFFFFFFFFFFFFFFFFFFFF NOT AND EQ DUP1 PUSH2 0xFB2 JUMPI POP PUSH2 0xFB1 DUP3 PUSH2 0x1362 JUMP JUMPDEST JUMPDEST SWAP1 POP SWAP2 SWAP1 POP JUMP JUMPDEST PUSH0 PUSH1 0x2 PUSH0 DUP4 DUP2 MSTORE PUSH1 0x20 ADD SWAP1 DUP2 MSTORE PUSH1 0x20 ADD PUSH0 KECCAK256 PUSH0 SWAP1 SLOAD SWAP1 PUSH2 0x100 EXP SWAP1 DIV PUSH20 0xFFFFFFFFFFFFFFFFFFFFFFFFFFFFFFFFFFFFFFFF AND SWAP1 POP SWAP2 SWAP1 POP JUMP JUMPDEST DUP1 DUP1 PUSH2 0x102A JUMPI POP PUSH0 PUSH20 0xFFFFFFFFFFFFFFFFFFFFFFFFFFFFFFFFFFFFFFFF AND DUP3 PUSH20 0xFFFFFFFFFFFFFFFFFFFFFFFFFFFFFFFFFFFFFFFF AND EQ ISZERO JUMPDEST ISZERO PUSH2 0x115C JUMPI PUSH0 PUSH2 0x1039 DUP5 PUSH2 0x9AA JUMP JUMPDEST SWAP1 POP PUSH0 PUSH20 0xFFFFFFFFFFFFFFFFFFFFFFFFFFFFFFFFFFFFFFFF AND DUP4 PUSH20 0xFFFFFFFFFFFFFFFFFFFFFFFFFFFFFFFFFFFFFFFF AND EQ ISZERO DUP1 ISZERO PUSH2 0x10A3 JUMPI POP DUP3 PUSH20 0xFFFFFFFFFFFFFFFFFFFFFFFFFFFFFFFFFFFFFFFF AND DUP2 PUSH20 0xFFFFFFFFFFFFFFFFFFFFFFFFFFFFFFFFFFFFFFFF AND EQ ISZERO JUMPDEST DUP1 ISZERO PUSH2 0x10B6 JUMPI POP PUSH2 0x10B4 DUP2 DUP5 PUSH2 0x8BC JUMP JUMPDEST ISZERO JUMPDEST ISZERO PUSH2 0x10F8 JUMPI DUP3 PUSH1 0x40 MLOAD PUSH32 0xA9FBF51F00000000000000000000000000000000000000000000000000000000 DUP2 MSTORE PUSH1 0x4 ADD PUSH2 0x10EF SWAP2 SWAP1 PUSH2 0x200B JUMP JUMPDEST PUSH1 0x40 MLOAD DUP1 SWAP2 SUB SWAP1 REVERT JUMPDEST DUP2 ISZERO PUSH2 0x115A JUMPI DUP4 DUP6 PUSH20 0xFFFFFFFFFFFFFFFFFFFFFFFFFFFFFFFFFFFFFFFF AND DUP3 PUSH20 0xFFFFFFFFFFFFFFFFFFFFFFFFFFFFFFFFFFFFFFFF AND PUSH32 0x8C5BE1E5EBEC7D5BD14F71427D1E84F3DD0314C0F7B2291E5B200AC8C7C3B925 PUSH1 0x40 MLOAD PUSH1 0x40 MLOAD DUP1 SWAP2 SUB SWAP1 LOG4 JUMPDEST POP JUMPDEST DUP4 PUSH1 0x4 PUSH0 DUP6 DUP2 MSTORE PUSH1 0x20 ADD SWAP1 DUP2 MSTORE PUSH1 0x20 ADD PUSH0 KECCAK256 PUSH0 PUSH2 0x100 EXP DUP2 SLOAD DUP2 PUSH20 0xFFFFFFFFFFFFFFFFFFFFFFFFFFFFFFFFFFFFFFFF MUL NOT AND SWAP1 DUP4 PUSH20 0xFFFFFFFFFFFFFFFFFFFFFFFFFFFFFFFFFFFFFFFF AND MUL OR SWAP1 SSTORE POP POP POP POP POP JUMP JUMPDEST PUSH0 DUP1 PUSH2 0x11BE DUP6 DUP6 DUP6 PUSH2 0x1443 JUMP JUMPDEST SWAP1 POP PUSH0 PUSH20 0xFFFFFFFFFFFFFFFFFFFFFFFFFFFFFFFFFFFFFFFF AND DUP2 PUSH20 0xFFFFFFFFFFFFFFFFFFFFFFFFFFFFFFFFFFFFFFFF AND SUB PUSH2 0x1201 JUMPI PUSH2 0x11FC DUP5 PUSH2 0x164E JUMP JUMPDEST PUSH2 0x1240 JUMP JUMPDEST DUP5 PUSH20 0xFFFFFFFFFFFFFFFFFFFFFFFFFFFFFFFFFFFFFFFF AND DUP2 PUSH20 0xFFFFFFFFFFFFFFFFFFFFFFFFFFFFFFFFFFFFFFFF AND EQ PUSH2 0x123F JUMPI PUSH2 0x123E DUP2 DUP6 PUSH2 0x1692 JUMP JUMPDEST JUMPDEST JUMPDEST PUSH0 PUSH20 0xFFFFFFFFFFFFFFFFFFFFFFFFFFFFFFFFFFFFFFFF AND DUP6 PUSH20 0xFFFFFFFFFFFFFFFFFFFFFFFFFFFFFFFFFFFFFFFF AND SUB PUSH2 0x1281 JUMPI PUSH2 0x127C DUP5 PUSH2 0x17DC JUMP JUMPDEST PUSH2 0x12C0 JUMP JUMPDEST DUP5 PUSH20 0xFFFFFFFFFFFFFFFFFFFFFFFFFFFFFFFFFFFFFFFF AND DUP2 PUSH20 0xFFFFFFFFFFFFFFFFFFFFFFFFFFFFFFFFFFFFFFFF AND EQ PUSH2 0x12BF JUMPI PUSH2 0x12BE DUP6 DUP6 PUSH2 0x189C JUMP JUMPDEST JUMPDEST JUMPDEST DUP1 SWAP2 POP POP SWAP4 SWAP3 POP POP POP JUMP JUMPDEST PUSH1 0x60 PUSH1 0x40 MLOAD DUP1 PUSH1 0x20 ADD PUSH1 0x40 MSTORE DUP1 PUSH0 DUP2 MSTORE POP SWAP1 POP SWAP1 JUMP JUMPDEST PUSH1 0x60 PUSH2 0x12EC DUP3 PUSH2 0x9AA JUMP JUMPDEST POP PUSH0 PUSH2 0x12F6 PUSH2 0x12CB JUMP JUMPDEST SWAP1 POP PUSH0 DUP2 MLOAD GT PUSH2 0x1314 JUMPI PUSH1 0x40 MLOAD DUP1 PUSH1 0x20 ADD PUSH1 0x40 MSTORE DUP1 PUSH0 DUP2 MSTORE POP PUSH2 0x133F JUMP JUMPDEST DUP1 PUSH2 0x131E DUP5 PUSH2 0x1920 JUMP JUMPDEST PUSH1 0x40 MLOAD PUSH1 0x20 ADD PUSH2 0x132F SWAP3 SWAP2 SWAP1 PUSH2 0x2750 JUMP JUMPDEST PUSH1 0x40 MLOAD PUSH1 0x20 DUP2 DUP4 SUB SUB DUP2 MSTORE SWAP1 PUSH1 0x40 MSTORE JUMPDEST SWAP2 POP POP SWAP2 SWAP1 POP JUMP JUMPDEST PUSH2 0x1351 DUP4 DUP4 PUSH2 0x19EA JUMP JUMPDEST PUSH2 0x135D PUSH0 DUP5 DUP5 DUP5 PUSH2 0xC00 JUMP JUMPDEST POP POP POP JUMP JUMPDEST PUSH0 PUSH32 0x80AC58CD00000000000000000000000000000000000000000000000000000000 PUSH28 0xFFFFFFFFFFFFFFFFFFFFFFFFFFFFFFFFFFFFFFFFFFFFFFFFFFFFFFFF NOT AND DUP3 PUSH28 0xFFFFFFFFFFFFFFFFFFFFFFFFFFFFFFFFFFFFFFFFFFFFFFFFFFFFFFFF NOT AND EQ DUP1 PUSH2 0x142C JUMPI POP PUSH32 0x5B5E139F00000000000000000000000000000000000000000000000000000000 PUSH28 0xFFFFFFFFFFFFFFFFFFFFFFFFFFFFFFFFFFFFFFFFFFFFFFFFFFFFFFFF NOT AND DUP3 PUSH28 0xFFFFFFFFFFFFFFFFFFFFFFFFFFFFFFFFFFFFFFFFFFFFFFFFFFFFFFFF NOT AND EQ JUMPDEST DUP1 PUSH2 0x143C JUMPI POP PUSH2 0x143B DUP3 PUSH2 0x1ADD JUMP JUMPDEST JUMPDEST SWAP1 POP SWAP2 SWAP1 POP JUMP JUMPDEST PUSH0 DUP1 PUSH2 0x144E DUP5 PUSH2 0xFB9 JUMP JUMPDEST SWAP1 POP PUSH0 PUSH20 0xFFFFFFFFFFFFFFFFFFFFFFFFFFFFFFFFFFFFFFFF AND DUP4 PUSH20 0xFFFFFFFFFFFFFFFFFFFFFFFFFFFFFFFFFFFFFFFF AND EQ PUSH2 0x148F JUMPI PUSH2 0x148E DUP2 DUP5 DUP7 PUSH2 0x1B46 JUMP JUMPDEST JUMPDEST PUSH0 PUSH20 0xFFFFFFFFFFFFFFFFFFFFFFFFFFFFFFFFFFFFFFFF AND DUP2 PUSH20 0xFFFFFFFFFFFFFFFFFFFFFFFFFFFFFFFFFFFFFFFF AND EQ PUSH2 0x151A JUMPI PUSH2 0x14CE PUSH0 DUP6 PUSH0 DUP1 PUSH2 0xFF2 JUMP JUMPDEST PUSH1 0x1 PUSH1 0x3 PUSH0 DUP4 PUSH20 0xFFFFFFFFFFFFFFFFFFFFFFFFFFFFFFFFFFFFFFFF AND PUSH20 0xFFFFFFFFFFFFFFFFFFFFFFFFFFFFFFFFFFFFFFFF AND DUP2 MSTORE PUSH1 0x20 ADD SWAP1 DUP2 MSTORE PUSH1 0x20 ADD PUSH0 KECCAK256 PUSH0 DUP3 DUP3 SLOAD SUB SWAP3 POP POP DUP2 SWAP1 SSTORE POP JUMPDEST PUSH0 PUSH20 0xFFFFFFFFFFFFFFFFFFFFFFFFFFFFFFFFFFFFFFFF AND DUP6 PUSH20 0xFFFFFFFFFFFFFFFFFFFFFFFFFFFFFFFFFFFFFFFF AND EQ PUSH2 0x1599 JUMPI PUSH1 0x1 PUSH1 0x3 PUSH0 DUP8 PUSH20 0xFFFFFFFFFFFFFFFFFFFFFFFFFFFFFFFFFFFFFFFF AND PUSH20 0xFFFFFFFFFFFFFFFFFFFFFFFFFFFFFFFFFFFFFFFF AND DUP2 MSTORE PUSH1 0x20 ADD SWAP1 DUP2 MSTORE PUSH1 0x20 ADD PUSH0 KECCAK256 PUSH0 DUP3 DUP3 SLOAD ADD SWAP3 POP POP DUP2 SWAP1 SSTORE POP JUMPDEST DUP5 PUSH1 0x2 PUSH0 DUP7 DUP2 MSTORE PUSH1 0x20 ADD SWAP1 DUP2 MSTORE PUSH1 0x20 ADD PUSH0 KECCAK256 PUSH0 PUSH2 0x100 EXP DUP2 SLOAD DUP2 PUSH20 0xFFFFFFFFFFFFFFFFFFFFFFFFFFFFFFFFFFFFFFFF MUL NOT AND SWAP1 DUP4 PUSH20 0xFFFFFFFFFFFFFFFFFFFFFFFFFFFFFFFFFFFFFFFF AND MUL OR SWAP1 SSTORE POP DUP4 DUP6 PUSH20 0xFFFFFFFFFFFFFFFFFFFFFFFFFFFFFFFFFFFFFFFF AND DUP3 PUSH20 0xFFFFFFFFFFFFFFFFFFFFFFFFFFFFFFFFFFFFFFFF AND PUSH32 0xDDF252AD1BE2C89B69C2B068FC378DAA952BA7F163C4A11628F55A4DF523B3EF PUSH1 0x40 MLOAD PUSH1 0x40 MLOAD DUP1 SWAP2 SUB SWAP1 LOG4 DUP1 SWAP2 POP POP SWAP4 SWAP3 POP POP POP JUMP JUMPDEST PUSH1 0x8 DUP1 SLOAD SWAP1 POP PUSH1 0x9 PUSH0 DUP4 DUP2 MSTORE PUSH1 0x20 ADD SWAP1 DUP2 MSTORE PUSH1 0x20 ADD PUSH0 KECCAK256 DUP2 SWAP1 SSTORE POP PUSH1 0x8 DUP2 SWAP1 DUP1 PUSH1 0x1 DUP2 SLOAD ADD DUP1 DUP3 SSTORE DUP1 SWAP2 POP POP PUSH1 0x1 SWAP1 SUB SWAP1 PUSH0 MSTORE PUSH1 0x20 PUSH0 KECCAK256 ADD PUSH0 SWAP1 SWAP2 SWAP1 SWAP2 SWAP1 SWAP2 POP SSTORE POP JUMP JUMPDEST PUSH0 PUSH2 0x169C DUP4 PUSH2 0x6B1 JUMP JUMPDEST SWAP1 POP PUSH0 PUSH1 0x7 PUSH0 DUP5 DUP2 MSTORE PUSH1 0x20 ADD SWAP1 DUP2 MSTORE PUSH1 0x20 ADD PUSH0 KECCAK256 SLOAD SWAP1 POP DUP2 DUP2 EQ PUSH2 0x1773 JUMPI PUSH0 PUSH1 0x6 PUSH0 DUP7 PUSH20 0xFFFFFFFFFFFFFFFFFFFFFFFFFFFFFFFFFFFFFFFF AND PUSH20 0xFFFFFFFFFFFFFFFFFFFFFFFFFFFFFFFFFFFFFFFF AND DUP2 MSTORE PUSH1 0x20 ADD SWAP1 DUP2 MSTORE PUSH1 0x20 ADD PUSH0 KECCAK256 PUSH0 DUP5 DUP2 MSTORE PUSH1 0x20 ADD SWAP1 DUP2 MSTORE PUSH1 0x20 ADD PUSH0 KECCAK256 SLOAD SWAP1 POP DUP1 PUSH1 0x6 PUSH0 DUP8 PUSH20 0xFFFFFFFFFFFFFFFFFFFFFFFFFFFFFFFFFFFFFFFF AND PUSH20 0xFFFFFFFFFFFFFFFFFFFFFFFFFFFFFFFFFFFFFFFF AND DUP2 MSTORE PUSH1 0x20 ADD SWAP1 DUP2 MSTORE PUSH1 0x20 ADD PUSH0 KECCAK256 PUSH0 DUP5 DUP2 MSTORE PUSH1 0x20 ADD SWAP1 DUP2 MSTORE PUSH1 0x20 ADD PUSH0 KECCAK256 DUP2 SWAP1 SSTORE POP DUP2 PUSH1 0x7 PUSH0 DUP4 DUP2 MSTORE PUSH1 0x20 ADD SWAP1 DUP2 MSTORE PUSH1 0x20 ADD PUSH0 KECCAK256 DUP2 SWAP1 SSTORE POP POP JUMPDEST PUSH1 0x7 PUSH0 DUP5 DUP2 MSTORE PUSH1 0x20 ADD SWAP1 DUP2 MSTORE PUSH1 0x20 ADD PUSH0 KECCAK256 PUSH0 SWAP1 SSTORE PUSH1 0x6 PUSH0 DUP6 PUSH20 0xFFFFFFFFFFFFFFFFFFFFFFFFFFFFFFFFFFFFFFFF AND PUSH20 0xFFFFFFFFFFFFFFFFFFFFFFFFFFFFFFFFFFFFFFFF AND DUP2 MSTORE PUSH1 0x20 ADD SWAP1 DUP2 MSTORE PUSH1 0x20 ADD PUSH0 KECCAK256 PUSH0 DUP4 DUP2 MSTORE PUSH1 0x20 ADD SWAP1 DUP2 MSTORE PUSH1 0x20 ADD PUSH0 KECCAK256 PUSH0 SWAP1 SSTORE POP POP POP POP JUMP JUMPDEST PUSH0 PUSH1 0x1 PUSH1 0x8 DUP1 SLOAD SWAP1 POP PUSH2 0x17EF SWAP2 SWAP1 PUSH2 0x29DF JUMP JUMPDEST SWAP1 POP PUSH0 PUSH1 0x9 PUSH0 DUP5 DUP2 MSTORE PUSH1 0x20 ADD SWAP1 DUP2 MSTORE PUSH1 0x20 ADD PUSH0 KECCAK256 SLOAD SWAP1 POP PUSH0 PUSH1 0x8 DUP4 DUP2 SLOAD DUP2 LT PUSH2 0x181B JUMPI PUSH2 0x181A PUSH2 0x2532 JUMP JUMPDEST JUMPDEST SWAP1 PUSH0 MSTORE PUSH1 0x20 PUSH0 KECCAK256 ADD SLOAD SWAP1 POP DUP1 PUSH1 0x8 DUP4 DUP2 SLOAD DUP2 LT PUSH2 0x183B JUMPI PUSH2 0x183A PUSH2 0x2532 JUMP JUMPDEST JUMPDEST SWAP1 PUSH0 MSTORE PUSH1 0x20 PUSH0 KECCAK256 ADD DUP2 SWAP1 SSTORE POP DUP2 PUSH1 0x9 PUSH0 DUP4 DUP2 MSTORE PUSH1 0x20 ADD SWAP1 DUP2 MSTORE PUSH1 0x20 ADD PUSH0 KECCAK256 DUP2 SWAP1 SSTORE POP PUSH1 0x9 PUSH0 DUP6 DUP2 MSTORE PUSH1 0x20 ADD SWAP1 DUP2 MSTORE PUSH1 0x20 ADD PUSH0 KECCAK256 PUSH0 SWAP1 SSTORE PUSH1 0x8 DUP1 SLOAD DUP1 PUSH2 0x1883 JUMPI PUSH2 0x1882 PUSH2 0x2A12 JUMP JUMPDEST JUMPDEST PUSH1 0x1 SWAP1 SUB DUP2 DUP2 SWAP1 PUSH0 MSTORE PUSH1 0x20 PUSH0 KECCAK256 ADD PUSH0 SWAP1 SSTORE SWAP1 SSTORE POP POP POP POP JUMP JUMPDEST PUSH0 PUSH1 0x1 PUSH2 0x18A8 DUP5 PUSH2 0x6B1 JUMP JUMPDEST PUSH2 0x18B2 SWAP2 SWAP1 PUSH2 0x29DF JUMP JUMPDEST SWAP1 POP DUP2 PUSH1 0x6 PUSH0 DUP6 PUSH20 0xFFFFFFFFFFFFFFFFFFFFFFFFFFFFFFFFFFFFFFFF AND PUSH20 0xFFFFFFFFFFFFFFFFFFFFFFFFFFFFFFFFFFFFFFFF AND DUP2 MSTORE PUSH1 0x20 ADD SWAP1 DUP2 MSTORE PUSH1 0x20 ADD PUSH0 KECCAK256 PUSH0 DUP4 DUP2 MSTORE PUSH1 0x20 ADD SWAP1 DUP2 MSTORE PUSH1 0x20 ADD PUSH0 KECCAK256 DUP2 SWAP1 SSTORE POP DUP1 PUSH1 0x7 PUSH0 DUP5 DUP2 MSTORE PUSH1 0x20 ADD SWAP1 DUP2 MSTORE PUSH1 0x20 ADD PUSH0 KECCAK256 DUP2 SWAP1 SSTORE POP POP POP POP JUMP JUMPDEST PUSH1 0x60 PUSH0 PUSH1 0x1 PUSH2 0x192E DUP5 PUSH2 0x1C09 JUMP JUMPDEST ADD SWAP1 POP PUSH0 DUP2 PUSH8 0xFFFFFFFFFFFFFFFF DUP2 GT ISZERO PUSH2 0x194C JUMPI PUSH2 0x194B PUSH2 0x219F JUMP JUMPDEST JUMPDEST PUSH1 0x40 MLOAD SWAP1 DUP1 DUP3 MSTORE DUP1 PUSH1 0x1F ADD PUSH1 0x1F NOT AND PUSH1 0x20 ADD DUP3 ADD PUSH1 0x40 MSTORE DUP1 ISZERO PUSH2 0x197E JUMPI DUP2 PUSH1 0x20 ADD PUSH1 0x1 DUP3 MUL DUP1 CALLDATASIZE DUP4 CALLDATACOPY DUP1 DUP3 ADD SWAP2 POP POP SWAP1 POP JUMPDEST POP SWAP1 POP PUSH0 DUP3 PUSH1 0x20 ADD DUP3 ADD SWAP1 POP JUMPDEST PUSH1 0x1 ISZERO PUSH2 0x19DF JUMPI DUP1 DUP1 PUSH1 0x1 SWAP1 SUB SWAP2 POP POP PUSH32 0x3031323334353637383961626364656600000000000000000000000000000000 PUSH1 0xA DUP7 MOD BYTE DUP2 MSTORE8 PUSH1 0xA DUP6 DUP2 PUSH2 0x19D4 JUMPI PUSH2 0x19D3 PUSH2 0x2A3F JUMP JUMPDEST JUMPDEST DIV SWAP5 POP PUSH0 DUP6 SUB PUSH2 0x198B JUMPI JUMPDEST DUP2 SWAP4 POP POP POP POP SWAP2 SWAP1 POP JUMP JUMPDEST PUSH0 PUSH20 0xFFFFFFFFFFFFFFFFFFFFFFFFFFFFFFFFFFFFFFFF AND DUP3 PUSH20 0xFFFFFFFFFFFFFFFFFFFFFFFFFFFFFFFFFFFFFFFF AND SUB PUSH2 0x1A5A JUMPI PUSH0 PUSH1 0x40 MLOAD PUSH32 0x64A0AE9200000000000000000000000000000000000000000000000000000000 DUP2 MSTORE PUSH1 0x4 ADD PUSH2 0x1A51 SWAP2 SWAP1 PUSH2 0x200B JUMP JUMPDEST PUSH1 0x40 MLOAD DUP1 SWAP2 SUB SWAP1 REVERT JUMPDEST PUSH0 PUSH2 0x1A66 DUP4 DUP4 PUSH0 PUSH2 0xA82 JUMP JUMPDEST SWAP1 POP PUSH0 PUSH20 0xFFFFFFFFFFFFFFFFFFFFFFFFFFFFFFFFFFFFFFFF AND DUP2 PUSH20 0xFFFFFFFFFFFFFFFFFFFFFFFFFFFFFFFFFFFFFFFF AND EQ PUSH2 0x1AD8 JUMPI PUSH0 PUSH1 0x40 MLOAD PUSH32 0x73C6AC6E00000000000000000000000000000000000000000000000000000000 DUP2 MSTORE PUSH1 0x4 ADD PUSH2 0x1ACF SWAP2 SWAP1 PUSH2 0x200B JUMP JUMPDEST PUSH1 0x40 MLOAD DUP1 SWAP2 SUB SWAP1 REVERT JUMPDEST POP POP POP JUMP JUMPDEST PUSH0 PUSH32 0x1FFC9A700000000000000000000000000000000000000000000000000000000 PUSH28 0xFFFFFFFFFFFFFFFFFFFFFFFFFFFFFFFFFFFFFFFFFFFFFFFFFFFFFFFF NOT AND DUP3 PUSH28 0xFFFFFFFFFFFFFFFFFFFFFFFFFFFFFFFFFFFFFFFFFFFFFFFFFFFFFFFF NOT AND EQ SWAP1 POP SWAP2 SWAP1 POP JUMP JUMPDEST PUSH2 0x1B51 DUP4 DUP4 DUP4 PUSH2 0x1D5A JUMP JUMPDEST PUSH2 0x1C04 JUMPI PUSH0 PUSH20 0xFFFFFFFFFFFFFFFFFFFFFFFFFFFFFFFFFFFFFFFF AND DUP4 PUSH20 0xFFFFFFFFFFFFFFFFFFFFFFFFFFFFFFFFFFFFFFFF AND SUB PUSH2 0x1BC5 JUMPI DUP1 PUSH1 0x40 MLOAD PUSH32 0x7E27328900000000000000000000000000000000000000000000000000000000 DUP2 MSTORE PUSH1 0x4 ADD PUSH2 0x1BBC SWAP2 SWAP1 PUSH2 0x209B JUMP JUMPDEST PUSH1 0x40 MLOAD DUP1 SWAP2 SUB SWAP1 REVERT JUMPDEST DUP2 DUP2 PUSH1 0x40 MLOAD PUSH32 0x177E802F00000000000000000000000000000000000000000000000000000000 DUP2 MSTORE PUSH1 0x4 ADD PUSH2 0x1BFB SWAP3 SWAP2 SWAP1 PUSH2 0x250B JUMP JUMPDEST PUSH1 0x40 MLOAD DUP1 SWAP2 SUB SWAP1 REVERT JUMPDEST POP POP POP JUMP JUMPDEST PUSH0 DUP1 PUSH0 SWAP1 POP PUSH27 0x184F03E93FF9F4DAA797ED6E38ED64BF6A1F010000000000000000 DUP4 LT PUSH2 0x1C65 JUMPI PUSH27 0x184F03E93FF9F4DAA797ED6E38ED64BF6A1F010000000000000000 DUP4 DUP2 PUSH2 0x1C5B JUMPI PUSH2 0x1C5A PUSH2 0x2A3F JUMP JUMPDEST JUMPDEST DIV SWAP3 POP PUSH1 0x40 DUP2 ADD SWAP1 POP JUMPDEST PUSH14 0x4EE2D6D415B85ACEF8100000000 DUP4 LT PUSH2 0x1CA2 JUMPI PUSH14 0x4EE2D6D415B85ACEF8100000000 DUP4 DUP2 PUSH2 0x1C98 JUMPI PUSH2 0x1C97 PUSH2 0x2A3F JUMP JUMPDEST JUMPDEST DIV SWAP3 POP PUSH1 0x20 DUP2 ADD SWAP1 POP JUMPDEST PUSH7 0x2386F26FC10000 DUP4 LT PUSH2 0x1CD1 JUMPI PUSH7 0x2386F26FC10000 DUP4 DUP2 PUSH2 0x1CC7 JUMPI PUSH2 0x1CC6 PUSH2 0x2A3F JUMP JUMPDEST JUMPDEST DIV SWAP3 POP PUSH1 0x10 DUP2 ADD SWAP1 POP JUMPDEST PUSH4 0x5F5E100 DUP4 LT PUSH2 0x1CFA JUMPI PUSH4 0x5F5E100 DUP4 DUP2 PUSH2 0x1CF0 JUMPI PUSH2 0x1CEF PUSH2 0x2A3F JUMP JUMPDEST JUMPDEST DIV SWAP3 POP PUSH1 0x8 DUP2 ADD SWAP1 POP JUMPDEST PUSH2 0x2710 DUP4 LT PUSH2 0x1D1F JUMPI PUSH2 0x2710 DUP4 DUP2 PUSH2 0x1D15 JUMPI PUSH2 0x1D14 PUSH2 0x2A3F JUMP JUMPDEST JUMPDEST DIV SWAP3 POP PUSH1 0x4 DUP2 ADD SWAP1 POP JUMPDEST PUSH1 0x64 DUP4 LT PUSH2 0x1D42 JUMPI PUSH1 0x64 DUP4 DUP2 PUSH2 0x1D38 JUMPI PUSH2 0x1D37 PUSH2 0x2A3F JUMP JUMPDEST JUMPDEST DIV SWAP3 POP PUSH1 0x2 DUP2 ADD SWAP1 POP JUMPDEST PUSH1 0xA DUP4 LT PUSH2 0x1D51 JUMPI PUSH1 0x1 DUP2 ADD SWAP1 POP JUMPDEST DUP1 SWAP2 POP POP SWAP2 SWAP1 POP JUMP JUMPDEST PUSH0 DUP1 PUSH20 0xFFFFFFFFFFFFFFFFFFFFFFFFFFFFFFFFFFFFFFFF AND DUP4 PUSH20 0xFFFFFFFFFFFFFFFFFFFFFFFFFFFFFFFFFFFFFFFF AND EQ ISZERO DUP1 ISZERO PUSH2 0x1E11 JUMPI POP DUP3 PUSH20 0xFFFFFFFFFFFFFFFFFFFFFFFFFFFFFFFFFFFFFFFF AND DUP5 PUSH20 0xFFFFFFFFFFFFFFFFFFFFFFFFFFFFFFFFFFFFFFFF AND EQ DUP1 PUSH2 0x1DD2 JUMPI POP PUSH2 0x1DD1 DUP5 DUP5 PUSH2 0x8BC JUMP JUMPDEST JUMPDEST DUP1 PUSH2 0x1E10 JUMPI POP DUP3 PUSH20 0xFFFFFFFFFFFFFFFFFFFFFFFFFFFFFFFFFFFFFFFF AND PUSH2 0x1DF8 DUP4 PUSH2 0xA30 JUMP JUMPDEST PUSH20 0xFFFFFFFFFFFFFFFFFFFFFFFFFFFFFFFFFFFFFFFF AND EQ JUMPDEST JUMPDEST SWAP1 POP SWAP4 SWAP3 POP POP POP JUMP JUMPDEST PUSH0 PUSH1 0x40 MLOAD SWAP1 POP SWAP1 JUMP JUMPDEST PUSH0 DUP1 REVERT JUMPDEST PUSH0 DUP1 REVERT JUMPDEST PUSH0 PUSH32 0xFFFFFFFF00000000000000000000000000000000000000000000000000000000 DUP3 AND SWAP1 POP SWAP2 SWAP1 POP JUMP JUMPDEST PUSH2 0x1E5F DUP2 PUSH2 0x1E2B JUMP JUMPDEST DUP2 EQ PUSH2 0x1E69 JUMPI PUSH0 DUP1 REVERT JUMPDEST POP JUMP JUMPDEST PUSH0 DUP2 CALLDATALOAD SWAP1 POP PUSH2 0x1E7A DUP2 PUSH2 0x1E56 JUMP JUMPDEST SWAP3 SWAP2 POP POP JUMP JUMPDEST PUSH0 PUSH1 0x20 DUP3 DUP5 SUB SLT ISZERO PUSH2 0x1E95 JUMPI PUSH2 0x1E94 PUSH2 0x1E23 JUMP JUMPDEST JUMPDEST PUSH0 PUSH2 0x1EA2 DUP5 DUP3 DUP6 ADD PUSH2 0x1E6C JUMP JUMPDEST SWAP2 POP POP SWAP3 SWAP2 POP POP JUMP JUMPDEST PUSH0 DUP2 ISZERO ISZERO SWAP1 POP SWAP2 SWAP1 POP JUMP JUMPDEST PUSH2 0x1EBF DUP2 PUSH2 0x1EAB JUMP JUMPDEST DUP3 MSTORE POP POP JUMP JUMPDEST PUSH0 PUSH1 0x20 DUP3 ADD SWAP1 POP PUSH2 0x1ED8 PUSH0 DUP4 ADD DUP5 PUSH2 0x1EB6 JUMP JUMPDEST SWAP3 SWAP2 POP POP JUMP JUMPDEST PUSH0 DUP2 MLOAD SWAP1 POP SWAP2 SWAP1 POP JUMP JUMPDEST PUSH0 DUP3 DUP3 MSTORE PUSH1 0x20 DUP3 ADD SWAP1 POP SWAP3 SWAP2 POP POP JUMP JUMPDEST DUP3 DUP2 DUP4 MCOPY PUSH0 DUP4 DUP4 ADD MSTORE POP POP POP JUMP JUMPDEST PUSH0 PUSH1 0x1F NOT PUSH1 0x1F DUP4 ADD AND SWAP1 POP SWAP2 SWAP1 POP JUMP JUMPDEST PUSH0 PUSH2 0x1F20 DUP3 PUSH2 0x1EDE JUMP JUMPDEST PUSH2 0x1F2A DUP2 DUP6 PUSH2 0x1EE8 JUMP JUMPDEST SWAP4 POP PUSH2 0x1F3A DUP2 DUP6 PUSH1 0x20 DUP7 ADD PUSH2 0x1EF8 JUMP JUMPDEST PUSH2 0x1F43 DUP2 PUSH2 0x1F06 JUMP JUMPDEST DUP5 ADD SWAP2 POP POP SWAP3 SWAP2 POP POP JUMP JUMPDEST PUSH0 PUSH1 0x20 DUP3 ADD SWAP1 POP DUP2 DUP2 SUB PUSH0 DUP4 ADD MSTORE PUSH2 0x1F66 DUP2 DUP5 PUSH2 0x1F16 JUMP JUMPDEST SWAP1 POP SWAP3 SWAP2 POP POP JUMP JUMPDEST PUSH0 DUP2 SWAP1 POP SWAP2 SWAP1 POP JUMP JUMPDEST PUSH2 0x1F80 DUP2 PUSH2 0x1F6E JUMP JUMPDEST DUP2 EQ PUSH2 0x1F8A JUMPI PUSH0 DUP1 REVERT JUMPDEST POP JUMP JUMPDEST PUSH0 DUP2 CALLDATALOAD SWAP1 POP PUSH2 0x1F9B DUP2 PUSH2 0x1F77 JUMP JUMPDEST SWAP3 SWAP2 POP POP JUMP JUMPDEST PUSH0 PUSH1 0x20 DUP3 DUP5 SUB SLT ISZERO PUSH2 0x1FB6 JUMPI PUSH2 0x1FB5 PUSH2 0x1E23 JUMP JUMPDEST JUMPDEST PUSH0 PUSH2 0x1FC3 DUP5 DUP3 DUP6 ADD PUSH2 0x1F8D JUMP JUMPDEST SWAP2 POP POP SWAP3 SWAP2 POP POP JUMP JUMPDEST PUSH0 PUSH20 0xFFFFFFFFFFFFFFFFFFFFFFFFFFFFFFFFFFFFFFFF DUP3 AND SWAP1 POP SWAP2 SWAP1 POP JUMP JUMPDEST PUSH0 PUSH2 0x1FF5 DUP3 PUSH2 0x1FCC JUMP JUMPDEST SWAP1 POP SWAP2 SWAP1 POP JUMP JUMPDEST PUSH2 0x2005 DUP2 PUSH2 0x1FEB JUMP JUMPDEST DUP3 MSTORE POP POP JUMP JUMPDEST PUSH0 PUSH1 0x20 DUP3 ADD SWAP1 POP PUSH2 0x201E PUSH0 DUP4 ADD DUP5 PUSH2 0x1FFC JUMP JUMPDEST SWAP3 SWAP2 POP POP JUMP JUMPDEST PUSH2 0x202D DUP2 PUSH2 0x1FEB JUMP JUMPDEST DUP2 EQ PUSH2 0x2037 JUMPI PUSH0 DUP1 REVERT JUMPDEST POP JUMP JUMPDEST PUSH0 DUP2 CALLDATALOAD SWAP1 POP PUSH2 0x2048 DUP2 PUSH2 0x2024 JUMP JUMPDEST SWAP3 SWAP2 POP POP JUMP JUMPDEST PUSH0 DUP1 PUSH1 0x40 DUP4 DUP6 SUB SLT ISZERO PUSH2 0x2064 JUMPI PUSH2 0x2063 PUSH2 0x1E23 JUMP JUMPDEST JUMPDEST PUSH0 PUSH2 0x2071 DUP6 DUP3 DUP7 ADD PUSH2 0x203A JUMP JUMPDEST SWAP3 POP POP PUSH1 0x20 PUSH2 0x2082 DUP6 DUP3 DUP7 ADD PUSH2 0x1F8D JUMP JUMPDEST SWAP2 POP POP SWAP3 POP SWAP3 SWAP1 POP JUMP JUMPDEST PUSH2 0x2095 DUP2 PUSH2 0x1F6E JUMP JUMPDEST DUP3 MSTORE POP POP JUMP JUMPDEST PUSH0 PUSH1 0x20 DUP3 ADD SWAP1 POP PUSH2 0x20AE PUSH0 DUP4 ADD DUP5 PUSH2 0x208C JUMP JUMPDEST SWAP3 SWAP2 POP POP JUMP JUMPDEST PUSH0 DUP1 PUSH0 PUSH1 0x60 DUP5 DUP7 SUB SLT ISZERO PUSH2 0x20CB JUMPI PUSH2 0x20CA PUSH2 0x1E23 JUMP JUMPDEST JUMPDEST PUSH0 PUSH2 0x20D8 DUP7 DUP3 DUP8 ADD PUSH2 0x203A JUMP JUMPDEST SWAP4 POP POP PUSH1 0x20 PUSH2 0x20E9 DUP7 DUP3 DUP8 ADD PUSH2 0x203A JUMP JUMPDEST SWAP3 POP POP PUSH1 0x40 PUSH2 0x20FA DUP7 DUP3 DUP8 ADD PUSH2 0x1F8D JUMP JUMPDEST SWAP2 POP POP SWAP3 POP SWAP3 POP SWAP3 JUMP JUMPDEST PUSH0 PUSH1 0x20 DUP3 DUP5 SUB SLT ISZERO PUSH2 0x2119 JUMPI PUSH2 0x2118 PUSH2 0x1E23 JUMP JUMPDEST JUMPDEST PUSH0 PUSH2 0x2126 DUP5 DUP3 DUP6 ADD PUSH2 0x203A JUMP JUMPDEST SWAP2 POP POP SWAP3 SWAP2 POP POP JUMP JUMPDEST PUSH2 0x2138 DUP2 PUSH2 0x1EAB JUMP JUMPDEST DUP2 EQ PUSH2 0x2142 JUMPI PUSH0 DUP1 REVERT JUMPDEST POP JUMP JUMPDEST PUSH0 DUP2 CALLDATALOAD SWAP1 POP PUSH2 0x2153 DUP2 PUSH2 0x212F JUMP JUMPDEST SWAP3 SWAP2 POP POP JUMP JUMPDEST PUSH0 DUP1 PUSH1 0x40 DUP4 DUP6 SUB SLT ISZERO PUSH2 0x216F JUMPI PUSH2 0x216E PUSH2 0x1E23 JUMP JUMPDEST JUMPDEST PUSH0 PUSH2 0x217C DUP6 DUP3 DUP7 ADD PUSH2 0x203A JUMP JUMPDEST SWAP3 POP POP PUSH1 0x20 PUSH2 0x218D DUP6 DUP3 DUP7 ADD PUSH2 0x2145 JUMP JUMPDEST SWAP2 POP POP SWAP3 POP SWAP3 SWAP1 POP JUMP JUMPDEST PUSH0 DUP1 REVERT JUMPDEST PUSH0 DUP1 REVERT JUMPDEST PUSH32 0x4E487B7100000000000000000000000000000000000000000000000000000000 PUSH0 MSTORE PUSH1 0x41 PUSH1 0x4 MSTORE PUSH1 0x24 PUSH0 REVERT JUMPDEST PUSH2 0x21D5 DUP3 PUSH2 0x1F06 JUMP JUMPDEST DUP2 ADD DUP2 DUP2 LT PUSH8 0xFFFFFFFFFFFFFFFF DUP3 GT OR ISZERO PUSH2 0x21F4 JUMPI PUSH2 0x21F3 PUSH2 0x219F JUMP JUMPDEST JUMPDEST DUP1 PUSH1 0x40 MSTORE POP POP POP JUMP JUMPDEST PUSH0 PUSH2 0x2206 PUSH2 0x1E1A JUMP JUMPDEST SWAP1 POP PUSH2 0x2212 DUP3 DUP3 PUSH2 0x21CC JUMP JUMPDEST SWAP2 SWAP1 POP JUMP JUMPDEST PUSH0 PUSH8 0xFFFFFFFFFFFFFFFF DUP3 GT ISZERO PUSH2 0x2231 JUMPI PUSH2 0x2230 PUSH2 0x219F JUMP JUMPDEST JUMPDEST PUSH2 0x223A DUP3 PUSH2 0x1F06 JUMP JUMPDEST SWAP1 POP PUSH1 0x20 DUP2 ADD SWAP1 POP SWAP2 SWAP1 POP JUMP JUMPDEST DUP3 DUP2 DUP4 CALLDATACOPY PUSH0 DUP4 DUP4 ADD MSTORE POP POP POP JUMP JUMPDEST PUSH0 PUSH2 0x2267 PUSH2 0x2262 DUP5 PUSH2 0x2217 JUMP JUMPDEST PUSH2 0x21FD JUMP JUMPDEST SWAP1 POP DUP3 DUP2 MSTORE PUSH1 0x20 DUP2 ADD DUP5 DUP5 DUP5 ADD GT ISZERO PUSH2 0x2283 JUMPI PUSH2 0x2282 PUSH2 0x219B JUMP JUMPDEST JUMPDEST PUSH2 0x228E DUP5 DUP3 DUP6 PUSH2 0x2247 JUMP JUMPDEST POP SWAP4 SWAP3 POP POP POP JUMP JUMPDEST PUSH0 DUP3 PUSH1 0x1F DUP4 ADD SLT PUSH2 0x22AA JUMPI PUSH2 0x22A9 PUSH2 0x2197 JUMP JUMPDEST JUMPDEST DUP2 CALLDATALOAD PUSH2 0x22BA DUP5 DUP3 PUSH1 0x20 DUP7 ADD PUSH2 0x2255 JUMP JUMPDEST SWAP2 POP POP SWAP3 SWAP2 POP POP JUMP JUMPDEST PUSH0 DUP1 PUSH0 DUP1 PUSH1 0x80 DUP6 DUP8 SUB SLT ISZERO PUSH2 0x22DB JUMPI PUSH2 0x22DA PUSH2 0x1E23 JUMP JUMPDEST JUMPDEST PUSH0 PUSH2 0x22E8 DUP8 DUP3 DUP9 ADD PUSH2 0x203A JUMP JUMPDEST SWAP5 POP POP PUSH1 0x20 PUSH2 0x22F9 DUP8 DUP3 DUP9 ADD PUSH2 0x203A JUMP JUMPDEST SWAP4 POP POP PUSH1 0x40 PUSH2 0x230A DUP8 DUP3 DUP9 ADD PUSH2 0x1F8D JUMP JUMPDEST SWAP3 POP POP PUSH1 0x60 DUP6 ADD CALLDATALOAD PUSH8 0xFFFFFFFFFFFFFFFF DUP2 GT ISZERO PUSH2 0x232B JUMPI PUSH2 0x232A PUSH2 0x1E27 JUMP JUMPDEST JUMPDEST PUSH2 0x2337 DUP8 DUP3 DUP9 ADD PUSH2 0x2296 JUMP JUMPDEST SWAP2 POP POP SWAP3 SWAP6 SWAP2 SWAP5 POP SWAP3 POP JUMP JUMPDEST PUSH0 PUSH8 0xFFFFFFFFFFFFFFFF DUP3 GT ISZERO PUSH2 0x235D JUMPI PUSH2 0x235C PUSH2 0x219F JUMP JUMPDEST JUMPDEST PUSH2 0x2366 DUP3 PUSH2 0x1F06 JUMP JUMPDEST SWAP1 POP PUSH1 0x20 DUP2 ADD SWAP1 POP SWAP2 SWAP1 POP JUMP JUMPDEST PUSH0 PUSH2 0x2385 PUSH2 0x2380 DUP5 PUSH2 0x2343 JUMP JUMPDEST PUSH2 0x21FD JUMP JUMPDEST SWAP1 POP DUP3 DUP2 MSTORE PUSH1 0x20 DUP2 ADD DUP5 DUP5 DUP5 ADD GT ISZERO PUSH2 0x23A1 JUMPI PUSH2 0x23A0 PUSH2 0x219B JUMP JUMPDEST JUMPDEST PUSH2 0x23AC DUP5 DUP3 DUP6 PUSH2 0x2247 JUMP JUMPDEST POP SWAP4 SWAP3 POP POP POP JUMP JUMPDEST PUSH0 DUP3 PUSH1 0x1F DUP4 ADD SLT PUSH2 0x23C8 JUMPI PUSH2 0x23C7 PUSH2 0x2197 JUMP JUMPDEST JUMPDEST DUP2 CALLDATALOAD PUSH2 0x23D8 DUP5 DUP3 PUSH1 0x20 DUP7 ADD PUSH2 0x2373 JUMP JUMPDEST SWAP2 POP POP SWAP3 SWAP2 POP POP JUMP JUMPDEST PUSH0 DUP1 PUSH1 0x40 DUP4 DUP6 SUB SLT ISZERO PUSH2 0x23F7 JUMPI PUSH2 0x23F6 PUSH2 0x1E23 JUMP JUMPDEST JUMPDEST PUSH0 PUSH2 0x2404 DUP6 DUP3 DUP7 ADD PUSH2 0x203A JUMP JUMPDEST SWAP3 POP POP PUSH1 0x20 DUP4 ADD CALLDATALOAD PUSH8 0xFFFFFFFFFFFFFFFF DUP2 GT ISZERO PUSH2 0x2425 JUMPI PUSH2 0x2424 PUSH2 0x1E27 JUMP JUMPDEST JUMPDEST PUSH2 0x2431 DUP6 DUP3 DUP7 ADD PUSH2 0x23B4 JUMP JUMPDEST SWAP2 POP POP SWAP3 POP SWAP3 SWAP1 POP JUMP JUMPDEST PUSH0 DUP1 PUSH1 0x40 DUP4 DUP6 SUB SLT ISZERO PUSH2 0x2451 JUMPI PUSH2 0x2450 PUSH2 0x1E23 JUMP JUMPDEST JUMPDEST PUSH0 PUSH2 0x245E DUP6 DUP3 DUP7 ADD PUSH2 0x203A JUMP JUMPDEST SWAP3 POP POP PUSH1 0x20 PUSH2 0x246F DUP6 DUP3 DUP7 ADD PUSH2 0x203A JUMP JUMPDEST SWAP2 POP POP SWAP3 POP SWAP3 SWAP1 POP JUMP JUMPDEST PUSH32 0x4E487B7100000000000000000000000000000000000000000000000000000000 PUSH0 MSTORE PUSH1 0x22 PUSH1 0x4 MSTORE PUSH1 0x24 PUSH0 REVERT JUMPDEST PUSH0 PUSH1 0x2 DUP3 DIV SWAP1 POP PUSH1 0x1 DUP3 AND DUP1 PUSH2 0x24BD JUMPI PUSH1 0x7F DUP3 AND SWAP2 POP JUMPDEST PUSH1 0x20 DUP3 LT DUP2 SUB PUSH2 0x24D0 JUMPI PUSH2 0x24CF PUSH2 0x2479 JUMP JUMPDEST JUMPDEST POP SWAP2 SWAP1 POP JUMP JUMPDEST PUSH0 PUSH1 0x60 DUP3 ADD SWAP1 POP PUSH2 0x24E9 PUSH0 DUP4 ADD DUP7 PUSH2 0x1FFC JUMP JUMPDEST PUSH2 0x24F6 PUSH1 0x20 DUP4 ADD DUP6 PUSH2 0x208C JUMP JUMPDEST PUSH2 0x2503 PUSH1 0x40 DUP4 ADD DUP5 PUSH2 0x1FFC JUMP JUMPDEST SWAP5 SWAP4 POP POP POP POP JUMP JUMPDEST PUSH0 PUSH1 0x40 DUP3 ADD SWAP1 POP PUSH2 0x251E PUSH0 DUP4 ADD DUP6 PUSH2 0x1FFC JUMP JUMPDEST PUSH2 0x252B PUSH1 0x20 DUP4 ADD DUP5 PUSH2 0x208C JUMP JUMPDEST SWAP4 SWAP3 POP POP POP JUMP JUMPDEST PUSH32 0x4E487B7100000000000000000000000000000000000000000000000000000000 PUSH0 MSTORE PUSH1 0x32 PUSH1 0x4 MSTORE PUSH1 0x24 PUSH0 REVERT JUMPDEST PUSH32 0x4E487B7100000000000000000000000000000000000000000000000000000000 PUSH0 MSTORE PUSH1 0x11 PUSH1 0x4 MSTORE PUSH1 0x24 PUSH0 REVERT JUMPDEST PUSH0 PUSH2 0x2596 DUP3 PUSH2 0x1F6E JUMP JUMPDEST SWAP2 POP PUSH32 0xFFFFFFFFFFFFFFFFFFFFFFFFFFFFFFFFFFFFFFFFFFFFFFFFFFFFFFFFFFFFFFFF DUP3 SUB PUSH2 0x25C8 JUMPI PUSH2 0x25C7 PUSH2 0x255F JUMP JUMPDEST JUMPDEST PUSH1 0x1 DUP3 ADD SWAP1 POP SWAP2 SWAP1 POP JUMP JUMPDEST PUSH32 0x49276D20736F7272792077652072656163686564207468652063617000000000 PUSH0 DUP3 ADD MSTORE POP JUMP JUMPDEST PUSH0 PUSH2 0x2607 PUSH1 0x1C DUP4 PUSH2 0x1EE8 JUMP JUMPDEST SWAP2 POP PUSH2 0x2612 DUP3 PUSH2 0x25D3 JUMP JUMPDEST PUSH1 0x20 DUP3 ADD SWAP1 POP SWAP2 SWAP1 POP JUMP JUMPDEST PUSH0 PUSH1 0x20 DUP3 ADD SWAP1 POP DUP2 DUP2 SUB PUSH0 DUP4 ADD MSTORE PUSH2 0x2634 DUP2 PUSH2 0x25FB JUMP JUMPDEST SWAP1 POP SWAP2 SWAP1 POP JUMP JUMPDEST PUSH0 DUP2 MLOAD SWAP1 POP SWAP2 SWAP1 POP JUMP JUMPDEST PUSH0 DUP3 DUP3 MSTORE PUSH1 0x20 DUP3 ADD SWAP1 POP SWAP3 SWAP2 POP POP JUMP JUMPDEST PUSH0 PUSH2 0x265F DUP3 PUSH2 0x263B JUMP JUMPDEST PUSH2 0x2669 DUP2 DUP6 PUSH2 0x2645 JUMP JUMPDEST SWAP4 POP PUSH2 0x2679 DUP2 DUP6 PUSH1 0x20 DUP7 ADD PUSH2 0x1EF8 JUMP JUMPDEST PUSH2 0x2682 DUP2 PUSH2 0x1F06 JUMP JUMPDEST DUP5 ADD SWAP2 POP POP SWAP3 SWAP2 POP POP JUMP JUMPDEST PUSH0 PUSH1 0x80 DUP3 ADD SWAP1 POP PUSH2 0x26A0 PUSH0 DUP4 ADD DUP8 PUSH2 0x1FFC JUMP JUMPDEST PUSH2 0x26AD PUSH1 0x20 DUP4 ADD DUP7 PUSH2 0x1FFC JUMP JUMPDEST PUSH2 0x26BA PUSH1 0x40 DUP4 ADD DUP6 PUSH2 0x208C JUMP JUMPDEST DUP2 DUP2 SUB PUSH1 0x60 DUP4 ADD MSTORE PUSH2 0x26CC DUP2 DUP5 PUSH2 0x2655 JUMP JUMPDEST SWAP1 POP SWAP6 SWAP5 POP POP POP POP POP JUMP JUMPDEST PUSH0 DUP2 MLOAD SWAP1 POP PUSH2 0x26E5 DUP2 PUSH2 0x1E56 JUMP JUMPDEST SWAP3 SWAP2 POP POP JUMP JUMPDEST PUSH0 PUSH1 0x20 DUP3 DUP5 SUB SLT ISZERO PUSH2 0x2700 JUMPI PUSH2 0x26FF PUSH2 0x1E23 JUMP JUMPDEST JUMPDEST PUSH0 PUSH2 0x270D DUP5 DUP3 DUP6 ADD PUSH2 0x26D7 JUMP JUMPDEST SWAP2 POP POP SWAP3 SWAP2 POP POP JUMP JUMPDEST PUSH0 DUP2 SWAP1 POP SWAP3 SWAP2 POP POP JUMP JUMPDEST PUSH0 PUSH2 0x272A DUP3 PUSH2 0x1EDE JUMP JUMPDEST PUSH2 0x2734 DUP2 DUP6 PUSH2 0x2716 JUMP JUMPDEST SWAP4 POP PUSH2 0x2744 DUP2 DUP6 PUSH1 0x20 DUP7 ADD PUSH2 0x1EF8 JUMP JUMPDEST DUP1 DUP5 ADD SWAP2 POP POP SWAP3 SWAP2 POP POP JUMP JUMPDEST PUSH0 PUSH2 0x275B DUP3 DUP6 PUSH2 0x2720 JUMP JUMPDEST SWAP2 POP PUSH2 0x2767 DUP3 DUP5 PUSH2 0x2720 JUMP JUMPDEST SWAP2 POP DUP2 SWAP1 POP SWAP4 SWAP3 POP POP POP JUMP JUMPDEST PUSH0 DUP2 SWAP1 POP DUP2 PUSH0 MSTORE PUSH1 0x20 PUSH0 KECCAK256 SWAP1 POP SWAP2 SWAP1 POP JUMP JUMPDEST PUSH0 PUSH1 0x20 PUSH1 0x1F DUP4 ADD DIV SWAP1 POP SWAP2 SWAP1 POP JUMP JUMPDEST PUSH0 DUP3 DUP3 SHL SWAP1 POP SWAP3 SWAP2 POP POP JUMP JUMPDEST PUSH0 PUSH1 0x8 DUP4 MUL PUSH2 0x27CF PUSH32 0xFFFFFFFFFFFFFFFFFFFFFFFFFFFFFFFFFFFFFFFFFFFFFFFFFFFFFFFFFFFFFFFF DUP3 PUSH2 0x2794 JUMP JUMPDEST PUSH2 0x27D9 DUP7 DUP4 PUSH2 0x2794 JUMP JUMPDEST SWAP6 POP DUP1 NOT DUP5 AND SWAP4 POP DUP1 DUP7 AND DUP5 OR SWAP3 POP POP POP SWAP4 SWAP3 POP POP POP JUMP JUMPDEST PUSH0 DUP2 SWAP1 POP SWAP2 SWAP1 POP JUMP JUMPDEST PUSH0 PUSH2 0x2814 PUSH2 0x280F PUSH2 0x280A DUP5 PUSH2 0x1F6E JUMP JUMPDEST PUSH2 0x27F1 JUMP JUMPDEST PUSH2 0x1F6E JUMP JUMPDEST SWAP1 POP SWAP2 SWAP1 POP JUMP JUMPDEST PUSH0 DUP2 SWAP1 POP SWAP2 SWAP1 POP JUMP JUMPDEST PUSH2 0x282D DUP4 PUSH2 0x27FA JUMP JUMPDEST PUSH2 0x2841 PUSH2 0x2839 DUP3 PUSH2 0x281B JUMP JUMPDEST DUP5 DUP5 SLOAD PUSH2 0x27A0 JUMP JUMPDEST DUP3 SSTORE POP POP POP POP JUMP JUMPDEST PUSH0 SWAP1 JUMP JUMPDEST PUSH2 0x2855 PUSH2 0x2849 JUMP JUMPDEST PUSH2 0x2860 DUP2 DUP5 DUP5 PUSH2 0x2824 JUMP JUMPDEST POP POP POP JUMP JUMPDEST JUMPDEST DUP2 DUP2 LT ISZERO PUSH2 0x2883 JUMPI PUSH2 0x2878 PUSH0 DUP3 PUSH2 0x284D JUMP JUMPDEST PUSH1 0x1 DUP2 ADD SWAP1 POP PUSH2 0x2866 JUMP JUMPDEST POP POP JUMP JUMPDEST PUSH1 0x1F DUP3 GT ISZERO PUSH2 0x28C8 JUMPI PUSH2 0x2899 DUP2 PUSH2 0x2773 JUMP JUMPDEST PUSH2 0x28A2 DUP5 PUSH2 0x2785 JUMP JUMPDEST DUP2 ADD PUSH1 0x20 DUP6 LT ISZERO PUSH2 0x28B1 JUMPI DUP2 SWAP1 POP JUMPDEST PUSH2 0x28C5 PUSH2 0x28BD DUP6 PUSH2 0x2785 JUMP JUMPDEST DUP4 ADD DUP3 PUSH2 0x2865 JUMP JUMPDEST POP POP JUMPDEST POP POP POP JUMP JUMPDEST PUSH0 DUP3 DUP3 SHR SWAP1 POP SWAP3 SWAP2 POP POP JUMP JUMPDEST PUSH0 PUSH2 0x28E8 PUSH0 NOT DUP5 PUSH1 0x8 MUL PUSH2 0x28CD JUMP JUMPDEST NOT DUP1 DUP4 AND SWAP2 POP POP SWAP3 SWAP2 POP POP JUMP JUMPDEST PUSH0 PUSH2 0x2900 DUP4 DUP4 PUSH2 0x28D9 JUMP JUMPDEST SWAP2 POP DUP3 PUSH1 0x2 MUL DUP3 OR SWAP1 POP SWAP3 SWAP2 POP POP JUMP JUMPDEST PUSH2 0x2919 DUP3 PUSH2 0x1EDE JUMP JUMPDEST PUSH8 0xFFFFFFFFFFFFFFFF DUP2 GT ISZERO PUSH2 0x2932 JUMPI PUSH2 0x2931 PUSH2 0x219F JUMP JUMPDEST JUMPDEST PUSH2 0x293C DUP3 SLOAD PUSH2 0x24A6 JUMP JUMPDEST PUSH2 0x2947 DUP3 DUP3 DUP6 PUSH2 0x2887 JUMP JUMPDEST PUSH0 PUSH1 0x20 SWAP1 POP PUSH1 0x1F DUP4 GT PUSH1 0x1 DUP2 EQ PUSH2 0x2978 JUMPI PUSH0 DUP5 ISZERO PUSH2 0x2966 JUMPI DUP3 DUP8 ADD MLOAD SWAP1 POP JUMPDEST PUSH2 0x2970 DUP6 DUP3 PUSH2 0x28F5 JUMP JUMPDEST DUP7 SSTORE POP PUSH2 0x29D7 JUMP JUMPDEST PUSH1 0x1F NOT DUP5 AND PUSH2 0x2986 DUP7 PUSH2 0x2773 JUMP JUMPDEST PUSH0 JUMPDEST DUP3 DUP2 LT ISZERO PUSH2 0x29AD JUMPI DUP5 DUP10 ADD MLOAD DUP3 SSTORE PUSH1 0x1 DUP3 ADD SWAP2 POP PUSH1 0x20 DUP6 ADD SWAP5 POP PUSH1 0x20 DUP2 ADD SWAP1 POP PUSH2 0x2988 JUMP JUMPDEST DUP7 DUP4 LT ISZERO PUSH2 0x29CA JUMPI DUP5 DUP10 ADD MLOAD PUSH2 0x29C6 PUSH1 0x1F DUP10 AND DUP3 PUSH2 0x28D9 JUMP JUMPDEST DUP4 SSTORE POP JUMPDEST PUSH1 0x1 PUSH1 0x2 DUP9 MUL ADD DUP9 SSTORE POP POP POP JUMPDEST POP POP POP POP POP POP JUMP JUMPDEST PUSH0 PUSH2 0x29E9 DUP3 PUSH2 0x1F6E JUMP JUMPDEST SWAP2 POP PUSH2 0x29F4 DUP4 PUSH2 0x1F6E JUMP JUMPDEST SWAP3 POP DUP3 DUP3 SUB SWAP1 POP DUP2 DUP2 GT ISZERO PUSH2 0x2A0C JUMPI PUSH2 0x2A0B PUSH2 0x255F JUMP JUMPDEST JUMPDEST SWAP3 SWAP2 POP POP JUMP JUMPDEST PUSH32 0x4E487B7100000000000000000000000000000000000000000000000000000000 PUSH0 MSTORE PUSH1 0x31 PUSH1 0x4 MSTORE PUSH1 0x24 PUSH0 REVERT JUMPDEST PUSH32 0x4E487B7100000000000000000000000000000000000000000000000000000000 PUSH0 MSTORE PUSH1 0x12 PUSH1 0x4 MSTORE PUSH1 0x24 PUSH0 REVERT INVALID LOG2 PUSH5 0x6970667358 0x22 SLT KECCAK256 AND SWAP3 0xAC SWAP15 0x4F 0x4E PUSH17 0xE0EA6539F73D9C5F9149D24000C97DB771 DUP16 PUSH3 0xFA853E 0xB0 0x2F 0xB9 PUSH5 0x736F6C6343 STOP ADDMOD BYTE STOP CALLER "
				},
				"gasEstimates": {
					"creation": {
						"codeDepositCost": "2182800",
						"executionCost": "infinite",
						"totalCost": "infinite"
					},
					"external": {
						"approve(address,uint256)": "infinite",
						"balanceOf(address)": "infinite",
						"getApproved(uint256)": "infinite",
						"isApprovedForAll(address,address)": "infinite",
						"name()": "infinite",
						"ownerOf(uint256)": "infinite",
						"safeMint(address,string)": "infinite",
						"safeTransferFrom(address,address,uint256)": "infinite",
						"safeTransferFrom(address,address,uint256,bytes)": "infinite",
						"setApprovalForAll(address,bool)": "infinite",
						"supportsInterface(bytes4)": "1011",
						"symbol()": "infinite",
						"tokenByIndex(uint256)": "infinite",
						"tokenOfOwnerByIndex(address,uint256)": "infinite",
						"tokenURI(uint256)": "infinite",
						"totalSupply()": "2463",
						"transferFrom(address,address,uint256)": "infinite"
					},
					"internal": {
						"_increaseBalance(address,uint128)": "infinite",
						"_update(address,uint256,address)": "infinite"
					}
				},
				"methodIdentifiers": {
					"approve(address,uint256)": "095ea7b3",
					"balanceOf(address)": "70a08231",
					"getApproved(uint256)": "081812fc",
					"isApprovedForAll(address,address)": "e985e9c5",
					"name()": "06fdde03",
					"ownerOf(uint256)": "6352211e",
					"safeMint(address,string)": "d204c45e",
					"safeTransferFrom(address,address,uint256)": "42842e0e",
					"safeTransferFrom(address,address,uint256,bytes)": "b88d4fde",
					"setApprovalForAll(address,bool)": "a22cb465",
					"supportsInterface(bytes4)": "01ffc9a7",
					"symbol()": "95d89b41",
					"tokenByIndex(uint256)": "4f6ccce7",
					"tokenOfOwnerByIndex(address,uint256)": "2f745c59",
					"tokenURI(uint256)": "c87b56dd",
					"totalSupply()": "18160ddd",
					"transferFrom(address,address,uint256)": "23b872dd"
				}
			},
			"storageLayout": {
				"storage": [
					{
						"astId": 275,
						"contract": "contract_TalentKeyNFT.sol:TalentKey",
						"label": "_name",
						"offset": 0,
						"slot": "0",
						"type": "t_string_storage"
					},
					{
						"astId": 277,
						"contract": "contract_TalentKeyNFT.sol:TalentKey",
						"label": "_symbol",
						"offset": 0,
						"slot": "1",
						"type": "t_string_storage"
					},
					{
						"astId": 281,
						"contract": "contract_TalentKeyNFT.sol:TalentKey",
						"label": "_owners",
						"offset": 0,
						"slot": "2",
						"type": "t_mapping(t_uint256,t_address)"
					},
					{
						"astId": 285,
						"contract": "contract_TalentKeyNFT.sol:TalentKey",
						"label": "_balances",
						"offset": 0,
						"slot": "3",
						"type": "t_mapping(t_address,t_uint256)"
					},
					{
						"astId": 289,
						"contract": "contract_TalentKeyNFT.sol:TalentKey",
						"label": "_tokenApprovals",
						"offset": 0,
						"slot": "4",
						"type": "t_mapping(t_uint256,t_address)"
					},
					{
						"astId": 295,
						"contract": "contract_TalentKeyNFT.sol:TalentKey",
						"label": "_operatorApprovals",
						"offset": 0,
						"slot": "5",
						"type": "t_mapping(t_address,t_mapping(t_address,t_bool))"
					},
					{
						"astId": 1405,
						"contract": "contract_TalentKeyNFT.sol:TalentKey",
						"label": "_ownedTokens",
						"offset": 0,
						"slot": "6",
						"type": "t_mapping(t_address,t_mapping(t_uint256,t_uint256))"
					},
					{
						"astId": 1409,
						"contract": "contract_TalentKeyNFT.sol:TalentKey",
						"label": "_ownedTokensIndex",
						"offset": 0,
						"slot": "7",
						"type": "t_mapping(t_uint256,t_uint256)"
					},
					{
						"astId": 1412,
						"contract": "contract_TalentKeyNFT.sol:TalentKey",
						"label": "_allTokens",
						"offset": 0,
						"slot": "8",
						"type": "t_array(t_uint256)dyn_storage"
					},
					{
						"astId": 1416,
						"contract": "contract_TalentKeyNFT.sol:TalentKey",
						"label": "_allTokensIndex",
						"offset": 0,
						"slot": "9",
						"type": "t_mapping(t_uint256,t_uint256)"
					},
					{
						"astId": 1798,
						"contract": "contract_TalentKeyNFT.sol:TalentKey",
						"label": "_tokenURIs",
						"offset": 0,
						"slot": "10",
						"type": "t_mapping(t_uint256,t_string_storage)"
					},
					{
						"astId": 3450,
						"contract": "contract_TalentKeyNFT.sol:TalentKey",
						"label": "_nextTokenId",
						"offset": 0,
						"slot": "11",
						"type": "t_uint256"
					},
					{
						"astId": 3457,
						"contract": "contract_TalentKeyNFT.sol:TalentKey",
						"label": "_tokenIdCounter",
						"offset": 0,
						"slot": "12",
						"type": "t_struct(Counter)5_storage"
					},
					{
						"astId": 3460,
						"contract": "contract_TalentKeyNFT.sol:TalentKey",
						"label": "MAX_SUPPLY",
						"offset": 0,
						"slot": "13",
						"type": "t_uint256"
					}
				],
				"types": {
					"t_address": {
						"encoding": "inplace",
						"label": "address",
						"numberOfBytes": "20"
					},
					"t_array(t_uint256)dyn_storage": {
						"base": "t_uint256",
						"encoding": "dynamic_array",
						"label": "uint256[]",
						"numberOfBytes": "32"
					},
					"t_bool": {
						"encoding": "inplace",
						"label": "bool",
						"numberOfBytes": "1"
					},
					"t_mapping(t_address,t_bool)": {
						"encoding": "mapping",
						"key": "t_address",
						"label": "mapping(address => bool)",
						"numberOfBytes": "32",
						"value": "t_bool"
					},
					"t_mapping(t_address,t_mapping(t_address,t_bool))": {
						"encoding": "mapping",
						"key": "t_address",
						"label": "mapping(address => mapping(address => bool))",
						"numberOfBytes": "32",
						"value": "t_mapping(t_address,t_bool)"
					},
					"t_mapping(t_address,t_mapping(t_uint256,t_uint256))": {
						"encoding": "mapping",
						"key": "t_address",
						"label": "mapping(address => mapping(uint256 => uint256))",
						"numberOfBytes": "32",
						"value": "t_mapping(t_uint256,t_uint256)"
					},
					"t_mapping(t_address,t_uint256)": {
						"encoding": "mapping",
						"key": "t_address",
						"label": "mapping(address => uint256)",
						"numberOfBytes": "32",
						"value": "t_uint256"
					},
					"t_mapping(t_uint256,t_address)": {
						"encoding": "mapping",
						"key": "t_uint256",
						"label": "mapping(uint256 => address)",
						"numberOfBytes": "32",
						"value": "t_address"
					},
					"t_mapping(t_uint256,t_string_storage)": {
						"encoding": "mapping",
						"key": "t_uint256",
						"label": "mapping(uint256 => string)",
						"numberOfBytes": "32",
						"value": "t_string_storage"
					},
					"t_mapping(t_uint256,t_uint256)": {
						"encoding": "mapping",
						"key": "t_uint256",
						"label": "mapping(uint256 => uint256)",
						"numberOfBytes": "32",
						"value": "t_uint256"
					},
					"t_string_storage": {
						"encoding": "bytes",
						"label": "string",
						"numberOfBytes": "32"
					},
					"t_struct(Counter)5_storage": {
						"encoding": "inplace",
						"label": "struct Counters.Counter",
						"members": [
							{
								"astId": 4,
								"contract": "contract_TalentKeyNFT.sol:TalentKey",
								"label": "_value",
								"offset": 0,
								"slot": "0",
								"type": "t_uint256"
							}
						],
						"numberOfBytes": "32"
					},
					"t_uint256": {
						"encoding": "inplace",
						"label": "uint256",
						"numberOfBytes": "32"
					}
				}
			},
			"userdoc": {
				"kind": "user",
				"methods": {},
				"version": 1
			}
		}
	}
}